{
  "contractName": "BankLoan",
  "abi": [
    {
      "inputs": [
        {
          "internalType": "address",
          "name": "_identitySC",
          "type": "address"
        }
      ],
      "stateMutability": "nonpayable",
      "type": "constructor"
    },
    {
      "anonymous": false,
      "inputs": [
        {
          "indexed": false,
          "internalType": "uint256",
          "name": "loanId",
          "type": "uint256"
        },
        {
          "indexed": false,
          "internalType": "uint256",
          "name": "amount",
          "type": "uint256"
        },
        {
          "indexed": false,
          "internalType": "uint256",
          "name": "months",
          "type": "uint256"
        },
        {
          "indexed": false,
          "internalType": "uint256",
          "name": "interest",
          "type": "uint256"
        },
        {
          "indexed": false,
          "internalType": "string",
          "name": "planId",
          "type": "string"
        },
        {
          "indexed": false,
          "internalType": "enum BankLoan.LoanState",
          "name": "state",
          "type": "uint8"
        },
        {
          "indexed": false,
          "internalType": "address",
          "name": "user",
          "type": "address"
        }
      ],
      "name": "loanRequest",
      "type": "event"
    },
    {
      "inputs": [
        {
          "internalType": "uint256",
          "name": "_amount",
          "type": "uint256"
        },
        {
          "internalType": "uint256",
          "name": "_months",
          "type": "uint256"
        },
        {
          "internalType": "uint256",
          "name": "_interest",
          "type": "uint256"
        },
        {
          "internalType": "string",
          "name": "_planId",
          "type": "string"
        },
        {
          "internalType": "address",
          "name": "_user",
          "type": "address"
        }
      ],
      "name": "applyLoan",
      "outputs": [],
      "stateMutability": "nonpayable",
      "type": "function"
    },
    {
      "inputs": [
        {
          "internalType": "uint256",
          "name": "_loanId",
          "type": "uint256"
        }
      ],
      "name": "signByUser",
      "outputs": [],
      "stateMutability": "nonpayable",
      "type": "function"
    },
    {
      "inputs": [
        {
          "internalType": "uint256",
          "name": "_loanId",
          "type": "uint256"
        }
      ],
      "name": "approveLoan",
      "outputs": [],
      "stateMutability": "nonpayable",
      "type": "function"
    },
    {
      "inputs": [
        {
          "internalType": "uint256",
          "name": "_loanId",
          "type": "uint256"
        }
      ],
      "name": "rejectLoan",
      "outputs": [],
      "stateMutability": "nonpayable",
      "type": "function"
    },
    {
      "inputs": [
        {
          "internalType": "uint256",
          "name": "_loanId",
          "type": "uint256"
        }
      ],
      "name": "confirmTokenTrasferToUser",
      "outputs": [],
      "stateMutability": "nonpayable",
      "type": "function"
    },
    {
      "inputs": [
        {
          "internalType": "uint256",
          "name": "_loanId",
          "type": "uint256"
        }
      ],
      "name": "confirmTokenTrasferToBorrower",
      "outputs": [],
      "stateMutability": "nonpayable",
      "type": "function"
    },
    {
      "inputs": [
        {
          "internalType": "uint256",
          "name": "_loanId",
          "type": "uint256"
        }
      ],
      "name": "closeLoan",
      "outputs": [],
      "stateMutability": "nonpayable",
      "type": "function"
    },
    {
      "inputs": [
        {
          "internalType": "uint256",
          "name": "_loanId",
          "type": "uint256"
        }
      ],
      "name": "markAsDefaulted",
      "outputs": [],
      "stateMutability": "nonpayable",
      "type": "function"
    },
    {
      "inputs": [
        {
          "internalType": "uint256",
          "name": "_loanId",
          "type": "uint256"
        }
      ],
      "name": "requestClaim",
      "outputs": [],
      "stateMutability": "nonpayable",
      "type": "function"
    },
    {
      "inputs": [
        {
          "internalType": "uint256",
          "name": "_loanId",
          "type": "uint256"
        }
      ],
      "name": "confirmRecivingOfClaim",
      "outputs": [],
      "stateMutability": "nonpayable",
      "type": "function"
    },
    {
      "inputs": [
        {
          "internalType": "uint256",
          "name": "_loanId",
          "type": "uint256"
        }
      ],
      "name": "viewLoan",
      "outputs": [
        {
          "components": [
            {
              "internalType": "uint256",
              "name": "loanId",
              "type": "uint256"
            },
            {
              "internalType": "uint256",
              "name": "amount",
              "type": "uint256"
            },
            {
              "internalType": "uint256",
              "name": "months",
              "type": "uint256"
            },
            {
              "internalType": "uint256",
              "name": "interest",
              "type": "uint256"
            },
            {
              "internalType": "string",
              "name": "planId",
              "type": "string"
            },
            {
              "internalType": "enum BankLoan.LoanState",
              "name": "state",
              "type": "uint8"
            },
            {
              "internalType": "address",
              "name": "user",
              "type": "address"
            }
          ],
          "internalType": "struct BankLoan.Loan",
          "name": "loan",
          "type": "tuple"
        }
      ],
      "stateMutability": "view",
      "type": "function",
      "constant": true
    },
    {
      "inputs": [],
      "name": "getLoans",
      "outputs": [
        {
          "components": [
            {
              "internalType": "uint256",
              "name": "loanId",
              "type": "uint256"
            },
            {
              "internalType": "uint256",
              "name": "amount",
              "type": "uint256"
            },
            {
              "internalType": "uint256",
              "name": "months",
              "type": "uint256"
            },
            {
              "internalType": "uint256",
              "name": "interest",
              "type": "uint256"
            },
            {
              "internalType": "string",
              "name": "planId",
              "type": "string"
            },
            {
              "internalType": "enum BankLoan.LoanState",
              "name": "state",
              "type": "uint8"
            },
            {
              "internalType": "address",
              "name": "user",
              "type": "address"
            }
          ],
          "internalType": "struct BankLoan.Loan[]",
          "name": "",
          "type": "tuple[]"
        }
      ],
      "stateMutability": "view",
      "type": "function",
      "constant": true
    }
  ],
  "bytecode": "0x60806040523480156200001157600080fd5b5060405162003487380380620034878339818101604052810190620000379190620000d6565b336000806101000a81548173ffffffffffffffffffffffffffffffffffffffff021916908373ffffffffffffffffffffffffffffffffffffffff16021790555080600160006101000a81548173ffffffffffffffffffffffffffffffffffffffff021916908373ffffffffffffffffffffffffffffffffffffffff1602179055505062000150565b600081519050620000d08162000136565b92915050565b600060208284031215620000e957600080fd5b6000620000f984828501620000bf565b91505092915050565b60006200010f8262000116565b9050919050565b600073ffffffffffffffffffffffffffffffffffffffff82169050919050565b620001418162000102565b81146200014d57600080fd5b50565b61332780620001606000396000f3fe608060405234801561001057600080fd5b50600436106100b45760003560e01c8063aadc1ac111610071578063aadc1ac114610163578063b2ab28f51461017f578063d028aa621461019b578063d05951a0146101cb578063d6e67ffb146101e7578063e00b288a14610203576100b4565b8063023d1c10146100b957806347a91557146100d55780635d29cb98146100f15780639daafc6c1461010d578063a874302214610129578063aa4a871114610145575b600080fd5b6100d360048036038101906100ce9190612ad8565b61021f565b005b6100ef60048036038101906100ea9190612ad8565b610582565b005b61010b60048036038101906101069190612ad8565b6108e5565b005b61012760048036038101906101229190612b01565b610c48565b005b610143600480360381019061013e9190612ad8565b610f40565b005b61014d6112a3565b60405161015a9190612e5b565b60405180910390f35b61017d60048036038101906101789190612ad8565b611499565b005b61019960048036038101906101949190612ad8565b6117fb565b005b6101b560048036038101906101b09190612ad8565b611c3a565b6040516101c29190612e9d565b60405180910390f35b6101e560048036038101906101e09190612ad8565b611eb1565b005b61020160048036038101906101fc9190612ad8565b612214565b005b61021d60048036038101906102189190612ad8565b612577565b005b60008054906101000a900473ffffffffffffffffffffffffffffffffffffffff1673ffffffffffffffffffffffffffffffffffffffff163373ffffffffffffffffffffffffffffffffffffffff161461027757600080fd5b806000805b6002805490508110156102f85782600282815481106102c4577f4e487b7100000000000000000000000000000000000000000000000000000000600052603260045260246000fd5b90600052602060002090600602016000015414156102e557600191506102f8565b80806102f090613159565b91505061027c565b508061030357600080fd5b8260046000805b600280549050811015610459578360028281548110610352577f4e487b7100000000000000000000000000000000000000000000000000000000600052603260045260246000fd5b90600052602060002090600602016000015414801561043857508260098111156103a5577f4e487b7100000000000000000000000000000000000000000000000000000000600052602160045260246000fd5b600282815481106103df577f4e487b7100000000000000000000000000000000000000000000000000000000600052603260045260246000fd5b906000526020600020906006020160050160009054906101000a900460ff166009811115610436577f4e487b7100000000000000000000000000000000000000000000000000000000600052602160045260246000fd5b145b156104465760019150610459565b808061045190613159565b91505061030a565b508061046457600080fd5b60005b6002805490508110156105795786600282815481106104af577f4e487b7100000000000000000000000000000000000000000000000000000000600052603260045260246000fd5b906000526020600020906006020160000154141561056657600460028281548110610503577f4e487b7100000000000000000000000000000000000000000000000000000000600052603260045260246000fd5b906000526020600020906006020160050160006101000a81548160ff0219169083600981111561055c577f4e487b7100000000000000000000000000000000000000000000000000000000600052602160045260246000fd5b0217905550610579565b808061057190613159565b915050610467565b50505050505050565b60008054906101000a900473ffffffffffffffffffffffffffffffffffffffff1673ffffffffffffffffffffffffffffffffffffffff163373ffffffffffffffffffffffffffffffffffffffff16146105da57600080fd5b806000805b60028054905081101561065b578260028281548110610627577f4e487b7100000000000000000000000000000000000000000000000000000000600052603260045260246000fd5b9060005260206000209060060201600001541415610648576001915061065b565b808061065390613159565b9150506105df565b508061066657600080fd5b8260086000805b6002805490508110156107bc5783600282815481106106b5577f4e487b7100000000000000000000000000000000000000000000000000000000600052603260045260246000fd5b90600052602060002090600602016000015414801561079b5750826009811115610708577f4e487b7100000000000000000000000000000000000000000000000000000000600052602160045260246000fd5b60028281548110610742577f4e487b7100000000000000000000000000000000000000000000000000000000600052603260045260246000fd5b906000526020600020906006020160050160009054906101000a900460ff166009811115610799577f4e487b7100000000000000000000000000000000000000000000000000000000600052602160045260246000fd5b145b156107a957600191506107bc565b80806107b490613159565b91505061066d565b50806107c757600080fd5b60005b6002805490508110156108dc578660028281548110610812577f4e487b7100000000000000000000000000000000000000000000000000000000600052603260045260246000fd5b90600052602060002090600602016000015414156108c957600960028281548110610866577f4e487b7100000000000000000000000000000000000000000000000000000000600052603260045260246000fd5b906000526020600020906006020160050160006101000a81548160ff021916908360098111156108bf577f4e487b7100000000000000000000000000000000000000000000000000000000600052602160045260246000fd5b02179055506108dc565b80806108d490613159565b9150506107ca565b50505050505050565b60008054906101000a900473ffffffffffffffffffffffffffffffffffffffff1673ffffffffffffffffffffffffffffffffffffffff163373ffffffffffffffffffffffffffffffffffffffff161461093d57600080fd5b806000805b6002805490508110156109be57826002828154811061098a577f4e487b7100000000000000000000000000000000000000000000000000000000600052603260045260246000fd5b90600052602060002090600602016000015414156109ab57600191506109be565b80806109b690613159565b915050610942565b50806109c957600080fd5b8260016000805b600280549050811015610b1f578360028281548110610a18577f4e487b7100000000000000000000000000000000000000000000000000000000600052603260045260246000fd5b906000526020600020906006020160000154148015610afe5750826009811115610a6b577f4e487b7100000000000000000000000000000000000000000000000000000000600052602160045260246000fd5b60028281548110610aa5577f4e487b7100000000000000000000000000000000000000000000000000000000600052603260045260246000fd5b906000526020600020906006020160050160009054906101000a900460ff166009811115610afc577f4e487b7100000000000000000000000000000000000000000000000000000000600052602160045260246000fd5b145b15610b0c5760019150610b1f565b8080610b1790613159565b9150506109d0565b5080610b2a57600080fd5b60005b600280549050811015610c3f578660028281548110610b75577f4e487b7100000000000000000000000000000000000000000000000000000000600052603260045260246000fd5b9060005260206000209060060201600001541415610c2c57600360028281548110610bc9577f4e487b7100000000000000000000000000000000000000000000000000000000600052603260045260246000fd5b906000526020600020906006020160050160006101000a81548160ff02191690836009811115610c22577f4e487b7100000000000000000000000000000000000000000000000000000000600052602160045260246000fd5b0217905550610c3f565b8080610c3790613159565b915050610b2d565b50505050505050565b600160009054906101000a900473ffffffffffffffffffffffffffffffffffffffff1673ffffffffffffffffffffffffffffffffffffffff16631480a9cb336040518263ffffffff1660e01b8152600401610ca39190612e40565b60206040518083038186803b158015610cbb57600080fd5b505afa158015610ccf573d6000803e3d6000fd5b505050506040513d601f19601f82011682018060405250810190610cf39190612aaf565b610d32576040517f08c379a0000000000000000000000000000000000000000000000000000000008152600401610d2990612e7d565b60405180910390fd5b60006040518060e001604052806001600280549050610d519190612ff1565b815260200187815260200186815260200185815260200184815260200160006009811115610da8577f4e487b7100000000000000000000000000000000000000000000000000000000600052602160045260246000fd5b81526020013373ffffffffffffffffffffffffffffffffffffffff1681525090506002819080600181540180825580915050600190039060005260206000209060060201600090919091909150600082015181600001556020820151816001015560408201518160020155606082015181600301556080820151816004019080519060200190610e399291906128da565b5060a08201518160050160006101000a81548160ff02191690836009811115610e8b577f4e487b7100000000000000000000000000000000000000000000000000000000600052602160045260246000fd5b021790555060c08201518160050160016101000a81548173ffffffffffffffffffffffffffffffffffffffff021916908373ffffffffffffffffffffffffffffffffffffffff16021790555050507f408c30a44832049595431326a99b29b87712e11b2049c9ad1ea296ba088dd47c816000015182602001518360400151846060015185608001518660a001518760c00151604051610f309796959493929190612ebf565b60405180910390a1505050505050565b60008054906101000a900473ffffffffffffffffffffffffffffffffffffffff1673ffffffffffffffffffffffffffffffffffffffff163373ffffffffffffffffffffffffffffffffffffffff1614610f9857600080fd5b806000805b600280549050811015611019578260028281548110610fe5577f4e487b7100000000000000000000000000000000000000000000000000000000600052603260045260246000fd5b90600052602060002090600602016000015414156110065760019150611019565b808061101190613159565b915050610f9d565b508061102457600080fd5b8260056000805b60028054905081101561117a578360028281548110611073577f4e487b7100000000000000000000000000000000000000000000000000000000600052603260045260246000fd5b90600052602060002090600602016000015414801561115957508260098111156110c6577f4e487b7100000000000000000000000000000000000000000000000000000000600052602160045260246000fd5b60028281548110611100577f4e487b7100000000000000000000000000000000000000000000000000000000600052603260045260246000fd5b906000526020600020906006020160050160009054906101000a900460ff166009811115611157577f4e487b7100000000000000000000000000000000000000000000000000000000600052602160045260246000fd5b145b15611167576001915061117a565b808061117290613159565b91505061102b565b508061118557600080fd5b60005b60028054905081101561129a5786600282815481106111d0577f4e487b7100000000000000000000000000000000000000000000000000000000600052603260045260246000fd5b906000526020600020906006020160000154141561128757600660028281548110611224577f4e487b7100000000000000000000000000000000000000000000000000000000600052603260045260246000fd5b906000526020600020906006020160050160006101000a81548160ff0219169083600981111561127d577f4e487b7100000000000000000000000000000000000000000000000000000000600052602160045260246000fd5b021790555061129a565b808061129290613159565b915050611188565b50505050505050565b60606002805480602002602001604051908101604052809291908181526020016000905b8282101561149057838290600052602060002090600602016040518060e001604052908160008201548152602001600182015481526020016002820154815260200160038201548152602001600482018054611322906130f6565b80601f016020809104026020016040519081016040528092919081815260200182805461134e906130f6565b801561139b5780601f106113705761010080835404028352916020019161139b565b820191906000526020600020905b81548152906001019060200180831161137e57829003601f168201915b505050505081526020016005820160009054906101000a900460ff1660098111156113ef577f4e487b7100000000000000000000000000000000000000000000000000000000600052602160045260246000fd5b6009811115611427577f4e487b7100000000000000000000000000000000000000000000000000000000600052602160045260246000fd5b81526020016005820160019054906101000a900473ffffffffffffffffffffffffffffffffffffffff1673ffffffffffffffffffffffffffffffffffffffff1673ffffffffffffffffffffffffffffffffffffffff1681525050815260200190600101906112c7565b50505050905090565b60008054906101000a900473ffffffffffffffffffffffffffffffffffffffff1673ffffffffffffffffffffffffffffffffffffffff163373ffffffffffffffffffffffffffffffffffffffff16146114f157600080fd5b806000805b60028054905081101561157257826002828154811061153e577f4e487b7100000000000000000000000000000000000000000000000000000000600052603260045260246000fd5b906000526020600020906006020160000154141561155f5760019150611572565b808061156a90613159565b9150506114f6565b508061157d57600080fd5b8260016000805b6002805490508110156116d35783600282815481106115cc577f4e487b7100000000000000000000000000000000000000000000000000000000600052603260045260246000fd5b9060005260206000209060060201600001541480156116b2575082600981111561161f577f4e487b7100000000000000000000000000000000000000000000000000000000600052602160045260246000fd5b60028281548110611659577f4e487b7100000000000000000000000000000000000000000000000000000000600052603260045260246000fd5b906000526020600020906006020160050160009054906101000a900460ff1660098111156116b0577f4e487b7100000000000000000000000000000000000000000000000000000000600052602160045260246000fd5b145b156116c057600191506116d3565b80806116cb90613159565b915050611584565b50806116de57600080fd5b60005b6002805490508110156117f2578660028281548110611729577f4e487b7100000000000000000000000000000000000000000000000000000000600052603260045260246000fd5b90600052602060002090600602016000015414156117df57600280828154811061177c577f4e487b7100000000000000000000000000000000000000000000000000000000600052603260045260246000fd5b906000526020600020906006020160050160006101000a81548160ff021916908360098111156117d5577f4e487b7100000000000000000000000000000000000000000000000000000000600052602160045260246000fd5b02179055506117f2565b80806117ea90613159565b9150506116e1565b50505050505050565b806000805b60028054905081101561191e578260028281548110611848577f4e487b7100000000000000000000000000000000000000000000000000000000600052603260045260246000fd5b9060005260206000209060060201600001541480156118fd57503373ffffffffffffffffffffffffffffffffffffffff16600282815481106118b3577f4e487b7100000000000000000000000000000000000000000000000000000000600052603260045260246000fd5b906000526020600020906006020160050160019054906101000a900473ffffffffffffffffffffffffffffffffffffffff1673ffffffffffffffffffffffffffffffffffffffff16145b1561190b576001915061191e565b808061191690613159565b915050611800565b508061192957600080fd5b826000805b6002805490508110156119aa578260028281548110611976577f4e487b7100000000000000000000000000000000000000000000000000000000600052603260045260246000fd5b906000526020600020906006020160000154141561199757600191506119aa565b80806119a290613159565b91505061192e565b50806119b557600080fd5b846000806000905060005b600280549050811015611b0f578360028281548110611a08577f4e487b7100000000000000000000000000000000000000000000000000000000600052603260045260246000fd5b906000526020600020906006020160000154148015611aee5750826009811115611a5b577f4e487b7100000000000000000000000000000000000000000000000000000000600052602160045260246000fd5b60028281548110611a95577f4e487b7100000000000000000000000000000000000000000000000000000000600052603260045260246000fd5b906000526020600020906006020160050160009054906101000a900460ff166009811115611aec577f4e487b7100000000000000000000000000000000000000000000000000000000600052602160045260246000fd5b145b15611afc5760019150611b0f565b8080611b0790613159565b9150506119c0565b5080611b1a57600080fd5b60005b600280549050811015611c2f578860028281548110611b65577f4e487b7100000000000000000000000000000000000000000000000000000000600052603260045260246000fd5b9060005260206000209060060201600001541415611c1c57600160028281548110611bb9577f4e487b7100000000000000000000000000000000000000000000000000000000600052603260045260246000fd5b906000526020600020906006020160050160006101000a81548160ff02191690836009811115611c12577f4e487b7100000000000000000000000000000000000000000000000000000000600052602160045260246000fd5b0217905550611c2f565b8080611c2790613159565b915050611b1d565b505050505050505050565b611c42612960565b60005b600280549050811015611eaa578260028281548110611c8d577f4e487b7100000000000000000000000000000000000000000000000000000000600052603260045260246000fd5b9060005260206000209060060201600001541415611e975760028181548110611cdf577f4e487b7100000000000000000000000000000000000000000000000000000000600052603260045260246000fd5b90600052602060002090600602016040518060e001604052908160008201548152602001600182015481526020016002820154815260200160038201548152602001600482018054611d30906130f6565b80601f0160208091040260200160405190810160405280929190818152602001828054611d5c906130f6565b8015611da95780601f10611d7e57610100808354040283529160200191611da9565b820191906000526020600020905b815481529060010190602001808311611d8c57829003601f168201915b505050505081526020016005820160009054906101000a900460ff166009811115611dfd577f4e487b7100000000000000000000000000000000000000000000000000000000600052602160045260246000fd5b6009811115611e35577f4e487b7100000000000000000000000000000000000000000000000000000000600052602160045260246000fd5b81526020016005820160019054906101000a900473ffffffffffffffffffffffffffffffffffffffff1673ffffffffffffffffffffffffffffffffffffffff1673ffffffffffffffffffffffffffffffffffffffff1681525050915050611eac565b8080611ea290613159565b915050611c45565b505b919050565b60008054906101000a900473ffffffffffffffffffffffffffffffffffffffff1673ffffffffffffffffffffffffffffffffffffffff163373ffffffffffffffffffffffffffffffffffffffff1614611f0957600080fd5b806000805b600280549050811015611f8a578260028281548110611f56577f4e487b7100000000000000000000000000000000000000000000000000000000600052603260045260246000fd5b9060005260206000209060060201600001541415611f775760019150611f8a565b8080611f8290613159565b915050611f0e565b5080611f9557600080fd5b8260056000805b6002805490508110156120eb578360028281548110611fe4577f4e487b7100000000000000000000000000000000000000000000000000000000600052603260045260246000fd5b9060005260206000209060060201600001541480156120ca5750826009811115612037577f4e487b7100000000000000000000000000000000000000000000000000000000600052602160045260246000fd5b60028281548110612071577f4e487b7100000000000000000000000000000000000000000000000000000000600052603260045260246000fd5b906000526020600020906006020160050160009054906101000a900460ff1660098111156120c8577f4e487b7100000000000000000000000000000000000000000000000000000000600052602160045260246000fd5b145b156120d857600191506120eb565b80806120e390613159565b915050611f9c565b50806120f657600080fd5b60005b60028054905081101561220b578660028281548110612141577f4e487b7100000000000000000000000000000000000000000000000000000000600052603260045260246000fd5b90600052602060002090600602016000015414156121f857600760028281548110612195577f4e487b7100000000000000000000000000000000000000000000000000000000600052603260045260246000fd5b906000526020600020906006020160050160006101000a81548160ff021916908360098111156121ee577f4e487b7100000000000000000000000000000000000000000000000000000000600052602160045260246000fd5b021790555061220b565b808061220390613159565b9150506120f9565b50505050505050565b60008054906101000a900473ffffffffffffffffffffffffffffffffffffffff1673ffffffffffffffffffffffffffffffffffffffff163373ffffffffffffffffffffffffffffffffffffffff161461226c57600080fd5b806000805b6002805490508110156122ed5782600282815481106122b9577f4e487b7100000000000000000000000000000000000000000000000000000000600052603260045260246000fd5b90600052602060002090600602016000015414156122da57600191506122ed565b80806122e590613159565b915050612271565b50806122f857600080fd5b8260046000805b60028054905081101561244e578360028281548110612347577f4e487b7100000000000000000000000000000000000000000000000000000000600052603260045260246000fd5b90600052602060002090600602016000015414801561242d575082600981111561239a577f4e487b7100000000000000000000000000000000000000000000000000000000600052602160045260246000fd5b600282815481106123d4577f4e487b7100000000000000000000000000000000000000000000000000000000600052603260045260246000fd5b906000526020600020906006020160050160009054906101000a900460ff16600981111561242b577f4e487b7100000000000000000000000000000000000000000000000000000000600052602160045260246000fd5b145b1561243b576001915061244e565b808061244690613159565b9150506122ff565b508061245957600080fd5b60005b60028054905081101561256e5786600282815481106124a4577f4e487b7100000000000000000000000000000000000000000000000000000000600052603260045260246000fd5b906000526020600020906006020160000154141561255b576005600282815481106124f8577f4e487b7100000000000000000000000000000000000000000000000000000000600052603260045260246000fd5b906000526020600020906006020160050160006101000a81548160ff02191690836009811115612551577f4e487b7100000000000000000000000000000000000000000000000000000000600052602160045260246000fd5b021790555061256e565b808061256690613159565b91505061245c565b50505050505050565b60008054906101000a900473ffffffffffffffffffffffffffffffffffffffff1673ffffffffffffffffffffffffffffffffffffffff163373ffffffffffffffffffffffffffffffffffffffff16146125cf57600080fd5b806000805b60028054905081101561265057826002828154811061261c577f4e487b7100000000000000000000000000000000000000000000000000000000600052603260045260246000fd5b906000526020600020906006020160000154141561263d5760019150612650565b808061264890613159565b9150506125d4565b508061265b57600080fd5b8260066000805b6002805490508110156127b15783600282815481106126aa577f4e487b7100000000000000000000000000000000000000000000000000000000600052603260045260246000fd5b90600052602060002090600602016000015414801561279057508260098111156126fd577f4e487b7100000000000000000000000000000000000000000000000000000000600052602160045260246000fd5b60028281548110612737577f4e487b7100000000000000000000000000000000000000000000000000000000600052603260045260246000fd5b906000526020600020906006020160050160009054906101000a900460ff16600981111561278e577f4e487b7100000000000000000000000000000000000000000000000000000000600052602160045260246000fd5b145b1561279e57600191506127b1565b80806127a990613159565b915050612662565b50806127bc57600080fd5b60005b6002805490508110156128d1578660028281548110612807577f4e487b7100000000000000000000000000000000000000000000000000000000600052603260045260246000fd5b90600052602060002090600602016000015414156128be5760086002828154811061285b577f4e487b7100000000000000000000000000000000000000000000000000000000600052603260045260246000fd5b906000526020600020906006020160050160006101000a81548160ff021916908360098111156128b4577f4e487b7100000000000000000000000000000000000000000000000000000000600052602160045260246000fd5b02179055506128d1565b80806128c990613159565b9150506127bf565b50505050505050565b8280546128e6906130f6565b90600052602060002090601f016020900481019282612908576000855561294f565b82601f1061292157805160ff191683800117855561294f565b8280016001018555821561294f579182015b8281111561294e578251825591602001919060010190612933565b5b50905061295c91906129eb565b5090565b6040518060e001604052806000815260200160008152602001600081526020016000815260200160608152602001600060098111156129c8577f4e487b7100000000000000000000000000000000000000000000000000000000600052602160045260246000fd5b8152602001600073ffffffffffffffffffffffffffffffffffffffff1681525090565b5b80821115612a045760008160009055506001016129ec565b5090565b6000612a1b612a1684612f5a565b612f35565b905082815260208101848484011115612a3357600080fd5b612a3e8482856130b4565b509392505050565b600081359050612a55816132ac565b92915050565b600081519050612a6a816132c3565b92915050565b600082601f830112612a8157600080fd5b8135612a91848260208601612a08565b91505092915050565b600081359050612aa9816132da565b92915050565b600060208284031215612ac157600080fd5b6000612acf84828501612a5b565b91505092915050565b600060208284031215612aea57600080fd5b6000612af884828501612a9a565b91505092915050565b600080600080600060a08688031215612b1957600080fd5b6000612b2788828901612a9a565b9550506020612b3888828901612a9a565b9450506040612b4988828901612a9a565b935050606086013567ffffffffffffffff811115612b6657600080fd5b612b7288828901612a70565b9250506080612b8388828901612a46565b9150509295509295909350565b6000612b9c8383612cea565b905092915050565b612bad81613047565b82525050565b612bbc81613047565b82525050565b6000612bcd82612f9b565b612bd78185612fbe565b935083602082028501612be985612f8b565b8060005b85811015612c255784840389528151612c068582612b90565b9450612c1183612fb1565b925060208a01995050600181019050612bed565b50829750879550505050505092915050565b612c40816130a2565b82525050565b612c4f816130a2565b82525050565b6000612c6082612fa6565b612c6a8185612fcf565b9350612c7a8185602086016130c3565b612c838161325e565b840191505092915050565b6000612c9982612fa6565b612ca38185612fe0565b9350612cb38185602086016130c3565b612cbc8161325e565b840191505092915050565b6000612cd4600b83612fe0565b9150612cdf8261326f565b602082019050919050565b600060e083016000830151612d026000860182612e22565b506020830151612d156020860182612e22565b506040830151612d286040860182612e22565b506060830151612d3b6060860182612e22565b5060808301518482036080860152612d538282612c55565b91505060a0830151612d6860a0860182612c37565b5060c0830151612d7b60c0860182612ba4565b508091505092915050565b600060e083016000830151612d9e6000860182612e22565b506020830151612db16020860182612e22565b506040830151612dc46040860182612e22565b506060830151612dd76060860182612e22565b5060808301518482036080860152612def8282612c55565b91505060a0830151612e0460a0860182612c37565b5060c0830151612e1760c0860182612ba4565b508091505092915050565b612e2b81613098565b82525050565b612e3a81613098565b82525050565b6000602082019050612e556000830184612bb3565b92915050565b60006020820190508181036000830152612e758184612bc2565b905092915050565b60006020820190508181036000830152612e9681612cc7565b9050919050565b60006020820190508181036000830152612eb78184612d86565b905092915050565b600060e082019050612ed4600083018a612e31565b612ee16020830189612e31565b612eee6040830188612e31565b612efb6060830187612e31565b8181036080830152612f0d8186612c8e565b9050612f1c60a0830185612c46565b612f2960c0830184612bb3565b98975050505050505050565b6000612f3f612f50565b9050612f4b8282613128565b919050565b6000604051905090565b600067ffffffffffffffff821115612f7557612f7461322f565b5b612f7e8261325e565b9050602081019050919050565b6000819050602082019050919050565b600081519050919050565b600081519050919050565b6000602082019050919050565b600082825260208201905092915050565b600082825260208201905092915050565b600082825260208201905092915050565b6000612ffc82613098565b915061300783613098565b9250827fffffffffffffffffffffffffffffffffffffffffffffffffffffffffffffffff0382111561303c5761303b6131a2565b5b828201905092915050565b600061305282613078565b9050919050565b60008115159050919050565b600081905061307382613298565b919050565b600073ffffffffffffffffffffffffffffffffffffffff82169050919050565b6000819050919050565b60006130ad82613065565b9050919050565b82818337600083830152505050565b60005b838110156130e15780820151818401526020810190506130c6565b838111156130f0576000848401525b50505050565b6000600282049050600182168061310e57607f821691505b6020821081141561312257613121613200565b5b50919050565b6131318261325e565b810181811067ffffffffffffffff821117156131505761314f61322f565b5b80604052505050565b600061316482613098565b91507fffffffffffffffffffffffffffffffffffffffffffffffffffffffffffffffff821415613197576131966131a2565b5b600182019050919050565b7f4e487b7100000000000000000000000000000000000000000000000000000000600052601160045260246000fd5b7f4e487b7100000000000000000000000000000000000000000000000000000000600052602160045260246000fd5b7f4e487b7100000000000000000000000000000000000000000000000000000000600052602260045260246000fd5b7f4e487b7100000000000000000000000000000000000000000000000000000000600052604160045260246000fd5b6000601f19601f8301169050919050565b7f42726f6b6572204f6e6c79000000000000000000000000000000000000000000600082015250565b600a81106132a9576132a86131d1565b5b50565b6132b581613047565b81146132c057600080fd5b50565b6132cc81613059565b81146132d757600080fd5b50565b6132e381613098565b81146132ee57600080fd5b5056fea26469706673582212201a51443923be5d250f11027d1b1bb4ab103d210bd83c0a510ad4849c7e2e85a664736f6c63430008010033",
  "immutableReferences": {},
  "source": "// SPDX-License-Identifier: GPL-3.0\npragma solidity >=0.7.0 <0.9.0;\n\nimport \"./UserInfo.sol\";\n\ncontract BankLoan{\n    \n    enum LoanState{\n        REQUESTED, \n        USER_SIGNED, \n        BANK_APPROVED, \n        BANK_REJECTED,  \n        PAID_TO_BANK, \n        ONGOING, \n        DEFAULT, \n        CLOSE,\n        CLAIM_REQUESTED, \n        CLAIMED\n    }\n    \n    struct Loan\n    {\n        uint loanId;\n        uint amount;\n        uint months;\n        uint interest;\n        string planId;\n        LoanState state;\n        address user;\n    }\n    \n    event loanRequest(\n        uint loanId,\n        uint amount,\n        uint months,\n        uint interest,\n        string planId,\n        LoanState state,\n        address user\n    );\n    \n    address private bank_admin;\n    UserInfo identitySC;\n    Loan[] private loans;\n    \n    constructor (address _identitySC) {\n            bank_admin = msg.sender;  // Ganache Account 1, the Bank\n            identitySC = UserInfo(_identitySC);\n    }\n    \n    modifier isAdmin()\n    {\n        require(msg.sender == bank_admin);\n        _;\n    }\n\n    modifier isUser()\n    {\n        require(identitySC.verifyIsUser(msg.sender), 'Broker Only');\n        _;\n    }\n\n    modifier isLoanUser(uint _loanId){\n        bool isValid = false;\n        for(uint i=0; i< loans.length; i++)\n        {\n            if(loans[i].loanId == _loanId && loans[i].user == msg.sender)\n            {\n                isValid = true;\n                break;\n            }\n        }\n        require(isValid);\n        _;\n    }\n    \n    modifier isValidLoan(uint _loanId)\n    {\n        bool isValid = false;\n        for(uint i=0; i< loans.length; i++)\n        {\n            if(loans[i].loanId == _loanId)\n            {\n                isValid = true;\n                break;\n            }\n        }\n        require(isValid);\n        _;\n    }\n    \n    modifier isLoanIn(uint _loanId, LoanState _state)\n    {\n        bool isValid = false;\n        for(uint i=0; i< loans.length; i++)\n        {\n            if(loans[i].loanId == _loanId && loans[i].state == _state)\n            {\n                isValid = true;\n                break;\n            }\n        }\n        require(isValid);\n        _;\n    }\n\n    function applyLoan(uint _amount, uint _months, uint _interest, string memory _planId, address _user) public isUser()\n    {\n        Loan memory l = Loan(loans.length + 1, _amount, _months, _interest, _planId, LoanState.REQUESTED, msg.sender);\n        \n        loans.push(l);\n        \n        emit loanRequest(l.loanId, l.amount, l.months, l.interest, l.planId,\n            l.state, l.user);\n    }\n    \n    function signByUser(uint _loanId) public isLoanUser(_loanId) isValidLoan(_loanId) isLoanIn(_loanId, LoanState.REQUESTED)\n    {\n        for (uint i = 0; i < loans.length; i++) {\n            if (loans[i].loanId == _loanId) {\n                loans[i].state = LoanState.USER_SIGNED;\n                break;\n            }\n        }\n    }\n    \n    function approveLoan(uint _loanId) public isAdmin() isValidLoan(_loanId) isLoanIn(_loanId, LoanState.USER_SIGNED)\n    {\n        for (uint i = 0; i < loans.length; i++) {\n            if (loans[i].loanId == _loanId) {\n                loans[i].state = LoanState.BANK_APPROVED;\n                break;\n            }\n        }\n    }\n    \n    function rejectLoan(uint _loanId) public isAdmin() isValidLoan(_loanId) isLoanIn(_loanId, LoanState.USER_SIGNED)\n    {\n        for (uint i = 0; i < loans.length; i++) {\n            if (loans[i].loanId == _loanId) {\n                loans[i].state = LoanState.BANK_REJECTED;\n                break;\n            }\n        }\n    }\n    \n    function confirmTokenTrasferToUser(uint _loanId) public isAdmin() isValidLoan(_loanId) isLoanIn(_loanId, LoanState.PAID_TO_BANK)\n    {\n        for (uint i = 0; i < loans.length; i++) {\n            if (loans[i].loanId == _loanId) {\n                loans[i].state = LoanState.PAID_TO_BANK;\n                break;\n            }\n        }\n    }\n    \n    \n    function confirmTokenTrasferToBorrower(uint _loanId) public isAdmin() isValidLoan(_loanId) isLoanIn(_loanId, LoanState.PAID_TO_BANK)\n    {\n        for (uint i = 0; i < loans.length; i++) {\n            if (loans[i].loanId == _loanId) {\n                loans[i].state = LoanState.ONGOING;\n                break;\n            }\n        }\n    }\n    \n    function closeLoan(uint _loanId) public isAdmin() isValidLoan(_loanId) isLoanIn(_loanId, LoanState.ONGOING)\n    {\n        for (uint i = 0; i < loans.length; i++) {\n            if (loans[i].loanId == _loanId) {\n                loans[i].state = LoanState.CLOSE;\n                break;\n            }\n        }\n    }\n    \n    function markAsDefaulted(uint _loanId) public isAdmin() isValidLoan(_loanId) isLoanIn(_loanId, LoanState.ONGOING)\n    {\n        for (uint i = 0; i < loans.length; i++) {\n            if (loans[i].loanId== _loanId) {\n                loans[i].state = LoanState.DEFAULT;\n                break;\n            }\n        }\n    }\n    \n    function requestClaim(uint _loanId) public isAdmin() isValidLoan(_loanId) isLoanIn(_loanId, LoanState.DEFAULT)\n    {\n        for (uint i = 0; i < loans.length; i++) {\n            if (loans[i].loanId == _loanId) {\n                loans[i].state = LoanState.CLAIM_REQUESTED;\n                break;\n            }\n        }\n    }\n    \n    function confirmRecivingOfClaim(uint _loanId) public isAdmin() isValidLoan(_loanId) isLoanIn(_loanId, LoanState.CLAIM_REQUESTED)\n    {\n        for (uint i = 0; i < loans.length; i++) {\n            if (loans[i].loanId == _loanId) {\n                loans[i].state = LoanState.CLAIMED;\n                break;\n            }\n        }\n    }\n    \n    function viewLoan(uint _loanId) public view returns(Loan memory loan)\n    {\n        for (uint i = 0; i < loans.length; i++) {\n            if (loans[i].loanId == _loanId) {\n                return (loans[i]);\n            }\n        }\n    }\n    \n    function getLoans() public view returns(Loan [] memory)\n    {\n        return loans;\n    }  \n    \n    //TODO - View broker's loans\n    //TODO - modify applied loans\n}",
  "sourcePath": "/Users/huangzhongkai/Desktop/ntu msis/Semester 2/Blockchain System Software Engineering/Topic 6 Decentrailized App/Group Project/BlockChain_Group_Assignment/blockchain/contracts/BankLoan.sol",
  "compiler": {
    "name": "solc",
    "version": "0.8.1+commit.df193b15.Emscripten.clang"
  },
  "schemaVersion": "3.4.3",
  "updatedAt": "2022-04-09T12:57:42.043Z",
  "networkType": "ethereum",
  "devdoc": {
    "kind": "dev",
    "methods": {},
    "version": 1
  },
  "userdoc": {
    "kind": "user",
    "methods": {},
    "version": 1
  }
}