{
  "contractName": "UserIdentity",
  "abi": [
    {
      "inputs": [],
      "stateMutability": "nonpayable",
      "type": "constructor"
    },
    {
      "anonymous": false,
      "inputs": [
        {
          "indexed": false,
          "internalType": "uint256",
          "name": "id",
          "type": "uint256"
        },
        {
          "indexed": false,
          "internalType": "string",
          "name": "socialSecurityId",
          "type": "string"
        },
        {
          "indexed": false,
          "internalType": "address",
          "name": "walletAddress",
          "type": "address"
        },
        {
          "indexed": false,
          "internalType": "string",
          "name": "name",
          "type": "string"
        },
        {
          "indexed": false,
          "internalType": "enum UserIdentity.Role",
          "name": "role",
          "type": "uint8"
        },
        {
          "indexed": false,
          "internalType": "address",
          "name": "addedBy",
          "type": "address"
        },
        {
          "indexed": false,
          "internalType": "bool",
          "name": "isBankApproved",
          "type": "bool"
        },
        {
          "indexed": false,
          "internalType": "enum UserIdentity.UserState",
          "name": "state",
          "type": "uint8"
        }
      ],
      "name": "newBorrowerAdded",
      "type": "event"
    },
    {
      "anonymous": false,
      "inputs": [
        {
          "indexed": false,
          "internalType": "uint256",
          "name": "id",
          "type": "uint256"
        },
        {
          "indexed": false,
          "internalType": "string",
          "name": "socialSecurityId",
          "type": "string"
        },
        {
          "indexed": false,
          "internalType": "address",
          "name": "walletAddress",
          "type": "address"
        },
        {
          "indexed": false,
          "internalType": "string",
          "name": "name",
          "type": "string"
        },
        {
          "indexed": false,
          "internalType": "enum UserIdentity.Role",
          "name": "role",
          "type": "uint8"
        },
        {
          "indexed": false,
          "internalType": "bool",
          "name": "isBankApproved",
          "type": "bool"
        },
        {
          "indexed": false,
          "internalType": "enum UserIdentity.UserState",
          "name": "state",
          "type": "uint8"
        }
      ],
      "name": "newBrokerAdded",
      "type": "event"
    },
    {
      "anonymous": false,
      "inputs": [
        {
          "indexed": false,
          "internalType": "uint256",
          "name": "id",
          "type": "uint256"
        },
        {
          "indexed": false,
          "internalType": "string",
          "name": "registrationNumber",
          "type": "string"
        },
        {
          "indexed": false,
          "internalType": "address",
          "name": "walletAddress",
          "type": "address"
        },
        {
          "indexed": false,
          "internalType": "string",
          "name": "name",
          "type": "string"
        },
        {
          "indexed": false,
          "internalType": "enum UserIdentity.Role",
          "name": "role",
          "type": "uint8"
        },
        {
          "indexed": false,
          "internalType": "bool",
          "name": "isBankApproved",
          "type": "bool"
        },
        {
          "indexed": false,
          "internalType": "enum UserIdentity.UserState",
          "name": "state",
          "type": "uint8"
        }
      ],
      "name": "newInsurerAdded",
      "type": "event"
    },
    {
      "inputs": [
        {
          "internalType": "string",
          "name": "_socialSecurityId",
          "type": "string"
        },
        {
          "internalType": "address",
          "name": "_address",
          "type": "address"
        },
        {
          "internalType": "string",
          "name": "_name",
          "type": "string"
        }
      ],
      "name": "addBroker",
      "outputs": [],
      "stateMutability": "nonpayable",
      "type": "function"
    },
    {
      "inputs": [
        {
          "internalType": "string",
          "name": "_registrationNumber",
          "type": "string"
        },
        {
          "internalType": "address",
          "name": "_address",
          "type": "address"
        },
        {
          "internalType": "string",
          "name": "_name",
          "type": "string"
        }
      ],
      "name": "addInsurer",
      "outputs": [],
      "stateMutability": "nonpayable",
      "type": "function"
    },
    {
      "inputs": [
        {
          "internalType": "string",
          "name": "_socialSecurityId",
          "type": "string"
        },
        {
          "internalType": "address",
          "name": "_address",
          "type": "address"
        },
        {
          "internalType": "string",
          "name": "_name",
          "type": "string"
        }
      ],
      "name": "addBorrower",
      "outputs": [],
      "stateMutability": "nonpayable",
      "type": "function"
    },
    {
      "inputs": [
        {
          "internalType": "address",
          "name": "_address",
          "type": "address"
        }
      ],
      "name": "verifyIsBroker",
      "outputs": [
        {
          "internalType": "bool",
          "name": "",
          "type": "bool"
        }
      ],
      "stateMutability": "view",
      "type": "function",
      "constant": true
    },
    {
      "inputs": [
        {
          "internalType": "address",
          "name": "_address",
          "type": "address"
        }
      ],
      "name": "verifyIsBorrower",
      "outputs": [
        {
          "internalType": "bool",
          "name": "",
          "type": "bool"
        }
      ],
      "stateMutability": "view",
      "type": "function",
      "constant": true
    },
    {
      "inputs": [
        {
          "internalType": "address",
          "name": "_address",
          "type": "address"
        }
      ],
      "name": "verifyIsInsurer",
      "outputs": [
        {
          "internalType": "bool",
          "name": "",
          "type": "bool"
        }
      ],
      "stateMutability": "view",
      "type": "function",
      "constant": true
    },
    {
      "inputs": [
        {
          "internalType": "address",
          "name": "_address",
          "type": "address"
        }
      ],
      "name": "verifyIsBank",
      "outputs": [
        {
          "internalType": "bool",
          "name": "",
          "type": "bool"
        }
      ],
      "stateMutability": "view",
      "type": "function",
      "constant": true
    },
    {
      "inputs": [
        {
          "internalType": "address",
          "name": "_address",
          "type": "address"
        }
      ],
      "name": "approveBorrower",
      "outputs": [],
      "stateMutability": "nonpayable",
      "type": "function"
    },
    {
      "inputs": [
        {
          "internalType": "address",
          "name": "_address",
          "type": "address"
        }
      ],
      "name": "approveBroker",
      "outputs": [],
      "stateMutability": "nonpayable",
      "type": "function"
    },
    {
      "inputs": [
        {
          "internalType": "address",
          "name": "_address",
          "type": "address"
        }
      ],
      "name": "approveInsuranceCompany",
      "outputs": [],
      "stateMutability": "nonpayable",
      "type": "function"
    },
    {
      "inputs": [
        {
          "internalType": "address",
          "name": "_address",
          "type": "address"
        }
      ],
      "name": "rejectBorrower",
      "outputs": [],
      "stateMutability": "nonpayable",
      "type": "function"
    },
    {
      "inputs": [
        {
          "internalType": "address",
          "name": "_address",
          "type": "address"
        }
      ],
      "name": "rejectBroker",
      "outputs": [],
      "stateMutability": "nonpayable",
      "type": "function"
    },
    {
      "inputs": [
        {
          "internalType": "address",
          "name": "_address",
          "type": "address"
        }
      ],
      "name": "rejectInsuranceCompany",
      "outputs": [],
      "stateMutability": "nonpayable",
      "type": "function"
    },
    {
      "inputs": [],
      "name": "getAllBrokers",
      "outputs": [
        {
          "components": [
            {
              "internalType": "uint256",
              "name": "id",
              "type": "uint256"
            },
            {
              "internalType": "string",
              "name": "socialSecurityId",
              "type": "string"
            },
            {
              "internalType": "address",
              "name": "walletAddress",
              "type": "address"
            },
            {
              "internalType": "string",
              "name": "name",
              "type": "string"
            },
            {
              "internalType": "enum UserIdentity.Role",
              "name": "role",
              "type": "uint8"
            },
            {
              "internalType": "bool",
              "name": "isBankApproved",
              "type": "bool"
            },
            {
              "internalType": "enum UserIdentity.UserState",
              "name": "state",
              "type": "uint8"
            }
          ],
          "internalType": "struct UserIdentity.Broker[]",
          "name": "",
          "type": "tuple[]"
        }
      ],
      "stateMutability": "view",
      "type": "function",
      "constant": true
    },
    {
      "inputs": [],
      "name": "getAllInsurers",
      "outputs": [
        {
          "components": [
            {
              "internalType": "uint256",
              "name": "id",
              "type": "uint256"
            },
            {
              "internalType": "string",
              "name": "registrationNumber",
              "type": "string"
            },
            {
              "internalType": "address",
              "name": "walletAddress",
              "type": "address"
            },
            {
              "internalType": "string",
              "name": "name",
              "type": "string"
            },
            {
              "internalType": "enum UserIdentity.Role",
              "name": "role",
              "type": "uint8"
            },
            {
              "internalType": "bool",
              "name": "isBankApproved",
              "type": "bool"
            },
            {
              "internalType": "enum UserIdentity.UserState",
              "name": "state",
              "type": "uint8"
            }
          ],
          "internalType": "struct UserIdentity.InsuranceCompany[]",
          "name": "",
          "type": "tuple[]"
        }
      ],
      "stateMutability": "view",
      "type": "function",
      "constant": true
    },
    {
      "inputs": [],
      "name": "getAllBorrowers",
      "outputs": [
        {
          "components": [
            {
              "internalType": "uint256",
              "name": "id",
              "type": "uint256"
            },
            {
              "internalType": "string",
              "name": "socialSecurityId",
              "type": "string"
            },
            {
              "internalType": "address",
              "name": "walletAddress",
              "type": "address"
            },
            {
              "internalType": "string",
              "name": "name",
              "type": "string"
            },
            {
              "internalType": "enum UserIdentity.Role",
              "name": "role",
              "type": "uint8"
            },
            {
              "internalType": "address",
              "name": "addedBy",
              "type": "address"
            },
            {
              "internalType": "bool",
              "name": "isBankApproved",
              "type": "bool"
            },
            {
              "internalType": "enum UserIdentity.UserState",
              "name": "state",
              "type": "uint8"
            }
          ],
          "internalType": "struct UserIdentity.Borrower[]",
          "name": "",
          "type": "tuple[]"
        }
      ],
      "stateMutability": "view",
      "type": "function",
      "constant": true
    },
    {
      "inputs": [],
      "name": "getBankAddress",
      "outputs": [
        {
          "internalType": "address",
          "name": "_bankAddress",
          "type": "address"
        }
      ],
      "stateMutability": "view",
      "type": "function",
      "constant": true
    }
  ],
  "bytecode": "0x608060405260006001556000600255600060035534801561001f57600080fd5b50336000806101000a81548173ffffffffffffffffffffffffffffffffffffffff021916908373ffffffffffffffffffffffffffffffffffffffff1602179055506142cf8061006f6000396000f3fe608060405234801561001057600080fd5b506004361061010b5760003560e01c80635f139a50116100a2578063a3bee99a11610071578063a3bee99a146102a2578063a7558081146102be578063e701c350146102da578063ee6fc3b41461030a578063f7fd492e146103285761010b565b80635f139a501461022e57806366f780e91461024a5780637b80d81c146102685780639a471920146102865761010b565b806326f8f8e7116100de57806326f8f8e71461019457806332abcdbe146101c45780633314168c146101e2578063450ba9bd146102125761010b565b8063053ff76c1461011057806319610fec1461012c5780631afa82101461015c5780631ba450ca14610178575b600080fd5b61012a6004803603810190610125919061343f565b610344565b005b61014660048036038101906101419190613416565b610881565b6040516101539190613af7565b60405180910390f35b61017660048036038101906101719190613416565b6109b4565b005b610192600480360381019061018d919061343f565b610c39565b005b6101ae60048036038101906101a99190613416565b611007565b6040516101bb9190613af7565b60405180910390f35b6101cc61105f565b6040516101d99190613a91565b60405180910390f35b6101fc60048036038101906101f79190613416565b6114ff565b6040516102099190613af7565b60405180910390f35b61022c60048036038101906102279190613416565b611633565b005b61024860048036038101906102439190613416565b6118b8565b005b610252611b3d565b60405161025f9190613a76565b60405180910390f35b610270611b66565b60405161027d9190613ad5565b60405180910390f35b6102a0600480360381019061029b9190613416565b611faf565b005b6102bc60048036038101906102b7919061343f565b612234565b005b6102d860048036038101906102d39190613416565b612602565b005b6102f460048036038101906102ef9190613416565b612887565b6040516103019190613af7565b60405180910390f35b6103126129bb565b60405161031f9190613ab3565b60405180910390f35b610342600480360381019061033d9190613416565b612e04565b005b336001600381111561037f577f4e487b7100000000000000000000000000000000000000000000000000000000600052602160045260246000fd5b600560008373ffffffffffffffffffffffffffffffffffffffff1673ffffffffffffffffffffffffffffffffffffffff16815260200190815260200160002060040160009054906101000a900460ff166003811115610407577f4e487b7100000000000000000000000000000000000000000000000000000000600052602160045260246000fd5b14610447576040517f08c379a000000000000000000000000000000000000000000000000000000000815260040161043e90613bf2565b60405180910390fd5b82600080600460008473ffffffffffffffffffffffffffffffffffffffff1673ffffffffffffffffffffffffffffffffffffffff16815260200190815260200160002060000154141561049957600190505b806104d9576040517f08c379a00000000000000000000000000000000000000000000000000000000081526004016104d090613b72565b60405180910390fd5b60016002546104e89190613e49565b600281905550600060405180610100016040528060025481526020018881526020018773ffffffffffffffffffffffffffffffffffffffff16815260200186815260200160026003811115610566577f4e487b7100000000000000000000000000000000000000000000000000000000600052602160045260246000fd5b81526020013373ffffffffffffffffffffffffffffffffffffffff168152602001600015158152602001600060028111156105ca577f4e487b7100000000000000000000000000000000000000000000000000000000600052602160045260246000fd5b815250905080600460008873ffffffffffffffffffffffffffffffffffffffff1673ffffffffffffffffffffffffffffffffffffffff168152602001908152602001600020600082015181600001556020820151816001019080519060200190610635929190613089565b5060408201518160020160006101000a81548173ffffffffffffffffffffffffffffffffffffffff021916908373ffffffffffffffffffffffffffffffffffffffff1602179055506060820151816003019080519060200190610699929190613089565b5060808201518160040160006101000a81548160ff021916908360038111156106eb577f4e487b7100000000000000000000000000000000000000000000000000000000600052602160045260246000fd5b021790555060a08201518160040160016101000a81548173ffffffffffffffffffffffffffffffffffffffff021916908373ffffffffffffffffffffffffffffffffffffffff16021790555060c08201518160040160156101000a81548160ff02191690831515021790555060e08201518160040160166101000a81548160ff021916908360028111156107a8577f4e487b7100000000000000000000000000000000000000000000000000000000600052602160045260246000fd5b02179055509050506008869080600181540180825580915050600190039060005260206000200160009091909190916101000a81548173ffffffffffffffffffffffffffffffffffffffff021916908373ffffffffffffffffffffffffffffffffffffffff1602179055507f2fd1ca812767e1602d7777d13b399784539051517670167c434dc68d7fe717d7816000015182602001518360400151846060015185608001518660a001518760c001518860e00151604051610870989796959493929190613c12565b60405180910390a150505050505050565b600080600090506003808111156108c1577f4e487b7100000000000000000000000000000000000000000000000000000000600052602160045260246000fd5b600660008573ffffffffffffffffffffffffffffffffffffffff1673ffffffffffffffffffffffffffffffffffffffff16815260200190815260200160002060040160009054906101000a900460ff166003811115610949577f4e487b7100000000000000000000000000000000000000000000000000000000600052602160045260246000fd5b1480156109a9575060011515600660008573ffffffffffffffffffffffffffffffffffffffff1673ffffffffffffffffffffffffffffffffffffffff16815260200190815260200160002060040160019054906101000a900460ff161515145b905080915050919050565b338073ffffffffffffffffffffffffffffffffffffffff1660008054906101000a900473ffffffffffffffffffffffffffffffffffffffff1673ffffffffffffffffffffffffffffffffffffffff1614610a43576040517f08c379a0000000000000000000000000000000000000000000000000000000008152600401610a3a90613b92565b60405180910390fd5b816000806002811115610a7f577f4e487b7100000000000000000000000000000000000000000000000000000000600052602160045260246000fd5b600460008473ffffffffffffffffffffffffffffffffffffffff1673ffffffffffffffffffffffffffffffffffffffff16815260200190815260200160002060040160169054906101000a900460ff166002811115610b07577f4e487b7100000000000000000000000000000000000000000000000000000000600052602160045260246000fd5b14610b47576040517f08c379a0000000000000000000000000000000000000000000000000000000008152600401610b3e90613bb2565b60405180910390fd5b6000600460008673ffffffffffffffffffffffffffffffffffffffff1673ffffffffffffffffffffffffffffffffffffffff16815260200190815260200160002060040160156101000a81548160ff0219169083151502179055506002600460008673ffffffffffffffffffffffffffffffffffffffff1673ffffffffffffffffffffffffffffffffffffffff16815260200190815260200160002060040160166101000a81548160ff02191690836002811115610c2e577f4e487b7100000000000000000000000000000000000000000000000000000000600052602160045260246000fd5b021790555050505050565b81600080600660008473ffffffffffffffffffffffffffffffffffffffff1673ffffffffffffffffffffffffffffffffffffffff168152602001908152602001600020600001541415610c8b57600190505b80610ccb576040517f08c379a0000000000000000000000000000000000000000000000000000000008152600401610cc290613b12565b60405180910390fd5b6001600354610cda9190613e49565b60038190555060006040518060e0016040528060035481526020018781526020018673ffffffffffffffffffffffffffffffffffffffff168152602001858152602001600380811115610d56577f4e487b7100000000000000000000000000000000000000000000000000000000600052602160045260246000fd5b815260200160001515815260200160006002811115610d9e577f4e487b7100000000000000000000000000000000000000000000000000000000600052602160045260246000fd5b815250905080600660008773ffffffffffffffffffffffffffffffffffffffff1673ffffffffffffffffffffffffffffffffffffffff168152602001908152602001600020600082015181600001556020820151816001019080519060200190610e09929190613089565b5060408201518160020160006101000a81548173ffffffffffffffffffffffffffffffffffffffff021916908373ffffffffffffffffffffffffffffffffffffffff1602179055506060820151816003019080519060200190610e6d929190613089565b5060808201518160040160006101000a81548160ff02191690836003811115610ebf577f4e487b7100000000000000000000000000000000000000000000000000000000600052602160045260246000fd5b021790555060a08201518160040160016101000a81548160ff02191690831515021790555060c08201518160040160026101000a81548160ff02191690836002811115610f35577f4e487b7100000000000000000000000000000000000000000000000000000000600052602160045260246000fd5b02179055509050506009859080600181540180825580915050600190039060005260206000200160009091909190916101000a81548173ffffffffffffffffffffffffffffffffffffffff021916908373ffffffffffffffffffffffffffffffffffffffff1602179055507f68960291ab091525cb4ead822fff7251a27a945731b48b0781e1160a6e9d7898816000015182602001518360400151846060015185608001518660a001518760c00151604051610ff79796959493929190613c9e565b60405180910390a1505050505050565b60008173ffffffffffffffffffffffffffffffffffffffff1660008054906101000a900473ffffffffffffffffffffffffffffffffffffffff1673ffffffffffffffffffffffffffffffffffffffff16149050919050565b6060600060025467ffffffffffffffff8111156110a5577f4e487b7100000000000000000000000000000000000000000000000000000000600052604160045260246000fd5b6040519080825280602002602001820160405280156110de57816020015b6110cb61310f565b8152602001906001900390816110c35790505b50905060005b6002548110156114f757600460006008838154811061112c577f4e487b7100000000000000000000000000000000000000000000000000000000600052603260045260246000fd5b9060005260206000200160009054906101000a900473ffffffffffffffffffffffffffffffffffffffff1673ffffffffffffffffffffffffffffffffffffffff1673ffffffffffffffffffffffffffffffffffffffff16815260200190815260200160002060405180610100016040529081600082015481526020016001820180546111b790613f73565b80601f01602080910402602001604051908101604052809291908181526020018280546111e390613f73565b80156112305780601f1061120557610100808354040283529160200191611230565b820191906000526020600020905b81548152906001019060200180831161121357829003601f168201915b505050505081526020016002820160009054906101000a900473ffffffffffffffffffffffffffffffffffffffff1673ffffffffffffffffffffffffffffffffffffffff1673ffffffffffffffffffffffffffffffffffffffff16815260200160038201805461129f90613f73565b80601f01602080910402602001604051908101604052809291908181526020018280546112cb90613f73565b80156113185780601f106112ed57610100808354040283529160200191611318565b820191906000526020600020905b8154815290600101906020018083116112fb57829003601f168201915b505050505081526020016004820160009054906101000a900460ff16600381111561136c577f4e487b7100000000000000000000000000000000000000000000000000000000600052602160045260246000fd5b60038111156113a4577f4e487b7100000000000000000000000000000000000000000000000000000000600052602160045260246000fd5b81526020016004820160019054906101000a900473ffffffffffffffffffffffffffffffffffffffff1673ffffffffffffffffffffffffffffffffffffffff1673ffffffffffffffffffffffffffffffffffffffff1681526020016004820160159054906101000a900460ff161515151581526020016004820160169054906101000a900460ff166002811115611464577f4e487b7100000000000000000000000000000000000000000000000000000000600052602160045260246000fd5b600281111561149c577f4e487b7100000000000000000000000000000000000000000000000000000000600052602160045260246000fd5b815250508282815181106114d9577f4e487b7100000000000000000000000000000000000000000000000000000000600052603260045260246000fd5b602002602001018190525080806114ef90613fd6565b9150506110e4565b508091505090565b6000806000905060016003811115611540577f4e487b7100000000000000000000000000000000000000000000000000000000600052602160045260246000fd5b600560008573ffffffffffffffffffffffffffffffffffffffff1673ffffffffffffffffffffffffffffffffffffffff16815260200190815260200160002060040160009054906101000a900460ff1660038111156115c8577f4e487b7100000000000000000000000000000000000000000000000000000000600052602160045260246000fd5b148015611628575060011515600560008573ffffffffffffffffffffffffffffffffffffffff1673ffffffffffffffffffffffffffffffffffffffff16815260200190815260200160002060040160019054906101000a900460ff161515145b905080915050919050565b338073ffffffffffffffffffffffffffffffffffffffff1660008054906101000a900473ffffffffffffffffffffffffffffffffffffffff1673ffffffffffffffffffffffffffffffffffffffff16146116c2576040517f08c379a00000000000000000000000000000000000000000000000000000000081526004016116b990613b92565b60405180910390fd5b8160008060028111156116fe577f4e487b7100000000000000000000000000000000000000000000000000000000600052602160045260246000fd5b600560008473ffffffffffffffffffffffffffffffffffffffff1673ffffffffffffffffffffffffffffffffffffffff16815260200190815260200160002060040160029054906101000a900460ff166002811115611786577f4e487b7100000000000000000000000000000000000000000000000000000000600052602160045260246000fd5b146117c6576040517f08c379a00000000000000000000000000000000000000000000000000000000081526004016117bd90613b52565b60405180910390fd5b6001600560008673ffffffffffffffffffffffffffffffffffffffff1673ffffffffffffffffffffffffffffffffffffffff16815260200190815260200160002060040160016101000a81548160ff0219169083151502179055506001600560008673ffffffffffffffffffffffffffffffffffffffff1673ffffffffffffffffffffffffffffffffffffffff16815260200190815260200160002060040160026101000a81548160ff021916908360028111156118ad577f4e487b7100000000000000000000000000000000000000000000000000000000600052602160045260246000fd5b021790555050505050565b338073ffffffffffffffffffffffffffffffffffffffff1660008054906101000a900473ffffffffffffffffffffffffffffffffffffffff1673ffffffffffffffffffffffffffffffffffffffff1614611947576040517f08c379a000000000000000000000000000000000000000000000000000000000815260040161193e90613b92565b60405180910390fd5b816000806002811115611983577f4e487b7100000000000000000000000000000000000000000000000000000000600052602160045260246000fd5b600660008473ffffffffffffffffffffffffffffffffffffffff1673ffffffffffffffffffffffffffffffffffffffff16815260200190815260200160002060040160029054906101000a900460ff166002811115611a0b577f4e487b7100000000000000000000000000000000000000000000000000000000600052602160045260246000fd5b14611a4b576040517f08c379a0000000000000000000000000000000000000000000000000000000008152600401611a4290613bd2565b60405180910390fd5b6000600660008673ffffffffffffffffffffffffffffffffffffffff1673ffffffffffffffffffffffffffffffffffffffff16815260200190815260200160002060040160016101000a81548160ff0219169083151502179055506002600660008673ffffffffffffffffffffffffffffffffffffffff1673ffffffffffffffffffffffffffffffffffffffff16815260200190815260200160002060040160026101000a81548160ff02191690836002811115611b32577f4e487b7100000000000000000000000000000000000000000000000000000000600052602160045260246000fd5b021790555050505050565b60008060009054906101000a900473ffffffffffffffffffffffffffffffffffffffff16905090565b6060600060035467ffffffffffffffff811115611bac577f4e487b7100000000000000000000000000000000000000000000000000000000600052604160045260246000fd5b604051908082528060200260200182016040528015611be557816020015b611bd26131f2565b815260200190600190039081611bca5790505b50905060005b600354811015611fa7576006600060098381548110611c33577f4e487b7100000000000000000000000000000000000000000000000000000000600052603260045260246000fd5b9060005260206000200160009054906101000a900473ffffffffffffffffffffffffffffffffffffffff1673ffffffffffffffffffffffffffffffffffffffff1673ffffffffffffffffffffffffffffffffffffffff1681526020019081526020016000206040518060e001604052908160008201548152602001600182018054611cbd90613f73565b80601f0160208091040260200160405190810160405280929190818152602001828054611ce990613f73565b8015611d365780601f10611d0b57610100808354040283529160200191611d36565b820191906000526020600020905b815481529060010190602001808311611d1957829003601f168201915b505050505081526020016002820160009054906101000a900473ffffffffffffffffffffffffffffffffffffffff1673ffffffffffffffffffffffffffffffffffffffff1673ffffffffffffffffffffffffffffffffffffffff168152602001600382018054611da590613f73565b80601f0160208091040260200160405190810160405280929190818152602001828054611dd190613f73565b8015611e1e5780601f10611df357610100808354040283529160200191611e1e565b820191906000526020600020905b815481529060010190602001808311611e0157829003601f168201915b505050505081526020016004820160009054906101000a900460ff166003811115611e72577f4e487b7100000000000000000000000000000000000000000000000000000000600052602160045260246000fd5b6003811115611eaa577f4e487b7100000000000000000000000000000000000000000000000000000000600052602160045260246000fd5b81526020016004820160019054906101000a900460ff161515151581526020016004820160029054906101000a900460ff166002811115611f14577f4e487b7100000000000000000000000000000000000000000000000000000000600052602160045260246000fd5b6002811115611f4c577f4e487b7100000000000000000000000000000000000000000000000000000000600052602160045260246000fd5b81525050828281518110611f89577f4e487b7100000000000000000000000000000000000000000000000000000000600052603260045260246000fd5b60200260200101819052508080611f9f90613fd6565b915050611beb565b508091505090565b338073ffffffffffffffffffffffffffffffffffffffff1660008054906101000a900473ffffffffffffffffffffffffffffffffffffffff1673ffffffffffffffffffffffffffffffffffffffff161461203e576040517f08c379a000000000000000000000000000000000000000000000000000000000815260040161203590613b92565b60405180910390fd5b81600080600281111561207a577f4e487b7100000000000000000000000000000000000000000000000000000000600052602160045260246000fd5b600460008473ffffffffffffffffffffffffffffffffffffffff1673ffffffffffffffffffffffffffffffffffffffff16815260200190815260200160002060040160169054906101000a900460ff166002811115612102577f4e487b7100000000000000000000000000000000000000000000000000000000600052602160045260246000fd5b14612142576040517f08c379a000000000000000000000000000000000000000000000000000000000815260040161213990613bb2565b60405180910390fd5b6001600460008673ffffffffffffffffffffffffffffffffffffffff1673ffffffffffffffffffffffffffffffffffffffff16815260200190815260200160002060040160156101000a81548160ff0219169083151502179055506001600460008673ffffffffffffffffffffffffffffffffffffffff1673ffffffffffffffffffffffffffffffffffffffff16815260200190815260200160002060040160166101000a81548160ff02191690836002811115612229577f4e487b7100000000000000000000000000000000000000000000000000000000600052602160045260246000fd5b021790555050505050565b81600080600560008473ffffffffffffffffffffffffffffffffffffffff1673ffffffffffffffffffffffffffffffffffffffff16815260200190815260200160002060000154141561228657600190505b806122c6576040517f08c379a00000000000000000000000000000000000000000000000000000000081526004016122bd90613b32565b60405180910390fd5b600180546122d49190613e49565b60018190555060006040518060e0016040528060015481526020018781526020018673ffffffffffffffffffffffffffffffffffffffff16815260200185815260200160016003811115612351577f4e487b7100000000000000000000000000000000000000000000000000000000600052602160045260246000fd5b815260200160001515815260200160006002811115612399577f4e487b7100000000000000000000000000000000000000000000000000000000600052602160045260246000fd5b815250905080600560008773ffffffffffffffffffffffffffffffffffffffff1673ffffffffffffffffffffffffffffffffffffffff168152602001908152602001600020600082015181600001556020820151816001019080519060200190612404929190613089565b5060408201518160020160006101000a81548173ffffffffffffffffffffffffffffffffffffffff021916908373ffffffffffffffffffffffffffffffffffffffff1602179055506060820151816003019080519060200190612468929190613089565b5060808201518160040160006101000a81548160ff021916908360038111156124ba577f4e487b7100000000000000000000000000000000000000000000000000000000600052602160045260246000fd5b021790555060a08201518160040160016101000a81548160ff02191690831515021790555060c08201518160040160026101000a81548160ff02191690836002811115612530577f4e487b7100000000000000000000000000000000000000000000000000000000600052602160045260246000fd5b02179055509050506007859080600181540180825580915050600190039060005260206000200160009091909190916101000a81548173ffffffffffffffffffffffffffffffffffffffff021916908373ffffffffffffffffffffffffffffffffffffffff1602179055507f1cd2322aedf77432d55a859c261bf1cabb90f30da647d482a0c82a8ee447ffa1816000015182602001518360400151846060015185608001518660a001518760c001516040516125f29796959493929190613c9e565b60405180910390a1505050505050565b338073ffffffffffffffffffffffffffffffffffffffff1660008054906101000a900473ffffffffffffffffffffffffffffffffffffffff1673ffffffffffffffffffffffffffffffffffffffff1614612691576040517f08c379a000000000000000000000000000000000000000000000000000000000815260040161268890613b92565b60405180910390fd5b8160008060028111156126cd577f4e487b7100000000000000000000000000000000000000000000000000000000600052602160045260246000fd5b600660008473ffffffffffffffffffffffffffffffffffffffff1673ffffffffffffffffffffffffffffffffffffffff16815260200190815260200160002060040160029054906101000a900460ff166002811115612755577f4e487b7100000000000000000000000000000000000000000000000000000000600052602160045260246000fd5b14612795576040517f08c379a000000000000000000000000000000000000000000000000000000000815260040161278c90613bd2565b60405180910390fd5b6001600660008673ffffffffffffffffffffffffffffffffffffffff1673ffffffffffffffffffffffffffffffffffffffff16815260200190815260200160002060040160016101000a81548160ff0219169083151502179055506001600660008673ffffffffffffffffffffffffffffffffffffffff1673ffffffffffffffffffffffffffffffffffffffff16815260200190815260200160002060040160026101000a81548160ff0219169083600281111561287c577f4e487b7100000000000000000000000000000000000000000000000000000000600052602160045260246000fd5b021790555050505050565b60008060009050600260038111156128c8577f4e487b7100000000000000000000000000000000000000000000000000000000600052602160045260246000fd5b600460008573ffffffffffffffffffffffffffffffffffffffff1673ffffffffffffffffffffffffffffffffffffffff16815260200190815260200160002060040160009054906101000a900460ff166003811115612950577f4e487b7100000000000000000000000000000000000000000000000000000000600052602160045260246000fd5b1480156129b0575060011515600460008573ffffffffffffffffffffffffffffffffffffffff1673ffffffffffffffffffffffffffffffffffffffff16815260200190815260200160002060040160159054906101000a900460ff161515145b905080915050919050565b6060600060015467ffffffffffffffff811115612a01577f4e487b7100000000000000000000000000000000000000000000000000000000600052604160045260246000fd5b604051908082528060200260200182016040528015612a3a57816020015b612a276132b7565b815260200190600190039081612a1f5790505b50905060005b600154811015612dfc576005600060078381548110612a88577f4e487b7100000000000000000000000000000000000000000000000000000000600052603260045260246000fd5b9060005260206000200160009054906101000a900473ffffffffffffffffffffffffffffffffffffffff1673ffffffffffffffffffffffffffffffffffffffff1673ffffffffffffffffffffffffffffffffffffffff1681526020019081526020016000206040518060e001604052908160008201548152602001600182018054612b1290613f73565b80601f0160208091040260200160405190810160405280929190818152602001828054612b3e90613f73565b8015612b8b5780601f10612b6057610100808354040283529160200191612b8b565b820191906000526020600020905b815481529060010190602001808311612b6e57829003601f168201915b505050505081526020016002820160009054906101000a900473ffffffffffffffffffffffffffffffffffffffff1673ffffffffffffffffffffffffffffffffffffffff1673ffffffffffffffffffffffffffffffffffffffff168152602001600382018054612bfa90613f73565b80601f0160208091040260200160405190810160405280929190818152602001828054612c2690613f73565b8015612c735780601f10612c4857610100808354040283529160200191612c73565b820191906000526020600020905b815481529060010190602001808311612c5657829003601f168201915b505050505081526020016004820160009054906101000a900460ff166003811115612cc7577f4e487b7100000000000000000000000000000000000000000000000000000000600052602160045260246000fd5b6003811115612cff577f4e487b7100000000000000000000000000000000000000000000000000000000600052602160045260246000fd5b81526020016004820160019054906101000a900460ff161515151581526020016004820160029054906101000a900460ff166002811115612d69577f4e487b7100000000000000000000000000000000000000000000000000000000600052602160045260246000fd5b6002811115612da1577f4e487b7100000000000000000000000000000000000000000000000000000000600052602160045260246000fd5b81525050828281518110612dde577f4e487b7100000000000000000000000000000000000000000000000000000000600052603260045260246000fd5b60200260200101819052508080612df490613fd6565b915050612a40565b508091505090565b338073ffffffffffffffffffffffffffffffffffffffff1660008054906101000a900473ffffffffffffffffffffffffffffffffffffffff1673ffffffffffffffffffffffffffffffffffffffff1614612e93576040517f08c379a0000000000000000000000000000000000000000000000000000000008152600401612e8a90613b92565b60405180910390fd5b816000806002811115612ecf577f4e487b7100000000000000000000000000000000000000000000000000000000600052602160045260246000fd5b600560008473ffffffffffffffffffffffffffffffffffffffff1673ffffffffffffffffffffffffffffffffffffffff16815260200190815260200160002060040160029054906101000a900460ff166002811115612f57577f4e487b7100000000000000000000000000000000000000000000000000000000600052602160045260246000fd5b14612f97576040517f08c379a0000000000000000000000000000000000000000000000000000000008152600401612f8e90613b52565b60405180910390fd5b6000600560008673ffffffffffffffffffffffffffffffffffffffff1673ffffffffffffffffffffffffffffffffffffffff16815260200190815260200160002060040160016101000a81548160ff0219169083151502179055506002600560008673ffffffffffffffffffffffffffffffffffffffff1673ffffffffffffffffffffffffffffffffffffffff16815260200190815260200160002060040160026101000a81548160ff0219169083600281111561307e577f4e487b7100000000000000000000000000000000000000000000000000000000600052602160045260246000fd5b021790555050505050565b82805461309590613f73565b90600052602060002090601f0160209004810192826130b757600085556130fe565b82601f106130d057805160ff19168380011785556130fe565b828001600101855582156130fe579182015b828111156130fd5782518255916020019190600101906130e2565b5b50905061310b919061337c565b5090565b6040518061010001604052806000815260200160608152602001600073ffffffffffffffffffffffffffffffffffffffff1681526020016060815260200160006003811115613187577f4e487b7100000000000000000000000000000000000000000000000000000000600052602160045260246000fd5b8152602001600073ffffffffffffffffffffffffffffffffffffffff168152602001600015158152602001600060028111156131ec577f4e487b7100000000000000000000000000000000000000000000000000000000600052602160045260246000fd5b81525090565b6040518060e001604052806000815260200160608152602001600073ffffffffffffffffffffffffffffffffffffffff1681526020016060815260200160006003811115613269577f4e487b7100000000000000000000000000000000000000000000000000000000600052602160045260246000fd5b8152602001600015158152602001600060028111156132b1577f4e487b7100000000000000000000000000000000000000000000000000000000600052602160045260246000fd5b81525090565b6040518060e001604052806000815260200160608152602001600073ffffffffffffffffffffffffffffffffffffffff168152602001606081526020016000600381111561332e577f4e487b7100000000000000000000000000000000000000000000000000000000600052602160045260246000fd5b815260200160001515815260200160006002811115613376577f4e487b7100000000000000000000000000000000000000000000000000000000600052602160045260246000fd5b81525090565b5b8082111561339557600081600090555060010161337d565b5090565b60006133ac6133a784613d40565b613d1b565b9050828152602081018484840111156133c457600080fd5b6133cf848285613f31565b509392505050565b6000813590506133e681614282565b92915050565b600082601f8301126133fd57600080fd5b813561340d848260208601613399565b91505092915050565b60006020828403121561342857600080fd5b6000613436848285016133d7565b91505092915050565b60008060006060848603121561345457600080fd5b600084013567ffffffffffffffff81111561346e57600080fd5b61347a868287016133ec565b935050602061348b868287016133d7565b925050604084013567ffffffffffffffff8111156134a857600080fd5b6134b4868287016133ec565b9150509250925092565b60006134ca838361385b565b905092915050565b60006134de8383613912565b905092915050565b60006134f283836139b5565b905092915050565b61350381613e9f565b82525050565b61351281613e9f565b82525050565b600061352382613da1565b61352d8185613df4565b93508360208202850161353f85613d71565b8060005b8581101561357b578484038952815161355c85826134be565b945061356783613dcd565b925060208a01995050600181019050613543565b50829750879550505050505092915050565b600061359882613dac565b6135a28185613e05565b9350836020820285016135b485613d81565b8060005b858110156135f057848403895281516135d185826134d2565b94506135dc83613dda565b925060208a019950506001810190506135b8565b50829750879550505050505092915050565b600061360d82613db7565b6136178185613e16565b93508360208202850161362985613d91565b8060005b85811015613665578484038952815161364685826134e6565b945061365183613de7565b925060208a0199505060018101905061362d565b50829750879550505050505092915050565b61368081613eb1565b82525050565b61368f81613eb1565b82525050565b61369e81613f0d565b82525050565b6136ad81613f0d565b82525050565b6136bc81613f1f565b82525050565b6136cb81613f1f565b82525050565b60006136dc82613dc2565b6136e68185613e27565b93506136f6818560208601613f40565b6136ff816140db565b840191505092915050565b600061371582613dc2565b61371f8185613e38565b935061372f818560208601613f40565b613738816140db565b840191505092915050565b6000613750602083613e38565b915061375b826140ec565b602082019050919050565b6000613773601583613e38565b915061377e82614115565b602082019050919050565b6000613796601c83613e38565b91506137a18261413e565b602082019050919050565b60006137b9601783613e38565b91506137c482614167565b602082019050919050565b60006137dc600983613e38565b91506137e782614190565b602082019050919050565b60006137ff601e83613e38565b915061380a826141b9565b602082019050919050565b6000613822602783613e38565b915061382d826141e2565b604082019050919050565b6000613845600b83613e38565b915061385082614231565b602082019050919050565b6000610100830160008301516138746000860182613a58565b506020830151848203602086015261388c82826136d1565b91505060408301516138a160408601826134fa565b50606083015184820360608601526138b982826136d1565b91505060808301516138ce6080860182613695565b5060a08301516138e160a08601826134fa565b5060c08301516138f460c0860182613677565b5060e083015161390760e08601826136b3565b508091505092915050565b600060e08301600083015161392a6000860182613a58565b506020830151848203602086015261394282826136d1565b915050604083015161395760408601826134fa565b506060830151848203606086015261396f82826136d1565b91505060808301516139846080860182613695565b5060a083015161399760a0860182613677565b5060c08301516139aa60c08601826136b3565b508091505092915050565b600060e0830160008301516139cd6000860182613a58565b50602083015184820360208601526139e582826136d1565b91505060408301516139fa60408601826134fa565b5060608301518482036060860152613a1282826136d1565b9150506080830151613a276080860182613695565b5060a0830151613a3a60a0860182613677565b5060c0830151613a4d60c08601826136b3565b508091505092915050565b613a6181613f03565b82525050565b613a7081613f03565b82525050565b6000602082019050613a8b6000830184613509565b92915050565b60006020820190508181036000830152613aab8184613518565b905092915050565b60006020820190508181036000830152613acd818461358d565b905092915050565b60006020820190508181036000830152613aef8184613602565b905092915050565b6000602082019050613b0c6000830184613686565b92915050565b60006020820190508181036000830152613b2b81613743565b9050919050565b60006020820190508181036000830152613b4b81613766565b9050919050565b60006020820190508181036000830152613b6b81613789565b9050919050565b60006020820190508181036000830152613b8b816137ac565b9050919050565b60006020820190508181036000830152613bab816137cf565b9050919050565b60006020820190508181036000830152613bcb816137f2565b9050919050565b60006020820190508181036000830152613beb81613815565b9050919050565b60006020820190508181036000830152613c0b81613838565b9050919050565b600061010082019050613c28600083018b613a67565b8181036020830152613c3a818a61370a565b9050613c496040830189613509565b8181036060830152613c5b818861370a565b9050613c6a60808301876136a4565b613c7760a0830186613509565b613c8460c0830185613686565b613c9160e08301846136c2565b9998505050505050505050565b600060e082019050613cb3600083018a613a67565b8181036020830152613cc5818961370a565b9050613cd46040830188613509565b8181036060830152613ce6818761370a565b9050613cf560808301866136a4565b613d0260a0830185613686565b613d0f60c08301846136c2565b98975050505050505050565b6000613d25613d36565b9050613d318282613fa5565b919050565b6000604051905090565b600067ffffffffffffffff821115613d5b57613d5a6140ac565b5b613d64826140db565b9050602081019050919050565b6000819050602082019050919050565b6000819050602082019050919050565b6000819050602082019050919050565b600081519050919050565b600081519050919050565b600081519050919050565b600081519050919050565b6000602082019050919050565b6000602082019050919050565b6000602082019050919050565b600082825260208201905092915050565b600082825260208201905092915050565b600082825260208201905092915050565b600082825260208201905092915050565b600082825260208201905092915050565b6000613e5482613f03565b9150613e5f83613f03565b9250827fffffffffffffffffffffffffffffffffffffffffffffffffffffffffffffffff03821115613e9457613e9361401f565b5b828201905092915050565b6000613eaa82613ee3565b9050919050565b60008115159050919050565b6000819050613ecb8261425a565b919050565b6000819050613ede8261426e565b919050565b600073ffffffffffffffffffffffffffffffffffffffff82169050919050565b6000819050919050565b6000613f1882613ebd565b9050919050565b6000613f2a82613ed0565b9050919050565b82818337600083830152505050565b60005b83811015613f5e578082015181840152602081019050613f43565b83811115613f6d576000848401525b50505050565b60006002820490506001821680613f8b57607f821691505b60208210811415613f9f57613f9e61407d565b5b50919050565b613fae826140db565b810181811067ffffffffffffffff82111715613fcd57613fcc6140ac565b5b80604052505050565b6000613fe182613f03565b91507fffffffffffffffffffffffffffffffffffffffffffffffffffffffffffffffff8214156140145761401361401f565b5b600182019050919050565b7f4e487b7100000000000000000000000000000000000000000000000000000000600052601160045260246000fd5b7f4e487b7100000000000000000000000000000000000000000000000000000000600052602160045260246000fd5b7f4e487b7100000000000000000000000000000000000000000000000000000000600052602260045260246000fd5b7f4e487b7100000000000000000000000000000000000000000000000000000000600052604160045260246000fd5b6000601f19601f8301169050919050565b7f496e737572616e636520436f6d70616e7920616c726561647920657869737473600082015250565b7f42726f6b657220616c7265616479206578697374730000000000000000000000600082015250565b7f42726f6b657220697320696e206120496e76616c696420737461746500000000600082015250565b7f426f72726f77657220616c726561647920657869737473000000000000000000600082015250565b7f42616e6b204f6e6c790000000000000000000000000000000000000000000000600082015250565b7f426f72726f77657220697320696e206120496e76616c69642073746174650000600082015250565b7f496e737572616e636520436f6d70616e7920697320696e206120496e76616c6960008201527f6420737461746500000000000000000000000000000000000000000000000000602082015250565b7f42726f6b6572204f6e6c79000000000000000000000000000000000000000000600082015250565b6004811061426b5761426a61404e565b5b50565b6003811061427f5761427e61404e565b5b50565b61428b81613e9f565b811461429657600080fd5b5056fea2646970667358221220777f3a5355c3efb0c64315a0cefce34da2f4e447ac5e6a26b8f2df1fa3d3a5a264736f6c63430008010033",
  "immutableReferences": {},
  "source": "// SPDX-License-Identifier: GPL-3.0\npragma solidity >=0.7.0 <0.9.0;\n\ncontract UserIdentity{\n    \n    enum Role { GUEST, BROKER, BORROWER, INSURER }\n    enum UserState { PENDING, APPROVED, REJECTED }\n    \n    struct Broker{\n        uint id; \n        string socialSecurityId; // each Broker has unique social security id\n        address walletAddress;\n        string name;\n        Role role;\n        bool isBankApproved;\n        UserState state;\n    }\n\n    struct InsuranceCompany{\n        uint id; \n        string registrationNumber; // each company has unique registration number\n        address walletAddress;\n        string name;\n        Role role;\n        bool isBankApproved;\n        UserState state;\n    }\n\n    struct Borrower{\n        uint id; \n        string socialSecurityId; // each Borrower has unique social security id\n        address walletAddress;\n        string name;\n        Role role;\n        address addedBy;\n        bool isBankApproved;\n        UserState state;\n    }\n    \n    event newBrokerAdded(\n        uint id,\n        string socialSecurityId,\n        address walletAddress,\n        string name,\n        Role role,\n        bool isBankApproved,\n        UserState state\n    );\n    \n    event newBorrowerAdded(\n        uint id, \n        string socialSecurityId,\n        address walletAddress,\n        string name,\n        Role role,\n        address addedBy,\n        bool isBankApproved,\n        UserState state\n    );\n    \n    event newInsurerAdded(\n        uint id, \n        string registrationNumber,\n        address walletAddress,\n        string name,\n        Role role,\n        bool isBankApproved,\n        UserState state\n    );\n    \n    address owner;\n    \n    uint private brokersCount = 0;\n    uint private borrowersCount = 0;\n    uint private insurersCount = 0;\n    \n    mapping(address => Borrower) private borrowers;\n    mapping(address => Broker) private brokers;\n    mapping(address => InsuranceCompany) private insurers;\n    \n    address[] private brokersAddresses;\n    address[] private borrowersAddresses;\n    address[] private insurersAddresses;\n    \n    constructor()\n    {\n        owner = msg.sender;\n    }\n    \n    modifier isOwner(address _address)\n    {\n        require(owner == _address, 'Bank Only');\n        _;\n    }\n    \n    modifier isBroker(address _address)\n    {\n        require(brokers[_address].role == Role.BROKER, 'Broker Only');\n        _;\n    }\n    \n    modifier isNewBroker(address _address)\n    {\n        bool isNew = false;\n        if (brokers[_address].id == 0)\n        {\n            isNew = true;\n        }\n        require(isNew, 'Broker already exists');\n        _;\n    }\n    \n    modifier isNewIsnsurer(address _address)\n    {\n        bool isNew = false;\n        if (insurers[_address].id == 0)\n        {\n            isNew = true;\n        }\n        require(isNew, 'Insurance Company already exists');\n        _;\n    }\n    \n    modifier isNewBorrower(address _address)\n    {\n        bool isNew = false;\n        if (borrowers[_address].id == 0)\n        {\n            isNew = true;\n        }\n        require(isNew, 'Borrower already exists');\n        _;\n    }\n\n    modifier isBrokerIn(address _address, UserState _state)\n    {\n        require(brokers[_address].state == _state, 'Broker is in a Invalid state');\n        _;\n    }\n\n    modifier isBorrowerIn(address _address, UserState _state)\n    {\n        require(borrowers[_address].state == _state, 'Borrower is in a Invalid state');\n        _;\n    }\n\n    modifier isInsuranceCompanyIn(address _address, UserState _state)\n    {\n        require(insurers[_address].state == _state, 'Insurance Company is in a Invalid state');\n        _;\n    }\n    \n    function addBroker(string memory _socialSecurityId, address _address, string memory _name) public isNewBroker(_address)\n    {\n        brokersCount = brokersCount + 1;\n        Broker memory user = Broker(brokersCount, _socialSecurityId, _address, _name, Role.BROKER, false, UserState.PENDING);\n        brokers[_address] = user;\n        brokersAddresses.push(_address);\n        emit newBrokerAdded(user.id, user.socialSecurityId, user.walletAddress, user.name, user.role, user.isBankApproved, user.state);\n    }\n    \n    function addInsurer(string memory _registrationNumber, address _address, string memory _name) public isNewIsnsurer(_address)\n    {\n        insurersCount = insurersCount + 1;\n        InsuranceCompany memory user = InsuranceCompany(insurersCount, _registrationNumber, _address, _name, Role.INSURER, false, UserState.PENDING);\n        insurers[_address] = user;\n        insurersAddresses.push(_address);\n        emit newInsurerAdded(user.id, user.registrationNumber, user.walletAddress, user.name, user.role, user.isBankApproved, user.state);\n    }\n    \n    function addBorrower(string memory _socialSecurityId, address _address, string memory _name) public isBroker(msg.sender) isNewBorrower(_address)\n    {\n        borrowersCount = borrowersCount + 1;\n        Borrower memory user = Borrower(borrowersCount, _socialSecurityId, _address, _name,  Role.BORROWER, msg.sender, false, UserState.PENDING);\n        borrowers[_address] = user;\n        borrowersAddresses.push(_address);\n        emit newBorrowerAdded(user.id, user.socialSecurityId, user.walletAddress, user.name, user.role, user.addedBy, user.isBankApproved, user.state);\n    }\n    \n    function verifyIsBroker(address _address) public view returns(bool)\n    {\n        bool isValid = false;\n        isValid = brokers[_address].role == Role.BROKER && brokers[_address].isBankApproved == true;\n        return isValid;\n    }\n    \n    function verifyIsBorrower(address _address) public view returns(bool)\n    {\n        bool isValid = false;\n        isValid = borrowers[_address].role == Role.BORROWER && borrowers[_address].isBankApproved == true;\n        return isValid;\n    }\n    \n    function verifyIsInsurer(address _address) public view returns(bool)\n    {\n        bool isValid = false;\n        isValid = insurers[_address].role == Role.INSURER && insurers[_address].isBankApproved == true;\n        return isValid;\n    }\n\n    function verifyIsBank(address _address) public view returns(bool)\n    {\n        return owner == _address;\n    }\n    \n    function approveBorrower(address _address) public isOwner(msg.sender) isBorrowerIn(_address, UserState.PENDING)\n    {\n        borrowers[_address].isBankApproved = true;\n        borrowers[_address].state = UserState.APPROVED;\n    }\n    \n    function approveBroker(address _address) public isOwner(msg.sender) isBrokerIn(_address, UserState.PENDING)\n    {\n        brokers[_address].isBankApproved = true;\n        brokers[_address].state = UserState.APPROVED;\n    }\n    \n    function approveInsuranceCompany(address _address) public isOwner(msg.sender) isInsuranceCompanyIn(_address, UserState.PENDING)\n    {\n        insurers[_address].isBankApproved = true;\n        insurers[_address].state = UserState.APPROVED;\n    }\n\n    function rejectBorrower(address _address) public isOwner(msg.sender) isBorrowerIn(_address, UserState.PENDING)\n    {\n        borrowers[_address].isBankApproved = false;\n        borrowers[_address].state = UserState.REJECTED;\n    }\n    \n    function rejectBroker(address _address) public isOwner(msg.sender) isBrokerIn(_address, UserState.PENDING)\n    {\n        brokers[_address].isBankApproved = false;\n        brokers[_address].state = UserState.REJECTED;\n    }\n    \n    function rejectInsuranceCompany(address _address) public isOwner(msg.sender) isInsuranceCompanyIn(_address, UserState.PENDING)\n    {\n        insurers[_address].isBankApproved = false;\n        insurers[_address].state = UserState.REJECTED;\n    }\n    \n    function getAllBrokers() public view returns (Broker[] memory){\n        Broker[] memory ret = new Broker[](brokersCount);\n        for (uint i = 0; i < brokersCount; i++) {\n            ret[i] = brokers[brokersAddresses[i]];\n        }\n        return ret;\n    }\n    \n    function getAllInsurers() public view returns (InsuranceCompany[] memory){\n        InsuranceCompany[] memory ret = new InsuranceCompany[](insurersCount);\n        for (uint i = 0; i < insurersCount; i++) {\n            ret[i] = insurers[insurersAddresses[i]];\n        }\n        return ret;\n    }\n    \n    function getAllBorrowers() public view returns (Borrower[] memory){\n        Borrower[] memory ret = new Borrower[](borrowersCount);\n        for (uint i = 0; i < borrowersCount; i++) {\n            ret[i] = borrowers[borrowersAddresses[i]];\n        }\n        return ret;\n    }\n\n    function getBankAddress() public view returns (address _bankAddress){\n        return owner;\n    }\n}",
  "sourcePath": "/Users/huangzhongkai/Desktop/ntu msis/Semester 2/Blockchain System Software Engineering/Topic 6 Decentrailized App/Group Project/BlockChain_Group_Assignment/blockchain/contracts/UserIdentity.sol",
  "compiler": {
    "name": "solc",
    "version": "0.8.1+commit.df193b15.Emscripten.clang"
  },
  "schemaVersion": "3.4.3",
  "updatedAt": "2022-04-09T12:57:42.033Z",
  "networkType": "ethereum",
  "devdoc": {
    "kind": "dev",
    "methods": {},
    "version": 1
  },
  "userdoc": {
    "kind": "user",
    "methods": {},
    "version": 1
  }
}