{
  "contractName": "UserInfo",
  "abi": [
    {
      "inputs": [],
      "stateMutability": "nonpayable",
      "type": "constructor"
    },
    {
      "anonymous": false,
      "inputs": [
        {
          "indexed": false,
          "internalType": "uint256",
          "name": "id",
          "type": "uint256"
        },
        {
          "indexed": false,
          "internalType": "string",
          "name": "socialSecurityId",
          "type": "string"
        },
        {
          "indexed": false,
          "internalType": "address",
          "name": "walletAddress",
          "type": "address"
        },
        {
          "indexed": false,
          "internalType": "string",
          "name": "name",
          "type": "string"
        },
        {
          "indexed": false,
          "internalType": "bool",
          "name": "isBankApproved",
          "type": "bool"
        },
        {
          "indexed": false,
          "internalType": "enum UserInfo.UserState",
          "name": "state",
          "type": "uint8"
        }
      ],
      "name": "newUserAdded",
      "type": "event"
    },
    {
      "inputs": [],
      "name": "bank_admin",
      "outputs": [
        {
          "internalType": "address",
          "name": "",
          "type": "address"
        }
      ],
      "stateMutability": "view",
      "type": "function"
    },
    {
      "inputs": [
        {
          "internalType": "string",
          "name": "_socialId",
          "type": "string"
        },
        {
          "internalType": "address",
          "name": "_walletAddress",
          "type": "address"
        },
        {
          "internalType": "string",
          "name": "_userName",
          "type": "string"
        }
      ],
      "name": "addAccountToBlockchain",
      "outputs": [],
      "stateMutability": "nonpayable",
      "type": "function"
    },
    {
      "inputs": [
        {
          "internalType": "address",
          "name": "_walletAddress",
          "type": "address"
        }
      ],
      "name": "verifyIsUser",
      "outputs": [
        {
          "internalType": "bool",
          "name": "",
          "type": "bool"
        }
      ],
      "stateMutability": "view",
      "type": "function"
    },
    {
      "inputs": [
        {
          "internalType": "address",
          "name": "_walletAddress",
          "type": "address"
        }
      ],
      "name": "verifyIsBank",
      "outputs": [
        {
          "internalType": "bool",
          "name": "",
          "type": "bool"
        }
      ],
      "stateMutability": "view",
      "type": "function"
    },
    {
      "inputs": [
        {
          "internalType": "address",
          "name": "_address",
          "type": "address"
        }
      ],
      "name": "approveUser",
      "outputs": [],
      "stateMutability": "nonpayable",
      "type": "function"
    },
    {
      "inputs": [
        {
          "internalType": "address",
          "name": "_address",
          "type": "address"
        }
      ],
      "name": "rejectUser",
      "outputs": [],
      "stateMutability": "nonpayable",
      "type": "function"
    },
    {
      "inputs": [],
      "name": "getAllUsers",
      "outputs": [
        {
          "components": [
            {
              "internalType": "uint256",
              "name": "id",
              "type": "uint256"
            },
            {
              "internalType": "string",
              "name": "socialId",
              "type": "string"
            },
            {
              "internalType": "address",
              "name": "walletAddress",
              "type": "address"
            },
            {
              "internalType": "string",
              "name": "userName",
              "type": "string"
            },
            {
              "internalType": "bool",
              "name": "isBankApproved",
              "type": "bool"
            },
            {
              "internalType": "enum UserInfo.UserState",
              "name": "state",
              "type": "uint8"
            }
          ],
          "internalType": "struct UserInfo.User[]",
          "name": "",
          "type": "tuple[]"
        }
      ],
      "stateMutability": "view",
      "type": "function"
    },
    {
      "inputs": [],
      "name": "getBankAddress",
      "outputs": [
        {
          "internalType": "address",
          "name": "_bankAddress",
          "type": "address"
        }
      ],
      "stateMutability": "view",
      "type": "function"
    }
  ],
  "bytecode": "0x6080604052600060015534801561001557600080fd5b50336000806101000a81548173ffffffffffffffffffffffffffffffffffffffff021916908373ffffffffffffffffffffffffffffffffffffffff160217905550611833806100656000396000f3fe608060405234801561001057600080fd5b50600436106100885760003560e01c80636fa980bc1161005b5780636fa980bc14610127578063d0b60a8a14610145578063d624fdb614610161578063e2842d791461017d57610088565b80631480a9cb1461008d57806326f8f8e7146100bd5780634dc92885146100ed57806366f780e914610109575b600080fd5b6100a760048036038101906100a2919061104e565b61019b565b6040516100b4919061137c565b60405180910390f35b6100d760048036038101906100d2919061104e565b610204565b6040516100e4919061137c565b60405180910390f35b6101076004803603810190610102919061104e565b61025c565b005b6101116104e0565b60405161011e919061133f565b60405180910390f35b61012f610509565b60405161013c919061133f565b60405180910390f35b61015f600480360381019061015a9190611077565b61052d565b005b61017b6004803603810190610176919061104e565b610861565b005b610185610ae6565b604051610192919061135a565b60405180910390f35b6000806000905060011515600260008573ffffffffffffffffffffffffffffffffffffffff1673ffffffffffffffffffffffffffffffffffffffff16815260200190815260200160002060040160009054906101000a900460ff16151514905080915050919050565b60008173ffffffffffffffffffffffffffffffffffffffff1660008054906101000a900473ffffffffffffffffffffffffffffffffffffffff1673ffffffffffffffffffffffffffffffffffffffff16149050919050565b338073ffffffffffffffffffffffffffffffffffffffff1660008054906101000a900473ffffffffffffffffffffffffffffffffffffffff1673ffffffffffffffffffffffffffffffffffffffff16146102eb576040517f08c379a00000000000000000000000000000000000000000000000000000000081526004016102e2906113b7565b60405180910390fd5b816000806002811115610327577f4e487b7100000000000000000000000000000000000000000000000000000000600052602160045260246000fd5b600260008473ffffffffffffffffffffffffffffffffffffffff1673ffffffffffffffffffffffffffffffffffffffff16815260200190815260200160002060040160019054906101000a900460ff1660028111156103af577f4e487b7100000000000000000000000000000000000000000000000000000000600052602160045260246000fd5b146103ef576040517f08c379a00000000000000000000000000000000000000000000000000000000081526004016103e690611397565b60405180910390fd5b6000600260008673ffffffffffffffffffffffffffffffffffffffff1673ffffffffffffffffffffffffffffffffffffffff16815260200190815260200160002060040160006101000a81548160ff02191690831515021790555060028060008673ffffffffffffffffffffffffffffffffffffffff1673ffffffffffffffffffffffffffffffffffffffff16815260200190815260200160002060040160016101000a81548160ff021916908360028111156104d5577f4e487b7100000000000000000000000000000000000000000000000000000000600052602160045260246000fd5b021790555050505050565b60008060009054906101000a900473ffffffffffffffffffffffffffffffffffffffff16905090565b60008054906101000a900473ffffffffffffffffffffffffffffffffffffffff1681565b338073ffffffffffffffffffffffffffffffffffffffff1660008054906101000a900473ffffffffffffffffffffffffffffffffffffffff1673ffffffffffffffffffffffffffffffffffffffff16146105bc576040517f08c379a00000000000000000000000000000000000000000000000000000000081526004016105b3906113b7565b60405180910390fd5b60018060008282546105ce9190611502565b9250508190555060006040518060c0016040528060015481526020018681526020018573ffffffffffffffffffffffffffffffffffffffff16815260200184815260200160001515815260200160006002811115610655577f4e487b7100000000000000000000000000000000000000000000000000000000600052602160045260246000fd5b815250905080600260008673ffffffffffffffffffffffffffffffffffffffff1673ffffffffffffffffffffffffffffffffffffffff1681526020019081526020016000206000820151816000015560208201518160010190805190602001906106c0929190610ea8565b5060408201518160020160006101000a81548173ffffffffffffffffffffffffffffffffffffffff021916908373ffffffffffffffffffffffffffffffffffffffff1602179055506060820151816003019080519060200190610724929190610ea8565b5060808201518160040160006101000a81548160ff02191690831515021790555060a08201518160040160016101000a81548160ff02191690836002811115610796577f4e487b7100000000000000000000000000000000000000000000000000000000600052602160045260246000fd5b02179055509050506003849080600181540180825580915050600190039060005260206000200160009091909190916101000a81548173ffffffffffffffffffffffffffffffffffffffff021916908373ffffffffffffffffffffffffffffffffffffffff1602179055507f2f259463a2a601c9374e539ed620520c46a202baab553d38238d5df28caa0ece816000015182602001518360400151846060015185608001518660a00151604051610852969594939291906113d7565b60405180910390a15050505050565b338073ffffffffffffffffffffffffffffffffffffffff1660008054906101000a900473ffffffffffffffffffffffffffffffffffffffff1673ffffffffffffffffffffffffffffffffffffffff16146108f0576040517f08c379a00000000000000000000000000000000000000000000000000000000081526004016108e7906113b7565b60405180910390fd5b81600080600281111561092c577f4e487b7100000000000000000000000000000000000000000000000000000000600052602160045260246000fd5b600260008473ffffffffffffffffffffffffffffffffffffffff1673ffffffffffffffffffffffffffffffffffffffff16815260200190815260200160002060040160019054906101000a900460ff1660028111156109b4577f4e487b7100000000000000000000000000000000000000000000000000000000600052602160045260246000fd5b146109f4576040517f08c379a00000000000000000000000000000000000000000000000000000000081526004016109eb90611397565b60405180910390fd5b6001600260008673ffffffffffffffffffffffffffffffffffffffff1673ffffffffffffffffffffffffffffffffffffffff16815260200190815260200160002060040160006101000a81548160ff0219169083151502179055506001600260008673ffffffffffffffffffffffffffffffffffffffff1673ffffffffffffffffffffffffffffffffffffffff16815260200190815260200160002060040160016101000a81548160ff02191690836002811115610adb577f4e487b7100000000000000000000000000000000000000000000000000000000600052602160045260246000fd5b021790555050505050565b6060600060015467ffffffffffffffff811115610b2c577f4e487b7100000000000000000000000000000000000000000000000000000000600052604160045260246000fd5b604051908082528060200260200182016040528015610b6557816020015b610b52610f2e565b815260200190600190039081610b4a5790505b50905060005b600154811015610ea0576002600060038381548110610bb3577f4e487b7100000000000000000000000000000000000000000000000000000000600052603260045260246000fd5b9060005260206000200160009054906101000a900473ffffffffffffffffffffffffffffffffffffffff1673ffffffffffffffffffffffffffffffffffffffff1673ffffffffffffffffffffffffffffffffffffffff1681526020019081526020016000206040518060c001604052908160008201548152602001600182018054610c3d90611607565b80601f0160208091040260200160405190810160405280929190818152602001828054610c6990611607565b8015610cb65780601f10610c8b57610100808354040283529160200191610cb6565b820191906000526020600020905b815481529060010190602001808311610c9957829003601f168201915b505050505081526020016002820160009054906101000a900473ffffffffffffffffffffffffffffffffffffffff1673ffffffffffffffffffffffffffffffffffffffff1673ffffffffffffffffffffffffffffffffffffffff168152602001600382018054610d2590611607565b80601f0160208091040260200160405190810160405280929190818152602001828054610d5190611607565b8015610d9e5780601f10610d7357610100808354040283529160200191610d9e565b820191906000526020600020905b815481529060010190602001808311610d8157829003601f168201915b505050505081526020016004820160009054906101000a900460ff161515151581526020016004820160019054906101000a900460ff166002811115610e0d577f4e487b7100000000000000000000000000000000000000000000000000000000600052602160045260246000fd5b6002811115610e45577f4e487b7100000000000000000000000000000000000000000000000000000000600052602160045260246000fd5b81525050828281518110610e82577f4e487b7100000000000000000000000000000000000000000000000000000000600052603260045260246000fd5b60200260200101819052508080610e989061166a565b915050610b6b565b508091505090565b828054610eb490611607565b90600052602060002090601f016020900481019282610ed65760008555610f1d565b82601f10610eef57805160ff1916838001178555610f1d565b82800160010185558215610f1d579182015b82811115610f1c578251825591602001919060010190610f01565b5b509050610f2a9190610fb4565b5090565b6040518060c001604052806000815260200160608152602001600073ffffffffffffffffffffffffffffffffffffffff1681526020016060815260200160001515815260200160006002811115610fae577f4e487b7100000000000000000000000000000000000000000000000000000000600052602160045260246000fd5b81525090565b5b80821115610fcd576000816000905550600101610fb5565b5090565b6000610fe4610fdf8461146b565b611446565b905082815260208101848484011115610ffc57600080fd5b6110078482856115c5565b509392505050565b60008135905061101e816117e6565b92915050565b600082601f83011261103557600080fd5b8135611045848260208601610fd1565b91505092915050565b60006020828403121561106057600080fd5b600061106e8482850161100f565b91505092915050565b60008060006060848603121561108c57600080fd5b600084013567ffffffffffffffff8111156110a657600080fd5b6110b286828701611024565b93505060206110c38682870161100f565b925050604084013567ffffffffffffffff8111156110e057600080fd5b6110ec86828701611024565b9150509250925092565b60006111028383611291565b905092915050565b61111381611558565b82525050565b61112281611558565b82525050565b6000611133826114ac565b61113d81856114cf565b93508360208202850161114f8561149c565b8060005b8581101561118b578484038952815161116c85826110f6565b9450611177836114c2565b925060208a01995050600181019050611153565b50829750879550505050505092915050565b6111a68161156a565b82525050565b6111b58161156a565b82525050565b6111c4816115b3565b82525050565b6111d3816115b3565b82525050565b60006111e4826114b7565b6111ee81856114e0565b93506111fe8185602086016115d4565b6112078161176f565b840191505092915050565b600061121d826114b7565b61122781856114f1565b93506112378185602086016115d4565b6112408161176f565b840191505092915050565b6000611258601a836114f1565b915061126382611780565b602082019050919050565b600061127b600f836114f1565b9150611286826117a9565b602082019050919050565b600060c0830160008301516112a96000860182611321565b50602083015184820360208601526112c182826111d9565b91505060408301516112d6604086018261110a565b50606083015184820360608601526112ee82826111d9565b9150506080830151611303608086018261119d565b5060a083015161131660a08601826111bb565b508091505092915050565b61132a816115a9565b82525050565b611339816115a9565b82525050565b60006020820190506113546000830184611119565b92915050565b600060208201905081810360008301526113748184611128565b905092915050565b600060208201905061139160008301846111ac565b92915050565b600060208201905081810360008301526113b08161124b565b9050919050565b600060208201905081810360008301526113d08161126e565b9050919050565b600060c0820190506113ec6000830189611330565b81810360208301526113fe8188611212565b905061140d6040830187611119565b818103606083015261141f8186611212565b905061142e60808301856111ac565b61143b60a08301846111ca565b979650505050505050565b6000611450611461565b905061145c8282611639565b919050565b6000604051905090565b600067ffffffffffffffff82111561148657611485611740565b5b61148f8261176f565b9050602081019050919050565b6000819050602082019050919050565b600081519050919050565b600081519050919050565b6000602082019050919050565b600082825260208201905092915050565b600082825260208201905092915050565b600082825260208201905092915050565b600061150d826115a9565b9150611518836115a9565b9250827fffffffffffffffffffffffffffffffffffffffffffffffffffffffffffffffff0382111561154d5761154c6116b3565b5b828201905092915050565b600061156382611589565b9050919050565b60008115159050919050565b6000819050611584826117d2565b919050565b600073ffffffffffffffffffffffffffffffffffffffff82169050919050565b6000819050919050565b60006115be82611576565b9050919050565b82818337600083830152505050565b60005b838110156115f25780820151818401526020810190506115d7565b83811115611601576000848401525b50505050565b6000600282049050600182168061161f57607f821691505b6020821081141561163357611632611711565b5b50919050565b6116428261176f565b810181811067ffffffffffffffff8211171561166157611660611740565b5b80604052505050565b6000611675826115a9565b91507fffffffffffffffffffffffffffffffffffffffffffffffffffffffffffffffff8214156116a8576116a76116b3565b5b600182019050919050565b7f4e487b7100000000000000000000000000000000000000000000000000000000600052601160045260246000fd5b7f4e487b7100000000000000000000000000000000000000000000000000000000600052602160045260246000fd5b7f4e487b7100000000000000000000000000000000000000000000000000000000600052602260045260246000fd5b7f4e487b7100000000000000000000000000000000000000000000000000000000600052604160045260246000fd5b6000601f19601f8301169050919050565b7f5573657220697320696e206120496e76616c6964207374617465000000000000600082015250565b7f42616e6b2041646d696e204f6e6c790000000000000000000000000000000000600082015250565b600381106117e3576117e26116e2565b5b50565b6117ef81611558565b81146117fa57600080fd5b5056fea264697066735822122018e576d386f8bf4226f9b1894f9d07c9141d4e8433113b104d8f0ff8cf95bd9364736f6c63430008010033",
  "immutableReferences": {},
  "source": "// SPDX-License-Identifier: MIT\npragma solidity >=0.4.2 <0.9.0;\n\ncontract UserInfo{\n\n    //enum Role { Borrower, Company } // Do we need to identity the difference from the borrower and company for bank\n    enum UserState { PENDING, APPROVED, REJECTED }\n\n    struct User{\n        uint id; \n        string socialId; // everyone has an unique social id\n        address walletAddress; // User wallet address\n        string userName;\n        //string userType;  //Admin, users (For bank, there is no difference between ABC company and consumers)\n        bool isBankApproved;\n        UserState state;\n        //uint uType;  //0=personal, 1=business\n    }\n\n    event newUserAdded(\n        uint id,\n        string socialSecurityId,\n        address walletAddress,\n        string name,\n        bool isBankApproved,\n        UserState state\n    );\n\n    address public bank_admin; //Stores smart contract deployers(Bank) address\n\n    uint usersCount = 0;\n\n    mapping(address => User) private users;\n\n    address[] private usersAddresses;\n\n    constructor(){\n        bank_admin = msg.sender;\n    }\n\n    modifier isAdmin(address _address){\n        // Checks _address is the smart contract admins(Bank) address.\n        require(bank_admin == _address, 'Bank Admin Only');\n        _;\n    }\n\n    modifier isUserIn(address _address, UserState _state)\n    {\n        require(users[_address].state == _state, 'User is in a Invalid state');\n        _;\n    }\n\n    function addAccountToBlockchain(string memory _socialId, address _walletAddress, string memory _userName) \n        public isAdmin(msg.sender)\n    {\n        usersCount += 1; //usersCount = usersCount + 1\n        User memory user = User(usersCount, _socialId, _walletAddress, _userName,  false, UserState.PENDING);\n        users[_walletAddress] = user;\n        usersAddresses.push(_walletAddress);\n        emit newUserAdded(user.id, user.socialId, user.walletAddress, user.userName, user.isBankApproved, user.state);\n    }\n\n    function verifyIsUser(address _walletAddress) public view returns(bool)\n    {\n        bool isValid = false;\n        isValid = users[_walletAddress].isBankApproved == true;\n        return isValid;\n    }\n\n    function verifyIsBank(address _walletAddress) public view returns(bool)\n    {\n        return bank_admin == _walletAddress;\n    }\n\n    function approveUser(address _address) public isAdmin(msg.sender) isUserIn(_address, UserState.PENDING)\n    {\n        users[_address].isBankApproved = true;\n        users[_address].state = UserState.APPROVED;\n    }\n\n    function rejectUser(address _address) public isAdmin(msg.sender) isUserIn(_address, UserState.PENDING)\n    {\n        users[_address].isBankApproved = false;\n        users[_address].state = UserState.REJECTED;\n    }\n    \n\n    function getAllUsers() public view returns (User[] memory){\n        User[] memory ret = new User[](usersCount);\n        for (uint i = 0; i < usersCount; i++) {\n            ret[i] = users[usersAddresses[i]];\n        }\n        return ret;\n    }\n\n    function getBankAddress() public view returns (address _bankAddress){\n        return bank_admin;\n    }\n\n\n}",
  "sourcePath": "/Users/huangzhongkai/Desktop/ntu msis/Semester 2/Blockchain System Software Engineering/Topic 6 Decentrailized App/Group Project/BlockChain_Group_Assignment/blockchain/contracts/UserInfo.sol",
  "compiler": {
    "name": "solc",
    "version": "0.8.1+commit.df193b15.Emscripten.clang"
  },
  "schemaVersion": "3.4.3",
  "updatedAt": "2022-04-09T09:44:59.886Z",
  "devdoc": {
    "kind": "dev",
    "methods": {},
    "version": 1
  },
  "userdoc": {
    "kind": "user",
    "methods": {},
    "version": 1
  }
}