{
  "contractName": "CarRental",
  "abi": [
    {
      "inputs": [
        {
          "internalType": "address",
          "name": "_userIdentityAddress",
          "type": "address"
        },
        {
          "internalType": "address",
          "name": "_microTokenAddress",
          "type": "address"
        }
      ],
      "stateMutability": "payable",
      "type": "constructor",
      "payable": true
    },
    {
      "anonymous": false,
      "inputs": [
        {
          "indexed": false,
          "internalType": "uint256",
          "name": "carId",
          "type": "uint256"
        },
        {
          "indexed": false,
          "internalType": "string",
          "name": "carBrand",
          "type": "string"
        },
        {
          "indexed": false,
          "internalType": "string",
          "name": "carDescription",
          "type": "string"
        },
        {
          "indexed": false,
          "internalType": "string",
          "name": "carVin",
          "type": "string"
        },
        {
          "indexed": false,
          "internalType": "uint256",
          "name": "carSeat",
          "type": "uint256"
        },
        {
          "indexed": false,
          "internalType": "bool",
          "name": "carAvailable",
          "type": "bool"
        },
        {
          "indexed": false,
          "internalType": "uint256",
          "name": "carPrice",
          "type": "uint256"
        }
      ],
      "name": "addCarInfoRequest",
      "type": "event"
    },
    {
      "anonymous": false,
      "inputs": [
        {
          "components": [
            {
              "internalType": "uint256",
              "name": "renterRecordId",
              "type": "uint256"
            },
            {
              "internalType": "uint256",
              "name": "carId",
              "type": "uint256"
            },
            {
              "internalType": "string",
              "name": "renterId",
              "type": "string"
            },
            {
              "internalType": "address",
              "name": "walletAddress",
              "type": "address"
            },
            {
              "internalType": "uint256",
              "name": "startDate",
              "type": "uint256"
            },
            {
              "internalType": "uint256",
              "name": "endDate",
              "type": "uint256"
            },
            {
              "internalType": "uint256",
              "name": "duration",
              "type": "uint256"
            },
            {
              "internalType": "bool",
              "name": "carReturned",
              "type": "bool"
            },
            {
              "internalType": "uint256",
              "name": "extraFee",
              "type": "uint256"
            },
            {
              "internalType": "uint256",
              "name": "deposit",
              "type": "uint256"
            },
            {
              "internalType": "uint256",
              "name": "lateFee",
              "type": "uint256"
            },
            {
              "internalType": "enum CarRental.RentState",
              "name": "state",
              "type": "uint8"
            }
          ],
          "indexed": false,
          "internalType": "struct CarRental.rentalRecord",
          "name": "",
          "type": "tuple"
        }
      ],
      "name": "carRentalRequest",
      "type": "event"
    },
    {
      "inputs": [],
      "name": "carCount",
      "outputs": [
        {
          "internalType": "uint256",
          "name": "",
          "type": "uint256"
        }
      ],
      "stateMutability": "view",
      "type": "function",
      "constant": true
    },
    {
      "inputs": [],
      "name": "companyAddress",
      "outputs": [
        {
          "internalType": "address payable",
          "name": "",
          "type": "address"
        }
      ],
      "stateMutability": "view",
      "type": "function",
      "constant": true
    },
    {
      "inputs": [],
      "name": "identitySC",
      "outputs": [
        {
          "internalType": "contract UserIdentity",
          "name": "",
          "type": "address"
        }
      ],
      "stateMutability": "view",
      "type": "function",
      "constant": true
    },
    {
      "inputs": [
        {
          "internalType": "uint256",
          "name": "",
          "type": "uint256"
        }
      ],
      "name": "renters",
      "outputs": [
        {
          "internalType": "uint256",
          "name": "userId",
          "type": "uint256"
        },
        {
          "internalType": "string",
          "name": "socialId",
          "type": "string"
        },
        {
          "internalType": "string",
          "name": "userName",
          "type": "string"
        },
        {
          "internalType": "uint256",
          "name": "userAge",
          "type": "uint256"
        },
        {
          "internalType": "address",
          "name": "walletAddress",
          "type": "address"
        }
      ],
      "stateMutability": "view",
      "type": "function",
      "constant": true
    },
    {
      "inputs": [],
      "name": "tokenSC",
      "outputs": [
        {
          "internalType": "contract MicroToken",
          "name": "",
          "type": "address"
        }
      ],
      "stateMutability": "view",
      "type": "function",
      "constant": true
    },
    {
      "inputs": [
        {
          "internalType": "uint256",
          "name": "_CarId",
          "type": "uint256"
        },
        {
          "internalType": "string",
          "name": "_carBrand",
          "type": "string"
        },
        {
          "internalType": "string",
          "name": "_carDescription",
          "type": "string"
        },
        {
          "internalType": "string",
          "name": "_carVin",
          "type": "string"
        },
        {
          "internalType": "uint256",
          "name": "_carSeat",
          "type": "uint256"
        },
        {
          "internalType": "bool",
          "name": "_available",
          "type": "bool"
        },
        {
          "internalType": "uint256",
          "name": "_carPrice",
          "type": "uint256"
        },
        {
          "internalType": "address",
          "name": "contractAddress",
          "type": "address"
        }
      ],
      "name": "addCarInfo",
      "outputs": [],
      "stateMutability": "payable",
      "type": "function",
      "payable": true
    },
    {
      "inputs": [
        {
          "internalType": "uint256",
          "name": "_carId",
          "type": "uint256"
        },
        {
          "internalType": "string",
          "name": "_carBrand",
          "type": "string"
        },
        {
          "internalType": "string",
          "name": "_carDescription",
          "type": "string"
        },
        {
          "internalType": "string",
          "name": "_carVin",
          "type": "string"
        },
        {
          "internalType": "uint256",
          "name": "_carSeat",
          "type": "uint256"
        },
        {
          "internalType": "uint256",
          "name": "_carPrice",
          "type": "uint256"
        }
      ],
      "name": "editCarInfo",
      "outputs": [],
      "stateMutability": "payable",
      "type": "function",
      "payable": true
    },
    {
      "inputs": [
        {
          "internalType": "uint256",
          "name": "_carId",
          "type": "uint256"
        }
      ],
      "name": "deleteCarInfo",
      "outputs": [],
      "stateMutability": "payable",
      "type": "function",
      "payable": true
    },
    {
      "inputs": [
        {
          "internalType": "uint256",
          "name": "_carId",
          "type": "uint256"
        },
        {
          "internalType": "string",
          "name": "_renterId",
          "type": "string"
        },
        {
          "internalType": "uint256",
          "name": "_startDate",
          "type": "uint256"
        },
        {
          "internalType": "uint256",
          "name": "_endDate",
          "type": "uint256"
        },
        {
          "internalType": "uint256",
          "name": "_duration",
          "type": "uint256"
        }
      ],
      "name": "applyCar",
      "outputs": [],
      "stateMutability": "payable",
      "type": "function",
      "payable": true
    },
    {
      "inputs": [
        {
          "internalType": "uint256",
          "name": "_duration",
          "type": "uint256"
        },
        {
          "internalType": "uint256",
          "name": "_carId",
          "type": "uint256"
        }
      ],
      "name": "calculateDeposit",
      "outputs": [
        {
          "internalType": "uint256",
          "name": "deposit",
          "type": "uint256"
        }
      ],
      "stateMutability": "view",
      "type": "function",
      "constant": true
    },
    {
      "inputs": [
        {
          "internalType": "uint256",
          "name": "_renterRecordId",
          "type": "uint256"
        },
        {
          "internalType": "uint256",
          "name": "_carId",
          "type": "uint256"
        }
      ],
      "name": "approveRent",
      "outputs": [],
      "stateMutability": "nonpayable",
      "type": "function"
    },
    {
      "inputs": [
        {
          "internalType": "uint256",
          "name": "_renterRecordId",
          "type": "uint256"
        },
        {
          "internalType": "uint256",
          "name": "_carId",
          "type": "uint256"
        }
      ],
      "name": "rejectRent",
      "outputs": [],
      "stateMutability": "nonpayable",
      "type": "function"
    },
    {
      "inputs": [
        {
          "internalType": "uint256",
          "name": "_renterRecordId",
          "type": "uint256"
        }
      ],
      "name": "returnDeposit",
      "outputs": [],
      "stateMutability": "payable",
      "type": "function",
      "payable": true
    },
    {
      "inputs": [
        {
          "internalType": "uint256",
          "name": "_renterRecordId",
          "type": "uint256"
        }
      ],
      "name": "applyReturnCar",
      "outputs": [],
      "stateMutability": "nonpayable",
      "type": "function"
    },
    {
      "inputs": [
        {
          "internalType": "uint256",
          "name": "_renterRecordId",
          "type": "uint256"
        },
        {
          "internalType": "uint256",
          "name": "_extraFee",
          "type": "uint256"
        },
        {
          "internalType": "uint256",
          "name": "_returnYear",
          "type": "uint256"
        },
        {
          "internalType": "uint256",
          "name": "_returnMonth",
          "type": "uint256"
        },
        {
          "internalType": "uint256",
          "name": "_returnDay",
          "type": "uint256"
        }
      ],
      "name": "confirmReturn",
      "outputs": [],
      "stateMutability": "nonpayable",
      "type": "function"
    },
    {
      "inputs": [
        {
          "internalType": "uint256",
          "name": "_renterRecordId",
          "type": "uint256"
        }
      ],
      "name": "payFee",
      "outputs": [],
      "stateMutability": "nonpayable",
      "type": "function"
    },
    {
      "inputs": [
        {
          "internalType": "uint256",
          "name": "year",
          "type": "uint256"
        }
      ],
      "name": "leapYearsBefore",
      "outputs": [
        {
          "internalType": "uint256",
          "name": "",
          "type": "uint256"
        }
      ],
      "stateMutability": "pure",
      "type": "function",
      "constant": true
    },
    {
      "inputs": [
        {
          "internalType": "uint16",
          "name": "year",
          "type": "uint16"
        }
      ],
      "name": "isLeapYear",
      "outputs": [
        {
          "internalType": "bool",
          "name": "",
          "type": "bool"
        }
      ],
      "stateMutability": "pure",
      "type": "function",
      "constant": true
    },
    {
      "inputs": [
        {
          "internalType": "address",
          "name": "_walletAddress",
          "type": "address"
        },
        {
          "internalType": "uint256",
          "name": "_amount",
          "type": "uint256"
        }
      ],
      "name": "carTransfer",
      "outputs": [
        {
          "internalType": "bool",
          "name": "",
          "type": "bool"
        }
      ],
      "stateMutability": "payable",
      "type": "function",
      "payable": true
    },
    {
      "inputs": [],
      "name": "getAllCars",
      "outputs": [
        {
          "components": [
            {
              "internalType": "uint256",
              "name": "carId",
              "type": "uint256"
            },
            {
              "internalType": "string",
              "name": "carBrand",
              "type": "string"
            },
            {
              "internalType": "string",
              "name": "carDescription",
              "type": "string"
            },
            {
              "internalType": "string",
              "name": "carVin",
              "type": "string"
            },
            {
              "internalType": "uint256",
              "name": "carSeat",
              "type": "uint256"
            },
            {
              "internalType": "bool",
              "name": "carAvailable",
              "type": "bool"
            },
            {
              "internalType": "uint256",
              "name": "carPrice",
              "type": "uint256"
            }
          ],
          "internalType": "struct CarRental.carInfo[]",
          "name": "",
          "type": "tuple[]"
        }
      ],
      "stateMutability": "view",
      "type": "function",
      "constant": true
    },
    {
      "inputs": [
        {
          "internalType": "uint256",
          "name": "_carId",
          "type": "uint256"
        }
      ],
      "name": "getCarById",
      "outputs": [
        {
          "components": [
            {
              "internalType": "uint256",
              "name": "carId",
              "type": "uint256"
            },
            {
              "internalType": "string",
              "name": "carBrand",
              "type": "string"
            },
            {
              "internalType": "string",
              "name": "carDescription",
              "type": "string"
            },
            {
              "internalType": "string",
              "name": "carVin",
              "type": "string"
            },
            {
              "internalType": "uint256",
              "name": "carSeat",
              "type": "uint256"
            },
            {
              "internalType": "bool",
              "name": "carAvailable",
              "type": "bool"
            },
            {
              "internalType": "uint256",
              "name": "carPrice",
              "type": "uint256"
            }
          ],
          "internalType": "struct CarRental.carInfo",
          "name": "",
          "type": "tuple"
        }
      ],
      "stateMutability": "view",
      "type": "function",
      "constant": true
    },
    {
      "inputs": [],
      "name": "getAllReconds",
      "outputs": [
        {
          "components": [
            {
              "internalType": "uint256",
              "name": "renterRecordId",
              "type": "uint256"
            },
            {
              "internalType": "uint256",
              "name": "carId",
              "type": "uint256"
            },
            {
              "internalType": "string",
              "name": "renterId",
              "type": "string"
            },
            {
              "internalType": "address",
              "name": "walletAddress",
              "type": "address"
            },
            {
              "internalType": "uint256",
              "name": "startDate",
              "type": "uint256"
            },
            {
              "internalType": "uint256",
              "name": "endDate",
              "type": "uint256"
            },
            {
              "internalType": "uint256",
              "name": "duration",
              "type": "uint256"
            },
            {
              "internalType": "bool",
              "name": "carReturned",
              "type": "bool"
            },
            {
              "internalType": "uint256",
              "name": "extraFee",
              "type": "uint256"
            },
            {
              "internalType": "uint256",
              "name": "deposit",
              "type": "uint256"
            },
            {
              "internalType": "uint256",
              "name": "lateFee",
              "type": "uint256"
            },
            {
              "internalType": "enum CarRental.RentState",
              "name": "state",
              "type": "uint8"
            }
          ],
          "internalType": "struct CarRental.rentalRecord[]",
          "name": "",
          "type": "tuple[]"
        }
      ],
      "stateMutability": "view",
      "type": "function",
      "constant": true
    },
    {
      "inputs": [
        {
          "internalType": "uint256",
          "name": "_recordId",
          "type": "uint256"
        }
      ],
      "name": "getRecordById",
      "outputs": [
        {
          "components": [
            {
              "internalType": "uint256",
              "name": "renterRecordId",
              "type": "uint256"
            },
            {
              "internalType": "uint256",
              "name": "carId",
              "type": "uint256"
            },
            {
              "internalType": "string",
              "name": "renterId",
              "type": "string"
            },
            {
              "internalType": "address",
              "name": "walletAddress",
              "type": "address"
            },
            {
              "internalType": "uint256",
              "name": "startDate",
              "type": "uint256"
            },
            {
              "internalType": "uint256",
              "name": "endDate",
              "type": "uint256"
            },
            {
              "internalType": "uint256",
              "name": "duration",
              "type": "uint256"
            },
            {
              "internalType": "bool",
              "name": "carReturned",
              "type": "bool"
            },
            {
              "internalType": "uint256",
              "name": "extraFee",
              "type": "uint256"
            },
            {
              "internalType": "uint256",
              "name": "deposit",
              "type": "uint256"
            },
            {
              "internalType": "uint256",
              "name": "lateFee",
              "type": "uint256"
            },
            {
              "internalType": "enum CarRental.RentState",
              "name": "state",
              "type": "uint8"
            }
          ],
          "internalType": "struct CarRental.rentalRecord",
          "name": "",
          "type": "tuple"
        }
      ],
      "stateMutability": "view",
      "type": "function",
      "constant": true
    }
  ],
  "bytecode": "0x60806040526000600555604051620049be380380620049be83398181016040528101906200002e91906200010f565b33600260006101000a81548173ffffffffffffffffffffffffffffffffffffffff021916908373ffffffffffffffffffffffffffffffffffffffff160217905550806000806101000a81548173ffffffffffffffffffffffffffffffffffffffff021916908373ffffffffffffffffffffffffffffffffffffffff16021790555081600160006101000a81548173ffffffffffffffffffffffffffffffffffffffff021916908373ffffffffffffffffffffffffffffffffffffffff16021790555050506200019e565b600081519050620001098162000184565b92915050565b600080604083850312156200012357600080fd5b60006200013385828601620000f8565b92505060206200014685828601620000f8565b9150509250929050565b60006200015d8262000164565b9050919050565b600073ffffffffffffffffffffffffffffffffffffffff82169050919050565b6200018f8162000150565b81146200019b57600080fd5b50565b61481080620001ae6000396000f3fe6080604052600436106101405760003560e01c8063b1999937116100b6578063d289ade21161006f578063d289ade21461043a578063dcc3974b14610463578063e4033666146104a4578063e75b8b23146104c0578063f3450c7d146104fd578063f4914a8f1461052657610140565b8063b199993714610341578063b748b5991461037e578063bed31acc1461039a578063c16849c0146103c3578063c320241e146103ee578063c838ab6a1461041e57610140565b806353e1ead91161010857806353e1ead91461021d5780638154ab0f146102485780638299f0de1461028557806390720b32146102ae578063a6f0e577146102d9578063abfe5d571461031657610140565b806301c4ecc4146101455780630c18c62c1461016e57806318b683fb146101ab578063297a1f56146101c7578063381190aa146101f2575b600080fd5b34801561015157600080fd5b5061016c600480360381019061016791906134e5565b610542565b005b34801561017a57600080fd5b50610195600480360381019061019091906134e5565b61070c565b6040516101a29190613f3a565b60405180910390f35b6101c560048036038101906101c09190613262565b610785565b005b3480156101d357600080fd5b506101dc6109d9565b6040516101e99190613f3a565b60405180910390f35b3480156101fe57600080fd5b506102076109df565b6040516102149190613d83565b60405180910390f35b34801561022957600080fd5b50610232610c19565b60405161023f9190613ce6565b60405180910390f35b34801561025457600080fd5b5061026f600480360381019061026a9190613262565b610c3f565b60405161027c9190613ef6565b60405180910390f35b34801561029157600080fd5b506102ac60048036038101906102a791906134e5565b610e90565b005b3480156102ba57600080fd5b506102c36110ca565b6040516102d09190613ddb565b60405180910390f35b3480156102e557600080fd5b5061030060048036038101906102fb9190613239565b6110f0565b60405161030d9190613da5565b60405180910390f35b34801561032257600080fd5b5061032b61115f565b6040516103389190613d61565b60405180910390f35b34801561034d57600080fd5b5061036860048036038101906103639190613262565b6113ad565b6040516103759190613f3a565b60405180910390f35b61039860048036038101906103939190613456565b611401565b005b3480156103a657600080fd5b506103c160048036038101906103bc9190613262565b61174c565b005b3480156103cf57600080fd5b506103d86118df565b6040516103e59190613dc0565b60405180910390f35b610408600480360381019061040391906131d4565b611903565b6040516104159190613da5565b60405180910390f35b61043860048036038101906104339190613262565b6119be565b005b34801561044657600080fd5b50610461600480360381019061045c9190613262565b611ab5565b005b34801561046f57600080fd5b5061048a60048036038101906104859190613262565b611e33565b60405161049b959493929190613fd9565b60405180910390f35b6104be60048036038101906104b9919061328b565b611f99565b005b3480156104cc57600080fd5b506104e760048036038101906104e29190613262565b6122a2565b6040516104f49190613f18565b60405180910390f35b34801561050957600080fd5b50610524600480360381019061051f9190613521565b6124df565b005b610540600480360381019061053b9190613385565b612aae565b005b600260009054906101000a900473ffffffffffffffffffffffffffffffffffffffff1673ffffffffffffffffffffffffffffffffffffffff163373ffffffffffffffffffffffffffffffffffffffff16146105d2576040517f08c379a00000000000000000000000000000000000000000000000000000000081526004016105c990613ed6565b60405180910390fd5b80600060038054905082116105e657600190505b806105f057600080fd5b60005b60048054905081101561070557846004828154811061063b577f4e487b7100000000000000000000000000000000000000000000000000000000600052603260045260246000fd5b90600052602060002090600c02016000015414156106f25760026004828154811061068f577f4e487b7100000000000000000000000000000000000000000000000000000000600052603260045260246000fd5b90600052602060002090600c0201600b0160006101000a81548160ff021916908360078111156106e8577f4e487b7100000000000000000000000000000000000000000000000000000000600052602160045260246000fd5b0217905550610705565b80806106fd90614414565b9150506105f3565b5050505050565b60006064600a846003858154811061074d577f4e487b7100000000000000000000000000000000000000000000000000000000600052603260045260246000fd5b90600052602060002090600702016006015461076991906141d6565b61077391906141d6565b61077d91906141a5565b905092915050565b600260009054906101000a900473ffffffffffffffffffffffffffffffffffffffff1673ffffffffffffffffffffffffffffffffffffffff163373ffffffffffffffffffffffffffffffffffffffff1614610815576040517f08c379a000000000000000000000000000000000000000000000000000000000815260040161080c90613ed6565b60405180910390fd5b600060046001836108269190614230565b8154811061085d577f4e487b7100000000000000000000000000000000000000000000000000000000600052603260045260246000fd5b90600052602060002090600c020160030160009054906101000a900473ffffffffffffffffffffffffffffffffffffffff1690508073ffffffffffffffffffffffffffffffffffffffff166108fc60046001856108ba9190614230565b815481106108f1577f4e487b7100000000000000000000000000000000000000000000000000000000600052603260045260246000fd5b90600052602060002090600c0201600901549081150290604051600060405180830381858888f1935050505015801561092e573d6000803e3d6000fd5b50600360046001846109409190614230565b81548110610977577f4e487b7100000000000000000000000000000000000000000000000000000000600052603260045260246000fd5b90600052602060002090600c0201600b0160006101000a81548160ff021916908360078111156109d0577f4e487b7100000000000000000000000000000000000000000000000000000000600052602160045260246000fd5b02179055505050565b60055481565b60606004805480602002602001604051908101604052809291908181526020016000905b82821015610c1057838290600052602060002090600c0201604051806101800160405290816000820154815260200160018201548152602001600282018054610a4b906143b1565b80601f0160208091040260200160405190810160405280929190818152602001828054610a77906143b1565b8015610ac45780601f10610a9957610100808354040283529160200191610ac4565b820191906000526020600020905b815481529060010190602001808311610aa757829003601f168201915b505050505081526020016003820160009054906101000a900473ffffffffffffffffffffffffffffffffffffffff1673ffffffffffffffffffffffffffffffffffffffff1673ffffffffffffffffffffffffffffffffffffffff1681526020016004820154815260200160058201548152602001600682015481526020016007820160009054906101000a900460ff161515151581526020016008820154815260200160098201548152602001600a8201548152602001600b820160009054906101000a900460ff166007811115610bc5577f4e487b7100000000000000000000000000000000000000000000000000000000600052602160045260246000fd5b6007811115610bfd577f4e487b7100000000000000000000000000000000000000000000000000000000600052602160045260246000fd5b8152505081526020019060010190610a03565b50505050905090565b600260009054906101000a900473ffffffffffffffffffffffffffffffffffffffff1681565b610c47612f70565b60038281548110610c81577f4e487b7100000000000000000000000000000000000000000000000000000000600052603260045260246000fd5b90600052602060002090600702016040518060e001604052908160008201548152602001600182018054610cb4906143b1565b80601f0160208091040260200160405190810160405280929190818152602001828054610ce0906143b1565b8015610d2d5780601f10610d0257610100808354040283529160200191610d2d565b820191906000526020600020905b815481529060010190602001808311610d1057829003601f168201915b50505050508152602001600282018054610d46906143b1565b80601f0160208091040260200160405190810160405280929190818152602001828054610d72906143b1565b8015610dbf5780601f10610d9457610100808354040283529160200191610dbf565b820191906000526020600020905b815481529060010190602001808311610da257829003601f168201915b50505050508152602001600382018054610dd8906143b1565b80601f0160208091040260200160405190810160405280929190818152602001828054610e04906143b1565b8015610e515780601f10610e2657610100808354040283529160200191610e51565b820191906000526020600020905b815481529060010190602001808311610e3457829003601f168201915b50505050508152602001600482015481526020016005820160009054906101000a900460ff161515151581526020016006820154815250509050919050565b600260009054906101000a900473ffffffffffffffffffffffffffffffffffffffff1673ffffffffffffffffffffffffffffffffffffffff163373ffffffffffffffffffffffffffffffffffffffff1614610f20576040517f08c379a0000000000000000000000000000000000000000000000000000000008152600401610f1790613ed6565b60405180910390fd5b8060006003805490508211610f3457600190505b80610f3e57600080fd5b60005b600480549050811015611053578460048281548110610f89577f4e487b7100000000000000000000000000000000000000000000000000000000600052603260045260246000fd5b90600052602060002090600c020160000154141561104057600160048281548110610fdd577f4e487b7100000000000000000000000000000000000000000000000000000000600052603260045260246000fd5b90600052602060002090600c0201600b0160006101000a81548160ff02191690836007811115611036577f4e487b7100000000000000000000000000000000000000000000000000000000600052602160045260246000fd5b0217905550611053565b808061104b90614414565b915050610f41565b50600060036001856110659190614230565b8154811061109c577f4e487b7100000000000000000000000000000000000000000000000000000000600052603260045260246000fd5b906000526020600020906007020160050160006101000a81548160ff02191690831515021790555050505050565b600160009054906101000a900473ffffffffffffffffffffffffffffffffffffffff1681565b600080600483611100919061445d565b61ffff1614611112576000905061115a565b6000606483611121919061445d565b61ffff1614611133576001905061115a565b600061019083611143919061445d565b61ffff1614611155576000905061115a565b600190505b919050565b60606003805480602002602001604051908101604052809291908181526020016000905b828210156113a457838290600052602060002090600702016040518060e0016040529081600082015481526020016001820180546111c0906143b1565b80601f01602080910402602001604051908101604052809291908181526020018280546111ec906143b1565b80156112395780601f1061120e57610100808354040283529160200191611239565b820191906000526020600020905b81548152906001019060200180831161121c57829003601f168201915b50505050508152602001600282018054611252906143b1565b80601f016020809104026020016040519081016040528092919081815260200182805461127e906143b1565b80156112cb5780601f106112a0576101008083540402835291602001916112cb565b820191906000526020600020905b8154815290600101906020018083116112ae57829003601f168201915b505050505081526020016003820180546112e4906143b1565b80601f0160208091040260200160405190810160405280929190818152602001828054611310906143b1565b801561135d5780601f106113325761010080835404028352916020019161135d565b820191906000526020600020905b81548152906001019060200180831161134057829003601f168201915b50505050508152602001600482015481526020016005820160009054906101000a900460ff1615151515815260200160068201548152505081526020019060010190611183565b50505050905090565b60006001826113bc9190614230565b9150610190826113cc91906141a5565b6064836113d991906141a5565b6004846113e691906141a5565b6113f09190614230565b6113fa919061414f565b9050919050565b846000600380549050821161141557600190505b8061141f57600080fd5b600061142b848961070c565b9050600060405180610180016040528060048054905081526020018a81526020018981526020013373ffffffffffffffffffffffffffffffffffffffff1681526020018881526020018781526020018681526020016000151581526020016000815260200183815260200160008152602001600060078111156114d7577f4e487b7100000000000000000000000000000000000000000000000000000000600052602160045260246000fd5b815250905060048190806001815401808255809150506001900390600052602060002090600c020160009091909190915060008201518160000155602082015181600101556040820151816002019080519060200190611538929190612faf565b5060608201518160030160006101000a81548173ffffffffffffffffffffffffffffffffffffffff021916908373ffffffffffffffffffffffffffffffffffffffff1602179055506080820151816004015560a0820151816005015560c0820151816006015560e08201518160070160006101000a81548160ff0219169083151502179055506101008201518160080155610120820151816009015561014082015181600a015561016082015181600b0160006101000a81548160ff02191690836007811115611631577f4e487b7100000000000000000000000000000000000000000000000000000000600052602160045260246000fd5b021790555050507f221c91a14f8109c2d4bdb801422a667197dfd44b98a501c4a58570ffcc870f5c816040516116679190613f18565b60405180910390a160008054906101000a900473ffffffffffffffffffffffffffffffffffffffff1673ffffffffffffffffffffffffffffffffffffffff166323b872dd33600260009054906101000a900473ffffffffffffffffffffffffffffffffffffffff16856040518463ffffffff1660e01b81526004016116ee93929190613d01565b602060405180830381600087803b15801561170857600080fd5b505af115801561171c573d6000803e3d6000fd5b505050506040513d601f19601f820116820180604052508101906117409190613210565b50505050505050505050565b600160009054906101000a900473ffffffffffffffffffffffffffffffffffffffff1673ffffffffffffffffffffffffffffffffffffffff1663e701c350336040518263ffffffff1660e01b81526004016117a79190613ccb565b60206040518083038186803b1580156117bf57600080fd5b505afa1580156117d3573d6000803e3d6000fd5b505050506040513d601f19601f820116820180604052508101906117f79190613210565b611836576040517f08c379a000000000000000000000000000000000000000000000000000000000815260040161182d90613eb6565b60405180910390fd5b600660046001836118479190614230565b8154811061187e577f4e487b7100000000000000000000000000000000000000000000000000000000600052603260045260246000fd5b90600052602060002090600c0201600b0160006101000a81548160ff021916908360078111156118d7577f4e487b7100000000000000000000000000000000000000000000000000000000600052602160045260246000fd5b021790555050565b60008054906101000a900473ffffffffffffffffffffffffffffffffffffffff1681565b60008060009054906101000a900473ffffffffffffffffffffffffffffffffffffffff1673ffffffffffffffffffffffffffffffffffffffff1663a9059cbb84846040518363ffffffff1660e01b8152600401611961929190613d38565b602060405180830381600087803b15801561197b57600080fd5b505af115801561198f573d6000803e3d6000fd5b505050506040513d601f19601f820116820180604052508101906119b39190613210565b506001905092915050565b600260009054906101000a900473ffffffffffffffffffffffffffffffffffffffff1673ffffffffffffffffffffffffffffffffffffffff163373ffffffffffffffffffffffffffffffffffffffff1614611a4e576040517f08c379a0000000000000000000000000000000000000000000000000000000008152600401611a4590613ed6565b60405180910390fd5b600060038281548110611a8a577f4e487b7100000000000000000000000000000000000000000000000000000000600052603260045260246000fd5b906000526020600020906007020160050160006101000a81548160ff02191690831515021790555050565b6000611b6f6004600184611ac99190614230565b81548110611b00577f4e487b7100000000000000000000000000000000000000000000000000000000600052603260045260246000fd5b90600052602060002090600c0201600401546004600185611b219190614230565b81548110611b58577f4e487b7100000000000000000000000000000000000000000000000000000000600052603260045260246000fd5b90600052602060002090600c020160050154612e27565b90506000600360016004600186611b869190614230565b81548110611bbd577f4e487b7100000000000000000000000000000000000000000000000000000000600052603260045260246000fd5b90600052602060002090600c020160010154611bd99190614230565b81548110611c10577f4e487b7100000000000000000000000000000000000000000000000000000000600052603260045260246000fd5b906000526020600020906007020160060154905060006004600185611c359190614230565b81548110611c6c577f4e487b7100000000000000000000000000000000000000000000000000000000600052603260045260246000fd5b90600052602060002090600c020160080154600a60098486611c8e91906141d6565b611c9891906141d6565b611ca291906141a5565b611cac919061414f565b9050600260009054906101000a900473ffffffffffffffffffffffffffffffffffffffff1673ffffffffffffffffffffffffffffffffffffffff166108fc829081150290604051600060405180830381858888f19350505050158015611d16573d6000803e3d6000fd5b5060016004600186611d289190614230565b81548110611d5f577f4e487b7100000000000000000000000000000000000000000000000000000000600052603260045260246000fd5b90600052602060002090600c020160070160006101000a81548160ff02191690831515021790555060056004600186611d989190614230565b81548110611dcf577f4e487b7100000000000000000000000000000000000000000000000000000000600052603260045260246000fd5b90600052602060002090600c0201600b0160006101000a81548160ff02191690836007811115611e28577f4e487b7100000000000000000000000000000000000000000000000000000000600052602160045260246000fd5b021790555050505050565b6006602052806000526040600020600091509050806000015490806001018054611e5c906143b1565b80601f0160208091040260200160405190810160405280929190818152602001828054611e88906143b1565b8015611ed55780601f10611eaa57610100808354040283529160200191611ed5565b820191906000526020600020905b815481529060010190602001808311611eb857829003601f168201915b505050505090806002018054611eea906143b1565b80601f0160208091040260200160405190810160405280929190818152602001828054611f16906143b1565b8015611f635780601f10611f3857610100808354040283529160200191611f63565b820191906000526020600020905b815481529060010190602001808311611f4657829003601f168201915b5050505050908060030154908060040160009054906101000a900473ffffffffffffffffffffffffffffffffffffffff16905085565b60006001905060006040518060e001604052808b81526020018a8152602001898152602001888152602001878152602001861515815260200185815250905060005b6003805490508110156120725787805190602001206003828154811061202a577f4e487b7100000000000000000000000000000000000000000000000000000000600052603260045260246000fd5b90600052602060002090600702016003016040516120489190613cb4565b6040518091039020141561205f5760009250612072565b808061206a90614414565b915050611fdb565b5060011515821515146120ba576040517f08c379a00000000000000000000000000000000000000000000000000000000081526004016120b190613e16565b60405180910390fd5b60008054906101000a900473ffffffffffffffffffffffffffffffffffffffff1673ffffffffffffffffffffffffffffffffffffffff1663a9059cbb8460648761210491906141a5565b6040518363ffffffff1660e01b8152600401612121929190613d38565b602060405180830381600087803b15801561213b57600080fd5b505af115801561214f573d6000803e3d6000fd5b505050506040513d601f19601f820116820180604052508101906121739190613210565b5060038190806001815401808255809150506001900390600052602060002090600702016000909190919091506000820151816000015560208201518160010190805190602001906121c6929190612faf565b5060408201518160020190805190602001906121e3929190612faf565b506060820151816003019080519060200190612200929190612faf565b506080820151816004015560a08201518160050160006101000a81548160ff02191690831515021790555060c0820151816006015550507f821fa57cf05e4406458f2fd9d7e252602d8e319fac403a30e084ba48e5024deb816000015182602001518360400151846060015185608001518660a001518760c0015160405161228e9796959493929190613f55565b60405180910390a150505050505050505050565b6122aa613035565b600482815481106122e4577f4e487b7100000000000000000000000000000000000000000000000000000000600052603260045260246000fd5b90600052602060002090600c0201604051806101800160405290816000820154815260200160018201548152602001600282018054612322906143b1565b80601f016020809104026020016040519081016040528092919081815260200182805461234e906143b1565b801561239b5780601f106123705761010080835404028352916020019161239b565b820191906000526020600020905b81548152906001019060200180831161237e57829003601f168201915b505050505081526020016003820160009054906101000a900473ffffffffffffffffffffffffffffffffffffffff1673ffffffffffffffffffffffffffffffffffffffff1673ffffffffffffffffffffffffffffffffffffffff1681526020016004820154815260200160058201548152602001600682015481526020016007820160009054906101000a900460ff161515151581526020016008820154815260200160098201548152602001600a8201548152602001600b820160009054906101000a900460ff16600781111561249c577f4e487b7100000000000000000000000000000000000000000000000000000000600052602160045260246000fd5b60078111156124d4577f4e487b7100000000000000000000000000000000000000000000000000000000600052602160045260246000fd5b815250509050919050565b600260009054906101000a900473ffffffffffffffffffffffffffffffffffffffff1673ffffffffffffffffffffffffffffffffffffffff163373ffffffffffffffffffffffffffffffffffffffff161461256f576040517f08c379a000000000000000000000000000000000000000000000000000000000815260040161256690613ed6565b60405180910390fd5b6000151560046001876125829190614230565b815481106125b9577f4e487b7100000000000000000000000000000000000000000000000000000000600052603260045260246000fd5b90600052602060002090600c020160070160009054906101000a900460ff1615151461261a576040517f08c379a000000000000000000000000000000000000000000000000000000000815260040161261190613e36565b60405180910390fd5b601f811115801561262c575060018110155b61266b576040517f08c379a000000000000000000000000000000000000000000000000000000000815260040161266290613e76565b60405180910390fd5b600c821115801561267d575060018210155b6126bc576040517f08c379a00000000000000000000000000000000000000000000000000000000081526004016126b390613df6565b60405180910390fd5b6126c542612e5d565b8314612706576040517f08c379a00000000000000000000000000000000000000000000000000000000081526004016126fd90613e96565b60405180910390fd5b8060046001876127169190614230565b8154811061274d577f4e487b7100000000000000000000000000000000000000000000000000000000600052603260045260246000fd5b90600052602060002090600c02016005018190555060006127c560046001886127769190614230565b815481106127ad577f4e487b7100000000000000000000000000000000000000000000000000000000600052603260045260246000fd5b90600052602060002090600c02016004015483612e27565b9050600060036001600460018a6127dc9190614230565b81548110612813577f4e487b7100000000000000000000000000000000000000000000000000000000600052603260045260246000fd5b90600052602060002090600c02016001015461282f9190614230565b81548110612866577f4e487b7100000000000000000000000000000000000000000000000000000000600052603260045260246000fd5b906000526020600020906007020160060154905060046001886128899190614230565b815481106128c0577f4e487b7100000000000000000000000000000000000000000000000000000000600052603260045260246000fd5b90600052602060002090600c0201600601548211156129a35760046001886128e89190614230565b8154811061291f577f4e487b7100000000000000000000000000000000000000000000000000000000600052603260045260246000fd5b90600052602060002090600c0201600601548261293c9190614230565b8161294791906141d6565b60046001896129569190614230565b8154811061298d577f4e487b7100000000000000000000000000000000000000000000000000000000600052603260045260246000fd5b90600052602060002090600c0201600a01819055505b8560046001896129b39190614230565b815481106129ea577f4e487b7100000000000000000000000000000000000000000000000000000000600052603260045260246000fd5b90600052602060002090600c02016008018190555060066004600189612a109190614230565b81548110612a47577f4e487b7100000000000000000000000000000000000000000000000000000000600052603260045260246000fd5b90600052602060002090600c0201600b0160006101000a81548160ff02191690836007811115612aa0577f4e487b7100000000000000000000000000000000000000000000000000000000600052602160045260246000fd5b021790555050505050505050565b600260009054906101000a900473ffffffffffffffffffffffffffffffffffffffff1673ffffffffffffffffffffffffffffffffffffffff163373ffffffffffffffffffffffffffffffffffffffff1614612b3e576040517f08c379a0000000000000000000000000000000000000000000000000000000008152600401612b3590613ed6565b60405180910390fd5b6000856003600189612b509190614230565b81548110612b87577f4e487b7100000000000000000000000000000000000000000000000000000000600052603260045260246000fd5b90600052602060002090600702016001019080519060200190612bab929190612faf565b50846003600189612bbc9190614230565b81548110612bf3577f4e487b7100000000000000000000000000000000000000000000000000000000600052603260045260246000fd5b90600052602060002090600702016002019080519060200190612c17929190612faf565b50826003600189612c289190614230565b81548110612c5f577f4e487b7100000000000000000000000000000000000000000000000000000000600052603260045260246000fd5b906000526020600020906007020160040181905550816003600189612c849190614230565b81548110612cbb577f4e487b7100000000000000000000000000000000000000000000000000000000600052603260045260246000fd5b90600052602060002090600702016006018190555060005b600380549050811015612d6a57848051906020012060038281548110612d22577f4e487b7100000000000000000000000000000000000000000000000000000000600052603260045260246000fd5b9060005260206000209060070201600301604051612d409190613cb4565b60405180910390201415612d575760019150612d6a565b8080612d6290614414565b915050612cd3565b506000151581151514612db2576040517f08c379a0000000000000000000000000000000000000000000000000000000008152600401612da990613e56565b60405180910390fd5b836003600189612dc29190614230565b81548110612df9577f4e487b7100000000000000000000000000000000000000000000000000000000600052603260045260246000fd5b90600052602060002090600702016003019080519060200190612e1d929190612faf565b5050505050505050565b60008062015180905082841115612e3d57600080fd5b808484612e4a9190614230565b612e5491906141a5565b91505092915050565b600080600090506000806107b2905060006301e13380905060006301e2850090508187612e8a91906141a5565b8361ffff16612e99919061414f565b61ffff169550612eac8361ffff166113ad565b612eb5876113ad565b612ebf9190614230565b93508381612ecd91906141d6565b85612ed8919061414f565b9450838361ffff1687612eeb9190614230565b612ef59190614230565b82612f0091906141d6565b85612f0b919061414f565b94505b86851115612f6657612f2b600187612f269190614230565b6110f0565b15612f43578085612f3c9190614230565b9450612f52565b8185612f4f9190614230565b94505b600186612f5f9190614230565b9550612f0e565b5050505050919050565b6040518060e001604052806000815260200160608152602001606081526020016060815260200160008152602001600015158152602001600081525090565b828054612fbb906143b1565b90600052602060002090601f016020900481019282612fdd5760008555613024565b82601f10612ff657805160ff1916838001178555613024565b82800160010185558215613024579182015b82811115613023578251825591602001919060010190613008565b5b50905061303191906130e6565b5090565b604051806101800160405280600081526020016000815260200160608152602001600073ffffffffffffffffffffffffffffffffffffffff168152602001600081526020016000815260200160008152602001600015158152602001600081526020016000815260200160008152602001600060078111156130e0577f4e487b7100000000000000000000000000000000000000000000000000000000600052602160045260246000fd5b81525090565b5b808211156130ff5760008160009055506001016130e7565b5090565b60006131166131118461405f565b61403a565b90508281526020810184848401111561312e57600080fd5b61313984828561436f565b509392505050565b6000813590506131508161477e565b92915050565b60008135905061316581614795565b92915050565b60008151905061317a81614795565b92915050565b600082601f83011261319157600080fd5b81356131a1848260208601613103565b91505092915050565b6000813590506131b9816147ac565b92915050565b6000813590506131ce816147c3565b92915050565b600080604083850312156131e757600080fd5b60006131f585828601613141565b9250506020613206858286016131bf565b9150509250929050565b60006020828403121561322257600080fd5b60006132308482850161316b565b91505092915050565b60006020828403121561324b57600080fd5b6000613259848285016131aa565b91505092915050565b60006020828403121561327457600080fd5b6000613282848285016131bf565b91505092915050565b600080600080600080600080610100898b0312156132a857600080fd5b60006132b68b828c016131bf565b985050602089013567ffffffffffffffff8111156132d357600080fd5b6132df8b828c01613180565b975050604089013567ffffffffffffffff8111156132fc57600080fd5b6133088b828c01613180565b965050606089013567ffffffffffffffff81111561332557600080fd5b6133318b828c01613180565b95505060806133428b828c016131bf565b94505060a06133538b828c01613156565b93505060c06133648b828c016131bf565b92505060e06133758b828c01613141565b9150509295985092959890939650565b60008060008060008060c0878903121561339e57600080fd5b60006133ac89828a016131bf565b965050602087013567ffffffffffffffff8111156133c957600080fd5b6133d589828a01613180565b955050604087013567ffffffffffffffff8111156133f257600080fd5b6133fe89828a01613180565b945050606087013567ffffffffffffffff81111561341b57600080fd5b61342789828a01613180565b935050608061343889828a016131bf565b92505060a061344989828a016131bf565b9150509295509295509295565b600080600080600060a0868803121561346e57600080fd5b600061347c888289016131bf565b955050602086013567ffffffffffffffff81111561349957600080fd5b6134a588828901613180565b94505060406134b6888289016131bf565b93505060606134c7888289016131bf565b92505060806134d8888289016131bf565b9150509295509295909350565b600080604083850312156134f857600080fd5b6000613506858286016131bf565b9250506020613517858286016131bf565b9150509250929050565b600080600080600060a0868803121561353957600080fd5b6000613547888289016131bf565b9550506020613558888289016131bf565b9450506040613569888289016131bf565b935050606061357a888289016131bf565b925050608061358b888289016131bf565b9150509295509295909350565b60006135a4838361393a565b905092915050565b60006135b88383613a8e565b905092915050565b6135c9816142df565b82525050565b6135d881614276565b82525050565b6135e781614264565b82525050565b6135f681614264565b82525050565b6000613607826140c5565b6136118185614100565b93508360208202850161362385614090565b8060005b8581101561365f57848403895281516136408582613598565b945061364b836140e6565b925060208a01995050600181019050613627565b50829750879550505050505092915050565b600061367c826140d0565b6136868185614111565b935083602082028501613698856140a0565b8060005b858110156136d457848403895281516136b585826135ac565b94506136c0836140f3565b925060208a0199505060018101905061369c565b50829750879550505050505092915050565b6136ef81614288565b82525050565b6136fe81614288565b82525050565b60008154613711816143b1565b61371b8186614122565b9450600182166000811461373657600181146137475761377a565b60ff1983168652818601935061377a565b613750856140b0565b60005b8381101561377257815481890152600182019150602081019050613753565b838801955050505b50505092915050565b61378c816142f1565b82525050565b61379b81614315565b82525050565b6137aa81614339565b82525050565b60006137bb826140db565b6137c5818561412d565b93506137d581856020860161437e565b6137de81614579565b840191505092915050565b60006137f4826140db565b6137fe818561413e565b935061380e81856020860161437e565b61381781614579565b840191505092915050565b600061382f60198361413e565b915061383a8261458a565b602082019050919050565b600061385260228361413e565b915061385d826145b3565b604082019050919050565b600061387560238361413e565b915061388082614602565b604082019050919050565b6000613898601a8361413e565b91506138a382614651565b602082019050919050565b60006138bb60178361413e565b91506138c68261467a565b602082019050919050565b60006138de60488361413e565b91506138e9826146a3565b606082019050919050565b600061390160128361413e565b915061390c82614718565b602082019050919050565b600061392460208361413e565b915061392f82614741565b602082019050919050565b600060e0830160008301516139526000860182613c96565b506020830151848203602086015261396a82826137b0565b9150506040830151848203604086015261398482826137b0565b9150506060830151848203606086015261399e82826137b0565b91505060808301516139b36080860182613c96565b5060a08301516139c660a08601826136e6565b5060c08301516139d960c0860182613c96565b508091505092915050565b600060e0830160008301516139fc6000860182613c96565b5060208301518482036020860152613a1482826137b0565b91505060408301518482036040860152613a2e82826137b0565b91505060608301518482036060860152613a4882826137b0565b9150506080830151613a5d6080860182613c96565b5060a0830151613a7060a08601826136e6565b5060c0830151613a8360c0860182613c96565b508091505092915050565b600061018083016000830151613aa76000860182613c96565b506020830151613aba6020860182613c96565b5060408301518482036040860152613ad282826137b0565b9150506060830151613ae760608601826135de565b506080830151613afa6080860182613c96565b5060a0830151613b0d60a0860182613c96565b5060c0830151613b2060c0860182613c96565b5060e0830151613b3360e08601826136e6565b50610100830151613b48610100860182613c96565b50610120830151613b5d610120860182613c96565b50610140830151613b72610140860182613c96565b50610160830151613b876101608601826137a1565b508091505092915050565b600061018083016000830151613bab6000860182613c96565b506020830151613bbe6020860182613c96565b5060408301518482036040860152613bd682826137b0565b9150506060830151613beb60608601826135de565b506080830151613bfe6080860182613c96565b5060a0830151613c1160a0860182613c96565b5060c0830151613c2460c0860182613c96565b5060e0830151613c3760e08601826136e6565b50610100830151613c4c610100860182613c96565b50610120830151613c61610120860182613c96565b50610140830151613c76610140860182613c96565b50610160830151613c8b6101608601826137a1565b508091505092915050565b613c9f816142d5565b82525050565b613cae816142d5565b82525050565b6000613cc08284613704565b915081905092915050565b6000602082019050613ce060008301846135ed565b92915050565b6000602082019050613cfb60008301846135cf565b92915050565b6000606082019050613d1660008301866135ed565b613d2360208301856135c0565b613d306040830184613ca5565b949350505050565b6000604082019050613d4d60008301856135ed565b613d5a6020830184613ca5565b9392505050565b60006020820190508181036000830152613d7b81846135fc565b905092915050565b60006020820190508181036000830152613d9d8184613671565b905092915050565b6000602082019050613dba60008301846136f5565b92915050565b6000602082019050613dd56000830184613783565b92915050565b6000602082019050613df06000830184613792565b92915050565b60006020820190508181036000830152613e0f81613822565b9050919050565b60006020820190508181036000830152613e2f81613845565b9050919050565b60006020820190508181036000830152613e4f81613868565b9050919050565b60006020820190508181036000830152613e6f8161388b565b9050919050565b60006020820190508181036000830152613e8f816138ae565b9050919050565b60006020820190508181036000830152613eaf816138d1565b9050919050565b60006020820190508181036000830152613ecf816138f4565b9050919050565b60006020820190508181036000830152613eef81613917565b9050919050565b60006020820190508181036000830152613f1081846139e4565b905092915050565b60006020820190508181036000830152613f328184613b92565b905092915050565b6000602082019050613f4f6000830184613ca5565b92915050565b600060e082019050613f6a600083018a613ca5565b8181036020830152613f7c81896137e9565b90508181036040830152613f9081886137e9565b90508181036060830152613fa481876137e9565b9050613fb36080830186613ca5565b613fc060a08301856136f5565b613fcd60c0830184613ca5565b98975050505050505050565b600060a082019050613fee6000830188613ca5565b818103602083015261400081876137e9565b9050818103604083015261401481866137e9565b90506140236060830185613ca5565b61403060808301846135ed565b9695505050505050565b6000614044614055565b905061405082826143e3565b919050565b6000604051905090565b600067ffffffffffffffff82111561407a5761407961454a565b5b61408382614579565b9050602081019050919050565b6000819050602082019050919050565b6000819050602082019050919050565b60008190508160005260206000209050919050565b600081519050919050565b600081519050919050565b600081519050919050565b6000602082019050919050565b6000602082019050919050565b600082825260208201905092915050565b600082825260208201905092915050565b600081905092915050565b600082825260208201905092915050565b600082825260208201905092915050565b600061415a826142d5565b9150614165836142d5565b9250827fffffffffffffffffffffffffffffffffffffffffffffffffffffffffffffffff0382111561419a5761419961448e565b5b828201905092915050565b60006141b0826142d5565b91506141bb836142d5565b9250826141cb576141ca6144bd565b5b828204905092915050565b60006141e1826142d5565b91506141ec836142d5565b9250817fffffffffffffffffffffffffffffffffffffffffffffffffffffffffffffffff04831182151516156142255761422461448e565b5b828202905092915050565b600061423b826142d5565b9150614246836142d5565b9250828210156142595761425861448e565b5b828203905092915050565b600061426f826142b5565b9050919050565b6000614281826142b5565b9050919050565b60008115159050919050565b60008190506142a28261476a565b919050565b600061ffff82169050919050565b600073ffffffffffffffffffffffffffffffffffffffff82169050919050565b6000819050919050565b60006142ea8261434b565b9050919050565b60006142fc82614303565b9050919050565b600061430e826142b5565b9050919050565b600061432082614327565b9050919050565b6000614332826142b5565b9050919050565b600061434482614294565b9050919050565b60006143568261435d565b9050919050565b6000614368826142b5565b9050919050565b82818337600083830152505050565b60005b8381101561439c578082015181840152602081019050614381565b838111156143ab576000848401525b50505050565b600060028204905060018216806143c957607f821691505b602082108114156143dd576143dc61451b565b5b50919050565b6143ec82614579565b810181811067ffffffffffffffff8211171561440b5761440a61454a565b5b80604052505050565b600061441f826142d5565b91507fffffffffffffffffffffffffffffffffffffffffffffffffffffffffffffffff8214156144525761445161448e565b5b600182019050919050565b6000614468826142a7565b9150614473836142a7565b925082614483576144826144bd565b5b828206905092915050565b7f4e487b7100000000000000000000000000000000000000000000000000000000600052601160045260246000fd5b7f4e487b7100000000000000000000000000000000000000000000000000000000600052601260045260246000fd5b7f4e487b7100000000000000000000000000000000000000000000000000000000600052602160045260246000fd5b7f4e487b7100000000000000000000000000000000000000000000000000000000600052602260045260246000fd5b7f4e487b7100000000000000000000000000000000000000000000000000000000600052604160045260246000fd5b6000601f19601f8301169050919050565b7f436865636b20796f7572206d6f6e746820656e74657265642100000000000000600082015250565b7f4475706c69636174656420636172206c6963656e73652076696e206e756d626560008201527f7221000000000000000000000000000000000000000000000000000000000000602082015250565b7f54686973206361722068617320616c7265616479206265656e2072657475726e60008201527f65642e0000000000000000000000000000000000000000000000000000000000602082015250565b7f4475706c696361746564206361722076696e206e756d62657221000000000000600082015250565b7f436865636b20796f75722064617920656e746572656421000000000000000000600082015250565b7f59656172206f662072657475726e2073686f756c64206265207468652063757260008201527f72656e742079656172206e6f772077686963682074686520636172206973207260208201527f657475726e65642e000000000000000000000000000000000000000000000000604082015250565b7f42616e6b20426f72726f776572204f6e6c790000000000000000000000000000600082015250565b7f4974206d7573742062652041424320636f6d70616e7927732061646472657373600082015250565b6008811061477b5761477a6144ec565b5b50565b61478781614264565b811461479257600080fd5b50565b61479e81614288565b81146147a957600080fd5b50565b6147b5816142a7565b81146147c057600080fd5b50565b6147cc816142d5565b81146147d757600080fd5b5056fea2646970667358221220baa638acbfe3f6e6bf0c042fdc8385ce8a9b05405b78ad28310d60ccd696342d64736f6c63430008010033",
  "immutableReferences": {},
  "source": "// SPDX-License-Identifier: GPL-3.0-or-later\r\npragma solidity >=0.7.0 <0.9.0;\r\n\r\nimport \"./MicroToken.sol\";\r\nimport \"./UserIdentity.sol\";\r\n// import \"truffle/Console.sol\";\r\n\r\ncontract CarRental{\r\n\r\n    enum RentState{\r\n        REQUESTED,\r\n        COMPANY_APPROVED, \r\n        COMPANY_REJECTED, \r\n        DEPOSIT_RETURNED,\r\n        RENTER_SIGNED, \r\n        CLOSE,\r\n        WAITING_TO_PAY,\r\n        ACCOUNT_LOCKED\r\n    }\r\n    //(op)Dodo can buy insurance for the rental. She can buy while signing a contract with the company. The company will represent the Insurance Co.\r\n    //(op)Dodo needs to transfer insurance fees to the company. \r\n    //(op)The company transfers part of the insurance fee to the Insurance Co. when rental begins and transfers the left part after the contract is over.\r\n    //Above need extra RentState\r\n\r\n    enum RegisterState{\r\n        REQUESTED,\r\n        COMPANY_APPROVED, \r\n        COMPANY_REJECTED\r\n    }\r\n\r\n    //Do we need RENTER_SIGNED really need???\r\n\r\n    // Designing a structure to store the information of ABC Rental company's car fleet \r\n    struct carInfo {\r\n        uint carId; //Incremental generation \r\n        string carBrand; // Car brand \r\n        string carDescription; // Description about car\r\n        string carVin; // Car vehicle identification number \r\n        uint carSeat; // \r\n        bool carAvailable; // Available: true ; Not Available: false\r\n        uint carPrice; // Car rental price per day\r\n    }\r\n\r\n    // Designing a structure to store the information of renter\r\n    struct renterInfo {\r\n        uint userId;\r\n        string socialId; // Renter social id\r\n        string userName; // Renter name\r\n        uint userAge; // Renter age\r\n        address walletAddress; // Wallet address of customer\r\n        //IERC20 renterToken; // renter IERC20 token\r\n    }\r\n\r\n    // Designing a structure to store the car renting history \r\n    struct rentalRecord {\r\n        uint renterRecordId;\r\n        uint carId; // Car id\r\n        string renterId; // Renter identity\r\n        address walletAddress; // Wallet address of customer\r\n        uint startDate;  // Start date\r\n        uint endDate;   // End date\r\n        uint duration;  // Num of days\r\n        bool carReturned; // Car return status \r\n        uint extraFee; // Extra fee\r\n        uint deposit; // deposit\r\n        uint lateFee; //late Fee\r\n        RentState state;\r\n    }\r\n\r\n    event carRentalRequest (rentalRecord);\r\n\r\n    event addCarInfoRequest(\r\n        uint carId, \r\n        string carBrand,\r\n        string carDescription,\r\n        string carVin, \r\n        uint carSeat, \r\n        bool carAvailable,\r\n        uint carPrice\r\n    );\r\n\r\n    // do we need car available date\r\n\r\n    MicroToken public tokenSC; // \r\n    // add user identity management\r\n    UserIdentity public identitySC;\r\n    address payable public companyAddress; // the address of the ABC company's account\r\n    carInfo[] private cars;\r\n    rentalRecord[] private records; // to store the rental records\r\n    uint public carCount = 0; // count the number of the cars added\r\n\r\n    mapping(uint => renterInfo) public renters; // to store the information of each rente\r\n\r\n    constructor (address _userIdentityAddress, address _microTokenAddress) payable{\r\n            companyAddress = payable(msg.sender);\r\n            tokenSC = MicroToken(_microTokenAddress);\r\n            identitySC = UserIdentity(_userIdentityAddress);\r\n    }\r\n\r\n    // Modifiers  \r\n    modifier isABCCompany()\r\n    {\r\n        require(msg.sender == companyAddress, \"It must be ABC company's address\");\r\n        _;\r\n    }\r\n\r\n    //if car available,user car id or car vin?\r\n    modifier isAvailableCar(uint _carId) \r\n    {\r\n        bool isAvailable = false;\r\n        if (_carId <= cars.length) {\r\n            isAvailable = true;\r\n        }\r\n        require(isAvailable);\r\n        _;\r\n    }\r\n\r\n    // A modifier that uses for the function which can only be called by Borrower.\r\n    modifier onlyRegisteredCustomerCanCall {\r\n        // Now only borrower can request rent\r\n        require(identitySC.verifyIsBorrower(msg.sender), \"Bank Borrower Only\");\r\n       _;\r\n   }\r\n\r\n    //Do we need modifier to verify renter's address???\r\n\r\n    //add user just need add rentRequest or still need \r\n\r\n    function addCarInfo(uint _CarId, string memory _carBrand, string memory _carDescription, string memory _carVin, uint _carSeat, bool _available, uint _carPrice, address contractAddress) public payable \r\n    {\r\n        // isABCCompany\r\n        bool carVinUnique = true;\r\n        carInfo memory car = carInfo(_CarId, _carBrand, _carDescription, _carVin, _carSeat, _available, _carPrice);\r\n        for (uint i = 0; i < cars.length; i++) {\r\n            if (keccak256(bytes(cars[i].carVin)) == keccak256(bytes(_carVin))) {\r\n                carVinUnique = false;\r\n                break; \r\n            }\r\n        }\r\n\r\n        require(carVinUnique == true, \"Duplicated car license vin number!\");\r\n        tokenSC.transfer(contractAddress, _carPrice / 100);\r\n        cars.push(car);\r\n        emit addCarInfoRequest(car.carId, car.carBrand, car.carDescription, car.carVin, car.carSeat, car.carAvailable, car.carPrice);\r\n\r\n    }\r\n\r\n    function editCarInfo(uint _carId, string memory _carBrand, string memory _carDescription, string memory _carVin, uint _carSeat, uint _carPrice) payable public isABCCompany{\r\n        //isABCCompany()\r\n        //carVin can not change->vin unique check do in server\r\n        bool carVinRepeat = false;\r\n        cars[_carId-1].carBrand = _carBrand;\r\n        cars[_carId-1].carDescription = _carDescription;\r\n        cars[_carId-1].carSeat = _carSeat;\r\n        cars[_carId-1].carPrice = _carPrice;\r\n        for (uint i = 0; i < cars.length; i++) {\r\n            if (keccak256(bytes(cars[i].carVin)) == keccak256(bytes(_carVin))) {\r\n                carVinRepeat = true;\r\n                break;\r\n            }\r\n        }\r\n        require(carVinRepeat == false, \"Duplicated car vin number!\");\r\n        cars[_carId-1].carVin = _carVin;\r\n    }\r\n\r\n    function deleteCarInfo(uint _carId) public payable isABCCompany {\r\n        //In case id issue, so just change the car status\r\n        cars[_carId].carAvailable = false;\r\n    }\r\n\r\n    function applyCar(uint _carId, string memory _renterId, uint _startDate, uint _endDate, uint _duration) payable public isAvailableCar(_carId) {\r\n        //onlyRegisteredCustomerCanCall\r\n        uint deposit = calculateDeposit(_duration, _carId);\r\n\r\n        rentalRecord memory record = rentalRecord(records.length, _carId, _renterId, msg.sender, _startDate, _endDate, _duration, false, 0, deposit, 0, RentState.REQUESTED);\r\n        records.push(record);\r\n\r\n        emit carRentalRequest(record);\r\n\r\n        // companyAddress.transfer(deposit);\r\n        tokenSC.transferFrom(msg.sender, companyAddress, deposit); //after this step user receive car?\r\n\r\n    }\r\n\r\n    function calculateDeposit(uint _duration, uint _carId) public view returns (uint deposit) {\r\n        //should use 10/100 rather than 0.1\r\n        return cars[_carId].carPrice * _duration * 10 / 100;\r\n    }\r\n\r\n    function approveRent(uint _renterRecordId, uint _carId) public isABCCompany() isAvailableCar(_carId) {\r\n\r\n        for (uint i = 0; i < records.length; i++) {\r\n            if (records[i].renterRecordId == _renterRecordId) {\r\n                records[i].state = RentState.COMPANY_APPROVED;\r\n                break;\r\n            }\r\n        }\r\n\r\n        cars[_carId - 1].carAvailable = false;\r\n    }\r\n\r\n    function rejectRent(uint _renterRecordId, uint _carId) public isABCCompany() isAvailableCar(_carId) {\r\n\r\n        for (uint i = 0; i < records.length; i++) {\r\n            if (records[i].renterRecordId == _renterRecordId) {\r\n                records[i].state = RentState.COMPANY_REJECTED;\r\n                break;\r\n            }\r\n        }\r\n\r\n    }\r\n\r\n    function returnDeposit(uint _renterRecordId) payable public isABCCompany() {\r\n\r\n        address payable renterAddress = payable(records[_renterRecordId-1].walletAddress);\r\n\r\n        renterAddress.transfer(records[_renterRecordId-1].deposit);\r\n        //tokenSC.transferFrom(companyAddress, records[_renterRecordId-1].walletAddress, records[_renterRecordId-1].deposit);\r\n        records[_renterRecordId-1].state = RentState.DEPOSIT_RETURNED;\r\n\r\n    }\r\n\r\n    function applyReturnCar(uint _renterRecordId) public onlyRegisteredCustomerCanCall {\r\n        records[_renterRecordId-1].state = RentState.WAITING_TO_PAY;\r\n    }\r\n\r\n    function confirmReturn(uint _renterRecordId, uint _extraFee, uint _returnYear, uint _returnMonth, uint _returnDay) public isABCCompany() {\r\n\r\n        require(records[_renterRecordId-1].carReturned == false, \"This car has already been returned.\");\r\n\r\n        // Check date is entered correctly\r\n        require(_returnDay <= 31 && _returnDay >= 1, \"Check your day entered!\");\r\n        require(_returnMonth <= 12 && _returnMonth >= 1, \"Check your month entered!\");\r\n        require(_returnYear == getYear(block.timestamp), \"Year of return should be the current year now which the car is returned.\");\r\n\r\n        // Update the return date in records\r\n        records[_renterRecordId-1].endDate = _returnDay;\r\n\r\n        // Check if the car is returned late by calculating the days difference \r\n        //between startDate and endDate, and compare with numOfDays that user intended to rent.\r\n        uint totalRentedDays = differentDays(records[_renterRecordId-1].startDate, _returnDay);\r\n\r\n        uint price = cars[records[_renterRecordId-1].carId -1].carPrice;\r\n\r\n        if (totalRentedDays > records[_renterRecordId-1].duration) {\r\n            records[_renterRecordId-1].lateFee = price * (totalRentedDays - records[_renterRecordId-1].duration); //charge rent * number of days late\r\n        }\r\n\r\n        records[_renterRecordId-1].extraFee = _extraFee;\r\n\r\n        records[_renterRecordId-1].state = RentState.WAITING_TO_PAY;\r\n\r\n    }\r\n\r\n    function payFee(uint _renterRecordId) public {\r\n        uint totalRentedDays = differentDays(records[_renterRecordId-1].startDate,records[_renterRecordId-1].endDate);\r\n        uint price = cars[records[_renterRecordId-1].carId -1].carPrice;\r\n        uint feeWaitingPay = totalRentedDays * price * 9 / 10 + records[_renterRecordId-1].extraFee;\r\n        \r\n        companyAddress.transfer(feeWaitingPay);\r\n        //tokenSC.transferFrom(msg.sender,companyAddress, feeWaitingPay);\r\n        records[_renterRecordId-1].carReturned = true;\r\n\r\n        records[_renterRecordId-1].state = RentState.CLOSE;\r\n\r\n    }\r\n\r\n    function differentDays(uint fromTimestamp, uint toTimestamp) internal pure returns (uint _days) {\r\n        uint SECONDS_PER_DAY = 24 * 60 * 60;\r\n        require(fromTimestamp <= toTimestamp);\r\n        _days = (toTimestamp - fromTimestamp) / SECONDS_PER_DAY;\r\n    }\r\n\r\n    function getYear(uint timestamp) internal pure returns (uint year) {\r\n        uint secondsAccounted = 0;\r\n        uint numLeapYears;\r\n        uint16 ORIGIN_YEAR = 1970;\r\n        uint YEAR_IN_SECONDS = 31536000;\r\n        uint LEAP_YEAR_IN_SECONDS = 31622400;\r\n \r\n        // Year\r\n        year = uint16(ORIGIN_YEAR + timestamp / YEAR_IN_SECONDS);\r\n        numLeapYears = leapYearsBefore(year) - leapYearsBefore(ORIGIN_YEAR);\r\n \r\n        secondsAccounted += LEAP_YEAR_IN_SECONDS * numLeapYears;\r\n        secondsAccounted += YEAR_IN_SECONDS * (year - ORIGIN_YEAR - numLeapYears);\r\n \r\n        while (secondsAccounted > timestamp) {\r\n            if (isLeapYear(uint16(year - 1))) {\r\n                secondsAccounted -= LEAP_YEAR_IN_SECONDS;\r\n            }\r\n            else {\r\n                secondsAccounted -= YEAR_IN_SECONDS;\r\n            }\r\n            year -= 1;\r\n        }\r\n        return year;\r\n    }\r\n\r\n        //To calculate the leap year before the input year\r\n    function leapYearsBefore(uint year) public pure returns (uint) {\r\n        year -= 1;\r\n        return year / 4 - year / 100 + year / 400;\r\n    }\r\n\r\n    //To check if the year inputed is a leapyear\r\n    function isLeapYear(uint16 year) public pure returns (bool) {\r\n        if (year % 4 != 0) {\r\n            return false;\r\n        }\r\n        if (year % 100 != 0) {\r\n            return true;\r\n        }\r\n        if (year % 400 != 0) {\r\n            return false;\r\n        }\r\n        return true;\r\n    }\r\n\r\n    function carTransfer(address _walletAddress, uint _amount) public payable returns (bool){\r\n        tokenSC.transfer(_walletAddress , _amount);\r\n\r\n        return true;\r\n    }\r\n\r\n    function parseAddr(string memory _a) internal pure returns (address _parsedAddress) {\r\n        bytes memory tmp = bytes(_a);\r\n        uint160 iaddr = 0;\r\n        uint160 b1;\r\n        uint160 b2;\r\n        for (uint i = 2; i < 2 + 2 * 20; i += 2) {\r\n            iaddr *= 256;\r\n            b1 = uint160(uint8(tmp[i]));\r\n            b2 = uint160(uint8(tmp[i + 1]));\r\n            if ((b1 >= 97) && (b1 <= 102)) {\r\n                b1 -= 87;\r\n            } else if ((b1 >= 65) && (b1 <= 70)) {\r\n                b1 -= 55;\r\n            } else if ((b1 >= 48) && (b1 <= 57)) {\r\n                b1 -= 48;\r\n            }\r\n            if ((b2 >= 97) && (b2 <= 102)) {\r\n                b2 -= 87;\r\n            } else if ((b2 >= 65) && (b2 <= 70)) {\r\n                b2 -= 55;\r\n            } else if ((b2 >= 48) && (b2 <= 57)) {\r\n                b2 -= 48;\r\n            }\r\n            iaddr += (b1 * 16 + b2);\r\n        }\r\n        return address(iaddr);\r\n}\r\n\r\n    function getAllCars() public view returns (carInfo[] memory) {\r\n        return cars;\r\n    }\r\n\r\n    function getCarById(uint _carId) public view returns (carInfo memory) {\r\n        //pay attentation the carid relationship with index and id\r\n        return cars[_carId];\r\n    }\r\n\r\n    function getAllReconds() public view returns (rentalRecord[] memory) {\r\n        return records;\r\n    }\r\n\r\n    function getRecordById(uint _recordId) public view returns (rentalRecord memory) {\r\n        return records[_recordId];\r\n    }\r\n\r\n    \r\n    \r\n}",
  "sourcePath": "/Users/huangzhongkai/Desktop/ntu msis/Semester 2/Blockchain System Software Engineering/Topic 6 Decentrailized App/Group Project/Final/bc_project/blockchain/contracts/CarRental.sol",
  "compiler": {
    "name": "solc",
    "version": "0.8.1+commit.df193b15.Emscripten.clang"
  },
  "schemaVersion": "3.4.3",
  "updatedAt": "2022-04-11T08:25:23.841Z",
  "networkType": "ethereum",
  "devdoc": {
    "kind": "dev",
    "methods": {},
    "version": 1
  },
  "userdoc": {
    "kind": "user",
    "methods": {},
    "version": 1
  }
}