{
  "contractName": "CarRental",
  "abi": [
    {
      "inputs": [],
      "stateMutability": "nonpayable",
      "type": "constructor"
    },
    {
      "anonymous": false,
      "inputs": [
        {
          "indexed": false,
          "internalType": "uint256",
          "name": "carId",
          "type": "uint256"
        },
        {
          "indexed": false,
          "internalType": "string",
          "name": "carBrand",
          "type": "string"
        },
        {
          "indexed": false,
          "internalType": "string",
          "name": "carDescription",
          "type": "string"
        },
        {
          "indexed": false,
          "internalType": "string",
          "name": "carVin",
          "type": "string"
        },
        {
          "indexed": false,
          "internalType": "uint256",
          "name": "carSeat",
          "type": "uint256"
        },
        {
          "indexed": false,
          "internalType": "bool",
          "name": "carAvailable",
          "type": "bool"
        },
        {
          "indexed": false,
          "internalType": "uint256",
          "name": "carPrice",
          "type": "uint256"
        }
      ],
      "name": "addCarInfoRequest",
      "type": "event"
    },
    {
      "anonymous": false,
      "inputs": [
        {
          "components": [
            {
              "internalType": "uint256",
              "name": "renterRecordId",
              "type": "uint256"
            },
            {
              "internalType": "uint256",
              "name": "carId",
              "type": "uint256"
            },
            {
              "internalType": "string",
              "name": "renterId",
              "type": "string"
            },
            {
              "internalType": "address",
              "name": "walletAddress",
              "type": "address"
            },
            {
              "internalType": "uint256",
              "name": "startDate",
              "type": "uint256"
            },
            {
              "internalType": "uint256",
              "name": "endDate",
              "type": "uint256"
            },
            {
              "internalType": "uint256",
              "name": "duration",
              "type": "uint256"
            },
            {
              "internalType": "bool",
              "name": "carReturned",
              "type": "bool"
            },
            {
              "internalType": "uint256",
              "name": "extraFee",
              "type": "uint256"
            },
            {
              "internalType": "uint256",
              "name": "deposit",
              "type": "uint256"
            },
            {
              "internalType": "enum CarRental.RentState",
              "name": "state",
              "type": "uint8"
            }
          ],
          "indexed": false,
          "internalType": "struct CarRental.rentalRecord",
          "name": "",
          "type": "tuple"
        }
      ],
      "name": "carRentalRequest",
      "type": "event"
    },
    {
      "inputs": [],
      "name": "companyAddress",
      "outputs": [
        {
          "internalType": "address",
          "name": "",
          "type": "address"
        }
      ],
      "stateMutability": "view",
      "type": "function"
    },
    {
      "inputs": [
        {
          "internalType": "uint256",
          "name": "",
          "type": "uint256"
        }
      ],
      "name": "renters",
      "outputs": [
        {
          "internalType": "uint256",
          "name": "userId",
          "type": "uint256"
        },
        {
          "internalType": "string",
          "name": "socialId",
          "type": "string"
        },
        {
          "internalType": "string",
          "name": "userName",
          "type": "string"
        },
        {
          "internalType": "uint256",
          "name": "userAge",
          "type": "uint256"
        },
        {
          "internalType": "address",
          "name": "walletAddress",
          "type": "address"
        }
      ],
      "stateMutability": "view",
      "type": "function"
    },
    {
      "inputs": [],
      "name": "tokenSC",
      "outputs": [
        {
          "internalType": "contract IERC20",
          "name": "",
          "type": "address"
        }
      ],
      "stateMutability": "view",
      "type": "function"
    },
    {
      "inputs": [
        {
          "internalType": "string",
          "name": "_carBrand",
          "type": "string"
        },
        {
          "internalType": "string",
          "name": "_carDescription",
          "type": "string"
        },
        {
          "internalType": "string",
          "name": "_carVin",
          "type": "string"
        },
        {
          "internalType": "uint256",
          "name": "_carSeat",
          "type": "uint256"
        },
        {
          "internalType": "uint256",
          "name": "_carPrice",
          "type": "uint256"
        }
      ],
      "name": "addCarInfo",
      "outputs": [],
      "stateMutability": "nonpayable",
      "type": "function"
    },
    {
      "inputs": [
        {
          "internalType": "uint256",
          "name": "_carId",
          "type": "uint256"
        },
        {
          "internalType": "string",
          "name": "_carBrand",
          "type": "string"
        },
        {
          "internalType": "string",
          "name": "_carDescription",
          "type": "string"
        },
        {
          "internalType": "string",
          "name": "_carVin",
          "type": "string"
        },
        {
          "internalType": "uint256",
          "name": "_carSeat",
          "type": "uint256"
        },
        {
          "internalType": "uint256",
          "name": "_carPrice",
          "type": "uint256"
        }
      ],
      "name": "editCarInfo",
      "outputs": [],
      "stateMutability": "nonpayable",
      "type": "function"
    },
    {
      "inputs": [
        {
          "internalType": "uint256",
          "name": "_carId",
          "type": "uint256"
        }
      ],
      "name": "deleteCarInfo",
      "outputs": [],
      "stateMutability": "nonpayable",
      "type": "function"
    },
    {
      "inputs": [
        {
          "internalType": "uint256",
          "name": "_carId",
          "type": "uint256"
        },
        {
          "internalType": "string",
          "name": "_renterId",
          "type": "string"
        },
        {
          "internalType": "uint256",
          "name": "_startDate",
          "type": "uint256"
        },
        {
          "internalType": "uint256",
          "name": "_endDate",
          "type": "uint256"
        },
        {
          "internalType": "uint256",
          "name": "_duration",
          "type": "uint256"
        }
      ],
      "name": "applyCar",
      "outputs": [],
      "stateMutability": "nonpayable",
      "type": "function"
    },
    {
      "inputs": [
        {
          "internalType": "uint256",
          "name": "_duration",
          "type": "uint256"
        },
        {
          "internalType": "uint256",
          "name": "_carId",
          "type": "uint256"
        }
      ],
      "name": "calculateDeposit",
      "outputs": [
        {
          "internalType": "uint256",
          "name": "deposit",
          "type": "uint256"
        }
      ],
      "stateMutability": "view",
      "type": "function"
    },
    {
      "inputs": [
        {
          "internalType": "uint256",
          "name": "_renterRecordId",
          "type": "uint256"
        },
        {
          "internalType": "uint256",
          "name": "_carId",
          "type": "uint256"
        }
      ],
      "name": "approveRent",
      "outputs": [],
      "stateMutability": "nonpayable",
      "type": "function"
    },
    {
      "inputs": [
        {
          "internalType": "uint256",
          "name": "_renterRecordId",
          "type": "uint256"
        },
        {
          "internalType": "uint256",
          "name": "_carId",
          "type": "uint256"
        }
      ],
      "name": "rejectRent",
      "outputs": [],
      "stateMutability": "nonpayable",
      "type": "function"
    },
    {
      "inputs": [
        {
          "internalType": "uint256",
          "name": "_renterRecordId",
          "type": "uint256"
        }
      ],
      "name": "returnDeposit",
      "outputs": [],
      "stateMutability": "nonpayable",
      "type": "function"
    }
  ],
  "bytecode": "0x608060405234801561001057600080fd5b5033600160006101000a81548173ffffffffffffffffffffffffffffffffffffffff021916908373ffffffffffffffffffffffffffffffffffffffff16021790555061226b806100616000396000f3fe608060405234801561001057600080fd5b50600436106100a95760003560e01c8063b748b59911610071578063b748b59914610150578063c16849c01461016c578063c838ab6a1461018a578063dcc3974b146101a6578063f4914a8f146101da578063fc50b449146101f6576100a9565b806301c4ecc4146100ae5780630c18c62c146100ca57806318b683fb146100fa57806353e1ead9146101165780638299f0de14610134575b600080fd5b6100c860048036038101906100c39190611888565b610212565b005b6100e460048036038101906100df9190611888565b6103dc565b6040516100f19190611c48565b60405180910390f35b610114600480360381019061010f91906116ff565b610455565b005b61011e61072e565b60405161012b9190611b79565b60405180910390f35b61014e60048036038101906101499190611888565b610754565b005b61016a600480360381019061016591906117f9565b61098e565b005b610174610cd3565b6040516101819190611bcb565b60405180910390f35b6101a4600480360381019061019f91906116ff565b610cf7565b005b6101c060048036038101906101bb91906116ff565b610dee565b6040516101d1959493929190611ce7565b60405180910390f35b6101f460048036038101906101ef9190611728565b610f54565b005b610210600480360381019061020b9190611640565b6111e8565b005b600160009054906101000a900473ffffffffffffffffffffffffffffffffffffffff1673ffffffffffffffffffffffffffffffffffffffff163373ffffffffffffffffffffffffffffffffffffffff16146102a2576040517f08c379a000000000000000000000000000000000000000000000000000000000815260040161029990611c06565b60405180910390fd5b80600060028054905082116102b657600190505b806102c057600080fd5b60005b6003805490508110156103d557846003828154811061030b577f4e487b7100000000000000000000000000000000000000000000000000000000600052603260045260246000fd5b90600052602060002090600b02016000015414156103c25760026003828154811061035f577f4e487b7100000000000000000000000000000000000000000000000000000000600052603260045260246000fd5b90600052602060002090600b0201600a0160006101000a81548160ff021916908360098111156103b8577f4e487b7100000000000000000000000000000000000000000000000000000000600052602160045260246000fd5b02179055506103d5565b80806103cd90612036565b9150506102c3565b5050505050565b60006064600a846002858154811061041d577f4e487b7100000000000000000000000000000000000000000000000000000000600052603260045260246000fd5b9060005260206000209060070201600601546104399190611e72565b6104439190611e72565b61044d9190611e41565b905092915050565b600160009054906101000a900473ffffffffffffffffffffffffffffffffffffffff1673ffffffffffffffffffffffffffffffffffffffff163373ffffffffffffffffffffffffffffffffffffffff16146104e5576040517f08c379a00000000000000000000000000000000000000000000000000000000081526004016104dc90611c06565b60405180910390fd5b60008054906101000a900473ffffffffffffffffffffffffffffffffffffffff1673ffffffffffffffffffffffffffffffffffffffff166323b872dd600160009054906101000a900473ffffffffffffffffffffffffffffffffffffffff1660036001856105539190611ecc565b8154811061058a577f4e487b7100000000000000000000000000000000000000000000000000000000600052603260045260246000fd5b90600052602060002090600b020160030160009054906101000a900473ffffffffffffffffffffffffffffffffffffffff1660036001866105cb9190611ecc565b81548110610602577f4e487b7100000000000000000000000000000000000000000000000000000000600052603260045260246000fd5b90600052602060002090600b0201600901546040518463ffffffff1660e01b815260040161063293929190611b94565b602060405180830381600087803b15801561064c57600080fd5b505af1158015610660573d6000803e3d6000fd5b505050506040513d601f19601f820116820180604052508101906106849190611617565b50600260036001836106969190611ecc565b815481106106cd577f4e487b7100000000000000000000000000000000000000000000000000000000600052603260045260246000fd5b90600052602060002090600b0201600a0160006101000a81548160ff02191690836009811115610726577f4e487b7100000000000000000000000000000000000000000000000000000000600052602160045260246000fd5b021790555050565b600160009054906101000a900473ffffffffffffffffffffffffffffffffffffffff1681565b600160009054906101000a900473ffffffffffffffffffffffffffffffffffffffff1673ffffffffffffffffffffffffffffffffffffffff163373ffffffffffffffffffffffffffffffffffffffff16146107e4576040517f08c379a00000000000000000000000000000000000000000000000000000000081526004016107db90611c06565b60405180910390fd5b80600060028054905082116107f857600190505b8061080257600080fd5b60005b60038054905081101561091757846003828154811061084d577f4e487b7100000000000000000000000000000000000000000000000000000000600052603260045260246000fd5b90600052602060002090600b0201600001541415610904576001600382815481106108a1577f4e487b7100000000000000000000000000000000000000000000000000000000600052603260045260246000fd5b90600052602060002090600b0201600a0160006101000a81548160ff021916908360098111156108fa577f4e487b7100000000000000000000000000000000000000000000000000000000600052602160045260246000fd5b0217905550610917565b808061090f90612036565b915050610805565b50600060026001856109299190611ecc565b81548110610960577f4e487b7100000000000000000000000000000000000000000000000000000000600052603260045260246000fd5b906000526020600020906007020160050160006101000a81548160ff02191690831515021790555050505050565b84600060028054905082116109a257600190505b806109ac57600080fd5b60006109b884896103dc565b9050600060405180610160016040528060016003805490506109da9190611deb565b81526020018a81526020018981526020013373ffffffffffffffffffffffffffffffffffffffff1681526020018881526020018781526020018681526020016000151581526020016000815260200183815260200160006009811115610a69577f4e487b7100000000000000000000000000000000000000000000000000000000600052602160045260246000fd5b815250905060038190806001815401808255809150506001900390600052602060002090600b020160009091909190915060008201518160000155602082015181600101556040820151816002019080519060200190610aca9291906114e2565b5060608201518160030160006101000a81548173ffffffffffffffffffffffffffffffffffffffff021916908373ffffffffffffffffffffffffffffffffffffffff1602179055506080820151816004015560a0820151816005015560c0820151816006015560e08201518160070160006101000a81548160ff0219169083151502179055506101008201518160080155610120820151816009015561014082015181600a0160006101000a81548160ff02191690836009811115610bb8577f4e487b7100000000000000000000000000000000000000000000000000000000600052602160045260246000fd5b021790555050507fda9e08427a1b6de08c587702d6975d34cd5fc892da2042eb44463aa4c80eccaf81604051610bee9190611c26565b60405180910390a160008054906101000a900473ffffffffffffffffffffffffffffffffffffffff1673ffffffffffffffffffffffffffffffffffffffff166323b872dd33600160009054906101000a900473ffffffffffffffffffffffffffffffffffffffff16856040518463ffffffff1660e01b8152600401610c7593929190611b94565b602060405180830381600087803b158015610c8f57600080fd5b505af1158015610ca3573d6000803e3d6000fd5b505050506040513d601f19601f82011682018060405250810190610cc79190611617565b50505050505050505050565b60008054906101000a900473ffffffffffffffffffffffffffffffffffffffff1681565b600160009054906101000a900473ffffffffffffffffffffffffffffffffffffffff1673ffffffffffffffffffffffffffffffffffffffff163373ffffffffffffffffffffffffffffffffffffffff1614610d87576040517f08c379a0000000000000000000000000000000000000000000000000000000008152600401610d7e90611c06565b60405180910390fd5b600060028281548110610dc3577f4e487b7100000000000000000000000000000000000000000000000000000000600052603260045260246000fd5b906000526020600020906007020160050160006101000a81548160ff02191690831515021790555050565b6004602052806000526040600020600091509050806000015490806001018054610e1790611fd3565b80601f0160208091040260200160405190810160405280929190818152602001828054610e4390611fd3565b8015610e905780601f10610e6557610100808354040283529160200191610e90565b820191906000526020600020905b815481529060010190602001808311610e7357829003601f168201915b505050505090806002018054610ea590611fd3565b80601f0160208091040260200160405190810160405280929190818152602001828054610ed190611fd3565b8015610f1e5780601f10610ef357610100808354040283529160200191610f1e565b820191906000526020600020905b815481529060010190602001808311610f0157829003601f168201915b5050505050908060030154908060040160009054906101000a900473ffffffffffffffffffffffffffffffffffffffff16905085565b600160009054906101000a900473ffffffffffffffffffffffffffffffffffffffff1673ffffffffffffffffffffffffffffffffffffffff163373ffffffffffffffffffffffffffffffffffffffff1614610fe4576040517f08c379a0000000000000000000000000000000000000000000000000000000008152600401610fdb90611c06565b60405180910390fd5b846002600188610ff49190611ecc565b8154811061102b577f4e487b7100000000000000000000000000000000000000000000000000000000600052603260045260246000fd5b9060005260206000209060070201600101908051906020019061104f9291906114e2565b508360026001886110609190611ecc565b81548110611097577f4e487b7100000000000000000000000000000000000000000000000000000000600052603260045260246000fd5b906000526020600020906007020160020190805190602001906110bb9291906114e2565b508160026001886110cc9190611ecc565b81548110611103577f4e487b7100000000000000000000000000000000000000000000000000000000600052603260045260246000fd5b9060005260206000209060070201600401819055508060026001886111289190611ecc565b8154811061115f577f4e487b7100000000000000000000000000000000000000000000000000000000600052603260045260246000fd5b9060005260206000209060070201600601819055508260026001886111849190611ecc565b815481106111bb577f4e487b7100000000000000000000000000000000000000000000000000000000600052603260045260246000fd5b906000526020600020906007020160030190805190602001906111df9291906114e2565b50505050505050565b600160009054906101000a900473ffffffffffffffffffffffffffffffffffffffff1673ffffffffffffffffffffffffffffffffffffffff163373ffffffffffffffffffffffffffffffffffffffff1614611278576040517f08c379a000000000000000000000000000000000000000000000000000000000815260040161126f90611c06565b60405180910390fd5b60006001905060006040518060e00160405280600160028054905061129d9190611deb565b815260200188815260200187815260200186815260200185815260200160011515815260200184815250905060005b60016002805490506112de9190611deb565b81101561136f57858051906020012060028281548110611327577f4e487b7100000000000000000000000000000000000000000000000000000000600052603260045260246000fd5b90600052602060002090600702016003016040516113459190611b62565b6040518091039020141561135c576000925061136f565b808061136790612036565b9150506112cc565b5060011515821515146113b7576040517f08c379a00000000000000000000000000000000000000000000000000000000081526004016113ae90611be6565b60405180910390fd5b60028190806001815401808255809150506001900390600052602060002090600702016000909190919091506000820151816000015560208201518160010190805190602001906114099291906114e2565b5060408201518160020190805190602001906114269291906114e2565b5060608201518160030190805190602001906114439291906114e2565b506080820151816004015560a08201518160050160006101000a81548160ff02191690831515021790555060c0820151816006015550507f821fa57cf05e4406458f2fd9d7e252602d8e319fac403a30e084ba48e5024deb816000015182602001518360400151846060015185608001518660a001518760c001516040516114d19796959493929190611c63565b60405180910390a150505050505050565b8280546114ee90611fd3565b90600052602060002090601f0160209004810192826115105760008555611557565b82601f1061152957805160ff1916838001178555611557565b82800160010185558215611557579182015b8281111561155657825182559160200191906001019061153b565b5b5090506115649190611568565b5090565b5b80821115611581576000816000905550600101611569565b5090565b600061159861159384611d6d565b611d48565b9050828152602081018484840111156115b057600080fd5b6115bb848285611f91565b509392505050565b6000815190506115d281612207565b92915050565b600082601f8301126115e957600080fd5b81356115f9848260208601611585565b91505092915050565b6000813590506116118161221e565b92915050565b60006020828403121561162957600080fd5b6000611637848285016115c3565b91505092915050565b600080600080600060a0868803121561165857600080fd5b600086013567ffffffffffffffff81111561167257600080fd5b61167e888289016115d8565b955050602086013567ffffffffffffffff81111561169b57600080fd5b6116a7888289016115d8565b945050604086013567ffffffffffffffff8111156116c457600080fd5b6116d0888289016115d8565b93505060606116e188828901611602565b92505060806116f288828901611602565b9150509295509295909350565b60006020828403121561171157600080fd5b600061171f84828501611602565b91505092915050565b60008060008060008060c0878903121561174157600080fd5b600061174f89828a01611602565b965050602087013567ffffffffffffffff81111561176c57600080fd5b61177889828a016115d8565b955050604087013567ffffffffffffffff81111561179557600080fd5b6117a189828a016115d8565b945050606087013567ffffffffffffffff8111156117be57600080fd5b6117ca89828a016115d8565b93505060806117db89828a01611602565b92505060a06117ec89828a01611602565b9150509295509295509295565b600080600080600060a0868803121561181157600080fd5b600061181f88828901611602565b955050602086013567ffffffffffffffff81111561183c57600080fd5b611848888289016115d8565b945050604061185988828901611602565b935050606061186a88828901611602565b925050608061187b88828901611602565b9150509295509295909350565b6000806040838503121561189b57600080fd5b60006118a985828601611602565b92505060206118ba85828601611602565b9150509250929050565b6118cd81611f00565b82525050565b6118dc81611f00565b82525050565b6118eb81611f12565b82525050565b6118fa81611f12565b82525050565b6000815461190d81611fd3565b6119178186611dbe565b94506001821660008114611932576001811461194357611976565b60ff19831686528186019350611976565b61194c85611d9e565b60005b8381101561196e5781548189015260018201915060208101905061194f565b838801955050505b50505092915050565b61198881611f5b565b82525050565b61199781611f7f565b82525050565b60006119a882611db3565b6119b28185611dc9565b93506119c2818560208601611fa0565b6119cb8161216a565b840191505092915050565b60006119e182611db3565b6119eb8185611dda565b93506119fb818560208601611fa0565b611a048161216a565b840191505092915050565b6000611a1c602283611dda565b9150611a278261217b565b604082019050919050565b6000611a3f602083611dda565b9150611a4a826121ca565b602082019050919050565b600061016083016000830151611a6e6000860182611b44565b506020830151611a816020860182611b44565b5060408301518482036040860152611a99828261199d565b9150506060830151611aae60608601826118c4565b506080830151611ac16080860182611b44565b5060a0830151611ad460a0860182611b44565b5060c0830151611ae760c0860182611b44565b5060e0830151611afa60e08601826118e2565b50610100830151611b0f610100860182611b44565b50610120830151611b24610120860182611b44565b50610140830151611b3961014086018261198e565b508091505092915050565b611b4d81611f51565b82525050565b611b5c81611f51565b82525050565b6000611b6e8284611900565b915081905092915050565b6000602082019050611b8e60008301846118d3565b92915050565b6000606082019050611ba960008301866118d3565b611bb660208301856118d3565b611bc36040830184611b53565b949350505050565b6000602082019050611be0600083018461197f565b92915050565b60006020820190508181036000830152611bff81611a0f565b9050919050565b60006020820190508181036000830152611c1f81611a32565b9050919050565b60006020820190508181036000830152611c408184611a55565b905092915050565b6000602082019050611c5d6000830184611b53565b92915050565b600060e082019050611c78600083018a611b53565b8181036020830152611c8a81896119d6565b90508181036040830152611c9e81886119d6565b90508181036060830152611cb281876119d6565b9050611cc16080830186611b53565b611cce60a08301856118f1565b611cdb60c0830184611b53565b98975050505050505050565b600060a082019050611cfc6000830188611b53565b8181036020830152611d0e81876119d6565b90508181036040830152611d2281866119d6565b9050611d316060830185611b53565b611d3e60808301846118d3565b9695505050505050565b6000611d52611d63565b9050611d5e8282612005565b919050565b6000604051905090565b600067ffffffffffffffff821115611d8857611d8761213b565b5b611d918261216a565b9050602081019050919050565b60008190508160005260206000209050919050565b600081519050919050565b600081905092915050565b600082825260208201905092915050565b600082825260208201905092915050565b6000611df682611f51565b9150611e0183611f51565b9250827fffffffffffffffffffffffffffffffffffffffffffffffffffffffffffffffff03821115611e3657611e3561207f565b5b828201905092915050565b6000611e4c82611f51565b9150611e5783611f51565b925082611e6757611e666120ae565b5b828204905092915050565b6000611e7d82611f51565b9150611e8883611f51565b9250817fffffffffffffffffffffffffffffffffffffffffffffffffffffffffffffffff0483118215151615611ec157611ec061207f565b5b828202905092915050565b6000611ed782611f51565b9150611ee283611f51565b925082821015611ef557611ef461207f565b5b828203905092915050565b6000611f0b82611f31565b9050919050565b60008115159050919050565b6000819050611f2c826121f3565b919050565b600073ffffffffffffffffffffffffffffffffffffffff82169050919050565b6000819050919050565b6000611f6682611f6d565b9050919050565b6000611f7882611f31565b9050919050565b6000611f8a82611f1e565b9050919050565b82818337600083830152505050565b60005b83811015611fbe578082015181840152602081019050611fa3565b83811115611fcd576000848401525b50505050565b60006002820490506001821680611feb57607f821691505b60208210811415611fff57611ffe61210c565b5b50919050565b61200e8261216a565b810181811067ffffffffffffffff8211171561202d5761202c61213b565b5b80604052505050565b600061204182611f51565b91507fffffffffffffffffffffffffffffffffffffffffffffffffffffffffffffffff8214156120745761207361207f565b5b600182019050919050565b7f4e487b7100000000000000000000000000000000000000000000000000000000600052601160045260246000fd5b7f4e487b7100000000000000000000000000000000000000000000000000000000600052601260045260246000fd5b7f4e487b7100000000000000000000000000000000000000000000000000000000600052602160045260246000fd5b7f4e487b7100000000000000000000000000000000000000000000000000000000600052602260045260246000fd5b7f4e487b7100000000000000000000000000000000000000000000000000000000600052604160045260246000fd5b6000601f19601f8301169050919050565b7f4475706c69636174656420636172206c6963656e73652076696e206e756d626560008201527f7221000000000000000000000000000000000000000000000000000000000000602082015250565b7f4974206d7573742062652041424320636f6d70616e7927732061646472657373600082015250565b600a8110612204576122036120dd565b5b50565b61221081611f12565b811461221b57600080fd5b50565b61222781611f51565b811461223257600080fd5b5056fea2646970667358221220e00be982f32dc546179065939277bc7073a44ea0ea8379d1df89f0a96f89688e64736f6c63430008010033",
  "immutableReferences": {},
  "source": "pragma solidity >=0.7.0 <0.9.0;\n\nimport \"./MicroToken.sol\";\n\ncontract CarRental{\n\n    enum RentState{\n        REQUESTED,\n        COMPANY_APPROVED, \n        COMPANY_REJECTED, \n        DEPOSIT_RETURNED,\n        RENTER_SIGNED, \n        PENDING,\n        CAR_RECEIVED,\n        WAITING_TO_PAY,\n        WAITING_TO_PAY_EXTRA_FEE,\n        ACCOUNT_LOCKED\n    }\n    //(op)Dodo can buy insurance for the rental. She can buy while signing a contract with the company. The company will represent the Insurance Co.\n    //(op)Dodo needs to transfer insurance fees to the company. \n    //(op)The company transfers part of the insurance fee to the Insurance Co. when rental begins and transfers the left part after the contract is over.\n    //Above need extra RentState\n\n    enum RegisterState{\n        REQUESTED,\n        COMPANY_APPROVED, \n        COMPANY_REJECTED\n    }\n\n    //Do we need RENTER_SIGNED really need???\n\n    // Designing a structure to store the information of ABC Rental company's car fleet \n    struct carInfo {\n        uint carId; //Incremental generation \n        string carBrand; // Car brand \n        string carDescription; // Description about car\n        string carVin; // Car vehicle identification number \n        uint carSeat; // \n        bool carAvailable; // Available: true ; Not Available: false\n        uint carPrice; // Car rental price per day\n    }\n\n    // Designing a structure to store the information of renter\n    struct renterInfo {\n        uint userId;\n        string socialId; // Renter social id\n        string userName; // Renter name\n        uint userAge; // Renter age\n        address walletAddress; // Wallet address of customer\n        //IERC20 renterToken; // renter IERC20 token\n    }\n\n    // Designing a structure to store the car renting history \n    struct rentalRecord {\n        uint renterRecordId;\n        uint carId; // Car id\n        string renterId; // Renter identity\n        //IERC20 renterToken;\n        address walletAddress; // Wallet address of customer\n        uint startDate;  // Start date\n        uint endDate;   // End date\n        uint duration;  // Num of days\n        bool carReturned; // Car return status \n        uint extraFee; // Extra fee\n        uint deposit; // deposit\n        RentState state;\n    }\n\n    event carRentalRequest (rentalRecord);\n\n    event addCarInfoRequest(\n        uint carId, \n        string carBrand,\n        string carDescription,\n        string carVin, \n        uint carSeat, \n        bool carAvailable,\n        uint carPrice\n    );\n\n\n    // do we need car available date\n\n    IERC20 public tokenSC; // \n    address public companyAddress; // the address of the ABC company's account\n    carInfo[] private cars;\n    rentalRecord[] private records; // to store the rental records\n\n    mapping(uint => renterInfo) public renters; // to store the information of each rente\n\n    constructor () {\n            companyAddress = msg.sender;\n            //How to verify company's address\n    }\n\n    // Modifiers  \n    modifier isABCCompany()\n    {\n        require(msg.sender == companyAddress, \"It must be ABC company's address\");\n        _;\n    }\n\n    //if car available,user car id or car vin?\n    modifier isAvailableCar(uint _carId) \n    {\n        bool isAvailable = false;\n        // for(uint i=0; i< cars.length; i++)\n        // {\n        //     if(cars[i].carVin == _carVin)\n        //     {\n        //         isAvailable = true;\n        //         break;\n        //     }\n        // }\n        if (_carId <= cars.length) {\n            isAvailable = true;\n        }\n        require(isAvailable);\n        _;\n    }\n\n    //Do we need modifier to verify renter's address???\n\n    //add user just need add rentRequest or still need \n\n    function addCarInfo(string memory _carBrand, string memory _carDescription, string memory _carVin, uint _carSeat, uint _carPrice) public isABCCompany()\n    {\n        bool carVinUnique = true;\n        carInfo memory car = carInfo(cars.length + 1, _carBrand, _carDescription, _carVin, _carSeat, true, _carPrice);\n        for (uint i = 0; i < cars.length+1; i++) {\n            if (keccak256(bytes(cars[i].carVin)) == keccak256(bytes(_carVin))) {\n                carVinUnique = false;\n                break; \n            }\n        }\n\n        require(carVinUnique == true, \"Duplicated car license vin number!\");\n        cars.push(car);\n\n        emit addCarInfoRequest(car.carId, car.carBrand, car.carDescription, car.carVin, car.carSeat, car.carAvailable, car.carPrice);\n\n    }\n\n    function editCarInfo(uint _carId, string memory _carBrand, string memory _carDescription, string memory _carVin, uint _carSeat, uint _carPrice) public isABCCompany() {\n        //carVin can not change->vin unique check do in server\n        cars[_carId-1].carBrand = _carBrand;\n        cars[_carId-1].carDescription = _carDescription;\n        cars[_carId-1].carSeat = _carSeat;\n        cars[_carId-1].carPrice = _carPrice;\n        cars[_carId-1].carVin = _carVin;\n    }\n\n    function deleteCarInfo(uint _carId) public isABCCompany() {\n        //In case id issue, so just change the car status\n        cars[_carId].carAvailable = false;\n    }\n\n    function applyCar(uint _carId, string memory _renterId, uint _startDate, uint _endDate, uint _duration) public isAvailableCar(_carId){\n        uint deposit = calculateDeposit(_duration, _carId);\n\n        rentalRecord memory record = rentalRecord(records.length + 1, _carId, _renterId, msg.sender, _startDate, _endDate, _duration, false, 0, deposit, RentState.REQUESTED);\n        records.push(record);\n\n        emit carRentalRequest(record);\n\n        tokenSC.transferFrom(msg.sender, companyAddress, deposit);\n\n    }\n\n    function calculateDeposit(uint _duration, uint _carId) public view returns (uint deposit) {\n        //should use 10/100 rather than 0.1\n        return cars[_carId].carPrice * _duration * 10 / 100;\n    }\n\n    function approveRent(uint _renterRecordId, uint _carId) public isABCCompany() isAvailableCar(_carId) {\n\n        for (uint i = 0; i < records.length; i++) {\n            if (records[i].renterRecordId == _renterRecordId) {\n                records[i].state = RentState.COMPANY_APPROVED;\n                break;\n            }\n        }\n\n        cars[_carId - 1].carAvailable = false;\n    }\n\n    function rejectRent(uint _renterRecordId, uint _carId) public isABCCompany() isAvailableCar(_carId) {\n\n        for (uint i = 0; i < records.length; i++) {\n            if (records[i].renterRecordId == _renterRecordId) {\n                records[i].state = RentState.COMPANY_REJECTED;\n                break;\n            }\n        }\n\n    }\n\n    function returnDeposit(uint _renterRecordId) public isABCCompany() {\n\n        tokenSC.transferFrom(companyAddress, records[_renterRecordId-1].walletAddress, records[_renterRecordId-1].deposit);\n        records[_renterRecordId-1].state = RentState.COMPANY_REJECTED;\n\n    }\n    \n}",
  "sourcePath": "/Users/huangzhongkai/Desktop/ntu msis/Semester 2/Blockchain System Software Engineering/Topic 6 Decentrailized App/Group Project/bc_project/blockchain/contracts/CarRental.sol",
  "compiler": {
    "name": "solc",
    "version": "0.8.1+commit.df193b15.Emscripten.clang"
  },
  "schemaVersion": "3.4.3",
  "updatedAt": "2022-04-10T08:04:30.666Z",
  "devdoc": {
    "kind": "dev",
    "methods": {},
    "version": 1
  },
  "userdoc": {
    "kind": "user",
    "methods": {},
    "version": 1
  }
}