{
  "contractName": "CarRental",
  "abi": [
    {
      "inputs": [
        {
          "internalType": "address",
          "name": "_userIdentityAddress",
          "type": "address"
        },
        {
          "internalType": "address",
          "name": "_microTokenAddress",
          "type": "address"
        }
      ],
      "stateMutability": "payable",
      "type": "constructor",
      "payable": true
    },
    {
      "anonymous": false,
      "inputs": [
        {
          "indexed": false,
          "internalType": "uint256",
          "name": "carId",
          "type": "uint256"
        },
        {
          "indexed": false,
          "internalType": "string",
          "name": "carBrand",
          "type": "string"
        },
        {
          "indexed": false,
          "internalType": "string",
          "name": "carDescription",
          "type": "string"
        },
        {
          "indexed": false,
          "internalType": "string",
          "name": "carVin",
          "type": "string"
        },
        {
          "indexed": false,
          "internalType": "uint256",
          "name": "carSeat",
          "type": "uint256"
        },
        {
          "indexed": false,
          "internalType": "bool",
          "name": "carAvailable",
          "type": "bool"
        },
        {
          "indexed": false,
          "internalType": "uint256",
          "name": "carPrice",
          "type": "uint256"
        }
      ],
      "name": "addCarInfoRequest",
      "type": "event"
    },
    {
      "anonymous": false,
      "inputs": [
        {
          "components": [
            {
              "internalType": "uint256",
              "name": "renterRecordId",
              "type": "uint256"
            },
            {
              "internalType": "uint256",
              "name": "carId",
              "type": "uint256"
            },
            {
              "internalType": "string",
              "name": "renterId",
              "type": "string"
            },
            {
              "internalType": "address",
              "name": "walletAddress",
              "type": "address"
            },
            {
              "internalType": "uint256",
              "name": "startDate",
              "type": "uint256"
            },
            {
              "internalType": "uint256",
              "name": "endDate",
              "type": "uint256"
            },
            {
              "internalType": "uint256",
              "name": "duration",
              "type": "uint256"
            },
            {
              "internalType": "bool",
              "name": "carReturned",
              "type": "bool"
            },
            {
              "internalType": "uint256",
              "name": "extraFee",
              "type": "uint256"
            },
            {
              "internalType": "uint256",
              "name": "deposit",
              "type": "uint256"
            },
            {
              "internalType": "uint256",
              "name": "lateFee",
              "type": "uint256"
            },
            {
              "internalType": "enum CarRental.RentState",
              "name": "state",
              "type": "uint8"
            },
            {
              "internalType": "string",
              "name": "carVin",
              "type": "string"
            },
            {
              "internalType": "string",
              "name": "carBrand",
              "type": "string"
            }
          ],
          "indexed": false,
          "internalType": "struct CarRental.rentalRecord",
          "name": "",
          "type": "tuple"
        }
      ],
      "name": "carRentalRequest",
      "type": "event"
    },
    {
      "inputs": [],
      "name": "carCount",
      "outputs": [
        {
          "internalType": "uint256",
          "name": "",
          "type": "uint256"
        }
      ],
      "stateMutability": "view",
      "type": "function",
      "constant": true
    },
    {
      "inputs": [],
      "name": "companyAddress",
      "outputs": [
        {
          "internalType": "address payable",
          "name": "",
          "type": "address"
        }
      ],
      "stateMutability": "view",
      "type": "function",
      "constant": true
    },
    {
      "inputs": [],
      "name": "identitySC",
      "outputs": [
        {
          "internalType": "contract UserIdentity",
          "name": "",
          "type": "address"
        }
      ],
      "stateMutability": "view",
      "type": "function",
      "constant": true
    },
    {
      "inputs": [
        {
          "internalType": "uint256",
          "name": "",
          "type": "uint256"
        }
      ],
      "name": "renters",
      "outputs": [
        {
          "internalType": "uint256",
          "name": "userId",
          "type": "uint256"
        },
        {
          "internalType": "string",
          "name": "socialId",
          "type": "string"
        },
        {
          "internalType": "string",
          "name": "userName",
          "type": "string"
        },
        {
          "internalType": "uint256",
          "name": "userAge",
          "type": "uint256"
        },
        {
          "internalType": "address",
          "name": "walletAddress",
          "type": "address"
        }
      ],
      "stateMutability": "view",
      "type": "function",
      "constant": true
    },
    {
      "inputs": [],
      "name": "tokenSC",
      "outputs": [
        {
          "internalType": "contract MicroToken",
          "name": "",
          "type": "address"
        }
      ],
      "stateMutability": "view",
      "type": "function",
      "constant": true
    },
    {
      "inputs": [
        {
          "internalType": "uint256",
          "name": "_CarId",
          "type": "uint256"
        },
        {
          "internalType": "string",
          "name": "_carBrand",
          "type": "string"
        },
        {
          "internalType": "string",
          "name": "_carDescription",
          "type": "string"
        },
        {
          "internalType": "string",
          "name": "_carVin",
          "type": "string"
        },
        {
          "internalType": "uint256",
          "name": "_carSeat",
          "type": "uint256"
        },
        {
          "internalType": "bool",
          "name": "_available",
          "type": "bool"
        },
        {
          "internalType": "uint256",
          "name": "_carPrice",
          "type": "uint256"
        },
        {
          "internalType": "address",
          "name": "contractAddress",
          "type": "address"
        }
      ],
      "name": "addCarInfo",
      "outputs": [],
      "stateMutability": "payable",
      "type": "function",
      "payable": true
    },
    {
      "inputs": [
        {
          "internalType": "uint256",
          "name": "_carId",
          "type": "uint256"
        },
        {
          "internalType": "string",
          "name": "_carBrand",
          "type": "string"
        },
        {
          "internalType": "string",
          "name": "_carDescription",
          "type": "string"
        },
        {
          "internalType": "string",
          "name": "_carVin",
          "type": "string"
        },
        {
          "internalType": "uint256",
          "name": "_carSeat",
          "type": "uint256"
        },
        {
          "internalType": "uint256",
          "name": "_carPrice",
          "type": "uint256"
        }
      ],
      "name": "editCarInfo",
      "outputs": [],
      "stateMutability": "payable",
      "type": "function",
      "payable": true
    },
    {
      "inputs": [
        {
          "internalType": "uint256",
          "name": "_carId",
          "type": "uint256"
        }
      ],
      "name": "deleteCarInfo",
      "outputs": [],
      "stateMutability": "payable",
      "type": "function",
      "payable": true
    },
    {
      "inputs": [
        {
          "internalType": "uint256",
          "name": "_carId",
          "type": "uint256"
        },
        {
          "internalType": "string",
          "name": "_renterId",
          "type": "string"
        },
        {
          "internalType": "uint256",
          "name": "_startDate",
          "type": "uint256"
        },
        {
          "internalType": "uint256",
          "name": "_endDate",
          "type": "uint256"
        },
        {
          "internalType": "uint256",
          "name": "_duration",
          "type": "uint256"
        },
        {
          "internalType": "uint256",
          "name": "_deposit",
          "type": "uint256"
        }
      ],
      "name": "applyCar",
      "outputs": [],
      "stateMutability": "payable",
      "type": "function",
      "payable": true
    },
    {
      "inputs": [
        {
          "internalType": "uint256",
          "name": "_duration",
          "type": "uint256"
        },
        {
          "internalType": "uint256",
          "name": "_carId",
          "type": "uint256"
        }
      ],
      "name": "calculateDeposit",
      "outputs": [
        {
          "internalType": "uint256",
          "name": "deposit",
          "type": "uint256"
        }
      ],
      "stateMutability": "view",
      "type": "function",
      "constant": true
    },
    {
      "inputs": [
        {
          "internalType": "uint256",
          "name": "_renterRecordId",
          "type": "uint256"
        },
        {
          "internalType": "uint256",
          "name": "_carId",
          "type": "uint256"
        }
      ],
      "name": "approveRent",
      "outputs": [],
      "stateMutability": "nonpayable",
      "type": "function"
    },
    {
      "inputs": [
        {
          "internalType": "uint256",
          "name": "_renterRecordId",
          "type": "uint256"
        },
        {
          "internalType": "uint256",
          "name": "_carId",
          "type": "uint256"
        }
      ],
      "name": "rejectRent",
      "outputs": [],
      "stateMutability": "nonpayable",
      "type": "function"
    },
    {
      "inputs": [
        {
          "internalType": "uint256",
          "name": "_renterRecordId",
          "type": "uint256"
        }
      ],
      "name": "returnDeposit",
      "outputs": [],
      "stateMutability": "payable",
      "type": "function",
      "payable": true
    },
    {
      "inputs": [
        {
          "internalType": "uint256",
          "name": "_renterRecordId",
          "type": "uint256"
        }
      ],
      "name": "applyReturnCar",
      "outputs": [],
      "stateMutability": "nonpayable",
      "type": "function"
    },
    {
      "inputs": [
        {
          "internalType": "uint256",
          "name": "_renterRecordId",
          "type": "uint256"
        },
        {
          "internalType": "uint256",
          "name": "_extraFee",
          "type": "uint256"
        },
        {
          "internalType": "uint256",
          "name": "_returnYear",
          "type": "uint256"
        },
        {
          "internalType": "uint256",
          "name": "_returnMonth",
          "type": "uint256"
        },
        {
          "internalType": "uint256",
          "name": "_returnDay",
          "type": "uint256"
        }
      ],
      "name": "confirmReturn",
      "outputs": [],
      "stateMutability": "nonpayable",
      "type": "function"
    },
    {
      "inputs": [
        {
          "internalType": "uint256",
          "name": "_renterRecordId",
          "type": "uint256"
        },
        {
          "internalType": "uint256",
          "name": "_carId",
          "type": "uint256"
        },
        {
          "internalType": "uint256",
          "name": "_damageFee",
          "type": "uint256"
        },
        {
          "internalType": "address",
          "name": "_userAddress",
          "type": "address"
        }
      ],
      "name": "confirmReturnExtra",
      "outputs": [],
      "stateMutability": "payable",
      "type": "function",
      "payable": true
    },
    {
      "inputs": [
        {
          "internalType": "uint256",
          "name": "_renterRecordId",
          "type": "uint256"
        }
      ],
      "name": "payFee",
      "outputs": [],
      "stateMutability": "nonpayable",
      "type": "function"
    },
    {
      "inputs": [
        {
          "internalType": "uint256",
          "name": "year",
          "type": "uint256"
        }
      ],
      "name": "leapYearsBefore",
      "outputs": [
        {
          "internalType": "uint256",
          "name": "",
          "type": "uint256"
        }
      ],
      "stateMutability": "pure",
      "type": "function",
      "constant": true
    },
    {
      "inputs": [
        {
          "internalType": "uint16",
          "name": "year",
          "type": "uint16"
        }
      ],
      "name": "isLeapYear",
      "outputs": [
        {
          "internalType": "bool",
          "name": "",
          "type": "bool"
        }
      ],
      "stateMutability": "pure",
      "type": "function",
      "constant": true
    },
    {
      "inputs": [
        {
          "internalType": "address",
          "name": "_walletAddress",
          "type": "address"
        },
        {
          "internalType": "uint256",
          "name": "_amount",
          "type": "uint256"
        }
      ],
      "name": "carTransfer",
      "outputs": [
        {
          "internalType": "bool",
          "name": "",
          "type": "bool"
        }
      ],
      "stateMutability": "payable",
      "type": "function",
      "payable": true
    },
    {
      "inputs": [],
      "name": "getAllCars",
      "outputs": [
        {
          "components": [
            {
              "internalType": "uint256",
              "name": "carId",
              "type": "uint256"
            },
            {
              "internalType": "string",
              "name": "carBrand",
              "type": "string"
            },
            {
              "internalType": "string",
              "name": "carDescription",
              "type": "string"
            },
            {
              "internalType": "string",
              "name": "carVin",
              "type": "string"
            },
            {
              "internalType": "uint256",
              "name": "carSeat",
              "type": "uint256"
            },
            {
              "internalType": "bool",
              "name": "carAvailable",
              "type": "bool"
            },
            {
              "internalType": "uint256",
              "name": "carPrice",
              "type": "uint256"
            }
          ],
          "internalType": "struct CarRental.carInfo[]",
          "name": "",
          "type": "tuple[]"
        }
      ],
      "stateMutability": "view",
      "type": "function",
      "constant": true
    },
    {
      "inputs": [
        {
          "internalType": "uint256",
          "name": "_carId",
          "type": "uint256"
        }
      ],
      "name": "getCarById",
      "outputs": [
        {
          "components": [
            {
              "internalType": "uint256",
              "name": "carId",
              "type": "uint256"
            },
            {
              "internalType": "string",
              "name": "carBrand",
              "type": "string"
            },
            {
              "internalType": "string",
              "name": "carDescription",
              "type": "string"
            },
            {
              "internalType": "string",
              "name": "carVin",
              "type": "string"
            },
            {
              "internalType": "uint256",
              "name": "carSeat",
              "type": "uint256"
            },
            {
              "internalType": "bool",
              "name": "carAvailable",
              "type": "bool"
            },
            {
              "internalType": "uint256",
              "name": "carPrice",
              "type": "uint256"
            }
          ],
          "internalType": "struct CarRental.carInfo",
          "name": "",
          "type": "tuple"
        }
      ],
      "stateMutability": "view",
      "type": "function",
      "constant": true
    },
    {
      "inputs": [],
      "name": "getAllReconds",
      "outputs": [
        {
          "components": [
            {
              "internalType": "uint256",
              "name": "renterRecordId",
              "type": "uint256"
            },
            {
              "internalType": "uint256",
              "name": "carId",
              "type": "uint256"
            },
            {
              "internalType": "string",
              "name": "renterId",
              "type": "string"
            },
            {
              "internalType": "address",
              "name": "walletAddress",
              "type": "address"
            },
            {
              "internalType": "uint256",
              "name": "startDate",
              "type": "uint256"
            },
            {
              "internalType": "uint256",
              "name": "endDate",
              "type": "uint256"
            },
            {
              "internalType": "uint256",
              "name": "duration",
              "type": "uint256"
            },
            {
              "internalType": "bool",
              "name": "carReturned",
              "type": "bool"
            },
            {
              "internalType": "uint256",
              "name": "extraFee",
              "type": "uint256"
            },
            {
              "internalType": "uint256",
              "name": "deposit",
              "type": "uint256"
            },
            {
              "internalType": "uint256",
              "name": "lateFee",
              "type": "uint256"
            },
            {
              "internalType": "enum CarRental.RentState",
              "name": "state",
              "type": "uint8"
            },
            {
              "internalType": "string",
              "name": "carVin",
              "type": "string"
            },
            {
              "internalType": "string",
              "name": "carBrand",
              "type": "string"
            }
          ],
          "internalType": "struct CarRental.rentalRecord[]",
          "name": "",
          "type": "tuple[]"
        }
      ],
      "stateMutability": "view",
      "type": "function",
      "constant": true
    },
    {
      "inputs": [
        {
          "internalType": "uint256",
          "name": "_recordId",
          "type": "uint256"
        }
      ],
      "name": "getRecordById",
      "outputs": [
        {
          "components": [
            {
              "internalType": "uint256",
              "name": "renterRecordId",
              "type": "uint256"
            },
            {
              "internalType": "uint256",
              "name": "carId",
              "type": "uint256"
            },
            {
              "internalType": "string",
              "name": "renterId",
              "type": "string"
            },
            {
              "internalType": "address",
              "name": "walletAddress",
              "type": "address"
            },
            {
              "internalType": "uint256",
              "name": "startDate",
              "type": "uint256"
            },
            {
              "internalType": "uint256",
              "name": "endDate",
              "type": "uint256"
            },
            {
              "internalType": "uint256",
              "name": "duration",
              "type": "uint256"
            },
            {
              "internalType": "bool",
              "name": "carReturned",
              "type": "bool"
            },
            {
              "internalType": "uint256",
              "name": "extraFee",
              "type": "uint256"
            },
            {
              "internalType": "uint256",
              "name": "deposit",
              "type": "uint256"
            },
            {
              "internalType": "uint256",
              "name": "lateFee",
              "type": "uint256"
            },
            {
              "internalType": "enum CarRental.RentState",
              "name": "state",
              "type": "uint8"
            },
            {
              "internalType": "string",
              "name": "carVin",
              "type": "string"
            },
            {
              "internalType": "string",
              "name": "carBrand",
              "type": "string"
            }
          ],
          "internalType": "struct CarRental.rentalRecord",
          "name": "",
          "type": "tuple"
        }
      ],
      "stateMutability": "view",
      "type": "function",
      "constant": true
    },
    {
      "inputs": [
        {
          "internalType": "uint256",
          "name": "_renterRecordId",
          "type": "uint256"
        }
      ],
      "name": "removeRecords",
      "outputs": [],
      "stateMutability": "nonpayable",
      "type": "function"
    }
  ],
  "bytecode": "0x60806040526000600555604051620052723803806200527283398181016040528101906200002e91906200010f565b33600260006101000a81548173ffffffffffffffffffffffffffffffffffffffff021916908373ffffffffffffffffffffffffffffffffffffffff160217905550806000806101000a81548173ffffffffffffffffffffffffffffffffffffffff021916908373ffffffffffffffffffffffffffffffffffffffff16021790555081600160006101000a81548173ffffffffffffffffffffffffffffffffffffffff021916908373ffffffffffffffffffffffffffffffffffffffff16021790555050506200019e565b600081519050620001098162000184565b92915050565b600080604083850312156200012357600080fd5b60006200013385828601620000f8565b92505060206200014685828601620000f8565b9150509250929050565b60006200015d8262000164565b9050919050565b600073ffffffffffffffffffffffffffffffffffffffff82169050919050565b6200018f8162000150565b81146200019b57600080fd5b50565b6150c480620001ae6000396000f3fe6080604052600436106101665760003560e01c8063b1999937116100d1578063d289ade21161008a578063e75b8b2311610064578063e75b8b231461050f578063f3450c7d1461054c578063f4914a8f14610575578063f81ebc8f1461059157610166565b8063d289ade214610489578063dcc3974b146104b2578063e4033666146104f357610166565b8063b199993714610390578063bac16f12146103cd578063bed31acc146103e9578063c16849c014610412578063c320241e1461043d578063c838ab6a1461046d57610166565b806353e1ead91161012357806353e1ead91461026c5780638154ab0f146102975780638299f0de146102d457806390720b32146102fd578063a6f0e57714610328578063abfe5d571461036557610166565b806301c4ecc41461016b5780630c18c62c1461019457806318b683fb146101d1578063297a1f56146101ed578063381190aa146102185780634f45a65514610243575b600080fd5b34801561017757600080fd5b50610192600480360381019061018d9190613cc9565b6105ad565b005b3480156101a057600080fd5b506101bb60048036038101906101b69190613cc9565b610777565b6040516101c891906147c8565b60405180910390f35b6101eb60048036038101906101e69190613a34565b6107d8565b005b3480156101f957600080fd5b50610202610a2c565b60405161020f91906147c8565b60405180910390f35b34801561022457600080fd5b5061022d610a32565b60405161023a9190614611565b60405180910390f35b34801561024f57600080fd5b5061026a60048036038101906102659190613a34565b610d90565b005b34801561027857600080fd5b50610281610f39565b60405161028e9190614582565b60405180910390f35b3480156102a357600080fd5b506102be60048036038101906102b99190613a34565b610f5f565b6040516102cb9190614784565b60405180910390f35b3480156102e057600080fd5b506102fb60048036038101906102f69190613cc9565b6111b0565b005b34801561030957600080fd5b506103126113ea565b60405161031f9190614669565b60405180910390f35b34801561033457600080fd5b5061034f600480360381019061034a9190613a0b565b611410565b60405161035c9190614633565b60405180910390f35b34801561037157600080fd5b5061037a61147f565b60405161038791906145ef565b60405180910390f35b34801561039c57600080fd5b506103b760048036038101906103b29190613a34565b6116cd565b6040516103c491906147c8565b60405180910390f35b6103e760048036038101906103e29190613d05565b611721565b005b3480156103f557600080fd5b50610410600480360381019061040b9190613a34565b6119de565b005b34801561041e57600080fd5b50610427611a7b565b604051610434919061464e565b60405180910390f35b610457600480360381019061045291906139a6565b611a9f565b6040516104649190614633565b60405180910390f35b61048760048036038101906104829190613a34565b611b5a565b005b34801561049557600080fd5b506104b060048036038101906104ab9190613a34565b611c51565b005b3480156104be57600080fd5b506104d960048036038101906104d49190613a34565b612036565b6040516104ea959493929190614867565b60405180910390f35b61050d60048036038101906105089190613a5d565b61219c565b005b34801561051b57600080fd5b5061053660048036038101906105319190613a34565b6124a5565b60405161054391906147a6565b60405180910390f35b34801561055857600080fd5b50610573600480360381019061056e9190613d68565b612806565b005b61058f600480360381019061058a9190613b57565b612ce5565b005b6105ab60048036038101906105a69190613c28565b61305e565b005b600260009054906101000a900473ffffffffffffffffffffffffffffffffffffffff1673ffffffffffffffffffffffffffffffffffffffff163373ffffffffffffffffffffffffffffffffffffffff161461063d576040517f08c379a000000000000000000000000000000000000000000000000000000000815260040161063490614764565b60405180910390fd5b806000600380549050821161065157600190505b8061065b57600080fd5b60005b6004805490508110156107705784600482815481106106a6577f4e487b7100000000000000000000000000000000000000000000000000000000600052603260045260246000fd5b90600052602060002090600e020160000154141561075d576002600482815481106106fa577f4e487b7100000000000000000000000000000000000000000000000000000000600052603260045260246000fd5b90600052602060002090600e0201600b0160006101000a81548160ff02191690836007811115610753577f4e487b7100000000000000000000000000000000000000000000000000000000600052602160045260246000fd5b0217905550610770565b808061076890614ca2565b91505061065e565b5050505050565b600082600383815481106107b4577f4e487b7100000000000000000000000000000000000000000000000000000000600052603260045260246000fd5b9060005260206000209060070201600601546107d09190614a64565b905092915050565b600260009054906101000a900473ffffffffffffffffffffffffffffffffffffffff1673ffffffffffffffffffffffffffffffffffffffff163373ffffffffffffffffffffffffffffffffffffffff1614610868576040517f08c379a000000000000000000000000000000000000000000000000000000000815260040161085f90614764565b60405180910390fd5b600060046001836108799190614abe565b815481106108b0577f4e487b7100000000000000000000000000000000000000000000000000000000600052603260045260246000fd5b90600052602060002090600e020160030160009054906101000a900473ffffffffffffffffffffffffffffffffffffffff1690508073ffffffffffffffffffffffffffffffffffffffff166108fc600460018561090d9190614abe565b81548110610944577f4e487b7100000000000000000000000000000000000000000000000000000000600052603260045260246000fd5b90600052602060002090600e0201600901549081150290604051600060405180830381858888f19350505050158015610981573d6000803e3d6000fd5b50600360046001846109939190614abe565b815481106109ca577f4e487b7100000000000000000000000000000000000000000000000000000000600052603260045260246000fd5b90600052602060002090600e0201600b0160006101000a81548160ff02191690836007811115610a23577f4e487b7100000000000000000000000000000000000000000000000000000000600052602160045260246000fd5b02179055505050565b60055481565b60606004805480602002602001604051908101604052809291908181526020016000905b82821015610d8757838290600052602060002090600e0201604051806101c00160405290816000820154815260200160018201548152602001600282018054610a9e90614c3f565b80601f0160208091040260200160405190810160405280929190818152602001828054610aca90614c3f565b8015610b175780601f10610aec57610100808354040283529160200191610b17565b820191906000526020600020905b815481529060010190602001808311610afa57829003601f168201915b505050505081526020016003820160009054906101000a900473ffffffffffffffffffffffffffffffffffffffff1673ffffffffffffffffffffffffffffffffffffffff1673ffffffffffffffffffffffffffffffffffffffff1681526020016004820154815260200160058201548152602001600682015481526020016007820160009054906101000a900460ff161515151581526020016008820154815260200160098201548152602001600a8201548152602001600b820160009054906101000a900460ff166007811115610c18577f4e487b7100000000000000000000000000000000000000000000000000000000600052602160045260246000fd5b6007811115610c50577f4e487b7100000000000000000000000000000000000000000000000000000000600052602160045260246000fd5b8152602001600c82018054610c6490614c3f565b80601f0160208091040260200160405190810160405280929190818152602001828054610c9090614c3f565b8015610cdd5780601f10610cb257610100808354040283529160200191610cdd565b820191906000526020600020905b815481529060010190602001808311610cc057829003601f168201915b50505050508152602001600d82018054610cf690614c3f565b80601f0160208091040260200160405190810160405280929190818152602001828054610d2290614c3f565b8015610d6f5780601f10610d4457610100808354040283529160200191610d6f565b820191906000526020600020905b815481529060010190602001808311610d5257829003601f168201915b50505050508152505081526020019060010190610a56565b50505050905090565b600260009054906101000a900473ffffffffffffffffffffffffffffffffffffffff1673ffffffffffffffffffffffffffffffffffffffff163373ffffffffffffffffffffffffffffffffffffffff1614610e20576040517f08c379a0000000000000000000000000000000000000000000000000000000008152600401610e1790614764565b60405180910390fd5b60005b600480549050811015610f35578160048281548110610e6b577f4e487b7100000000000000000000000000000000000000000000000000000000600052603260045260246000fd5b90600052602060002090600e0201600001541415610f2257600560048281548110610ebf577f4e487b7100000000000000000000000000000000000000000000000000000000600052603260045260246000fd5b90600052602060002090600e0201600b0160006101000a81548160ff02191690836007811115610f18577f4e487b7100000000000000000000000000000000000000000000000000000000600052602160045260246000fd5b0217905550610f35565b8080610f2d90614ca2565b915050610e23565b5050565b600260009054906101000a900473ffffffffffffffffffffffffffffffffffffffff1681565b610f67613734565b60038281548110610fa1577f4e487b7100000000000000000000000000000000000000000000000000000000600052603260045260246000fd5b90600052602060002090600702016040518060e001604052908160008201548152602001600182018054610fd490614c3f565b80601f016020809104026020016040519081016040528092919081815260200182805461100090614c3f565b801561104d5780601f106110225761010080835404028352916020019161104d565b820191906000526020600020905b81548152906001019060200180831161103057829003601f168201915b5050505050815260200160028201805461106690614c3f565b80601f016020809104026020016040519081016040528092919081815260200182805461109290614c3f565b80156110df5780601f106110b4576101008083540402835291602001916110df565b820191906000526020600020905b8154815290600101906020018083116110c257829003601f168201915b505050505081526020016003820180546110f890614c3f565b80601f016020809104026020016040519081016040528092919081815260200182805461112490614c3f565b80156111715780601f1061114657610100808354040283529160200191611171565b820191906000526020600020905b81548152906001019060200180831161115457829003601f168201915b50505050508152602001600482015481526020016005820160009054906101000a900460ff161515151581526020016006820154815250509050919050565b600260009054906101000a900473ffffffffffffffffffffffffffffffffffffffff1673ffffffffffffffffffffffffffffffffffffffff163373ffffffffffffffffffffffffffffffffffffffff1614611240576040517f08c379a000000000000000000000000000000000000000000000000000000000815260040161123790614764565b60405180910390fd5b806000600380549050821161125457600190505b8061125e57600080fd5b60005b6004805490508110156113735784600482815481106112a9577f4e487b7100000000000000000000000000000000000000000000000000000000600052603260045260246000fd5b90600052602060002090600e0201600001541415611360576001600482815481106112fd577f4e487b7100000000000000000000000000000000000000000000000000000000600052603260045260246000fd5b90600052602060002090600e0201600b0160006101000a81548160ff02191690836007811115611356577f4e487b7100000000000000000000000000000000000000000000000000000000600052602160045260246000fd5b0217905550611373565b808061136b90614ca2565b915050611261565b50600060036001856113859190614abe565b815481106113bc577f4e487b7100000000000000000000000000000000000000000000000000000000600052603260045260246000fd5b906000526020600020906007020160050160006101000a81548160ff02191690831515021790555050505050565b600160009054906101000a900473ffffffffffffffffffffffffffffffffffffffff1681565b6000806004836114209190614ceb565b61ffff1614611432576000905061147a565b60006064836114419190614ceb565b61ffff1614611453576001905061147a565b6000610190836114639190614ceb565b61ffff1614611475576000905061147a565b600190505b919050565b60606003805480602002602001604051908101604052809291908181526020016000905b828210156116c457838290600052602060002090600702016040518060e0016040529081600082015481526020016001820180546114e090614c3f565b80601f016020809104026020016040519081016040528092919081815260200182805461150c90614c3f565b80156115595780601f1061152e57610100808354040283529160200191611559565b820191906000526020600020905b81548152906001019060200180831161153c57829003601f168201915b5050505050815260200160028201805461157290614c3f565b80601f016020809104026020016040519081016040528092919081815260200182805461159e90614c3f565b80156115eb5780601f106115c0576101008083540402835291602001916115eb565b820191906000526020600020905b8154815290600101906020018083116115ce57829003601f168201915b5050505050815260200160038201805461160490614c3f565b80601f016020809104026020016040519081016040528092919081815260200182805461163090614c3f565b801561167d5780601f106116525761010080835404028352916020019161167d565b820191906000526020600020905b81548152906001019060200180831161166057829003601f168201915b50505050508152602001600482015481526020016005820160009054906101000a900460ff16151515158152602001600682015481525050815260200190600101906114a3565b50505050905090565b60006001826116dc9190614abe565b9150610190826116ec9190614a33565b6064836116f99190614a33565b6004846117069190614a33565b6117109190614abe565b61171a91906149dd565b9050919050565b6006600781111561175b577f4e487b7100000000000000000000000000000000000000000000000000000000600052602160045260246000fd5b60048581548110611795577f4e487b7100000000000000000000000000000000000000000000000000000000600052603260045260246000fd5b90600052602060002090600e0201600b0160009054906101000a900460ff1660078111156117ec577f4e487b7100000000000000000000000000000000000000000000000000000000600052602160045260246000fd5b1461182c576040517f08c379a000000000000000000000000000000000000000000000000000000000815260040161182390614704565b60405180910390fd5b60008054906101000a900473ffffffffffffffffffffffffffffffffffffffff1673ffffffffffffffffffffffffffffffffffffffff1663a9059cbb82846040518363ffffffff1660e01b81526004016118879291906145c6565b602060405180830381600087803b1580156118a157600080fd5b505af11580156118b5573d6000803e3d6000fd5b505050506040513d601f19601f820116820180604052508101906118d991906139e2565b50600160038481548110611916577f4e487b7100000000000000000000000000000000000000000000000000000000600052603260045260246000fd5b906000526020600020906007020160050160006101000a81548160ff02191690831515021790555060056004858154811061197a577f4e487b7100000000000000000000000000000000000000000000000000000000600052603260045260246000fd5b90600052602060002090600e0201600b0160006101000a81548160ff021916908360078111156119d3577f4e487b7100000000000000000000000000000000000000000000000000000000600052602160045260246000fd5b021790555050505050565b600660048281548110611a1a577f4e487b7100000000000000000000000000000000000000000000000000000000600052603260045260246000fd5b90600052602060002090600e0201600b0160006101000a81548160ff02191690836007811115611a73577f4e487b7100000000000000000000000000000000000000000000000000000000600052602160045260246000fd5b021790555050565b60008054906101000a900473ffffffffffffffffffffffffffffffffffffffff1681565b60008060009054906101000a900473ffffffffffffffffffffffffffffffffffffffff1673ffffffffffffffffffffffffffffffffffffffff1663a9059cbb84846040518363ffffffff1660e01b8152600401611afd9291906145c6565b602060405180830381600087803b158015611b1757600080fd5b505af1158015611b2b573d6000803e3d6000fd5b505050506040513d601f19601f82011682018060405250810190611b4f91906139e2565b506001905092915050565b600260009054906101000a900473ffffffffffffffffffffffffffffffffffffffff1673ffffffffffffffffffffffffffffffffffffffff163373ffffffffffffffffffffffffffffffffffffffff1614611bea576040517f08c379a0000000000000000000000000000000000000000000000000000000008152600401611be190614764565b60405180910390fd5b600060038281548110611c26577f4e487b7100000000000000000000000000000000000000000000000000000000600052603260045260246000fd5b906000526020600020906007020160050160006101000a81548160ff02191690831515021790555050565b6000611d0b6004600184611c659190614abe565b81548110611c9c577f4e487b7100000000000000000000000000000000000000000000000000000000600052603260045260246000fd5b90600052602060002090600e0201600401546004600185611cbd9190614abe565b81548110611cf4577f4e487b7100000000000000000000000000000000000000000000000000000000600052603260045260246000fd5b90600052602060002090600e0201600501546135eb565b90506000600360016004600186611d229190614abe565b81548110611d59577f4e487b7100000000000000000000000000000000000000000000000000000000600052603260045260246000fd5b90600052602060002090600e020160010154611d759190614abe565b81548110611dac577f4e487b7100000000000000000000000000000000000000000000000000000000600052603260045260246000fd5b906000526020600020906007020160060154905060006004600185611dd19190614abe565b81548110611e08577f4e487b7100000000000000000000000000000000000000000000000000000000600052603260045260246000fd5b90600052602060002090600e020160080154600a60098486611e2a9190614a64565b611e349190614a64565b611e3e9190614a33565b611e4891906149dd565b905060008054906101000a900473ffffffffffffffffffffffffffffffffffffffff1673ffffffffffffffffffffffffffffffffffffffff1663a9059cbb600260009054906101000a900473ffffffffffffffffffffffffffffffffffffffff16836040518363ffffffff1660e01b8152600401611ec792919061459d565b602060405180830381600087803b158015611ee157600080fd5b505af1158015611ef5573d6000803e3d6000fd5b505050506040513d601f19601f82011682018060405250810190611f1991906139e2565b5060016004600186611f2b9190614abe565b81548110611f62577f4e487b7100000000000000000000000000000000000000000000000000000000600052603260045260246000fd5b90600052602060002090600e020160070160006101000a81548160ff02191690831515021790555060056004600186611f9b9190614abe565b81548110611fd2577f4e487b7100000000000000000000000000000000000000000000000000000000600052603260045260246000fd5b90600052602060002090600e0201600b0160006101000a81548160ff0219169083600781111561202b577f4e487b7100000000000000000000000000000000000000000000000000000000600052602160045260246000fd5b021790555050505050565b600660205280600052604060002060009150905080600001549080600101805461205f90614c3f565b80601f016020809104026020016040519081016040528092919081815260200182805461208b90614c3f565b80156120d85780601f106120ad576101008083540402835291602001916120d8565b820191906000526020600020905b8154815290600101906020018083116120bb57829003601f168201915b5050505050908060020180546120ed90614c3f565b80601f016020809104026020016040519081016040528092919081815260200182805461211990614c3f565b80156121665780601f1061213b57610100808354040283529160200191612166565b820191906000526020600020905b81548152906001019060200180831161214957829003601f168201915b5050505050908060030154908060040160009054906101000a900473ffffffffffffffffffffffffffffffffffffffff16905085565b60006001905060006040518060e001604052808b81526020018a8152602001898152602001888152602001878152602001861515815260200185815250905060005b6003805490508110156122755787805190602001206003828154811061222d577f4e487b7100000000000000000000000000000000000000000000000000000000600052603260045260246000fd5b906000526020600020906007020160030160405161224b919061456b565b604051809103902014156122625760009250612275565b808061226d90614ca2565b9150506121de565b5060011515821515146122bd576040517f08c379a00000000000000000000000000000000000000000000000000000000081526004016122b4906146a4565b60405180910390fd5b60008054906101000a900473ffffffffffffffffffffffffffffffffffffffff1673ffffffffffffffffffffffffffffffffffffffff1663a9059cbb846064876123079190614a33565b6040518363ffffffff1660e01b81526004016123249291906145c6565b602060405180830381600087803b15801561233e57600080fd5b505af1158015612352573d6000803e3d6000fd5b505050506040513d601f19601f8201168201806040525081019061237691906139e2565b5060038190806001815401808255809150506001900390600052602060002090600702016000909190919091506000820151816000015560208201518160010190805190602001906123c9929190613773565b5060408201518160020190805190602001906123e6929190613773565b506060820151816003019080519060200190612403929190613773565b506080820151816004015560a08201518160050160006101000a81548160ff02191690831515021790555060c0820151816006015550507f821fa57cf05e4406458f2fd9d7e252602d8e319fac403a30e084ba48e5024deb816000015182602001518360400151846060015185608001518660a001518760c0015160405161249197969594939291906147e3565b60405180910390a150505050505050505050565b6124ad6137f9565b600482815481106124e7577f4e487b7100000000000000000000000000000000000000000000000000000000600052603260045260246000fd5b90600052602060002090600e0201604051806101c0016040529081600082015481526020016001820154815260200160028201805461252590614c3f565b80601f016020809104026020016040519081016040528092919081815260200182805461255190614c3f565b801561259e5780601f106125735761010080835404028352916020019161259e565b820191906000526020600020905b81548152906001019060200180831161258157829003601f168201915b505050505081526020016003820160009054906101000a900473ffffffffffffffffffffffffffffffffffffffff1673ffffffffffffffffffffffffffffffffffffffff1673ffffffffffffffffffffffffffffffffffffffff1681526020016004820154815260200160058201548152602001600682015481526020016007820160009054906101000a900460ff161515151581526020016008820154815260200160098201548152602001600a8201548152602001600b820160009054906101000a900460ff16600781111561269f577f4e487b7100000000000000000000000000000000000000000000000000000000600052602160045260246000fd5b60078111156126d7577f4e487b7100000000000000000000000000000000000000000000000000000000600052602160045260246000fd5b8152602001600c820180546126eb90614c3f565b80601f016020809104026020016040519081016040528092919081815260200182805461271790614c3f565b80156127645780601f1061273957610100808354040283529160200191612764565b820191906000526020600020905b81548152906001019060200180831161274757829003601f168201915b50505050508152602001600d8201805461277d90614c3f565b80601f01602080910402602001604051908101604052809291908181526020018280546127a990614c3f565b80156127f65780601f106127cb576101008083540402835291602001916127f6565b820191906000526020600020905b8154815290600101906020018083116127d957829003601f168201915b5050505050815250509050919050565b6000151560048681548110612844577f4e487b7100000000000000000000000000000000000000000000000000000000600052603260045260246000fd5b90600052602060002090600e020160070160009054906101000a900460ff161515146128a5576040517f08c379a000000000000000000000000000000000000000000000000000000000815260040161289c906146c4565b60405180910390fd5b601f81111580156128b7575060018110155b6128f6576040517f08c379a00000000000000000000000000000000000000000000000000000000081526004016128ed90614724565b60405180910390fd5b600c8211158015612908575060018210155b612947576040517f08c379a000000000000000000000000000000000000000000000000000000000815260040161293e90614684565b60405180910390fd5b61295042613621565b8314612991576040517f08c379a000000000000000000000000000000000000000000000000000000000815260040161298890614744565b60405180910390fd5b80600486815481106129cc577f4e487b7100000000000000000000000000000000000000000000000000000000600052603260045260246000fd5b90600052602060002090600e0201600501819055506000612a3860048781548110612a20577f4e487b7100000000000000000000000000000000000000000000000000000000600052603260045260246000fd5b90600052602060002090600e020160040154836135eb565b905060006003600160048981548110612a7a577f4e487b7100000000000000000000000000000000000000000000000000000000600052603260045260246000fd5b90600052602060002090600e020160010154612a969190614abe565b81548110612acd577f4e487b7100000000000000000000000000000000000000000000000000000000600052603260045260246000fd5b906000526020600020906007020160060154905060048781548110612b1b577f4e487b7100000000000000000000000000000000000000000000000000000000600052603260045260246000fd5b90600052602060002090600e020160060154821115612bf2576004600188612b439190614abe565b81548110612b7a577f4e487b7100000000000000000000000000000000000000000000000000000000600052603260045260246000fd5b90600052602060002090600e02016006015482612b979190614abe565b81612ba29190614a64565b60048881548110612bdc577f4e487b7100000000000000000000000000000000000000000000000000000000600052603260045260246000fd5b90600052602060002090600e0201600a01819055505b8560048881548110612c2d577f4e487b7100000000000000000000000000000000000000000000000000000000600052603260045260246000fd5b90600052602060002090600e020160080181905550600660048881548110612c7e577f4e487b7100000000000000000000000000000000000000000000000000000000600052603260045260246000fd5b90600052602060002090600e0201600b0160006101000a81548160ff02191690836007811115612cd7577f4e487b7100000000000000000000000000000000000000000000000000000000600052602160045260246000fd5b021790555050505050505050565b600260009054906101000a900473ffffffffffffffffffffffffffffffffffffffff1673ffffffffffffffffffffffffffffffffffffffff163373ffffffffffffffffffffffffffffffffffffffff1614612d75576040517f08c379a0000000000000000000000000000000000000000000000000000000008152600401612d6c90614764565b60405180910390fd5b6000856003600189612d879190614abe565b81548110612dbe577f4e487b7100000000000000000000000000000000000000000000000000000000600052603260045260246000fd5b90600052602060002090600702016001019080519060200190612de2929190613773565b50846003600189612df39190614abe565b81548110612e2a577f4e487b7100000000000000000000000000000000000000000000000000000000600052603260045260246000fd5b90600052602060002090600702016002019080519060200190612e4e929190613773565b50826003600189612e5f9190614abe565b81548110612e96577f4e487b7100000000000000000000000000000000000000000000000000000000600052603260045260246000fd5b906000526020600020906007020160040181905550816003600189612ebb9190614abe565b81548110612ef2577f4e487b7100000000000000000000000000000000000000000000000000000000600052603260045260246000fd5b90600052602060002090600702016006018190555060005b600380549050811015612fa157848051906020012060038281548110612f59577f4e487b7100000000000000000000000000000000000000000000000000000000600052603260045260246000fd5b9060005260206000209060070201600301604051612f77919061456b565b60405180910390201415612f8e5760019150612fa1565b8080612f9990614ca2565b915050612f0a565b506000151581151514612fe9576040517f08c379a0000000000000000000000000000000000000000000000000000000008152600401612fe0906146e4565b60405180910390fd5b836003600189612ff99190614abe565b81548110613030577f4e487b7100000000000000000000000000000000000000000000000000000000600052603260045260246000fd5b90600052602060002090600702016003019080519060200190613054929190613773565b5050505050505050565b856000600380549050821161307257600190505b8061307c57600080fd5b6000604051806101c0016040528060048054905081526020018a81526020018981526020013373ffffffffffffffffffffffffffffffffffffffff168152602001888152602001878152602001868152602001600015158152602001600081526020018581526020016000815260200160006007811115613126577f4e487b7100000000000000000000000000000000000000000000000000000000600052602160045260246000fd5b815260200160038b81548110613165577f4e487b7100000000000000000000000000000000000000000000000000000000600052603260045260246000fd5b9060005260206000209060070201600301805461318190614c3f565b80601f01602080910402602001604051908101604052809291908181526020018280546131ad90614c3f565b80156131fa5780601f106131cf576101008083540402835291602001916131fa565b820191906000526020600020905b8154815290600101906020018083116131dd57829003601f168201915b5050505050815260200160038b8154811061323e577f4e487b7100000000000000000000000000000000000000000000000000000000600052603260045260246000fd5b9060005260206000209060070201600101805461325a90614c3f565b80601f016020809104026020016040519081016040528092919081815260200182805461328690614c3f565b80156132d35780601f106132a8576101008083540402835291602001916132d3565b820191906000526020600020905b8154815290600101906020018083116132b657829003601f168201915b5050505050815250905060048190806001815401808255809150506001900390600052602060002090600e020160009091909190915060008201518160000155602082015181600101556040820151816002019080519060200190613339929190613773565b5060608201518160030160006101000a81548173ffffffffffffffffffffffffffffffffffffffff021916908373ffffffffffffffffffffffffffffffffffffffff1602179055506080820151816004015560a0820151816005015560c0820151816006015560e08201518160070160006101000a81548160ff0219169083151502179055506101008201518160080155610120820151816009015561014082015181600a015561016082015181600b0160006101000a81548160ff02191690836007811115613432577f4e487b7100000000000000000000000000000000000000000000000000000000600052602160045260246000fd5b021790555061018082015181600c019080519060200190613454929190613773565b506101a082015181600d019080519060200190613472929190613773565b5050507fd6397dd6a2e8745ce4a3dc4e388e34f3703ed9e2f64251476012524d70d73e8b816040516134a491906147a6565b60405180910390a160008054906101000a900473ffffffffffffffffffffffffffffffffffffffff1673ffffffffffffffffffffffffffffffffffffffff1663a9059cbb600260009054906101000a900473ffffffffffffffffffffffffffffffffffffffff16866040518363ffffffff1660e01b815260040161352992919061459d565b602060405180830381600087803b15801561354357600080fd5b505af1158015613557573d6000803e3d6000fd5b505050506040513d601f19601f8201168201806040525081019061357b91906139e2565b50600060038a815481106135b8577f4e487b7100000000000000000000000000000000000000000000000000000000600052603260045260246000fd5b906000526020600020906007020160050160006101000a81548160ff021916908315150217905550505050505050505050565b6000806201518090508284111561360157600080fd5b80848461360e9190614abe565b6136189190614a33565b91505092915050565b600080600090506000806107b2905060006301e13380905060006301e285009050818761364e9190614a33565b8361ffff1661365d91906149dd565b61ffff1695506136708361ffff166116cd565b613679876116cd565b6136839190614abe565b935083816136919190614a64565b8561369c91906149dd565b9450838361ffff16876136af9190614abe565b6136b99190614abe565b826136c49190614a64565b856136cf91906149dd565b94505b8685111561372a576136ef6001876136ea9190614abe565b611410565b156137075780856137009190614abe565b9450613716565b81856137139190614abe565b94505b6001866137239190614abe565b95506136d2565b5050505050919050565b6040518060e001604052806000815260200160608152602001606081526020016060815260200160008152602001600015158152602001600081525090565b82805461377f90614c3f565b90600052602060002090601f0160209004810192826137a157600085556137e8565b82601f106137ba57805160ff19168380011785556137e8565b828001600101855582156137e8579182015b828111156137e75782518255916020019190600101906137cc565b5b5090506137f591906138b8565b5090565b604051806101c00160405280600081526020016000815260200160608152602001600073ffffffffffffffffffffffffffffffffffffffff168152602001600081526020016000815260200160008152602001600015158152602001600081526020016000815260200160008152602001600060078111156138a4577f4e487b7100000000000000000000000000000000000000000000000000000000600052602160045260246000fd5b815260200160608152602001606081525090565b5b808211156138d15760008160009055506001016138b9565b5090565b60006138e86138e3846148ed565b6148c8565b90508281526020810184848401111561390057600080fd5b61390b848285614bfd565b509392505050565b60008135905061392281615032565b92915050565b60008135905061393781615049565b92915050565b60008151905061394c81615049565b92915050565b600082601f83011261396357600080fd5b81356139738482602086016138d5565b91505092915050565b60008135905061398b81615060565b92915050565b6000813590506139a081615077565b92915050565b600080604083850312156139b957600080fd5b60006139c785828601613913565b92505060206139d885828601613991565b9150509250929050565b6000602082840312156139f457600080fd5b6000613a028482850161393d565b91505092915050565b600060208284031215613a1d57600080fd5b6000613a2b8482850161397c565b91505092915050565b600060208284031215613a4657600080fd5b6000613a5484828501613991565b91505092915050565b600080600080600080600080610100898b031215613a7a57600080fd5b6000613a888b828c01613991565b985050602089013567ffffffffffffffff811115613aa557600080fd5b613ab18b828c01613952565b975050604089013567ffffffffffffffff811115613ace57600080fd5b613ada8b828c01613952565b965050606089013567ffffffffffffffff811115613af757600080fd5b613b038b828c01613952565b9550506080613b148b828c01613991565b94505060a0613b258b828c01613928565b93505060c0613b368b828c01613991565b92505060e0613b478b828c01613913565b9150509295985092959890939650565b60008060008060008060c08789031215613b7057600080fd5b6000613b7e89828a01613991565b965050602087013567ffffffffffffffff811115613b9b57600080fd5b613ba789828a01613952565b955050604087013567ffffffffffffffff811115613bc457600080fd5b613bd089828a01613952565b945050606087013567ffffffffffffffff811115613bed57600080fd5b613bf989828a01613952565b9350506080613c0a89828a01613991565b92505060a0613c1b89828a01613991565b9150509295509295509295565b60008060008060008060c08789031215613c4157600080fd5b6000613c4f89828a01613991565b965050602087013567ffffffffffffffff811115613c6c57600080fd5b613c7889828a01613952565b9550506040613c8989828a01613991565b9450506060613c9a89828a01613991565b9350506080613cab89828a01613991565b92505060a0613cbc89828a01613991565b9150509295509295509295565b60008060408385031215613cdc57600080fd5b6000613cea85828601613991565b9250506020613cfb85828601613991565b9150509250929050565b60008060008060808587031215613d1b57600080fd5b6000613d2987828801613991565b9450506020613d3a87828801613991565b9350506040613d4b87828801613991565b9250506060613d5c87828801613913565b91505092959194509250565b600080600080600060a08688031215613d8057600080fd5b6000613d8e88828901613991565b9550506020613d9f88828901613991565b9450506040613db088828901613991565b9350506060613dc188828901613991565b9250506080613dd288828901613991565b9150509295509295909350565b6000613deb8383614181565b905092915050565b6000613dff83836142d5565b905092915050565b613e1081614b6d565b82525050565b613e1f81614b04565b82525050565b613e2e81614af2565b82525050565b613e3d81614af2565b82525050565b6000613e4e82614953565b613e58818561498e565b935083602082028501613e6a8561491e565b8060005b85811015613ea65784840389528151613e878582613ddf565b9450613e9283614974565b925060208a01995050600181019050613e6e565b50829750879550505050505092915050565b6000613ec38261495e565b613ecd818561499f565b935083602082028501613edf8561492e565b8060005b85811015613f1b5784840389528151613efc8582613df3565b9450613f0783614981565b925060208a01995050600181019050613ee3565b50829750879550505050505092915050565b613f3681614b16565b82525050565b613f4581614b16565b82525050565b60008154613f5881614c3f565b613f6281866149b0565b94506001821660008114613f7d5760018114613f8e57613fc1565b60ff19831686528186019350613fc1565b613f978561493e565b60005b83811015613fb957815481890152600182019150602081019050613f9a565b838801955050505b50505092915050565b613fd381614b7f565b82525050565b613fe281614ba3565b82525050565b613ff181614bc7565b82525050565b600061400282614969565b61400c81856149bb565b935061401c818560208601614c0c565b61402581614e07565b840191505092915050565b600061403b82614969565b61404581856149cc565b9350614055818560208601614c0c565b61405e81614e07565b840191505092915050565b60006140766019836149cc565b915061408182614e18565b602082019050919050565b60006140996022836149cc565b91506140a482614e41565b604082019050919050565b60006140bc6023836149cc565b91506140c782614e90565b604082019050919050565b60006140df601a836149cc565b91506140ea82614edf565b602082019050919050565b60006141026022836149cc565b915061410d82614f08565b604082019050919050565b60006141256017836149cc565b915061413082614f57565b602082019050919050565b60006141486048836149cc565b915061415382614f80565b606082019050919050565b600061416b6020836149cc565b915061417682614ff5565b602082019050919050565b600060e083016000830151614199600086018261454d565b50602083015184820360208601526141b18282613ff7565b915050604083015184820360408601526141cb8282613ff7565b915050606083015184820360608601526141e58282613ff7565b91505060808301516141fa608086018261454d565b5060a083015161420d60a0860182613f2d565b5060c083015161422060c086018261454d565b508091505092915050565b600060e083016000830151614243600086018261454d565b506020830151848203602086015261425b8282613ff7565b915050604083015184820360408601526142758282613ff7565b9150506060830151848203606086015261428f8282613ff7565b91505060808301516142a4608086018261454d565b5060a08301516142b760a0860182613f2d565b5060c08301516142ca60c086018261454d565b508091505092915050565b60006101c0830160008301516142ee600086018261454d565b506020830151614301602086018261454d565b50604083015184820360408601526143198282613ff7565b915050606083015161432e6060860182613e25565b506080830151614341608086018261454d565b5060a083015161435460a086018261454d565b5060c083015161436760c086018261454d565b5060e083015161437a60e0860182613f2d565b5061010083015161438f61010086018261454d565b506101208301516143a461012086018261454d565b506101408301516143b961014086018261454d565b506101608301516143ce610160860182613fe8565b506101808301518482036101808601526143e88282613ff7565b9150506101a08301518482036101a08601526144048282613ff7565b9150508091505092915050565b60006101c08301600083015161442a600086018261454d565b50602083015161443d602086018261454d565b50604083015184820360408601526144558282613ff7565b915050606083015161446a6060860182613e25565b50608083015161447d608086018261454d565b5060a083015161449060a086018261454d565b5060c08301516144a360c086018261454d565b5060e08301516144b660e0860182613f2d565b506101008301516144cb61010086018261454d565b506101208301516144e061012086018261454d565b506101408301516144f561014086018261454d565b5061016083015161450a610160860182613fe8565b506101808301518482036101808601526145248282613ff7565b9150506101a08301518482036101a08601526145408282613ff7565b9150508091505092915050565b61455681614b63565b82525050565b61456581614b63565b82525050565b60006145778284613f4b565b915081905092915050565b60006020820190506145976000830184613e16565b92915050565b60006040820190506145b26000830185613e07565b6145bf602083018461455c565b9392505050565b60006040820190506145db6000830185613e34565b6145e8602083018461455c565b9392505050565b600060208201905081810360008301526146098184613e43565b905092915050565b6000602082019050818103600083015261462b8184613eb8565b905092915050565b60006020820190506146486000830184613f3c565b92915050565b60006020820190506146636000830184613fca565b92915050565b600060208201905061467e6000830184613fd9565b92915050565b6000602082019050818103600083015261469d81614069565b9050919050565b600060208201905081810360008301526146bd8161408c565b9050919050565b600060208201905081810360008301526146dd816140af565b9050919050565b600060208201905081810360008301526146fd816140d2565b9050919050565b6000602082019050818103600083015261471d816140f5565b9050919050565b6000602082019050818103600083015261473d81614118565b9050919050565b6000602082019050818103600083015261475d8161413b565b9050919050565b6000602082019050818103600083015261477d8161415e565b9050919050565b6000602082019050818103600083015261479e818461422b565b905092915050565b600060208201905081810360008301526147c08184614411565b905092915050565b60006020820190506147dd600083018461455c565b92915050565b600060e0820190506147f8600083018a61455c565b818103602083015261480a8189614030565b9050818103604083015261481e8188614030565b905081810360608301526148328187614030565b9050614841608083018661455c565b61484e60a0830185613f3c565b61485b60c083018461455c565b98975050505050505050565b600060a08201905061487c600083018861455c565b818103602083015261488e8187614030565b905081810360408301526148a28186614030565b90506148b1606083018561455c565b6148be6080830184613e34565b9695505050505050565b60006148d26148e3565b90506148de8282614c71565b919050565b6000604051905090565b600067ffffffffffffffff82111561490857614907614dd8565b5b61491182614e07565b9050602081019050919050565b6000819050602082019050919050565b6000819050602082019050919050565b60008190508160005260206000209050919050565b600081519050919050565b600081519050919050565b600081519050919050565b6000602082019050919050565b6000602082019050919050565b600082825260208201905092915050565b600082825260208201905092915050565b600081905092915050565b600082825260208201905092915050565b600082825260208201905092915050565b60006149e882614b63565b91506149f383614b63565b9250827fffffffffffffffffffffffffffffffffffffffffffffffffffffffffffffffff03821115614a2857614a27614d1c565b5b828201905092915050565b6000614a3e82614b63565b9150614a4983614b63565b925082614a5957614a58614d4b565b5b828204905092915050565b6000614a6f82614b63565b9150614a7a83614b63565b9250817fffffffffffffffffffffffffffffffffffffffffffffffffffffffffffffffff0483118215151615614ab357614ab2614d1c565b5b828202905092915050565b6000614ac982614b63565b9150614ad483614b63565b925082821015614ae757614ae6614d1c565b5b828203905092915050565b6000614afd82614b43565b9050919050565b6000614b0f82614b43565b9050919050565b60008115159050919050565b6000819050614b308261501e565b919050565b600061ffff82169050919050565b600073ffffffffffffffffffffffffffffffffffffffff82169050919050565b6000819050919050565b6000614b7882614bd9565b9050919050565b6000614b8a82614b91565b9050919050565b6000614b9c82614b43565b9050919050565b6000614bae82614bb5565b9050919050565b6000614bc082614b43565b9050919050565b6000614bd282614b22565b9050919050565b6000614be482614beb565b9050919050565b6000614bf682614b43565b9050919050565b82818337600083830152505050565b60005b83811015614c2a578082015181840152602081019050614c0f565b83811115614c39576000848401525b50505050565b60006002820490506001821680614c5757607f821691505b60208210811415614c6b57614c6a614da9565b5b50919050565b614c7a82614e07565b810181811067ffffffffffffffff82111715614c9957614c98614dd8565b5b80604052505050565b6000614cad82614b63565b91507fffffffffffffffffffffffffffffffffffffffffffffffffffffffffffffffff821415614ce057614cdf614d1c565b5b600182019050919050565b6000614cf682614b35565b9150614d0183614b35565b925082614d1157614d10614d4b565b5b828206905092915050565b7f4e487b7100000000000000000000000000000000000000000000000000000000600052601160045260246000fd5b7f4e487b7100000000000000000000000000000000000000000000000000000000600052601260045260246000fd5b7f4e487b7100000000000000000000000000000000000000000000000000000000600052602160045260246000fd5b7f4e487b7100000000000000000000000000000000000000000000000000000000600052602260045260246000fd5b7f4e487b7100000000000000000000000000000000000000000000000000000000600052604160045260246000fd5b6000601f19601f8301169050919050565b7f436865636b20796f7572206d6f6e746820656e74657265642100000000000000600082015250565b7f4475706c69636174656420636172206c6963656e73652076696e206e756d626560008201527f7221000000000000000000000000000000000000000000000000000000000000602082015250565b7f54686973206361722068617320616c7265616479206265656e2072657475726e60008201527f65642e0000000000000000000000000000000000000000000000000000000000602082015250565b7f4475706c696361746564206361722076696e206e756d62657221000000000000600082015250565b7f55736572206469646e2774206170706c792072657475726e207468697320636160008201527f722e000000000000000000000000000000000000000000000000000000000000602082015250565b7f436865636b20796f75722064617920656e746572656421000000000000000000600082015250565b7f59656172206f662072657475726e2073686f756c64206265207468652063757260008201527f72656e742079656172206e6f772077686963682074686520636172206973207260208201527f657475726e65642e000000000000000000000000000000000000000000000000604082015250565b7f4974206d7573742062652041424320636f6d70616e7927732061646472657373600082015250565b6008811061502f5761502e614d7a565b5b50565b61503b81614af2565b811461504657600080fd5b50565b61505281614b16565b811461505d57600080fd5b50565b61506981614b35565b811461507457600080fd5b50565b61508081614b63565b811461508b57600080fd5b5056fea26469706673582212203f702285865f2d0ae5fb979da57e8fbea7a3e6402724284f2a65b7723c141a1b64736f6c63430008010033",
  "immutableReferences": {},
  "source": "// SPDX-License-Identifier: GPL-3.0-or-later\r\npragma solidity >=0.7.0 <0.9.0;\r\n\r\nimport \"./MicroToken.sol\";\r\nimport \"./UserIdentity.sol\";\r\n// import \"truffle/Console.sol\";\r\n\r\ncontract CarRental{\r\n\r\n    enum RentState{\r\n        REQUESTED,\r\n        COMPANY_APPROVED, \r\n        COMPANY_REJECTED, \r\n        DEPOSIT_RETURNED,\r\n        RENTER_SIGNED, \r\n        CLOSE,\r\n        WAITING_TO_PAY,\r\n        ACCOUNT_LOCKED\r\n    }\r\n    //(op)Dodo can buy insurance for the rental. She can buy while signing a contract with the company. The company will represent the Insurance Co.\r\n    //(op)Dodo needs to transfer insurance fees to the company. \r\n    //(op)The company transfers part of the insurance fee to the Insurance Co. when rental begins and transfers the left part after the contract is over.\r\n    //Above need extra RentState\r\n\r\n    enum RegisterState{\r\n        REQUESTED,\r\n        COMPANY_APPROVED, \r\n        COMPANY_REJECTED\r\n    }\r\n\r\n    //Do we need RENTER_SIGNED really need???\r\n\r\n    // Designing a structure to store the information of ABC Rental company's car fleet \r\n    struct carInfo {\r\n        uint carId; //Incremental generation \r\n        string carBrand; // Car brand \r\n        string carDescription; // Description about car\r\n        string carVin; // Car vehicle identification number \r\n        uint carSeat; // \r\n        bool carAvailable; // Available: true ; Not Available: false\r\n        uint carPrice; // Car rental price per day\r\n    }\r\n\r\n    // Designing a structure to store the information of renter\r\n    struct renterInfo {\r\n        uint userId;\r\n        string socialId; // Renter social id\r\n        string userName; // Renter name\r\n        uint userAge; // Renter age\r\n        address walletAddress; // Wallet address of customer\r\n    }\r\n\r\n    // Designing a structure to store the car renting history \r\n    struct rentalRecord {\r\n        uint renterRecordId;\r\n        uint carId; // Car id\r\n        string renterId; // Renter identity\r\n        address walletAddress; // Wallet address of customer\r\n        uint startDate;  // Start date\r\n        uint endDate;   // End date\r\n        uint duration;  // Num of days\r\n        bool carReturned; // Car return status \r\n        uint extraFee; // Extra fee\r\n        uint deposit; // deposit\r\n        uint lateFee; //late Fee\r\n        RentState state;\r\n        string carVin; // Car rental price per day\r\n        string carBrand; // Car rental price per day\r\n    }\r\n\r\n    event carRentalRequest (rentalRecord);\r\n\r\n    event addCarInfoRequest(\r\n        uint carId, \r\n        string carBrand,\r\n        string carDescription,\r\n        string carVin, \r\n        uint carSeat, \r\n        bool carAvailable,\r\n        uint carPrice\r\n    );\r\n\r\n    // do we need car available date\r\n\r\n    MicroToken public tokenSC; // \r\n    // add user identity management\r\n    UserIdentity public identitySC;\r\n    address payable public companyAddress; // the address of the ABC company's account\r\n    carInfo[] private cars;\r\n    rentalRecord[] private records; // to store the rental records\r\n    uint public carCount = 0; // count the number of the cars added\r\n\r\n    mapping(uint => renterInfo) public renters; // to store the information of each rente\r\n\r\n    constructor (address _userIdentityAddress, address _microTokenAddress) payable{\r\n            companyAddress = payable(msg.sender);\r\n            tokenSC = MicroToken(_microTokenAddress);\r\n            identitySC = UserIdentity(_userIdentityAddress);\r\n    }\r\n\r\n    // Modifiers  \r\n    modifier isABCCompany()\r\n    {\r\n        require(msg.sender == companyAddress, \"It must be ABC company's address\");\r\n        _;\r\n    }\r\n\r\n    //if car available,user car id or car vin?\r\n    modifier isAvailableCar(uint _carId) \r\n    {\r\n        bool isAvailable = false;\r\n        if (_carId <= cars.length) {\r\n            isAvailable = true;\r\n        }\r\n        require(isAvailable);\r\n        _;\r\n    }\r\n\r\n    // A modifier that uses for the function which can only be called by Borrower.\r\n    modifier onlyRegisteredCustomerCanCall {\r\n        // Now only borrower can request rent\r\n        require(identitySC.verifyIsBorrower(msg.sender), \"Bank Borrower Only\");\r\n       _;\r\n   }\r\n\r\n    //Do we need modifier to verify renter's address???\r\n\r\n    //add user just need add rentRequest or still need \r\n\r\n    function addCarInfo(uint _CarId, string memory _carBrand, string memory _carDescription, string memory _carVin, uint _carSeat, bool _available, uint _carPrice, address contractAddress) public payable \r\n    {\r\n        // isABCCompany\r\n        bool carVinUnique = true;\r\n        carInfo memory car = carInfo(_CarId, _carBrand, _carDescription, _carVin, _carSeat, _available, _carPrice);\r\n        for (uint i = 0; i < cars.length; i++) {\r\n            if (keccak256(bytes(cars[i].carVin)) == keccak256(bytes(_carVin))) {\r\n                carVinUnique = false;\r\n                break; \r\n            }\r\n        }\r\n\r\n        require(carVinUnique == true, \"Duplicated car license vin number!\");\r\n        tokenSC.transfer(contractAddress, _carPrice / 100);\r\n        cars.push(car);\r\n        emit addCarInfoRequest(car.carId, car.carBrand, car.carDescription, car.carVin, car.carSeat, car.carAvailable, car.carPrice);\r\n\r\n    }\r\n\r\n    function editCarInfo(uint _carId, string memory _carBrand, string memory _carDescription, string memory _carVin, uint _carSeat, uint _carPrice) payable public isABCCompany{\r\n        //isABCCompany()\r\n        //carVin can not change->vin unique check do in server\r\n        bool carVinRepeat = false;\r\n        cars[_carId-1].carBrand = _carBrand;\r\n        cars[_carId-1].carDescription = _carDescription;\r\n        cars[_carId-1].carSeat = _carSeat;\r\n        cars[_carId-1].carPrice = _carPrice;\r\n        for (uint i = 0; i < cars.length; i++) {\r\n            if (keccak256(bytes(cars[i].carVin)) == keccak256(bytes(_carVin))) {\r\n                carVinRepeat = true;\r\n                break;\r\n            }\r\n        }\r\n        require(carVinRepeat == false, \"Duplicated car vin number!\");\r\n        cars[_carId-1].carVin = _carVin;\r\n    }\r\n\r\n    function deleteCarInfo(uint _carId) public payable isABCCompany {\r\n        //In case id issue, so just change the car status\r\n        cars[_carId].carAvailable = false;\r\n    }\r\n\r\n    function applyCar(uint _carId, string memory _renterId, uint _startDate, uint _endDate, uint _duration, uint _deposit) payable public isAvailableCar(_carId) {\r\n        //onlyRegisteredCustomerCanCall\r\n        //uint deposit = calculateDeposit(_duration, _carId);\r\n\r\n        rentalRecord memory record = rentalRecord(records.length, _carId, _renterId, msg.sender, _startDate, _endDate, _duration, false, 0, _deposit, 0, RentState.REQUESTED, cars[_carId].carVin, cars[_carId].carBrand);\r\n        records.push(record);\r\n\r\n        emit carRentalRequest(record);\r\n\r\n        // companyAddress.transfer(deposit);\r\n        tokenSC.transfer(companyAddress, _deposit); //after this step user receive car?\r\n        cars[_carId].carAvailable = false;\r\n\r\n    }\r\n\r\n    function calculateDeposit(uint _duration, uint _carId) public view returns (uint deposit) {\r\n        //should use 10/100 rather than 0.1\r\n        // return cars[_carId].carPrice * _duration * 10 / 100;\r\n        return cars[_carId].carPrice * _duration;\r\n    }\r\n\r\n    function approveRent(uint _renterRecordId, uint _carId) public isABCCompany() isAvailableCar(_carId) {\r\n\r\n        for (uint i = 0; i < records.length; i++) {\r\n            if (records[i].renterRecordId == _renterRecordId) {\r\n                records[i].state = RentState.COMPANY_APPROVED;\r\n                break;\r\n            }\r\n        }\r\n\r\n        cars[_carId - 1].carAvailable = false;\r\n    }\r\n\r\n    function rejectRent(uint _renterRecordId, uint _carId) public isABCCompany() isAvailableCar(_carId) {\r\n\r\n        for (uint i = 0; i < records.length; i++) {\r\n            if (records[i].renterRecordId == _renterRecordId) {\r\n                records[i].state = RentState.COMPANY_REJECTED;\r\n                break;\r\n            }\r\n        }\r\n\r\n    }\r\n\r\n    function returnDeposit(uint _renterRecordId) payable public isABCCompany() {\r\n\r\n        address payable renterAddress = payable(records[_renterRecordId-1].walletAddress);\r\n\r\n        renterAddress.transfer(records[_renterRecordId-1].deposit);\r\n        //tokenSC.transferFrom(companyAddress, records[_renterRecordId-1].walletAddress, records[_renterRecordId-1].deposit);\r\n        records[_renterRecordId-1].state = RentState.DEPOSIT_RETURNED;\r\n\r\n    }\r\n\r\n    function applyReturnCar(uint _renterRecordId) public {\r\n        records[_renterRecordId].state = RentState.WAITING_TO_PAY;\r\n    }\r\n\r\n    function confirmReturn(uint _renterRecordId, uint _extraFee, uint _returnYear, uint _returnMonth, uint _returnDay) public{\r\n        //isABCCompany() \r\n\r\n        require(records[_renterRecordId].carReturned == false, \"This car has already been returned.\");\r\n\r\n        // Check date is entered correctly\r\n        require(_returnDay <= 31 && _returnDay >= 1, \"Check your day entered!\");\r\n        require(_returnMonth <= 12 && _returnMonth >= 1, \"Check your month entered!\");\r\n        require(_returnYear == getYear(block.timestamp), \"Year of return should be the current year now which the car is returned.\");\r\n\r\n        // Update the return date in records\r\n        records[_renterRecordId].endDate = _returnDay;\r\n\r\n        // Check if the car is returned late by calculating the days difference \r\n        //between startDate and endDate, and compare with numOfDays that user intended to rent.\r\n        uint totalRentedDays = differentDays(records[_renterRecordId].startDate, _returnDay);\r\n\r\n        uint price = cars[records[_renterRecordId].carId -1].carPrice;\r\n\r\n        if (totalRentedDays > records[_renterRecordId].duration) {\r\n            records[_renterRecordId].lateFee = price * (totalRentedDays - records[_renterRecordId-1].duration); //charge rent * number of days late\r\n        }\r\n\r\n        records[_renterRecordId].extraFee = _extraFee;\r\n\r\n        records[_renterRecordId].state = RentState.WAITING_TO_PAY;\r\n\r\n    }\r\n\r\n    function confirmReturnExtra(uint _renterRecordId, uint _carId, uint _damageFee, address _userAddress) payable public {\r\n        require(records[_renterRecordId].state == RentState.WAITING_TO_PAY, \"User didn't apply return this car.\");\r\n        \r\n        tokenSC.transfer(_userAddress, _damageFee);\r\n        cars[_carId].carAvailable = true;\r\n        records[_renterRecordId].state = RentState.CLOSE;\r\n\r\n    }\r\n\r\n\r\n    function payFee(uint _renterRecordId) public {\r\n        uint totalRentedDays = differentDays(records[_renterRecordId-1].startDate,records[_renterRecordId-1].endDate);\r\n        uint price = cars[records[_renterRecordId-1].carId -1].carPrice;\r\n        uint feeWaitingPay = totalRentedDays * price * 9 / 10 + records[_renterRecordId-1].extraFee;\r\n        \r\n        //companyAddress.transfer(feeWaitingPay);\r\n        tokenSC.transfer(companyAddress, feeWaitingPay);\r\n        records[_renterRecordId-1].carReturned = true;\r\n\r\n        records[_renterRecordId-1].state = RentState.CLOSE;\r\n\r\n    }\r\n\r\n    function differentDays(uint fromTimestamp, uint toTimestamp) internal pure returns (uint _days) {\r\n        uint SECONDS_PER_DAY = 24 * 60 * 60;\r\n        require(fromTimestamp <= toTimestamp);\r\n        _days = (toTimestamp - fromTimestamp) / SECONDS_PER_DAY;\r\n    }\r\n\r\n    function getYear(uint timestamp) internal pure returns (uint year) {\r\n        uint secondsAccounted = 0;\r\n        uint numLeapYears;\r\n        uint16 ORIGIN_YEAR = 1970;\r\n        uint YEAR_IN_SECONDS = 31536000;\r\n        uint LEAP_YEAR_IN_SECONDS = 31622400;\r\n \r\n        // Year\r\n        year = uint16(ORIGIN_YEAR + timestamp / YEAR_IN_SECONDS);\r\n        numLeapYears = leapYearsBefore(year) - leapYearsBefore(ORIGIN_YEAR);\r\n \r\n        secondsAccounted += LEAP_YEAR_IN_SECONDS * numLeapYears;\r\n        secondsAccounted += YEAR_IN_SECONDS * (year - ORIGIN_YEAR - numLeapYears);\r\n \r\n        while (secondsAccounted > timestamp) {\r\n            if (isLeapYear(uint16(year - 1))) {\r\n                secondsAccounted -= LEAP_YEAR_IN_SECONDS;\r\n            }\r\n            else {\r\n                secondsAccounted -= YEAR_IN_SECONDS;\r\n            }\r\n            year -= 1;\r\n        }\r\n        return year;\r\n    }\r\n\r\n        //To calculate the leap year before the input year\r\n    function leapYearsBefore(uint year) public pure returns (uint) {\r\n        year -= 1;\r\n        return year / 4 - year / 100 + year / 400;\r\n    }\r\n\r\n    //To check if the year inputed is a leapyear\r\n    function isLeapYear(uint16 year) public pure returns (bool) {\r\n        if (year % 4 != 0) {\r\n            return false;\r\n        }\r\n        if (year % 100 != 0) {\r\n            return true;\r\n        }\r\n        if (year % 400 != 0) {\r\n            return false;\r\n        }\r\n        return true;\r\n    }\r\n\r\n    function carTransfer(address _walletAddress, uint _amount) public payable returns (bool){\r\n        tokenSC.transfer(_walletAddress , _amount);\r\n\r\n        return true;\r\n    }\r\n\r\n    function parseAddr(string memory _a) internal pure returns (address _parsedAddress) {\r\n        bytes memory tmp = bytes(_a);\r\n        uint160 iaddr = 0;\r\n        uint160 b1;\r\n        uint160 b2;\r\n        for (uint i = 2; i < 2 + 2 * 20; i += 2) {\r\n            iaddr *= 256;\r\n            b1 = uint160(uint8(tmp[i]));\r\n            b2 = uint160(uint8(tmp[i + 1]));\r\n            if ((b1 >= 97) && (b1 <= 102)) {\r\n                b1 -= 87;\r\n            } else if ((b1 >= 65) && (b1 <= 70)) {\r\n                b1 -= 55;\r\n            } else if ((b1 >= 48) && (b1 <= 57)) {\r\n                b1 -= 48;\r\n            }\r\n            if ((b2 >= 97) && (b2 <= 102)) {\r\n                b2 -= 87;\r\n            } else if ((b2 >= 65) && (b2 <= 70)) {\r\n                b2 -= 55;\r\n            } else if ((b2 >= 48) && (b2 <= 57)) {\r\n                b2 -= 48;\r\n            }\r\n            iaddr += (b1 * 16 + b2);\r\n        }\r\n        return address(iaddr);\r\n}\r\n\r\n    function getAllCars() public view returns (carInfo[] memory) {\r\n        return cars;\r\n    }\r\n\r\n    function getCarById(uint _carId) public view returns (carInfo memory) {\r\n        //pay attentation the carid relationship with index and id\r\n        return cars[_carId];\r\n    }\r\n\r\n    function getAllReconds() public view returns (rentalRecord[] memory) {\r\n        return records;\r\n    }\r\n\r\n    function getRecordById(uint _recordId) public view returns (rentalRecord memory) {\r\n        return records[_recordId];\r\n    }\r\n\r\n    function removeRecords(uint _renterRecordId) public isABCCompany\r\n    {\r\n        for (uint i = 0; i < records.length; i++) {\r\n            if (records[i].renterRecordId == _renterRecordId) {\r\n                records[i].state = RentState.CLOSE;\r\n                break;\r\n            }\r\n        }\r\n    }\r\n\r\n    \r\n    \r\n}",
  "sourcePath": "/Users/huangzhongkai/Desktop/ntu msis/Semester 2/Blockchain System Software Engineering/Topic 6 Decentrailized App/Group Project/Final/bc_project/blockchain/contracts/CarRental.sol",
  "compiler": {
    "name": "solc",
    "version": "0.8.1+commit.df193b15.Emscripten.clang"
  },
  "schemaVersion": "3.4.3",
  "updatedAt": "2022-04-11T15:53:45.615Z",
  "networkType": "ethereum",
  "devdoc": {
    "kind": "dev",
    "methods": {},
    "version": 1
  },
  "userdoc": {
    "kind": "user",
    "methods": {},
    "version": 1
  }
}