{
  "contractName": "CarRental",
  "abi": [
    {
      "inputs": [
        {
          "internalType": "address",
          "name": "_userIdentityAddress",
          "type": "address"
        },
        {
          "internalType": "address",
          "name": "_microTokenAddress",
          "type": "address"
        }
      ],
      "stateMutability": "payable",
      "type": "constructor",
      "payable": true
    },
    {
      "anonymous": false,
      "inputs": [
        {
          "indexed": false,
          "internalType": "uint256",
          "name": "carId",
          "type": "uint256"
        },
        {
          "indexed": false,
          "internalType": "string",
          "name": "carBrand",
          "type": "string"
        },
        {
          "indexed": false,
          "internalType": "string",
          "name": "carDescription",
          "type": "string"
        },
        {
          "indexed": false,
          "internalType": "string",
          "name": "carVin",
          "type": "string"
        },
        {
          "indexed": false,
          "internalType": "uint256",
          "name": "carSeat",
          "type": "uint256"
        },
        {
          "indexed": false,
          "internalType": "bool",
          "name": "carAvailable",
          "type": "bool"
        },
        {
          "indexed": false,
          "internalType": "uint256",
          "name": "carPrice",
          "type": "uint256"
        }
      ],
      "name": "addCarInfoRequest",
      "type": "event"
    },
    {
      "anonymous": false,
      "inputs": [
        {
          "components": [
            {
              "internalType": "uint256",
              "name": "renterRecordId",
              "type": "uint256"
            },
            {
              "internalType": "uint256",
              "name": "carId",
              "type": "uint256"
            },
            {
              "internalType": "string",
              "name": "renterId",
              "type": "string"
            },
            {
              "internalType": "address",
              "name": "walletAddress",
              "type": "address"
            },
            {
              "internalType": "uint256",
              "name": "startDate",
              "type": "uint256"
            },
            {
              "internalType": "uint256",
              "name": "endDate",
              "type": "uint256"
            },
            {
              "internalType": "uint256",
              "name": "duration",
              "type": "uint256"
            },
            {
              "internalType": "bool",
              "name": "carReturned",
              "type": "bool"
            },
            {
              "internalType": "uint256",
              "name": "extraFee",
              "type": "uint256"
            },
            {
              "internalType": "uint256",
              "name": "deposit",
              "type": "uint256"
            },
            {
              "internalType": "uint256",
              "name": "lateFee",
              "type": "uint256"
            },
            {
              "internalType": "enum CarRental.RentState",
              "name": "state",
              "type": "uint8"
            }
          ],
          "indexed": false,
          "internalType": "struct CarRental.rentalRecord",
          "name": "",
          "type": "tuple"
        }
      ],
      "name": "carRentalRequest",
      "type": "event"
    },
    {
      "inputs": [],
      "name": "carCount",
      "outputs": [
        {
          "internalType": "uint256",
          "name": "",
          "type": "uint256"
        }
      ],
      "stateMutability": "view",
      "type": "function",
      "constant": true
    },
    {
      "inputs": [],
      "name": "companyAddress",
      "outputs": [
        {
          "internalType": "address payable",
          "name": "",
          "type": "address"
        }
      ],
      "stateMutability": "view",
      "type": "function",
      "constant": true
    },
    {
      "inputs": [],
      "name": "identitySC",
      "outputs": [
        {
          "internalType": "contract UserIdentity",
          "name": "",
          "type": "address"
        }
      ],
      "stateMutability": "view",
      "type": "function",
      "constant": true
    },
    {
      "inputs": [
        {
          "internalType": "uint256",
          "name": "",
          "type": "uint256"
        }
      ],
      "name": "renters",
      "outputs": [
        {
          "internalType": "uint256",
          "name": "userId",
          "type": "uint256"
        },
        {
          "internalType": "string",
          "name": "socialId",
          "type": "string"
        },
        {
          "internalType": "string",
          "name": "userName",
          "type": "string"
        },
        {
          "internalType": "uint256",
          "name": "userAge",
          "type": "uint256"
        },
        {
          "internalType": "address",
          "name": "walletAddress",
          "type": "address"
        }
      ],
      "stateMutability": "view",
      "type": "function",
      "constant": true
    },
    {
      "inputs": [],
      "name": "tokenSC",
      "outputs": [
        {
          "internalType": "contract MicroToken",
          "name": "",
          "type": "address"
        }
      ],
      "stateMutability": "view",
      "type": "function",
      "constant": true
    },
    {
      "inputs": [
        {
          "internalType": "string",
          "name": "_carBrand",
          "type": "string"
        },
        {
          "internalType": "string",
          "name": "_carDescription",
          "type": "string"
        },
        {
          "internalType": "string",
          "name": "_carVin",
          "type": "string"
        },
        {
          "internalType": "uint256",
          "name": "_carSeat",
          "type": "uint256"
        },
        {
          "internalType": "uint256",
          "name": "_carPrice",
          "type": "uint256"
        },
        {
          "internalType": "address",
          "name": "contractAddress",
          "type": "address"
        }
      ],
      "name": "addCarInfo",
      "outputs": [],
      "stateMutability": "payable",
      "type": "function",
      "payable": true
    },
    {
      "inputs": [
        {
          "internalType": "uint256",
          "name": "_carId",
          "type": "uint256"
        },
        {
          "internalType": "string",
          "name": "_carBrand",
          "type": "string"
        },
        {
          "internalType": "string",
          "name": "_carDescription",
          "type": "string"
        },
        {
          "internalType": "string",
          "name": "_carVin",
          "type": "string"
        },
        {
          "internalType": "uint256",
          "name": "_carSeat",
          "type": "uint256"
        },
        {
          "internalType": "uint256",
          "name": "_carPrice",
          "type": "uint256"
        }
      ],
      "name": "editCarInfo",
      "outputs": [],
      "stateMutability": "payable",
      "type": "function",
      "payable": true
    },
    {
      "inputs": [
        {
          "internalType": "uint256",
          "name": "_carId",
          "type": "uint256"
        }
      ],
      "name": "deleteCarInfo",
      "outputs": [],
      "stateMutability": "payable",
      "type": "function",
      "payable": true
    },
    {
      "inputs": [
        {
          "internalType": "uint256",
          "name": "_carId",
          "type": "uint256"
        },
        {
          "internalType": "string",
          "name": "_renterId",
          "type": "string"
        },
        {
          "internalType": "uint256",
          "name": "_startDate",
          "type": "uint256"
        },
        {
          "internalType": "uint256",
          "name": "_endDate",
          "type": "uint256"
        },
        {
          "internalType": "uint256",
          "name": "_duration",
          "type": "uint256"
        }
      ],
      "name": "applyCar",
      "outputs": [],
      "stateMutability": "payable",
      "type": "function",
      "payable": true
    },
    {
      "inputs": [
        {
          "internalType": "uint256",
          "name": "_duration",
          "type": "uint256"
        },
        {
          "internalType": "uint256",
          "name": "_carId",
          "type": "uint256"
        }
      ],
      "name": "calculateDeposit",
      "outputs": [
        {
          "internalType": "uint256",
          "name": "deposit",
          "type": "uint256"
        }
      ],
      "stateMutability": "view",
      "type": "function",
      "constant": true
    },
    {
      "inputs": [
        {
          "internalType": "uint256",
          "name": "_renterRecordId",
          "type": "uint256"
        },
        {
          "internalType": "uint256",
          "name": "_carId",
          "type": "uint256"
        }
      ],
      "name": "approveRent",
      "outputs": [],
      "stateMutability": "nonpayable",
      "type": "function"
    },
    {
      "inputs": [
        {
          "internalType": "uint256",
          "name": "_renterRecordId",
          "type": "uint256"
        },
        {
          "internalType": "uint256",
          "name": "_carId",
          "type": "uint256"
        }
      ],
      "name": "rejectRent",
      "outputs": [],
      "stateMutability": "nonpayable",
      "type": "function"
    },
    {
      "inputs": [
        {
          "internalType": "uint256",
          "name": "_renterRecordId",
          "type": "uint256"
        }
      ],
      "name": "returnDeposit",
      "outputs": [],
      "stateMutability": "payable",
      "type": "function",
      "payable": true
    },
    {
      "inputs": [
        {
          "internalType": "uint256",
          "name": "_renterRecordId",
          "type": "uint256"
        }
      ],
      "name": "applyReturnCar",
      "outputs": [],
      "stateMutability": "nonpayable",
      "type": "function"
    },
    {
      "inputs": [
        {
          "internalType": "uint256",
          "name": "_renterRecordId",
          "type": "uint256"
        },
        {
          "internalType": "uint256",
          "name": "_extraFee",
          "type": "uint256"
        },
        {
          "internalType": "uint256",
          "name": "_returnYear",
          "type": "uint256"
        },
        {
          "internalType": "uint256",
          "name": "_returnMonth",
          "type": "uint256"
        },
        {
          "internalType": "uint256",
          "name": "_returnDay",
          "type": "uint256"
        }
      ],
      "name": "confirmReturn",
      "outputs": [],
      "stateMutability": "nonpayable",
      "type": "function"
    },
    {
      "inputs": [
        {
          "internalType": "uint256",
          "name": "_renterRecordId",
          "type": "uint256"
        }
      ],
      "name": "payFee",
      "outputs": [],
      "stateMutability": "nonpayable",
      "type": "function"
    },
    {
      "inputs": [
        {
          "internalType": "uint256",
          "name": "year",
          "type": "uint256"
        }
      ],
      "name": "leapYearsBefore",
      "outputs": [
        {
          "internalType": "uint256",
          "name": "",
          "type": "uint256"
        }
      ],
      "stateMutability": "pure",
      "type": "function",
      "constant": true
    },
    {
      "inputs": [
        {
          "internalType": "uint16",
          "name": "year",
          "type": "uint16"
        }
      ],
      "name": "isLeapYear",
      "outputs": [
        {
          "internalType": "bool",
          "name": "",
          "type": "bool"
        }
      ],
      "stateMutability": "pure",
      "type": "function",
      "constant": true
    },
    {
      "inputs": [
        {
          "internalType": "address",
          "name": "_walletAddress",
          "type": "address"
        },
        {
          "internalType": "uint256",
          "name": "_amount",
          "type": "uint256"
        }
      ],
      "name": "carTransfer",
      "outputs": [
        {
          "internalType": "bool",
          "name": "",
          "type": "bool"
        }
      ],
      "stateMutability": "payable",
      "type": "function",
      "payable": true
    },
    {
      "inputs": [],
      "name": "getAllCars",
      "outputs": [
        {
          "components": [
            {
              "internalType": "uint256",
              "name": "carId",
              "type": "uint256"
            },
            {
              "internalType": "string",
              "name": "carBrand",
              "type": "string"
            },
            {
              "internalType": "string",
              "name": "carDescription",
              "type": "string"
            },
            {
              "internalType": "string",
              "name": "carVin",
              "type": "string"
            },
            {
              "internalType": "uint256",
              "name": "carSeat",
              "type": "uint256"
            },
            {
              "internalType": "bool",
              "name": "carAvailable",
              "type": "bool"
            },
            {
              "internalType": "uint256",
              "name": "carPrice",
              "type": "uint256"
            }
          ],
          "internalType": "struct CarRental.carInfo[]",
          "name": "",
          "type": "tuple[]"
        }
      ],
      "stateMutability": "view",
      "type": "function",
      "constant": true
    },
    {
      "inputs": [
        {
          "internalType": "uint256",
          "name": "_carId",
          "type": "uint256"
        }
      ],
      "name": "getCarById",
      "outputs": [
        {
          "components": [
            {
              "internalType": "uint256",
              "name": "carId",
              "type": "uint256"
            },
            {
              "internalType": "string",
              "name": "carBrand",
              "type": "string"
            },
            {
              "internalType": "string",
              "name": "carDescription",
              "type": "string"
            },
            {
              "internalType": "string",
              "name": "carVin",
              "type": "string"
            },
            {
              "internalType": "uint256",
              "name": "carSeat",
              "type": "uint256"
            },
            {
              "internalType": "bool",
              "name": "carAvailable",
              "type": "bool"
            },
            {
              "internalType": "uint256",
              "name": "carPrice",
              "type": "uint256"
            }
          ],
          "internalType": "struct CarRental.carInfo",
          "name": "",
          "type": "tuple"
        }
      ],
      "stateMutability": "view",
      "type": "function",
      "constant": true
    }
  ],
  "bytecode": "0x60806040526000600555604051620041f6380380620041f683398181016040528101906200002e91906200010f565b33600260006101000a81548173ffffffffffffffffffffffffffffffffffffffff021916908373ffffffffffffffffffffffffffffffffffffffff160217905550806000806101000a81548173ffffffffffffffffffffffffffffffffffffffff021916908373ffffffffffffffffffffffffffffffffffffffff16021790555081600160006101000a81548173ffffffffffffffffffffffffffffffffffffffff021916908373ffffffffffffffffffffffffffffffffffffffff16021790555050506200019e565b600081519050620001098162000184565b92915050565b600080604083850312156200012357600080fd5b60006200013385828601620000f8565b92505060206200014685828601620000f8565b9150509250929050565b60006200015d8262000164565b9050919050565b600073ffffffffffffffffffffffffffffffffffffffff82169050919050565b6200018f8162000150565b81146200019b57600080fd5b50565b61404880620001ae6000396000f3fe60806040526004361061012a5760003560e01c8063abfe5d57116100ab578063c320241e1161006f578063c320241e146103c9578063c838ab6a146103f9578063d289ade214610415578063dcc3974b1461043e578063f3450c7d1461047f578063f4914a8f146104a85761012a565b8063abfe5d57146102f1578063b19999371461031c578063b748b59914610359578063bed31acc14610375578063c16849c01461039e5761012a565b80638154ab0f116100f25780638154ab0f146102075780638299f0de1461024457806390720b321461026d578063a317ca6b14610298578063a6f0e577146102b45761012a565b806301c4ecc41461012f5780630c18c62c1461015857806318b683fb14610195578063297a1f56146101b157806353e1ead9146101dc575b600080fd5b34801561013b57600080fd5b5061015660048036038101906101519190612f05565b6104c4565b005b34801561016457600080fd5b5061017f600480360381019061017a9190612f05565b61068e565b60405161018c91906137ab565b60405180910390f35b6101af60048036038101906101aa9190612d7c565b610707565b005b3480156101bd57600080fd5b506101c661095b565b6040516101d391906137ab565b60405180910390f35b3480156101e857600080fd5b506101f1610961565b6040516101fe9190613579565b60405180910390f35b34801561021357600080fd5b5061022e60048036038101906102299190612d7c565b610987565b60405161023b9190613767565b60405180910390f35b34801561025057600080fd5b5061026b60048036038101906102669190612f05565b610bd8565b005b34801561027957600080fd5b50610282610e12565b60405161028f919061364c565b60405180910390f35b6102b260048036038101906102ad9190612c82565b610e38565b005b3480156102c057600080fd5b506102db60048036038101906102d69190612d53565b611145565b6040516102e89190613616565b60405180910390f35b3480156102fd57600080fd5b506103066111b4565b60405161031391906135f4565b60405180910390f35b34801561032857600080fd5b50610343600480360381019061033e9190612d7c565b611402565b60405161035091906137ab565b60405180910390f35b610373600480360381019061036e9190612e76565b611456565b005b34801561038157600080fd5b5061039c60048036038101906103979190612d7c565b6117a1565b005b3480156103aa57600080fd5b506103b3611934565b6040516103c09190613631565b60405180910390f35b6103e360048036038101906103de9190612c1d565b611958565b6040516103f09190613616565b60405180910390f35b610413600480360381019061040e9190612d7c565b611a13565b005b34801561042157600080fd5b5061043c60048036038101906104379190612d7c565b611b0a565b005b34801561044a57600080fd5b5061046560048036038101906104609190612d7c565b611e88565b60405161047695949392919061384a565b60405180910390f35b34801561048b57600080fd5b506104a660048036038101906104a19190612f41565b611fee565b005b6104c260048036038101906104bd9190612da5565b6125bd565b005b600260009054906101000a900473ffffffffffffffffffffffffffffffffffffffff1673ffffffffffffffffffffffffffffffffffffffff163373ffffffffffffffffffffffffffffffffffffffff1614610554576040517f08c379a000000000000000000000000000000000000000000000000000000000815260040161054b90613747565b60405180910390fd5b806000600380549050821161056857600190505b8061057257600080fd5b60005b6004805490508110156106875784600482815481106105bd577f4e487b7100000000000000000000000000000000000000000000000000000000600052603260045260246000fd5b90600052602060002090600c020160000154141561067457600260048281548110610611577f4e487b7100000000000000000000000000000000000000000000000000000000600052603260045260246000fd5b90600052602060002090600c0201600b0160006101000a81548160ff0219169083600781111561066a577f4e487b7100000000000000000000000000000000000000000000000000000000600052602160045260246000fd5b0217905550610687565b808061067f90613c4c565b915050610575565b5050505050565b60006064600a84600385815481106106cf577f4e487b7100000000000000000000000000000000000000000000000000000000600052603260045260246000fd5b9060005260206000209060070201600601546106eb9190613a0e565b6106f59190613a0e565b6106ff91906139dd565b905092915050565b600260009054906101000a900473ffffffffffffffffffffffffffffffffffffffff1673ffffffffffffffffffffffffffffffffffffffff163373ffffffffffffffffffffffffffffffffffffffff1614610797576040517f08c379a000000000000000000000000000000000000000000000000000000000815260040161078e90613747565b60405180910390fd5b600060046001836107a89190613a68565b815481106107df577f4e487b7100000000000000000000000000000000000000000000000000000000600052603260045260246000fd5b90600052602060002090600c020160030160009054906101000a900473ffffffffffffffffffffffffffffffffffffffff1690508073ffffffffffffffffffffffffffffffffffffffff166108fc600460018561083c9190613a68565b81548110610873577f4e487b7100000000000000000000000000000000000000000000000000000000600052603260045260246000fd5b90600052602060002090600c0201600901549081150290604051600060405180830381858888f193505050501580156108b0573d6000803e3d6000fd5b50600360046001846108c29190613a68565b815481106108f9577f4e487b7100000000000000000000000000000000000000000000000000000000600052603260045260246000fd5b90600052602060002090600c0201600b0160006101000a81548160ff02191690836007811115610952577f4e487b7100000000000000000000000000000000000000000000000000000000600052602160045260246000fd5b02179055505050565b60055481565b600260009054906101000a900473ffffffffffffffffffffffffffffffffffffffff1681565b61098f612a7f565b600382815481106109c9577f4e487b7100000000000000000000000000000000000000000000000000000000600052603260045260246000fd5b90600052602060002090600702016040518060e0016040529081600082015481526020016001820180546109fc90613be9565b80601f0160208091040260200160405190810160405280929190818152602001828054610a2890613be9565b8015610a755780601f10610a4a57610100808354040283529160200191610a75565b820191906000526020600020905b815481529060010190602001808311610a5857829003601f168201915b50505050508152602001600282018054610a8e90613be9565b80601f0160208091040260200160405190810160405280929190818152602001828054610aba90613be9565b8015610b075780601f10610adc57610100808354040283529160200191610b07565b820191906000526020600020905b815481529060010190602001808311610aea57829003601f168201915b50505050508152602001600382018054610b2090613be9565b80601f0160208091040260200160405190810160405280929190818152602001828054610b4c90613be9565b8015610b995780601f10610b6e57610100808354040283529160200191610b99565b820191906000526020600020905b815481529060010190602001808311610b7c57829003601f168201915b50505050508152602001600482015481526020016005820160009054906101000a900460ff161515151581526020016006820154815250509050919050565b600260009054906101000a900473ffffffffffffffffffffffffffffffffffffffff1673ffffffffffffffffffffffffffffffffffffffff163373ffffffffffffffffffffffffffffffffffffffff1614610c68576040517f08c379a0000000000000000000000000000000000000000000000000000000008152600401610c5f90613747565b60405180910390fd5b8060006003805490508211610c7c57600190505b80610c8657600080fd5b60005b600480549050811015610d9b578460048281548110610cd1577f4e487b7100000000000000000000000000000000000000000000000000000000600052603260045260246000fd5b90600052602060002090600c0201600001541415610d8857600160048281548110610d25577f4e487b7100000000000000000000000000000000000000000000000000000000600052603260045260246000fd5b90600052602060002090600c0201600b0160006101000a81548160ff02191690836007811115610d7e577f4e487b7100000000000000000000000000000000000000000000000000000000600052602160045260246000fd5b0217905550610d9b565b8080610d9390613c4c565b915050610c89565b5060006003600185610dad9190613a68565b81548110610de4577f4e487b7100000000000000000000000000000000000000000000000000000000600052603260045260246000fd5b906000526020600020906007020160050160006101000a81548160ff02191690831515021790555050505050565b600160009054906101000a900473ffffffffffffffffffffffffffffffffffffffff1681565b60006001905060006040518060e00160405280600380549050815260200189815260200188815260200187815260200186815260200160011515815260200185815250905060005b600380549050811015610f1757868051906020012060038281548110610ecf577f4e487b7100000000000000000000000000000000000000000000000000000000600052603260045260246000fd5b9060005260206000209060070201600301604051610eed9190613547565b60405180910390201415610f045760009250610f17565b8080610f0f90613c4c565b915050610e80565b506001151582151514610f5f576040517f08c379a0000000000000000000000000000000000000000000000000000000008152600401610f5690613687565b60405180910390fd5b60008054906101000a900473ffffffffffffffffffffffffffffffffffffffff1673ffffffffffffffffffffffffffffffffffffffff1663a9059cbb84606487610fa991906139dd565b6040518363ffffffff1660e01b8152600401610fc69291906135cb565b602060405180830381600087803b158015610fe057600080fd5b505af1158015610ff4573d6000803e3d6000fd5b505050506040513d601f19601f820116820180604052508101906110189190612c59565b50600381908060018154018082558091505060019003906000526020600020906007020160009091909190915060008201518160000155602082015181600101908051906020019061106b929190612abe565b506040820151816002019080519060200190611088929190612abe565b5060608201518160030190805190602001906110a5929190612abe565b506080820151816004015560a08201518160050160006101000a81548160ff02191690831515021790555060c0820151816006015550507f821fa57cf05e4406458f2fd9d7e252602d8e319fac403a30e084ba48e5024deb816000015182602001518360400151846060015185608001518660a001518760c0015160405161113397969594939291906137c6565b60405180910390a15050505050505050565b6000806004836111559190613c95565b61ffff161461116757600090506111af565b60006064836111769190613c95565b61ffff161461118857600190506111af565b6000610190836111989190613c95565b61ffff16146111aa57600090506111af565b600190505b919050565b60606003805480602002602001604051908101604052809291908181526020016000905b828210156113f957838290600052602060002090600702016040518060e00160405290816000820154815260200160018201805461121590613be9565b80601f016020809104026020016040519081016040528092919081815260200182805461124190613be9565b801561128e5780601f106112635761010080835404028352916020019161128e565b820191906000526020600020905b81548152906001019060200180831161127157829003601f168201915b505050505081526020016002820180546112a790613be9565b80601f01602080910402602001604051908101604052809291908181526020018280546112d390613be9565b80156113205780601f106112f557610100808354040283529160200191611320565b820191906000526020600020905b81548152906001019060200180831161130357829003601f168201915b5050505050815260200160038201805461133990613be9565b80601f016020809104026020016040519081016040528092919081815260200182805461136590613be9565b80156113b25780601f10611387576101008083540402835291602001916113b2565b820191906000526020600020905b81548152906001019060200180831161139557829003601f168201915b50505050508152602001600482015481526020016005820160009054906101000a900460ff16151515158152602001600682015481525050815260200190600101906111d8565b50505050905090565b60006001826114119190613a68565b91506101908261142191906139dd565b60648361142e91906139dd565b60048461143b91906139dd565b6114459190613a68565b61144f9190613987565b9050919050565b846000600380549050821161146a57600190505b8061147457600080fd5b6000611480848961068e565b9050600060405180610180016040528060048054905081526020018a81526020018981526020013373ffffffffffffffffffffffffffffffffffffffff16815260200188815260200187815260200186815260200160001515815260200160008152602001838152602001600081526020016000600781111561152c577f4e487b7100000000000000000000000000000000000000000000000000000000600052602160045260246000fd5b815250905060048190806001815401808255809150506001900390600052602060002090600c02016000909190919091506000820151816000015560208201518160010155604082015181600201908051906020019061158d929190612abe565b5060608201518160030160006101000a81548173ffffffffffffffffffffffffffffffffffffffff021916908373ffffffffffffffffffffffffffffffffffffffff1602179055506080820151816004015560a0820151816005015560c0820151816006015560e08201518160070160006101000a81548160ff0219169083151502179055506101008201518160080155610120820151816009015561014082015181600a015561016082015181600b0160006101000a81548160ff02191690836007811115611686577f4e487b7100000000000000000000000000000000000000000000000000000000600052602160045260246000fd5b021790555050507f221c91a14f8109c2d4bdb801422a667197dfd44b98a501c4a58570ffcc870f5c816040516116bc9190613789565b60405180910390a160008054906101000a900473ffffffffffffffffffffffffffffffffffffffff1673ffffffffffffffffffffffffffffffffffffffff166323b872dd33600260009054906101000a900473ffffffffffffffffffffffffffffffffffffffff16856040518463ffffffff1660e01b815260040161174393929190613594565b602060405180830381600087803b15801561175d57600080fd5b505af1158015611771573d6000803e3d6000fd5b505050506040513d601f19601f820116820180604052508101906117959190612c59565b50505050505050505050565b600160009054906101000a900473ffffffffffffffffffffffffffffffffffffffff1673ffffffffffffffffffffffffffffffffffffffff1663e701c350336040518263ffffffff1660e01b81526004016117fc919061355e565b60206040518083038186803b15801561181457600080fd5b505afa158015611828573d6000803e3d6000fd5b505050506040513d601f19601f8201168201806040525081019061184c9190612c59565b61188b576040517f08c379a000000000000000000000000000000000000000000000000000000000815260040161188290613727565b60405180910390fd5b6006600460018361189c9190613a68565b815481106118d3577f4e487b7100000000000000000000000000000000000000000000000000000000600052603260045260246000fd5b90600052602060002090600c0201600b0160006101000a81548160ff0219169083600781111561192c577f4e487b7100000000000000000000000000000000000000000000000000000000600052602160045260246000fd5b021790555050565b60008054906101000a900473ffffffffffffffffffffffffffffffffffffffff1681565b60008060009054906101000a900473ffffffffffffffffffffffffffffffffffffffff1673ffffffffffffffffffffffffffffffffffffffff1663a9059cbb84846040518363ffffffff1660e01b81526004016119b69291906135cb565b602060405180830381600087803b1580156119d057600080fd5b505af11580156119e4573d6000803e3d6000fd5b505050506040513d601f19601f82011682018060405250810190611a089190612c59565b506001905092915050565b600260009054906101000a900473ffffffffffffffffffffffffffffffffffffffff1673ffffffffffffffffffffffffffffffffffffffff163373ffffffffffffffffffffffffffffffffffffffff1614611aa3576040517f08c379a0000000000000000000000000000000000000000000000000000000008152600401611a9a90613747565b60405180910390fd5b600060038281548110611adf577f4e487b7100000000000000000000000000000000000000000000000000000000600052603260045260246000fd5b906000526020600020906007020160050160006101000a81548160ff02191690831515021790555050565b6000611bc46004600184611b1e9190613a68565b81548110611b55577f4e487b7100000000000000000000000000000000000000000000000000000000600052603260045260246000fd5b90600052602060002090600c0201600401546004600185611b769190613a68565b81548110611bad577f4e487b7100000000000000000000000000000000000000000000000000000000600052603260045260246000fd5b90600052602060002090600c020160050154612936565b90506000600360016004600186611bdb9190613a68565b81548110611c12577f4e487b7100000000000000000000000000000000000000000000000000000000600052603260045260246000fd5b90600052602060002090600c020160010154611c2e9190613a68565b81548110611c65577f4e487b7100000000000000000000000000000000000000000000000000000000600052603260045260246000fd5b906000526020600020906007020160060154905060006004600185611c8a9190613a68565b81548110611cc1577f4e487b7100000000000000000000000000000000000000000000000000000000600052603260045260246000fd5b90600052602060002090600c020160080154600a60098486611ce39190613a0e565b611ced9190613a0e565b611cf791906139dd565b611d019190613987565b9050600260009054906101000a900473ffffffffffffffffffffffffffffffffffffffff1673ffffffffffffffffffffffffffffffffffffffff166108fc829081150290604051600060405180830381858888f19350505050158015611d6b573d6000803e3d6000fd5b5060016004600186611d7d9190613a68565b81548110611db4577f4e487b7100000000000000000000000000000000000000000000000000000000600052603260045260246000fd5b90600052602060002090600c020160070160006101000a81548160ff02191690831515021790555060056004600186611ded9190613a68565b81548110611e24577f4e487b7100000000000000000000000000000000000000000000000000000000600052603260045260246000fd5b90600052602060002090600c0201600b0160006101000a81548160ff02191690836007811115611e7d577f4e487b7100000000000000000000000000000000000000000000000000000000600052602160045260246000fd5b021790555050505050565b6006602052806000526040600020600091509050806000015490806001018054611eb190613be9565b80601f0160208091040260200160405190810160405280929190818152602001828054611edd90613be9565b8015611f2a5780601f10611eff57610100808354040283529160200191611f2a565b820191906000526020600020905b815481529060010190602001808311611f0d57829003601f168201915b505050505090806002018054611f3f90613be9565b80601f0160208091040260200160405190810160405280929190818152602001828054611f6b90613be9565b8015611fb85780601f10611f8d57610100808354040283529160200191611fb8565b820191906000526020600020905b815481529060010190602001808311611f9b57829003601f168201915b5050505050908060030154908060040160009054906101000a900473ffffffffffffffffffffffffffffffffffffffff16905085565b600260009054906101000a900473ffffffffffffffffffffffffffffffffffffffff1673ffffffffffffffffffffffffffffffffffffffff163373ffffffffffffffffffffffffffffffffffffffff161461207e576040517f08c379a000000000000000000000000000000000000000000000000000000000815260040161207590613747565b60405180910390fd5b6000151560046001876120919190613a68565b815481106120c8577f4e487b7100000000000000000000000000000000000000000000000000000000600052603260045260246000fd5b90600052602060002090600c020160070160009054906101000a900460ff16151514612129576040517f08c379a0000000000000000000000000000000000000000000000000000000008152600401612120906136a7565b60405180910390fd5b601f811115801561213b575060018110155b61217a576040517f08c379a0000000000000000000000000000000000000000000000000000000008152600401612171906136e7565b60405180910390fd5b600c821115801561218c575060018210155b6121cb576040517f08c379a00000000000000000000000000000000000000000000000000000000081526004016121c290613667565b60405180910390fd5b6121d44261296c565b8314612215576040517f08c379a000000000000000000000000000000000000000000000000000000000815260040161220c90613707565b60405180910390fd5b8060046001876122259190613a68565b8154811061225c577f4e487b7100000000000000000000000000000000000000000000000000000000600052603260045260246000fd5b90600052602060002090600c02016005018190555060006122d460046001886122859190613a68565b815481106122bc577f4e487b7100000000000000000000000000000000000000000000000000000000600052603260045260246000fd5b90600052602060002090600c02016004015483612936565b9050600060036001600460018a6122eb9190613a68565b81548110612322577f4e487b7100000000000000000000000000000000000000000000000000000000600052603260045260246000fd5b90600052602060002090600c02016001015461233e9190613a68565b81548110612375577f4e487b7100000000000000000000000000000000000000000000000000000000600052603260045260246000fd5b906000526020600020906007020160060154905060046001886123989190613a68565b815481106123cf577f4e487b7100000000000000000000000000000000000000000000000000000000600052603260045260246000fd5b90600052602060002090600c0201600601548211156124b25760046001886123f79190613a68565b8154811061242e577f4e487b7100000000000000000000000000000000000000000000000000000000600052603260045260246000fd5b90600052602060002090600c0201600601548261244b9190613a68565b816124569190613a0e565b60046001896124659190613a68565b8154811061249c577f4e487b7100000000000000000000000000000000000000000000000000000000600052603260045260246000fd5b90600052602060002090600c0201600a01819055505b8560046001896124c29190613a68565b815481106124f9577f4e487b7100000000000000000000000000000000000000000000000000000000600052603260045260246000fd5b90600052602060002090600c0201600801819055506006600460018961251f9190613a68565b81548110612556577f4e487b7100000000000000000000000000000000000000000000000000000000600052603260045260246000fd5b90600052602060002090600c0201600b0160006101000a81548160ff021916908360078111156125af577f4e487b7100000000000000000000000000000000000000000000000000000000600052602160045260246000fd5b021790555050505050505050565b600260009054906101000a900473ffffffffffffffffffffffffffffffffffffffff1673ffffffffffffffffffffffffffffffffffffffff163373ffffffffffffffffffffffffffffffffffffffff161461264d576040517f08c379a000000000000000000000000000000000000000000000000000000000815260040161264490613747565b60405180910390fd5b600085600360018961265f9190613a68565b81548110612696577f4e487b7100000000000000000000000000000000000000000000000000000000600052603260045260246000fd5b906000526020600020906007020160010190805190602001906126ba929190612abe565b508460036001896126cb9190613a68565b81548110612702577f4e487b7100000000000000000000000000000000000000000000000000000000600052603260045260246000fd5b90600052602060002090600702016002019080519060200190612726929190612abe565b508260036001896127379190613a68565b8154811061276e577f4e487b7100000000000000000000000000000000000000000000000000000000600052603260045260246000fd5b9060005260206000209060070201600401819055508160036001896127939190613a68565b815481106127ca577f4e487b7100000000000000000000000000000000000000000000000000000000600052603260045260246000fd5b90600052602060002090600702016006018190555060005b60038054905081101561287957848051906020012060038281548110612831577f4e487b7100000000000000000000000000000000000000000000000000000000600052603260045260246000fd5b906000526020600020906007020160030160405161284f9190613547565b604051809103902014156128665760019150612879565b808061287190613c4c565b9150506127e2565b5060001515811515146128c1576040517f08c379a00000000000000000000000000000000000000000000000000000000081526004016128b8906136c7565b60405180910390fd5b8360036001896128d19190613a68565b81548110612908577f4e487b7100000000000000000000000000000000000000000000000000000000600052603260045260246000fd5b9060005260206000209060070201600301908051906020019061292c929190612abe565b5050505050505050565b6000806201518090508284111561294c57600080fd5b8084846129599190613a68565b61296391906139dd565b91505092915050565b600080600090506000806107b2905060006301e13380905060006301e285009050818761299991906139dd565b8361ffff166129a89190613987565b61ffff1695506129bb8361ffff16611402565b6129c487611402565b6129ce9190613a68565b935083816129dc9190613a0e565b856129e79190613987565b9450838361ffff16876129fa9190613a68565b612a049190613a68565b82612a0f9190613a0e565b85612a1a9190613987565b94505b86851115612a7557612a3a600187612a359190613a68565b611145565b15612a52578085612a4b9190613a68565b9450612a61565b8185612a5e9190613a68565b94505b600186612a6e9190613a68565b9550612a1d565b5050505050919050565b6040518060e001604052806000815260200160608152602001606081526020016060815260200160008152602001600015158152602001600081525090565b828054612aca90613be9565b90600052602060002090601f016020900481019282612aec5760008555612b33565b82601f10612b0557805160ff1916838001178555612b33565b82800160010185558215612b33579182015b82811115612b32578251825591602001919060010190612b17565b5b509050612b409190612b44565b5090565b5b80821115612b5d576000816000905550600101612b45565b5090565b6000612b74612b6f846138d0565b6138ab565b905082815260208101848484011115612b8c57600080fd5b612b97848285613ba7565b509392505050565b600081359050612bae81613fb6565b92915050565b600081519050612bc381613fcd565b92915050565b600082601f830112612bda57600080fd5b8135612bea848260208601612b61565b91505092915050565b600081359050612c0281613fe4565b92915050565b600081359050612c1781613ffb565b92915050565b60008060408385031215612c3057600080fd5b6000612c3e85828601612b9f565b9250506020612c4f85828601612c08565b9150509250929050565b600060208284031215612c6b57600080fd5b6000612c7984828501612bb4565b91505092915050565b60008060008060008060c08789031215612c9b57600080fd5b600087013567ffffffffffffffff811115612cb557600080fd5b612cc189828a01612bc9565b965050602087013567ffffffffffffffff811115612cde57600080fd5b612cea89828a01612bc9565b955050604087013567ffffffffffffffff811115612d0757600080fd5b612d1389828a01612bc9565b9450506060612d2489828a01612c08565b9350506080612d3589828a01612c08565b92505060a0612d4689828a01612b9f565b9150509295509295509295565b600060208284031215612d6557600080fd5b6000612d7384828501612bf3565b91505092915050565b600060208284031215612d8e57600080fd5b6000612d9c84828501612c08565b91505092915050565b60008060008060008060c08789031215612dbe57600080fd5b6000612dcc89828a01612c08565b965050602087013567ffffffffffffffff811115612de957600080fd5b612df589828a01612bc9565b955050604087013567ffffffffffffffff811115612e1257600080fd5b612e1e89828a01612bc9565b945050606087013567ffffffffffffffff811115612e3b57600080fd5b612e4789828a01612bc9565b9350506080612e5889828a01612c08565b92505060a0612e6989828a01612c08565b9150509295509295509295565b600080600080600060a08688031215612e8e57600080fd5b6000612e9c88828901612c08565b955050602086013567ffffffffffffffff811115612eb957600080fd5b612ec588828901612bc9565b9450506040612ed688828901612c08565b9350506060612ee788828901612c08565b9250506080612ef888828901612c08565b9150509295509295909350565b60008060408385031215612f1857600080fd5b6000612f2685828601612c08565b9250506020612f3785828601612c08565b9150509250929050565b600080600080600060a08688031215612f5957600080fd5b6000612f6788828901612c08565b9550506020612f7888828901612c08565b9450506040612f8988828901612c08565b9350506060612f9a88828901612c08565b9250506080612fab88828901612c08565b9150509295509295909350565b6000612fc483836132d1565b905092915050565b612fd581613b17565b82525050565b612fe481613aae565b82525050565b612ff381613a9c565b82525050565b61300281613a9c565b82525050565b600061301382613926565b61301d8185613949565b93508360208202850161302f85613901565b8060005b8581101561306b578484038952815161304c8582612fb8565b94506130578361393c565b925060208a01995050600181019050613033565b50829750879550505050505092915050565b61308681613ac0565b82525050565b61309581613ac0565b82525050565b600081546130a881613be9565b6130b2818661395a565b945060018216600081146130cd57600181146130de57613111565b60ff19831686528186019350613111565b6130e785613911565b60005b83811015613109578154818901526001820191506020810190506130ea565b838801955050505b50505092915050565b61312381613b29565b82525050565b61313281613b4d565b82525050565b61314181613b71565b82525050565b600061315282613931565b61315c8185613965565b935061316c818560208601613bb6565b61317581613db1565b840191505092915050565b600061318b82613931565b6131958185613976565b93506131a5818560208601613bb6565b6131ae81613db1565b840191505092915050565b60006131c6601983613976565b91506131d182613dc2565b602082019050919050565b60006131e9602283613976565b91506131f482613deb565b604082019050919050565b600061320c602383613976565b915061321782613e3a565b604082019050919050565b600061322f601a83613976565b915061323a82613e89565b602082019050919050565b6000613252601783613976565b915061325d82613eb2565b602082019050919050565b6000613275604883613976565b915061328082613edb565b606082019050919050565b6000613298601283613976565b91506132a382613f50565b602082019050919050565b60006132bb602083613976565b91506132c682613f79565b602082019050919050565b600060e0830160008301516132e96000860182613529565b50602083015184820360208601526133018282613147565b9150506040830151848203604086015261331b8282613147565b915050606083015184820360608601526133358282613147565b915050608083015161334a6080860182613529565b5060a083015161335d60a086018261307d565b5060c083015161337060c0860182613529565b508091505092915050565b600060e0830160008301516133936000860182613529565b50602083015184820360208601526133ab8282613147565b915050604083015184820360408601526133c58282613147565b915050606083015184820360608601526133df8282613147565b91505060808301516133f46080860182613529565b5060a083015161340760a086018261307d565b5060c083015161341a60c0860182613529565b508091505092915050565b60006101808301600083015161343e6000860182613529565b5060208301516134516020860182613529565b50604083015184820360408601526134698282613147565b915050606083015161347e6060860182612fea565b5060808301516134916080860182613529565b5060a08301516134a460a0860182613529565b5060c08301516134b760c0860182613529565b5060e08301516134ca60e086018261307d565b506101008301516134df610100860182613529565b506101208301516134f4610120860182613529565b50610140830151613509610140860182613529565b5061016083015161351e610160860182613138565b508091505092915050565b61353281613b0d565b82525050565b61354181613b0d565b82525050565b6000613553828461309b565b915081905092915050565b60006020820190506135736000830184612ff9565b92915050565b600060208201905061358e6000830184612fdb565b92915050565b60006060820190506135a96000830186612ff9565b6135b66020830185612fcc565b6135c36040830184613538565b949350505050565b60006040820190506135e06000830185612ff9565b6135ed6020830184613538565b9392505050565b6000602082019050818103600083015261360e8184613008565b905092915050565b600060208201905061362b600083018461308c565b92915050565b6000602082019050613646600083018461311a565b92915050565b60006020820190506136616000830184613129565b92915050565b60006020820190508181036000830152613680816131b9565b9050919050565b600060208201905081810360008301526136a0816131dc565b9050919050565b600060208201905081810360008301526136c0816131ff565b9050919050565b600060208201905081810360008301526136e081613222565b9050919050565b6000602082019050818103600083015261370081613245565b9050919050565b6000602082019050818103600083015261372081613268565b9050919050565b600060208201905081810360008301526137408161328b565b9050919050565b60006020820190508181036000830152613760816132ae565b9050919050565b60006020820190508181036000830152613781818461337b565b905092915050565b600060208201905081810360008301526137a38184613425565b905092915050565b60006020820190506137c06000830184613538565b92915050565b600060e0820190506137db600083018a613538565b81810360208301526137ed8189613180565b905081810360408301526138018188613180565b905081810360608301526138158187613180565b90506138246080830186613538565b61383160a083018561308c565b61383e60c0830184613538565b98975050505050505050565b600060a08201905061385f6000830188613538565b81810360208301526138718187613180565b905081810360408301526138858186613180565b90506138946060830185613538565b6138a16080830184612ff9565b9695505050505050565b60006138b56138c6565b90506138c18282613c1b565b919050565b6000604051905090565b600067ffffffffffffffff8211156138eb576138ea613d82565b5b6138f482613db1565b9050602081019050919050565b6000819050602082019050919050565b60008190508160005260206000209050919050565b600081519050919050565b600081519050919050565b6000602082019050919050565b600082825260208201905092915050565b600081905092915050565b600082825260208201905092915050565b600082825260208201905092915050565b600061399282613b0d565b915061399d83613b0d565b9250827fffffffffffffffffffffffffffffffffffffffffffffffffffffffffffffffff038211156139d2576139d1613cc6565b5b828201905092915050565b60006139e882613b0d565b91506139f383613b0d565b925082613a0357613a02613cf5565b5b828204905092915050565b6000613a1982613b0d565b9150613a2483613b0d565b9250817fffffffffffffffffffffffffffffffffffffffffffffffffffffffffffffffff0483118215151615613a5d57613a5c613cc6565b5b828202905092915050565b6000613a7382613b0d565b9150613a7e83613b0d565b925082821015613a9157613a90613cc6565b5b828203905092915050565b6000613aa782613aed565b9050919050565b6000613ab982613aed565b9050919050565b60008115159050919050565b6000819050613ada82613fa2565b919050565b600061ffff82169050919050565b600073ffffffffffffffffffffffffffffffffffffffff82169050919050565b6000819050919050565b6000613b2282613b83565b9050919050565b6000613b3482613b3b565b9050919050565b6000613b4682613aed565b9050919050565b6000613b5882613b5f565b9050919050565b6000613b6a82613aed565b9050919050565b6000613b7c82613acc565b9050919050565b6000613b8e82613b95565b9050919050565b6000613ba082613aed565b9050919050565b82818337600083830152505050565b60005b83811015613bd4578082015181840152602081019050613bb9565b83811115613be3576000848401525b50505050565b60006002820490506001821680613c0157607f821691505b60208210811415613c1557613c14613d53565b5b50919050565b613c2482613db1565b810181811067ffffffffffffffff82111715613c4357613c42613d82565b5b80604052505050565b6000613c5782613b0d565b91507fffffffffffffffffffffffffffffffffffffffffffffffffffffffffffffffff821415613c8a57613c89613cc6565b5b600182019050919050565b6000613ca082613adf565b9150613cab83613adf565b925082613cbb57613cba613cf5565b5b828206905092915050565b7f4e487b7100000000000000000000000000000000000000000000000000000000600052601160045260246000fd5b7f4e487b7100000000000000000000000000000000000000000000000000000000600052601260045260246000fd5b7f4e487b7100000000000000000000000000000000000000000000000000000000600052602160045260246000fd5b7f4e487b7100000000000000000000000000000000000000000000000000000000600052602260045260246000fd5b7f4e487b7100000000000000000000000000000000000000000000000000000000600052604160045260246000fd5b6000601f19601f8301169050919050565b7f436865636b20796f7572206d6f6e746820656e74657265642100000000000000600082015250565b7f4475706c69636174656420636172206c6963656e73652076696e206e756d626560008201527f7221000000000000000000000000000000000000000000000000000000000000602082015250565b7f54686973206361722068617320616c7265616479206265656e2072657475726e60008201527f65642e0000000000000000000000000000000000000000000000000000000000602082015250565b7f4475706c696361746564206361722076696e206e756d62657221000000000000600082015250565b7f436865636b20796f75722064617920656e746572656421000000000000000000600082015250565b7f59656172206f662072657475726e2073686f756c64206265207468652063757260008201527f72656e742079656172206e6f772077686963682074686520636172206973207260208201527f657475726e65642e000000000000000000000000000000000000000000000000604082015250565b7f42616e6b20426f72726f776572204f6e6c790000000000000000000000000000600082015250565b7f4974206d7573742062652041424320636f6d70616e7927732061646472657373600082015250565b60088110613fb357613fb2613d24565b5b50565b613fbf81613a9c565b8114613fca57600080fd5b50565b613fd681613ac0565b8114613fe157600080fd5b50565b613fed81613adf565b8114613ff857600080fd5b50565b61400481613b0d565b811461400f57600080fd5b5056fea264697066735822122097484ce4d7fdf178bd257c0afe5bce79d99db2148bd4b21778a70fcdf9c5e2b364736f6c63430008010033",
  "immutableReferences": {},
  "source": "// SPDX-License-Identifier: GPL-3.0-or-later\r\npragma solidity >=0.7.0 <0.9.0;\r\n\r\nimport \"./MicroToken.sol\";\r\nimport \"./UserIdentity.sol\";\r\n// import \"truffle/Console.sol\";\r\n\r\ncontract CarRental{\r\n\r\n    enum RentState{\r\n        REQUESTED,\r\n        COMPANY_APPROVED, \r\n        COMPANY_REJECTED, \r\n        DEPOSIT_RETURNED,\r\n        RENTER_SIGNED, \r\n        CLOSE,\r\n        WAITING_TO_PAY,\r\n        ACCOUNT_LOCKED\r\n    }\r\n    //(op)Dodo can buy insurance for the rental. She can buy while signing a contract with the company. The company will represent the Insurance Co.\r\n    //(op)Dodo needs to transfer insurance fees to the company. \r\n    //(op)The company transfers part of the insurance fee to the Insurance Co. when rental begins and transfers the left part after the contract is over.\r\n    //Above need extra RentState\r\n\r\n    enum RegisterState{\r\n        REQUESTED,\r\n        COMPANY_APPROVED, \r\n        COMPANY_REJECTED\r\n    }\r\n\r\n    //Do we need RENTER_SIGNED really need???\r\n\r\n    // Designing a structure to store the information of ABC Rental company's car fleet \r\n    struct carInfo {\r\n        uint carId; //Incremental generation \r\n        string carBrand; // Car brand \r\n        string carDescription; // Description about car\r\n        string carVin; // Car vehicle identification number \r\n        uint carSeat; // \r\n        bool carAvailable; // Available: true ; Not Available: false\r\n        uint carPrice; // Car rental price per day\r\n    }\r\n\r\n    // Designing a structure to store the information of renter\r\n    struct renterInfo {\r\n        uint userId;\r\n        string socialId; // Renter social id\r\n        string userName; // Renter name\r\n        uint userAge; // Renter age\r\n        address walletAddress; // Wallet address of customer\r\n        //IERC20 renterToken; // renter IERC20 token\r\n    }\r\n\r\n    // Designing a structure to store the car renting history \r\n    struct rentalRecord {\r\n        uint renterRecordId;\r\n        uint carId; // Car id\r\n        string renterId; // Renter identity\r\n        //IERC20 renterToken;\r\n        address walletAddress; // Wallet address of customer\r\n        uint startDate;  // Start date\r\n        uint endDate;   // End date\r\n        uint duration;  // Num of days\r\n        bool carReturned; // Car return status \r\n        uint extraFee; // Extra fee\r\n        uint deposit; // deposit\r\n        uint lateFee; //late Fee\r\n        RentState state;\r\n    }\r\n\r\n    event carRentalRequest (rentalRecord);\r\n\r\n    event addCarInfoRequest(\r\n        uint carId, \r\n        string carBrand,\r\n        string carDescription,\r\n        string carVin, \r\n        uint carSeat, \r\n        bool carAvailable,\r\n        uint carPrice\r\n    );\r\n\r\n    // do we need car available date\r\n\r\n    MicroToken public tokenSC; // \r\n    // add user identity management\r\n    UserIdentity public identitySC;\r\n    address payable public companyAddress; // the address of the ABC company's account\r\n    carInfo[] private cars;\r\n    rentalRecord[] private records; // to store the rental records\r\n    uint public carCount = 0; // count the number of the cars added\r\n\r\n    mapping(uint => renterInfo) public renters; // to store the information of each rente\r\n\r\n    constructor (address _userIdentityAddress, address _microTokenAddress) payable{\r\n            companyAddress = payable(msg.sender);\r\n            tokenSC = MicroToken(_microTokenAddress);\r\n            identitySC = UserIdentity(_userIdentityAddress);\r\n    }\r\n\r\n    // Modifiers  \r\n    modifier isABCCompany()\r\n    {\r\n        require(msg.sender == companyAddress, \"It must be ABC company's address\");\r\n        _;\r\n    }\r\n\r\n    //if car available,user car id or car vin?\r\n    modifier isAvailableCar(uint _carId) \r\n    {\r\n        bool isAvailable = false;\r\n        if (_carId <= cars.length) {\r\n            isAvailable = true;\r\n        }\r\n        require(isAvailable);\r\n        _;\r\n    }\r\n\r\n    // A modifier that uses for the function which can only be called by Borrower.\r\n    modifier onlyRegisteredCustomerCanCall {\r\n        // Now only borrower can request rent\r\n        require(identitySC.verifyIsBorrower(msg.sender), \"Bank Borrower Only\");\r\n       _;\r\n   }\r\n\r\n    //Do we need modifier to verify renter's address???\r\n\r\n    //add user just need add rentRequest or still need \r\n\r\n    function addCarInfo(string memory _carBrand, string memory _carDescription, string memory _carVin, uint _carSeat, uint _carPrice, address contractAddress) public payable\r\n    {\r\n        // isABCCompany\r\n        bool carVinUnique = true;\r\n        carInfo memory car = carInfo(cars.length, _carBrand, _carDescription, _carVin, _carSeat, true, _carPrice);\r\n        for (uint i = 0; i < cars.length; i++) {\r\n            if (keccak256(bytes(cars[i].carVin)) == keccak256(bytes(_carVin))) {\r\n                carVinUnique = false;\r\n                break; \r\n            }\r\n        }\r\n\r\n        require(carVinUnique == true, \"Duplicated car license vin number!\");\r\n        tokenSC.transfer(contractAddress, _carPrice / 100);\r\n        cars.push(car);\r\n        emit addCarInfoRequest(car.carId, car.carBrand, car.carDescription, car.carVin, car.carSeat, car.carAvailable, car.carPrice);\r\n\r\n    }\r\n\r\n    function editCarInfo(uint _carId, string memory _carBrand, string memory _carDescription, string memory _carVin, uint _carSeat, uint _carPrice) payable public isABCCompany() {\r\n        //carVin can not change->vin unique check do in server\r\n        bool carVinRepeat = false;\r\n        cars[_carId-1].carBrand = _carBrand;\r\n        cars[_carId-1].carDescription = _carDescription;\r\n        cars[_carId-1].carSeat = _carSeat;\r\n        cars[_carId-1].carPrice = _carPrice;\r\n        for (uint i = 0; i < cars.length; i++) {\r\n            if (keccak256(bytes(cars[i].carVin)) == keccak256(bytes(_carVin))) {\r\n                carVinRepeat = true;\r\n                break;\r\n            }\r\n        }\r\n        require(carVinRepeat == false, \"Duplicated car vin number!\");\r\n        cars[_carId-1].carVin = _carVin;\r\n    }\r\n\r\n    function deleteCarInfo(uint _carId) public payable isABCCompany() {\r\n        //In case id issue, so just change the car status\r\n        cars[_carId].carAvailable = false;\r\n    }\r\n\r\n    function applyCar(uint _carId, string memory _renterId, uint _startDate, uint _endDate, uint _duration) payable public isAvailableCar(_carId) {\r\n        //onlyRegisteredCustomerCanCall\r\n        uint deposit = calculateDeposit(_duration, _carId);\r\n\r\n        rentalRecord memory record = rentalRecord(records.length, _carId, _renterId, msg.sender, _startDate, _endDate, _duration, false, 0, deposit, 0, RentState.REQUESTED);\r\n        records.push(record);\r\n\r\n        emit carRentalRequest(record);\r\n\r\n        // companyAddress.transfer(deposit);\r\n        tokenSC.transferFrom(msg.sender, companyAddress, deposit); //after this step user receive car?\r\n\r\n    }\r\n\r\n    function calculateDeposit(uint _duration, uint _carId) public view returns (uint deposit) {\r\n        //should use 10/100 rather than 0.1\r\n        return cars[_carId].carPrice * _duration * 10 / 100;\r\n    }\r\n\r\n    function approveRent(uint _renterRecordId, uint _carId) public isABCCompany() isAvailableCar(_carId) {\r\n\r\n        for (uint i = 0; i < records.length; i++) {\r\n            if (records[i].renterRecordId == _renterRecordId) {\r\n                records[i].state = RentState.COMPANY_APPROVED;\r\n                break;\r\n            }\r\n        }\r\n\r\n        cars[_carId - 1].carAvailable = false;\r\n    }\r\n\r\n    function rejectRent(uint _renterRecordId, uint _carId) public isABCCompany() isAvailableCar(_carId) {\r\n\r\n        for (uint i = 0; i < records.length; i++) {\r\n            if (records[i].renterRecordId == _renterRecordId) {\r\n                records[i].state = RentState.COMPANY_REJECTED;\r\n                break;\r\n            }\r\n        }\r\n\r\n    }\r\n\r\n    function returnDeposit(uint _renterRecordId) payable public isABCCompany() {\r\n\r\n        address payable renterAddress = payable(records[_renterRecordId-1].walletAddress);\r\n\r\n        renterAddress.transfer(records[_renterRecordId-1].deposit);\r\n        //tokenSC.transferFrom(companyAddress, records[_renterRecordId-1].walletAddress, records[_renterRecordId-1].deposit);\r\n        records[_renterRecordId-1].state = RentState.DEPOSIT_RETURNED;\r\n\r\n    }\r\n\r\n    function applyReturnCar(uint _renterRecordId) public onlyRegisteredCustomerCanCall {\r\n        records[_renterRecordId-1].state = RentState.WAITING_TO_PAY;\r\n    }\r\n\r\n    function confirmReturn(uint _renterRecordId, uint _extraFee, uint _returnYear, uint _returnMonth, uint _returnDay) public isABCCompany() {\r\n\r\n        require(records[_renterRecordId-1].carReturned == false, \"This car has already been returned.\");\r\n\r\n        // Check date is entered correctly\r\n        require(_returnDay <= 31 && _returnDay >= 1, \"Check your day entered!\");\r\n        require(_returnMonth <= 12 && _returnMonth >= 1, \"Check your month entered!\");\r\n        require(_returnYear == getYear(block.timestamp), \"Year of return should be the current year now which the car is returned.\");\r\n\r\n        // Update the return date in records\r\n        records[_renterRecordId-1].endDate = _returnDay;\r\n\r\n        // Check if the car is returned late by calculating the days difference \r\n        //between startDate and endDate, and compare with numOfDays that user intended to rent.\r\n        uint totalRentedDays = differentDays(records[_renterRecordId-1].startDate, _returnDay);\r\n\r\n        uint price = cars[records[_renterRecordId-1].carId -1].carPrice;\r\n\r\n        if (totalRentedDays > records[_renterRecordId-1].duration) {\r\n            records[_renterRecordId-1].lateFee = price * (totalRentedDays - records[_renterRecordId-1].duration); //charge rent * number of days late\r\n        }\r\n\r\n        records[_renterRecordId-1].extraFee = _extraFee;\r\n\r\n        records[_renterRecordId-1].state = RentState.WAITING_TO_PAY;\r\n\r\n    }\r\n\r\n    function payFee(uint _renterRecordId) public {\r\n        uint totalRentedDays = differentDays(records[_renterRecordId-1].startDate,records[_renterRecordId-1].endDate);\r\n        uint price = cars[records[_renterRecordId-1].carId -1].carPrice;\r\n        uint feeWaitingPay = totalRentedDays * price * 9 / 10 + records[_renterRecordId-1].extraFee;\r\n        \r\n        companyAddress.transfer(feeWaitingPay);\r\n        //tokenSC.transferFrom(msg.sender,companyAddress, feeWaitingPay);\r\n        records[_renterRecordId-1].carReturned = true;\r\n\r\n        records[_renterRecordId-1].state = RentState.CLOSE;\r\n\r\n    }\r\n\r\n    function differentDays(uint fromTimestamp, uint toTimestamp) internal pure returns (uint _days) {\r\n        uint SECONDS_PER_DAY = 24 * 60 * 60;\r\n        require(fromTimestamp <= toTimestamp);\r\n        _days = (toTimestamp - fromTimestamp) / SECONDS_PER_DAY;\r\n    }\r\n\r\n    function getYear(uint timestamp) internal pure returns (uint year) {\r\n        uint secondsAccounted = 0;\r\n        uint numLeapYears;\r\n        uint16 ORIGIN_YEAR = 1970;\r\n        uint YEAR_IN_SECONDS = 31536000;\r\n        uint LEAP_YEAR_IN_SECONDS = 31622400;\r\n \r\n        // Year\r\n        year = uint16(ORIGIN_YEAR + timestamp / YEAR_IN_SECONDS);\r\n        numLeapYears = leapYearsBefore(year) - leapYearsBefore(ORIGIN_YEAR);\r\n \r\n        secondsAccounted += LEAP_YEAR_IN_SECONDS * numLeapYears;\r\n        secondsAccounted += YEAR_IN_SECONDS * (year - ORIGIN_YEAR - numLeapYears);\r\n \r\n        while (secondsAccounted > timestamp) {\r\n            if (isLeapYear(uint16(year - 1))) {\r\n                secondsAccounted -= LEAP_YEAR_IN_SECONDS;\r\n            }\r\n            else {\r\n                secondsAccounted -= YEAR_IN_SECONDS;\r\n            }\r\n            year -= 1;\r\n        }\r\n        return year;\r\n    }\r\n\r\n        //To calculate the leap year before the input year\r\n    function leapYearsBefore(uint year) public pure returns (uint) {\r\n        year -= 1;\r\n        return year / 4 - year / 100 + year / 400;\r\n    }\r\n\r\n    //To check if the year inputed is a leapyear\r\n    function isLeapYear(uint16 year) public pure returns (bool) {\r\n        if (year % 4 != 0) {\r\n            return false;\r\n        }\r\n        if (year % 100 != 0) {\r\n            return true;\r\n        }\r\n        if (year % 400 != 0) {\r\n            return false;\r\n        }\r\n        return true;\r\n    }\r\n\r\n    function carTransfer(address _walletAddress, uint _amount) public payable returns (bool){\r\n        tokenSC.transfer(_walletAddress , _amount);\r\n\r\n        return true;\r\n    }\r\n\r\n    function parseAddr(string memory _a) internal pure returns (address _parsedAddress) {\r\n        bytes memory tmp = bytes(_a);\r\n        uint160 iaddr = 0;\r\n        uint160 b1;\r\n        uint160 b2;\r\n        for (uint i = 2; i < 2 + 2 * 20; i += 2) {\r\n            iaddr *= 256;\r\n            b1 = uint160(uint8(tmp[i]));\r\n            b2 = uint160(uint8(tmp[i + 1]));\r\n            if ((b1 >= 97) && (b1 <= 102)) {\r\n                b1 -= 87;\r\n            } else if ((b1 >= 65) && (b1 <= 70)) {\r\n                b1 -= 55;\r\n            } else if ((b1 >= 48) && (b1 <= 57)) {\r\n                b1 -= 48;\r\n            }\r\n            if ((b2 >= 97) && (b2 <= 102)) {\r\n                b2 -= 87;\r\n            } else if ((b2 >= 65) && (b2 <= 70)) {\r\n                b2 -= 55;\r\n            } else if ((b2 >= 48) && (b2 <= 57)) {\r\n                b2 -= 48;\r\n            }\r\n            iaddr += (b1 * 16 + b2);\r\n        }\r\n        return address(iaddr);\r\n}\r\n\r\n    function getAllCars() public view returns (carInfo[] memory) {\r\n        return cars;\r\n    }\r\n\r\n    function getCarById(uint _carId) public view returns (carInfo memory) {\r\n        //pay attentation the carid relationship with index and id\r\n        return cars[_carId];\r\n    }\r\n    \r\n}",
  "sourcePath": "D:\\NTU\\Course\\S2\\CI6236-BLOCKCHAIN SYSTEM SOFTWARE ENGINEERING\\bc_project\\blockchain\\contracts\\CarRental.sol",
  "compiler": {
    "name": "solc",
    "version": "0.8.1+commit.df193b15.Emscripten.clang"
  },
  "schemaVersion": "3.4.6",
  "updatedAt": "2022-04-11T04:45:15.640Z",
  "networkType": "ethereum",
  "devdoc": {
    "kind": "dev",
    "methods": {},
    "version": 1
  },
  "userdoc": {
    "kind": "user",
    "methods": {},
    "version": 1
  }
}