{
  "contractName": "CarRental",
  "abi": [
    {
      "inputs": [],
      "stateMutability": "payable",
      "type": "constructor"
    },
    {
      "anonymous": false,
      "inputs": [
        {
          "indexed": true,
          "internalType": "address",
          "name": "previousOwner",
          "type": "address"
        },
        {
          "indexed": true,
          "internalType": "address",
          "name": "newOwner",
          "type": "address"
        }
      ],
      "name": "OwnershipTransferred",
      "type": "event"
    },
    {
      "inputs": [],
      "name": "carCount",
      "outputs": [
        {
          "internalType": "uint256",
          "name": "",
          "type": "uint256"
        }
      ],
      "stateMutability": "view",
      "type": "function"
    },
    {
      "inputs": [
        {
          "internalType": "uint256",
          "name": "",
          "type": "uint256"
        }
      ],
      "name": "cars",
      "outputs": [
        {
          "internalType": "uint256",
          "name": "deposit",
          "type": "uint256"
        },
        {
          "internalType": "string",
          "name": "carPlate",
          "type": "string"
        },
        {
          "internalType": "string",
          "name": "carBrand",
          "type": "string"
        },
        {
          "internalType": "string",
          "name": "carDescription",
          "type": "string"
        },
        {
          "internalType": "uint256",
          "name": "carType",
          "type": "uint256"
        },
        {
          "internalType": "bool",
          "name": "carAvailable",
          "type": "bool"
        }
      ],
      "stateMutability": "view",
      "type": "function"
    },
    {
      "inputs": [],
      "name": "companyAddress",
      "outputs": [
        {
          "internalType": "address payable",
          "name": "",
          "type": "address"
        }
      ],
      "stateMutability": "view",
      "type": "function"
    },
    {
      "inputs": [],
      "name": "contractBalance",
      "outputs": [
        {
          "internalType": "uint256",
          "name": "",
          "type": "uint256"
        }
      ],
      "stateMutability": "view",
      "type": "function"
    },
    {
      "inputs": [],
      "name": "customerCount",
      "outputs": [
        {
          "internalType": "uint256",
          "name": "",
          "type": "uint256"
        }
      ],
      "stateMutability": "view",
      "type": "function"
    },
    {
      "inputs": [],
      "name": "owner",
      "outputs": [
        {
          "internalType": "address",
          "name": "",
          "type": "address"
        }
      ],
      "stateMutability": "view",
      "type": "function"
    },
    {
      "inputs": [],
      "name": "recordCount",
      "outputs": [
        {
          "internalType": "uint256",
          "name": "",
          "type": "uint256"
        }
      ],
      "stateMutability": "view",
      "type": "function"
    },
    {
      "inputs": [
        {
          "internalType": "uint256",
          "name": "",
          "type": "uint256"
        }
      ],
      "name": "records",
      "outputs": [
        {
          "internalType": "string",
          "name": "carPlate",
          "type": "string"
        },
        {
          "internalType": "string",
          "name": "renterId",
          "type": "string"
        },
        {
          "internalType": "address",
          "name": "walletAddress",
          "type": "address"
        },
        {
          "internalType": "uint256",
          "name": "startDate",
          "type": "uint256"
        },
        {
          "internalType": "uint256",
          "name": "endDate",
          "type": "uint256"
        },
        {
          "internalType": "uint256",
          "name": "duration",
          "type": "uint256"
        },
        {
          "internalType": "bool",
          "name": "carReturned",
          "type": "bool"
        },
        {
          "internalType": "uint256",
          "name": "extraFee",
          "type": "uint256"
        },
        {
          "internalType": "uint256",
          "name": "deposit",
          "type": "uint256"
        }
      ],
      "stateMutability": "view",
      "type": "function"
    },
    {
      "inputs": [],
      "name": "renounceOwnership",
      "outputs": [],
      "stateMutability": "nonpayable",
      "type": "function"
    },
    {
      "inputs": [
        {
          "internalType": "uint256",
          "name": "",
          "type": "uint256"
        }
      ],
      "name": "renters",
      "outputs": [
        {
          "internalType": "string",
          "name": "renterId",
          "type": "string"
        },
        {
          "internalType": "string",
          "name": "renterName",
          "type": "string"
        },
        {
          "internalType": "uint256",
          "name": "renterAge",
          "type": "uint256"
        },
        {
          "internalType": "string",
          "name": "renterGender",
          "type": "string"
        },
        {
          "internalType": "address",
          "name": "walletAddress",
          "type": "address"
        }
      ],
      "stateMutability": "view",
      "type": "function"
    },
    {
      "inputs": [
        {
          "internalType": "address",
          "name": "newOwner",
          "type": "address"
        }
      ],
      "name": "transferOwnership",
      "outputs": [],
      "stateMutability": "nonpayable",
      "type": "function"
    },
    {
      "inputs": [
        {
          "internalType": "uint256",
          "name": "deposit",
          "type": "uint256"
        },
        {
          "internalType": "string",
          "name": "carPlate",
          "type": "string"
        },
        {
          "internalType": "string",
          "name": "carDescription",
          "type": "string"
        },
        {
          "internalType": "string",
          "name": "carBrand",
          "type": "string"
        },
        {
          "internalType": "uint256",
          "name": "carType",
          "type": "uint256"
        },
        {
          "internalType": "bool",
          "name": "carAvailable",
          "type": "bool"
        }
      ],
      "name": "addCarInfo",
      "outputs": [],
      "stateMutability": "payable",
      "type": "function"
    },
    {
      "inputs": [
        {
          "internalType": "uint256",
          "name": "seatType",
          "type": "uint256"
        }
      ],
      "name": "checkCarAvail",
      "outputs": [
        {
          "internalType": "uint256[]",
          "name": "",
          "type": "uint256[]"
        }
      ],
      "stateMutability": "view",
      "type": "function"
    },
    {
      "inputs": [
        {
          "internalType": "uint256",
          "name": "carID",
          "type": "uint256"
        },
        {
          "internalType": "uint256",
          "name": "duration",
          "type": "uint256"
        },
        {
          "internalType": "string",
          "name": "Name",
          "type": "string"
        },
        {
          "internalType": "string",
          "name": "IDnum",
          "type": "string"
        },
        {
          "internalType": "uint256",
          "name": "renterAge",
          "type": "uint256"
        },
        {
          "internalType": "string",
          "name": "renterGender",
          "type": "string"
        },
        {
          "internalType": "address",
          "name": "walletAddress",
          "type": "address"
        }
      ],
      "name": "rentCar",
      "outputs": [],
      "stateMutability": "payable",
      "type": "function"
    },
    {
      "inputs": [
        {
          "internalType": "string",
          "name": "carPlate",
          "type": "string"
        },
        {
          "internalType": "uint256",
          "name": "damageCharge",
          "type": "uint256"
        },
        {
          "internalType": "uint256",
          "name": "returnYear",
          "type": "uint256"
        },
        {
          "internalType": "uint256",
          "name": "returnMonth",
          "type": "uint256"
        },
        {
          "internalType": "uint256",
          "name": "returnDay",
          "type": "uint256"
        }
      ],
      "name": "confirmReturn",
      "outputs": [],
      "stateMutability": "payable",
      "type": "function"
    },
    {
      "inputs": [
        {
          "internalType": "address",
          "name": "walletAdd",
          "type": "address"
        }
      ],
      "name": "CheckPayExtraFee",
      "outputs": [],
      "stateMutability": "payable",
      "type": "function"
    },
    {
      "inputs": [
        {
          "internalType": "uint256",
          "name": "year",
          "type": "uint256"
        }
      ],
      "name": "leapYearsBefore",
      "outputs": [
        {
          "internalType": "uint256",
          "name": "",
          "type": "uint256"
        }
      ],
      "stateMutability": "pure",
      "type": "function"
    },
    {
      "inputs": [
        {
          "internalType": "uint16",
          "name": "year",
          "type": "uint16"
        }
      ],
      "name": "isLeapYear",
      "outputs": [
        {
          "internalType": "bool",
          "name": "",
          "type": "bool"
        }
      ],
      "stateMutability": "pure",
      "type": "function"
    }
  ],
  "bytecode": "0x60806040526000600255600060035560006004556000600555620000386200002c6200007f60201b60201c565b6200008760201b60201c565b33600160006101000a81548173ffffffffffffffffffffffffffffffffffffffff021916908373ffffffffffffffffffffffffffffffffffffffff1602179055506200014b565b600033905090565b60008060009054906101000a900473ffffffffffffffffffffffffffffffffffffffff169050816000806101000a81548173ffffffffffffffffffffffffffffffffffffffff021916908373ffffffffffffffffffffffffffffffffffffffff1602179055508173ffffffffffffffffffffffffffffffffffffffff168173ffffffffffffffffffffffffffffffffffffffff167f8be0079c531659141344cd1fd0a4f28419497f9722a3daafe3b4186f6b6457e060405160405180910390a35050565b614912806200015b6000396000f3fe6080604052600436106101095760003560e01c8063900407bc11610095578063d3cd85f111610064578063d3cd85f11461035b578063dcc3974b14610377578063e8ee4392146103b8578063f2fde38b146103d4578063f7746e36146103fd57610109565b8063900407bc1461028b5780639757e8a3146102b6578063a6f0e577146102e1578063b19999371461031e57610109565b806353e1ead9116100dc57806353e1ead9146101d7578063715018a6146102025780637a84169e146102195780638b7afe2e146102355780638da5cb5b1461026057610109565b806329649cca1461010e578063297a1f561461014b5780633446106714610176578063389f11d4146101bb575b600080fd5b34801561011a57600080fd5b5061013560048036038101906101309190612db1565b61043f565b60405161014291906134cf565b60405180910390f35b34801561015757600080fd5b506101606106ce565b60405161016d91906138f1565b60405180910390f35b34801561018257600080fd5b5061019d60048036038101906101989190612db1565b6106d4565b6040516101b29998979695949392919061352e565b60405180910390f35b6101d560048036038101906101d09190612eab565b61085f565b005b3480156101e357600080fd5b506101ec6110d3565b6040516101f991906134b4565b60405180910390f35b34801561020e57600080fd5b506102176110f9565b005b610233600480360381019061022e9190612cd0565b611181565b005b34801561024157600080fd5b5061024a611545565b60405161025791906138f1565b60405180910390f35b34801561026c57600080fd5b5061027561154b565b6040516102829190613499565b60405180910390f35b34801561029757600080fd5b506102a0611574565b6040516102ad91906138f1565b60405180910390f35b3480156102c257600080fd5b506102cb61157a565b6040516102d891906138f1565b60405180910390f35b3480156102ed57600080fd5b5061030860048036038101906103039190612d88565b611580565b60405161031591906134f1565b60405180910390f35b34801561032a57600080fd5b5061034560048036038101906103409190612db1565b6115ef565b60405161035291906138f1565b60405180910390f35b61037560048036038101906103709190612cf9565b611643565b005b34801561038357600080fd5b5061039e60048036038101906103999190612db1565b611e51565b6040516103af9594939291906135c9565b60405180910390f35b6103d260048036038101906103cd9190612dda565b61203f565b005b3480156103e057600080fd5b506103fb60048036038101906103f69190612cd0565b612343565b005b34801561040957600080fd5b50610424600480360381019061041f9190612db1565b61243b565b6040516104369695949392919061390c565b60405180910390f35b6060600060035411610486576040517f08c379a000000000000000000000000000000000000000000000000000000000815260040161047d906137d1565b60405180910390fd5b60018214806104955750600282145b806104a05750600382145b806104ab5750600482145b6104ea576040517f08c379a00000000000000000000000000000000000000000000000000000000081526004016104e1906137b1565b60405180910390fd5b600080600090505b60016003546105019190613aec565b81101561057b578360066000838152602001908152602001600020600401541480156105545750600115156006600083815260200190815260200160002060050160009054906101000a900460ff161515145b1561056857818061056490613f57565b9250505b808061057390613f57565b9150506104f2565b5060008167ffffffffffffffff8111156105be577f4e487b7100000000000000000000000000000000000000000000000000000000600052604160045260246000fd5b6040519080825280602002602001820160405280156105ec5781602001602082028036833780820191505090505b5090506000805b60016003546106029190613aec565b8110156106c2578560066000838152602001908152602001600020600401541480156106555750600115156006600083815260200190815260200160002060050160009054906101000a900460ff161515145b156106af5780838381518110610694577f4e487b7100000000000000000000000000000000000000000000000000000000600052603260045260246000fd5b60200260200101818152505081806106ab90613f57565b9250505b80806106ba90613f57565b9150506105f3565b50819350505050919050565b60035481565b60086020528060005260406000206000915090508060000180546106f790613ef4565b80601f016020809104026020016040519081016040528092919081815260200182805461072390613ef4565b80156107705780601f1061074557610100808354040283529160200191610770565b820191906000526020600020905b81548152906001019060200180831161075357829003601f168201915b50505050509080600101805461078590613ef4565b80601f01602080910402602001604051908101604052809291908181526020018280546107b190613ef4565b80156107fe5780601f106107d3576101008083540402835291602001916107fe565b820191906000526020600020905b8154815290600101906020018083116107e157829003601f168201915b5050505050908060020160009054906101000a900473ffffffffffffffffffffffffffffffffffffffff16908060030154908060040154908060050154908060060160009054906101000a900460ff16908060070154908060080154905089565b600115156006600089815260200190815260200160002060050160009054906101000a900460ff161515146108c9576040517f08c379a00000000000000000000000000000000000000000000000000000000081526004016108c090613691565b60405180910390fd5b601583101561090d576040517f08c379a000000000000000000000000000000000000000000000000000000000815260040161090490613711565b60405180910390fd5b600060055490505b6000811115610bc2578173ffffffffffffffffffffffffffffffffffffffff16600860006001846109469190613de2565b815260200190815260200160002060020160009054906101000a900473ffffffffffffffffffffffffffffffffffffffff1673ffffffffffffffffffffffffffffffffffffffff161480156109bd57506000600860006001846109a99190613de2565b815260200190815260200160002060070154145b15610a5157670de0b6b3a7640000600660008a8152602001908152602001600020600001546109ec9190613cf4565b674563918244f4000088610a009190613cf4565b610a0a9190613aec565b341015610a4c576040517f08c379a0000000000000000000000000000000000000000000000000000000008152600401610a43906138b1565b60405180910390fd5b610baf565b8173ffffffffffffffffffffffffffffffffffffffff1660086000600184610a799190613de2565b815260200190815260200160002060020160009054906101000a900473ffffffffffffffffffffffffffffffffffffffff1673ffffffffffffffffffffffffffffffffffffffff16148015610af15750600060086000600184610adc9190613de2565b81526020019081526020016000206007015414155b15610bae57670de0b6b3a7640000600660008a815260200190815260200160002060000154610b209190613cf4565b674563918244f4000088610b349190613cf4565b60086000600185610b459190613de2565b815260200190815260200160002060070154610b619190613aec565b610b6b9190613aec565b341015610bad576040517f08c379a0000000000000000000000000000000000000000000000000000000008152600401610ba4906138d1565b60405180910390fd5b5b5b8080610bba90613eca565b915050610915565b50670de0b6b3a76400006006600089815260200190815260200160002060000154610bed9190613cf4565b674563918244f4000087610c019190613cf4565b610c0b9190613aec565b341015610c4d576040517f08c379a0000000000000000000000000000000000000000000000000000000008152600401610c44906138b1565b60405180910390fd5b34600254610c5b9190613aec565b60028190555060006001905060005b6001600454610c799190613aec565b811015610cd557858051906020012060076000838152602001908152602001600020600001604051610cab9190613460565b60405180910390201415610cc25760009150610cd5565b8080610ccd90613f57565b915050610c6a565b508015610df2576040518060a001604052808781526020018681526020018581526020018481526020018373ffffffffffffffffffffffffffffffffffffffff168152506007600060045481526020019081526020016000206000820151816000019080519060200190610d4a929190612b71565b506020820151816001019080519060200190610d67929190612b71565b50604082015181600201556060820151816003019080519060200190610d8e929190612b71565b5060808201518160040160006101000a81548173ffffffffffffffffffffffffffffffffffffffff021916908373ffffffffffffffffffffffffffffffffffffffff16021790555090505060046000815480929190610dec90613f57565b91905055505b604051806101200160405280600660008b81526020019081526020016000206001018054610e1f90613ef4565b80601f0160208091040260200160405190810160405280929190818152602001828054610e4b90613ef4565b8015610e985780601f10610e6d57610100808354040283529160200191610e98565b820191906000526020600020905b815481529060010190602001808311610e7b57829003601f168201915b505050505081526020018681526020018373ffffffffffffffffffffffffffffffffffffffff1681526020014281526020016201518089610ed99190613cf4565b42610ee49190613aec565b815260200188815260200160001515815260200160008152602001348152506008600060055481526020019081526020016000206000820151816000019080519060200190610f34929190612b71565b506020820151816001019080519060200190610f51929190612b71565b5060408201518160020160006101000a81548173ffffffffffffffffffffffffffffffffffffffff021916908373ffffffffffffffffffffffffffffffffffffffff160217905550606082015181600301556080820151816004015560a0820151816005015560c08201518160060160006101000a81548160ff02191690831515021790555060e0820151816007015561010082015181600801559050506000600660008a815260200190815260200160002060050160006101000a81548160ff0219169083151502179055506005600081548092919061103190613f57565b91905055506000674563918244f400009050806002546110519190613de2565b600281905550600160009054906101000a900473ffffffffffffffffffffffffffffffffffffffff1673ffffffffffffffffffffffffffffffffffffffff166108fc674563918244f400009081150290604051600060405180830381858888f193505050501580156110c7573d6000803e3d6000fd5b50505050505050505050565b600160009054906101000a900473ffffffffffffffffffffffffffffffffffffffff1681565b61110161261c565b73ffffffffffffffffffffffffffffffffffffffff1661111f61154b565b73ffffffffffffffffffffffffffffffffffffffff1614611175576040517f08c379a000000000000000000000000000000000000000000000000000000000815260040161116c90613831565b60405180910390fd5b61117f6000612624565b565b8073ffffffffffffffffffffffffffffffffffffffff163373ffffffffffffffffffffffffffffffffffffffff16146111ef576040517f08c379a00000000000000000000000000000000000000000000000000000000081526004016111e690613871565b60405180910390fd5b6000819050600060019050600080600060055490505b60008111156112de578573ffffffffffffffffffffffffffffffffffffffff16600860006001846112369190613de2565b815260200190815260200160002060020160009054906101000a900473ffffffffffffffffffffffffffffffffffffffff1673ffffffffffffffffffffffffffffffffffffffff1614611288576112de565b60006008600060018461129b9190613de2565b81526020019081526020016000206007015414156112bc57600093506112de565b6001816112c99190613de2565b925080806112d690613eca565b915050611205565b506001151583151514611326576040517f08c379a000000000000000000000000000000000000000000000000000000000815260040161131d906136d1565b60405180910390fd5b6000600860008481526020019081526020016000206007015411156114f9576008600083815260200190815260200160002060070154341015611391670de0b6b3a7640000600860008681526020019081526020016000206007015461138c9190613bac565b6126e8565b6040516020016113a19190613477565b604051602081830303815290604052906113f1576040517f08c379a00000000000000000000000000000000000000000000000000000000081526004016113e8919061350c565b60405180910390fd5b506008600083815260200190815260200160002060070154346114149190613de2565b905060006008600084815260200190815260200160002060070181905550600160009054906101000a900473ffffffffffffffffffffffffffffffffffffffff1673ffffffffffffffffffffffffffffffffffffffff166108fc60086000858152602001908152602001600020600701549081150290604051600060405180830381858888f193505050501580156114b0573d6000803e3d6000fd5b508373ffffffffffffffffffffffffffffffffffffffff166108fc829081150290604051600060405180830381858888f193505050501580156114f7573d6000803e3d6000fd5b505b60006005541161153e576040517f08c379a000000000000000000000000000000000000000000000000000000000815260040161153590613751565b60405180910390fd5b5050505050565b60025481565b60008060009054906101000a900473ffffffffffffffffffffffffffffffffffffffff16905090565b60055481565b60045481565b6000806004836115909190613fa0565b61ffff16146115a257600090506115ea565b60006064836115b19190613fa0565b61ffff16146115c357600190506115ea565b6000610190836115d39190613fa0565b61ffff16146115e557600090506115ea565b600190505b919050565b60006001826115fe9190613de2565b91506101908261160e9190613bac565b60648361161b9190613bac565b6004846116289190613bac565b6116329190613de2565b61163c9190613aec565b9050919050565b61164b61261c565b73ffffffffffffffffffffffffffffffffffffffff1661166961154b565b73ffffffffffffffffffffffffffffffffffffffff16146116bf576040517f08c379a00000000000000000000000000000000000000000000000000000000081526004016116b690613831565b60405180910390fd5b60008060008060055490505b6000811115611744578880519060200120600860006001846116ed9190613de2565b815260200190815260200160002060000160405161170b9190613460565b60405180910390201415611731576001816117269190613de2565b935060019150611744565b808061173c90613eca565b9150506116cb565b5080611785576040517f08c379a000000000000000000000000000000000000000000000000000000000815260040161177c906136f1565b60405180910390fd5b60005b6003548110156117e6578880519060200120600660008381526020019081526020016000206001016040516117bd9190613460565b604051809103902014156117d3578092506117e6565b80806117de90613f57565b915050611788565b50600015156006600084815260200190815260200160002060050160009054906101000a900460ff16151514611851576040517f08c379a000000000000000000000000000000000000000000000000000000000815260040161184890613731565b60405180910390fd5b600015156008600085815260200190815260200160002060060160009054906101000a900460ff161515146118bb576040517f08c379a00000000000000000000000000000000000000000000000000000000081526004016118b290613771565b60405180910390fd5b601f84111580156118cd575060018410155b61190c576040517f08c379a0000000000000000000000000000000000000000000000000000000008152600401611903906137f1565b60405180910390fd5b600c851115801561191e575060018510155b61195d576040517f08c379a000000000000000000000000000000000000000000000000000000000815260040161195490613671565b60405180910390fd5b6119664261289b565b86146119a7576040517f08c379a000000000000000000000000000000000000000000000000000000000815260040161199e90613851565b60405180910390fd5b674563918244f4000034146119f1576040517f08c379a00000000000000000000000000000000000000000000000000000000081526004016119e890613891565b60405180910390fd5b60006008600085815260200190815260200160002060020160009054906101000a900473ffffffffffffffffffffffffffffffffffffffff1690506000600860008681526020019081526020016000206005015490506000670de0b6b3a764000090506000670de0b6b3a764000090506000806000611a718d8d8d6129ae565b9050600081600860008d8152602001908152602001600020600401819055506001600660008c8152602001908152602001600020600401541415611abf57671bc16d674ec800009550611b4b565b6002600660008c8152602001908152602001600020600401541415611aee576729a2241af62c00009550611b4a565b6003600660008c8152602001908152602001600020600401541415611b1d57673782dace9d9000009550611b49565b6004600660008c8152602001908152602001600020600401541415611b4857674563918244f4000095505b5b5b5b6000611b6d600860008e815260200190815260200160002060030154846129d7565b905087811115611b91578781611b839190613de2565b87611b8e9190613cf4565b93505b8f86611b9d9190613cf4565b955060008487898b611baf9190613cf4565b611bb99190613aec565b611bc39190613aec565b90506001600660008e815260200190815260200160002060050160006101000a81548160ff0219169083151502179055506001600860008f815260200190815260200160002060060160006101000a81548160ff021916908315150217905550674563918244f40000600254611c399190613aec565b600281905550600860008e8152602001908152602001600020600801549250808311611d07578281611c6b9190613de2565b600860008f81526020019081526020016000206007018190555082600254611c939190613de2565b600281905550600160009054906101000a900473ffffffffffffffffffffffffffffffffffffffff1673ffffffffffffffffffffffffffffffffffffffff166108fc849081150290604051600060405180830381858888f19350505050158015611d01573d6000803e3d6000fd5b50611dee565b8083611d139190613de2565b955085600254611d239190613de2565b60028190555080600254611d379190613de2565b6002819055508973ffffffffffffffffffffffffffffffffffffffff166108fc879081150290604051600060405180830381858888f19350505050158015611d83573d6000803e3d6000fd5b50600160009054906101000a900473ffffffffffffffffffffffffffffffffffffffff1673ffffffffffffffffffffffffffffffffffffffff166108fc829081150290604051600060405180830381858888f19350505050158015611dec573d6000803e3d6000fd5b505b60008610158015611dfe57508286105b611e3d576040517f08c379a0000000000000000000000000000000000000000000000000000000008152600401611e3490613631565b60405180910390fd5b505050505050505050505050505050505050565b6007602052806000526040600020600091509050806000018054611e7490613ef4565b80601f0160208091040260200160405190810160405280929190818152602001828054611ea090613ef4565b8015611eed5780601f10611ec257610100808354040283529160200191611eed565b820191906000526020600020905b815481529060010190602001808311611ed057829003601f168201915b505050505090806001018054611f0290613ef4565b80601f0160208091040260200160405190810160405280929190818152602001828054611f2e90613ef4565b8015611f7b5780601f10611f5057610100808354040283529160200191611f7b565b820191906000526020600020905b815481529060010190602001808311611f5e57829003601f168201915b505050505090806002015490806003018054611f9690613ef4565b80601f0160208091040260200160405190810160405280929190818152602001828054611fc290613ef4565b801561200f5780601f10611fe45761010080835404028352916020019161200f565b820191906000526020600020905b815481529060010190602001808311611ff257829003601f168201915b5050505050908060040160009054906101000a900473ffffffffffffffffffffffffffffffffffffffff16905085565b61204761261c565b73ffffffffffffffffffffffffffffffffffffffff1661206561154b565b73ffffffffffffffffffffffffffffffffffffffff16146120bb576040517f08c379a00000000000000000000000000000000000000000000000000000000081526004016120b290613831565b60405180910390fd5b81600060018214806120cd5750600282145b806120d85750600382145b806120e35750600482145b156120ed57600190505b6001151581151514612134576040517f08c379a000000000000000000000000000000000000000000000000000000000815260040161212b90613791565b60405180910390fd5b60006001905060005b600160035461214c9190613aec565b8110156121a85788805190602001206006600083815260200190815260200160002060010160405161217e9190613460565b6040518091039020141561219557600091506121a8565b80806121a090613f57565b91505061213d565b5060011515811515146121f0576040517f08c379a00000000000000000000000000000000000000000000000000000000081526004016121e790613651565b60405180910390fd5b674563918244f40000341461223a576040517f08c379a000000000000000000000000000000000000000000000000000000000815260040161223190613811565b60405180910390fd5b346002546122489190613aec565b6002819055506040518060c001604052808a81526020018981526020018881526020018781526020018681526020018515158152506006600060035481526020019081526020016000206000820151816000015560208201518160010190805190602001906122b8929190612b71565b5060408201518160020190805190602001906122d5929190612b71565b5060608201518160030190805190602001906122f2929190612b71565b506080820151816004015560a08201518160050160006101000a81548160ff0219169083151502179055509050506003600081548092919061233390613f57565b9190505550505050505050505050565b61234b61261c565b73ffffffffffffffffffffffffffffffffffffffff1661236961154b565b73ffffffffffffffffffffffffffffffffffffffff16146123bf576040517f08c379a00000000000000000000000000000000000000000000000000000000081526004016123b690613831565b60405180910390fd5b600073ffffffffffffffffffffffffffffffffffffffff168173ffffffffffffffffffffffffffffffffffffffff16141561242f576040517f08c379a0000000000000000000000000000000000000000000000000000000008152600401612426906136b1565b60405180910390fd5b61243881612624565b50565b600660205280600052604060002060009150905080600001549080600101805461246490613ef4565b80601f016020809104026020016040519081016040528092919081815260200182805461249090613ef4565b80156124dd5780601f106124b2576101008083540402835291602001916124dd565b820191906000526020600020905b8154815290600101906020018083116124c057829003601f168201915b5050505050908060020180546124f290613ef4565b80601f016020809104026020016040519081016040528092919081815260200182805461251e90613ef4565b801561256b5780601f106125405761010080835404028352916020019161256b565b820191906000526020600020905b81548152906001019060200180831161254e57829003601f168201915b50505050509080600301805461258090613ef4565b80601f01602080910402602001604051908101604052809291908181526020018280546125ac90613ef4565b80156125f95780601f106125ce576101008083540402835291602001916125f9565b820191906000526020600020905b8154815290600101906020018083116125dc57829003601f168201915b5050505050908060040154908060050160009054906101000a900460ff16905086565b600033905090565b60008060009054906101000a900473ffffffffffffffffffffffffffffffffffffffff169050816000806101000a81548173ffffffffffffffffffffffffffffffffffffffff021916908373ffffffffffffffffffffffffffffffffffffffff1602179055508173ffffffffffffffffffffffffffffffffffffffff168173ffffffffffffffffffffffffffffffffffffffff167f8be0079c531659141344cd1fd0a4f28419497f9722a3daafe3b4186f6b6457e060405160405180910390a35050565b60606000821415612730576040518060400160405280600181526020017f30000000000000000000000000000000000000000000000000000000000000008152509050612896565b600082905060005b6000821461276257808061274b90613f57565b915050600a8261275b9190613bac565b9150612738565b60008167ffffffffffffffff8111156127a4577f4e487b7100000000000000000000000000000000000000000000000000000000600052604160045260246000fd5b6040519080825280601f01601f1916602001820160405280156127d65781602001600182028036833780820191505090505b50905060008290508593505b6000841461288e57600a846127f79190613fd1565b60306128039190613aec565b60f81b828261281190613eca565b9250828151811061284b577f4e487b7100000000000000000000000000000000000000000000000000000000600052603260045260246000fd5b60200101907effffffffffffffffffffffffffffffffffffffffffffffffffffffffffffff1916908160001a905350600a846128879190613bac565b93506127e2565b819450505050505b919050565b600080600090506000806107b2905060006301e13380905060006301e28500905081876128c89190613bac565b8361ffff166128d79190613aec565b61ffff1695506128ea8361ffff166115ef565b6128f3876115ef565b6128fd9190613de2565b9350838161290b9190613cf4565b856129169190613aec565b9450838361ffff16876129299190613de2565b6129339190613de2565b8261293e9190613cf4565b856129499190613aec565b94505b868511156129a4576129696001876129649190613de2565b611580565b1561298157808561297a9190613de2565b9450612990565b818561298d9190613de2565b94505b60018661299d9190613de2565b955061294c565b5050505050919050565b600080620151809050806129c3868686612a0d565b6129cd9190613cf4565b9150509392505050565b600080620151809050828411156129ed57600080fd5b8084846129fa9190613de2565b612a049190613bac565b91505092915050565b60008062253d8c90506107b2851015612a2557600080fd5b60008590506000859050600085905060008460046064600c600e87612a4a9190613d4e565b612a549190613b42565b61132488612a629190613a58565b612a6c9190613a58565b612a769190613b42565b6003612a829190613bdd565b612a8c9190613b42565b600c80600c600e88612a9e9190613d4e565b612aa89190613b42565b612ab29190613bdd565b600287612abf9190613d4e565b612ac99190613d4e565b61016f612ad69190613bdd565b612ae09190613b42565b6004600c600e88612af19190613d4e565b612afb9190613b42565b6112c089612b099190613a58565b612b139190613a58565b6105b5612b209190613bdd565b612b2a9190613b42565b617d4b86612b389190613d4e565b612b429190613a58565b612b4c9190613a58565b612b569190613d4e565b612b609190613d4e565b905080955050505050509392505050565b828054612b7d90613ef4565b90600052602060002090601f016020900481019282612b9f5760008555612be6565b82601f10612bb857805160ff1916838001178555612be6565b82800160010185558215612be6579182015b82811115612be5578251825591602001919060010190612bca565b5b509050612bf39190612bf7565b5090565b5b80821115612c10576000816000905550600101612bf8565b5090565b6000612c27612c22846139a7565b613982565b905082815260208101848484011115612c3f57600080fd5b612c4a848285613e88565b509392505050565b600081359050612c6181614880565b92915050565b600081359050612c7681614897565b92915050565b600082601f830112612c8d57600080fd5b8135612c9d848260208601612c14565b91505092915050565b600081359050612cb5816148ae565b92915050565b600081359050612cca816148c5565b92915050565b600060208284031215612ce257600080fd5b6000612cf084828501612c52565b91505092915050565b600080600080600060a08688031215612d1157600080fd5b600086013567ffffffffffffffff811115612d2b57600080fd5b612d3788828901612c7c565b9550506020612d4888828901612cbb565b9450506040612d5988828901612cbb565b9350506060612d6a88828901612cbb565b9250506080612d7b88828901612cbb565b9150509295509295909350565b600060208284031215612d9a57600080fd5b6000612da884828501612ca6565b91505092915050565b600060208284031215612dc357600080fd5b6000612dd184828501612cbb565b91505092915050565b60008060008060008060c08789031215612df357600080fd5b6000612e0189828a01612cbb565b965050602087013567ffffffffffffffff811115612e1e57600080fd5b612e2a89828a01612c7c565b955050604087013567ffffffffffffffff811115612e4757600080fd5b612e5389828a01612c7c565b945050606087013567ffffffffffffffff811115612e7057600080fd5b612e7c89828a01612c7c565b9350506080612e8d89828a01612cbb565b92505060a0612e9e89828a01612c67565b9150509295509295509295565b600080600080600080600060e0888a031215612ec657600080fd5b6000612ed48a828b01612cbb565b9750506020612ee58a828b01612cbb565b965050604088013567ffffffffffffffff811115612f0257600080fd5b612f0e8a828b01612c7c565b955050606088013567ffffffffffffffff811115612f2b57600080fd5b612f378a828b01612c7c565b9450506080612f488a828b01612cbb565b93505060a088013567ffffffffffffffff811115612f6557600080fd5b612f718a828b01612c7c565b92505060c0612f828a828b01612c52565b91505092959891949750929550565b6000612f9d8383613442565b60208301905092915050565b612fb281613e28565b82525050565b612fc181613e16565b82525050565b6000612fd2826139fd565b612fdc8185613a20565b9350612fe7836139d8565b8060005b83811015613018578151612fff8882612f91565b975061300a83613a13565b925050600181019050612feb565b5085935050505092915050565b61302e81613e3a565b82525050565b6000815461304181613ef4565b61304b8186613a31565b945060018216600081146130665760018114613077576130aa565b60ff198316865281860193506130aa565b613080856139e8565b60005b838110156130a257815481890152600182019150602081019050613083565b838801955050505b50505092915050565b60006130be82613a08565b6130c88185613a3c565b93506130d8818560208601613e97565b6130e1816140be565b840191505092915050565b60006130f782613a08565b6131018185613a4d565b9350613111818560208601613e97565b80840191505092915050565b600061312a605483613a3c565b9150613135826140cf565b606082019050919050565b600061314d602483613a3c565b915061315882614144565b604082019050919050565b6000613170601983613a3c565b915061317b82614193565b602082019050919050565b6000613193602283613a3c565b915061319e826141bc565b604082019050919050565b60006131b6602683613a3c565b91506131c18261420b565b604082019050919050565b60006131d9603f83613a3c565b91506131e48261425a565b604082019050919050565b60006131fc602383613a3c565b9150613207826142a9565b604082019050919050565b600061321f601f83613a3c565b915061322a826142f8565b602082019050919050565b6000613242601883613a3c565b915061324d82614321565b602082019050919050565b6000613265602883613a3c565b91506132708261434a565b604082019050919050565b6000613288602383613a3c565b915061329382614399565b604082019050919050565b60006132ab603383613a3c565b91506132b6826143e8565b604082019050919050565b60006132ce608983613a3c565b91506132d982614437565b60a082019050919050565b60006132f1601983613a3c565b91506132fc826144f8565b602082019050919050565b6000613314601783613a3c565b915061331f82614521565b602082019050919050565b6000613337602e83613a3c565b91506133428261454a565b604082019050919050565b600061335a602083613a3c565b915061336582614599565b602082019050919050565b600061337d604883613a3c565b9150613388826145c2565b606082019050919050565b60006133a0604983613a3c565b91506133ab82614637565b606082019050919050565b60006133c3604a83613a3c565b91506133ce826146ac565b606082019050919050565b60006133e6604a83613a3c565b91506133f182614721565b606082019050919050565b6000613409602483613a4d565b915061341482614796565b602482019050919050565b600061342c607683613a3c565b9150613437826147e5565b608082019050919050565b61344b81613e7e565b82525050565b61345a81613e7e565b82525050565b600061346c8284613034565b915081905092915050565b6000613482826133fc565b915061348e82846130ec565b915081905092915050565b60006020820190506134ae6000830184612fb8565b92915050565b60006020820190506134c96000830184612fa9565b92915050565b600060208201905081810360008301526134e98184612fc7565b905092915050565b60006020820190506135066000830184613025565b92915050565b6000602082019050818103600083015261352681846130b3565b905092915050565b6000610120820190508181036000830152613549818c6130b3565b9050818103602083015261355d818b6130b3565b905061356c604083018a612fb8565b6135796060830189613451565b6135866080830188613451565b61359360a0830187613451565b6135a060c0830186613025565b6135ad60e0830185613451565b6135bb610100830184613451565b9a9950505050505050505050565b600060a08201905081810360008301526135e381886130b3565b905081810360208301526135f781876130b3565b90506136066040830186613451565b818103606083015261361881856130b3565b90506136276080830184612fb8565b9695505050505050565b6000602082019050818103600083015261364a8161311d565b9050919050565b6000602082019050818103600083015261366a81613140565b9050919050565b6000602082019050818103600083015261368a81613163565b9050919050565b600060208201905081810360008301526136aa81613186565b9050919050565b600060208201905081810360008301526136ca816131a9565b9050919050565b600060208201905081810360008301526136ea816131cc565b9050919050565b6000602082019050818103600083015261370a816131ef565b9050919050565b6000602082019050818103600083015261372a81613212565b9050919050565b6000602082019050818103600083015261374a81613235565b9050919050565b6000602082019050818103600083015261376a81613258565b9050919050565b6000602082019050818103600083015261378a8161327b565b9050919050565b600060208201905081810360008301526137aa8161329e565b9050919050565b600060208201905081810360008301526137ca816132c1565b9050919050565b600060208201905081810360008301526137ea816132e4565b9050919050565b6000602082019050818103600083015261380a81613307565b9050919050565b6000602082019050818103600083015261382a8161332a565b9050919050565b6000602082019050818103600083015261384a8161334d565b9050919050565b6000602082019050818103600083015261386a81613370565b9050919050565b6000602082019050818103600083015261388a81613393565b9050919050565b600060208201905081810360008301526138aa816133b6565b9050919050565b600060208201905081810360008301526138ca816133d9565b9050919050565b600060208201905081810360008301526138ea8161341f565b9050919050565b60006020820190506139066000830184613451565b92915050565b600060c0820190506139216000830189613451565b818103602083015261393381886130b3565b9050818103604083015261394781876130b3565b9050818103606083015261395b81866130b3565b905061396a6080830185613451565b61397760a0830184613025565b979650505050505050565b600061398c61399d565b90506139988282613f26565b919050565b6000604051905090565b600067ffffffffffffffff8211156139c2576139c161408f565b5b6139cb826140be565b9050602081019050919050565b6000819050602082019050919050565b60008190508160005260206000209050919050565b600081519050919050565b600081519050919050565b6000602082019050919050565b600082825260208201905092915050565b600081905092915050565b600082825260208201905092915050565b600081905092915050565b6000613a6382613e46565b9150613a6e83613e46565b9250817f7fffffffffffffffffffffffffffffffffffffffffffffffffffffffffffffff03831360008312151615613aa957613aa8614002565b5b817f8000000000000000000000000000000000000000000000000000000000000000038312600083121615613ae157613ae0614002565b5b828201905092915050565b6000613af782613e7e565b9150613b0283613e7e565b9250827fffffffffffffffffffffffffffffffffffffffffffffffffffffffffffffffff03821115613b3757613b36614002565b5b828201905092915050565b6000613b4d82613e46565b9150613b5883613e46565b925082613b6857613b67614031565b5b600160000383147f800000000000000000000000000000000000000000000000000000000000000083141615613ba157613ba0614002565b5b828205905092915050565b6000613bb782613e7e565b9150613bc283613e7e565b925082613bd257613bd1614031565b5b828204905092915050565b6000613be882613e46565b9150613bf383613e46565b9250827f7fffffffffffffffffffffffffffffffffffffffffffffffffffffffffffffff0482116000841360008413161615613c3257613c31614002565b5b817f80000000000000000000000000000000000000000000000000000000000000000583126000841260008413161615613c6f57613c6e614002565b5b827f80000000000000000000000000000000000000000000000000000000000000000582126000841360008412161615613cac57613cab614002565b5b827f7fffffffffffffffffffffffffffffffffffffffffffffffffffffffffffffff0582126000841260008412161615613ce957613ce8614002565b5b828202905092915050565b6000613cff82613e7e565b9150613d0a83613e7e565b9250817fffffffffffffffffffffffffffffffffffffffffffffffffffffffffffffffff0483118215151615613d4357613d42614002565b5b828202905092915050565b6000613d5982613e46565b9150613d6483613e46565b9250827f800000000000000000000000000000000000000000000000000000000000000001821260008412151615613d9f57613d9e614002565b5b827f7fffffffffffffffffffffffffffffffffffffffffffffffffffffffffffffff018213600084121615613dd757613dd6614002565b5b828203905092915050565b6000613ded82613e7e565b9150613df883613e7e565b925082821015613e0b57613e0a614002565b5b828203905092915050565b6000613e2182613e5e565b9050919050565b6000613e3382613e5e565b9050919050565b60008115159050919050565b6000819050919050565b600061ffff82169050919050565b600073ffffffffffffffffffffffffffffffffffffffff82169050919050565b6000819050919050565b82818337600083830152505050565b60005b83811015613eb5578082015181840152602081019050613e9a565b83811115613ec4576000848401525b50505050565b6000613ed582613e7e565b91506000821415613ee957613ee8614002565b5b600182039050919050565b60006002820490506001821680613f0c57607f821691505b60208210811415613f2057613f1f614060565b5b50919050565b613f2f826140be565b810181811067ffffffffffffffff82111715613f4e57613f4d61408f565b5b80604052505050565b6000613f6282613e7e565b91507fffffffffffffffffffffffffffffffffffffffffffffffffffffffffffffffff821415613f9557613f94614002565b5b600182019050919050565b6000613fab82613e50565b9150613fb683613e50565b925082613fc657613fc5614031565b5b828206905092915050565b6000613fdc82613e7e565b9150613fe783613e7e565b925082613ff757613ff6614031565b5b828206905092915050565b7f4e487b7100000000000000000000000000000000000000000000000000000000600052601160045260246000fd5b7f4e487b7100000000000000000000000000000000000000000000000000000000600052601260045260246000fd5b7f4e487b7100000000000000000000000000000000000000000000000000000000600052602260045260246000fd5b7f4e487b7100000000000000000000000000000000000000000000000000000000600052604160045260246000fd5b6000601f19601f8301169050919050565b7f437573746f6d65722773206465706f736974206e6f7420656e6f75676820746f60008201527f20636f76657220746865206164646974696f6e616c2064616d6167652063686160208201527f7267652c20746f70757020726571756972656421000000000000000000000000604082015250565b7f4475706c69636174656420636172206c6963656e736520706c617465206e756d60008201527f6265722100000000000000000000000000000000000000000000000000000000602082015250565b7f436865636b20796f7572206d6f6e746820656e74657265642100000000000000600082015250565b7f436172206f636375706965642c20706c65617365207069636b20616e6f74686560008201527f722e000000000000000000000000000000000000000000000000000000000000602082015250565b7f4f776e61626c653a206e6577206f776e657220697320746865207a65726f206160008201527f6464726573730000000000000000000000000000000000000000000000000000602082015250565b7f596f752068617665206e6f206578747261206665657320746f2070617921205960008201527f6f752063616e20676f20616865616420616e642072656e742061206361722100602082015250565b7f5468697320636172206973206e6f742072656e74656420627920637573746f6d60008201527f65722e0000000000000000000000000000000000000000000000000000000000602082015250565b7f4e6f206361727320666f7220637573746f6d65727320756e6465722032312e00600082015250565b7f5468652063617220686173206265656e2072656e7465642e0000000000000000600082015250565b7f5468657265206973206e6f206578747261206173736f6369617465642066656560008201527f20736f2066617221000000000000000000000000000000000000000000000000602082015250565b7f54686973206361722068617320616c7265616479206265656e2072657475726e60008201527f65642e0000000000000000000000000000000000000000000000000000000000602082015250565b7f54686572652773206f6e6c792034207479706573206f6620636172732072657060008201527f726573656e746564206279203120746f20342e00000000000000000000000000602082015250565b7f4f6e6c792070726f766964652034207479706573206f6620636172732120547960008201527f706520312063616e206163636f6d6d6f64617465206f6e6c7920322c2074797060208201527f65203220776974682033207e20352c2074797065203320776974682036207e2060408201527f382c20616e64207479706520342063616e206163636f6d6d6f64617465206d6f60608201527f7265207468616e20380000000000000000000000000000000000000000000000608082015250565b7f54686572652773206e6f2063617220696e20636f6d70616e7900000000000000600082015250565b7f436865636b20796f75722064617920656e746572656421000000000000000000600082015250565b7f54686520636f6d70616e792068617320746f206465706f73697420352045544860008201527f20666f7220656163682063617221000000000000000000000000000000000000602082015250565b7f4f776e61626c653a2063616c6c6572206973206e6f7420746865206f776e6572600082015250565b7f59656172206f662072657475726e2073686f756c64206265207468652063757260008201527f72656e742079656172206e6f772077686963682074686520636172206973207260208201527f657475726e65642e000000000000000000000000000000000000000000000000604082015250565b7f596f75206861766520746f20626520746865206f776e6572206f66207468652060008201527f77616c6c6574206164647265737320746f2070617920666f722074686520657860208201527f74726120666565732e0000000000000000000000000000000000000000000000604082015250565b7f54686520636f6d70616e79206e6565647320746f2073656e6420696e2035455460008201527f4820746f20636f6e6669726d20746865206361722072657475726e20616e642060208201527f72656c6973742069742e00000000000000000000000000000000000000000000604082015250565b7f4465706f736974206d757374206c6172676572207468616e207468652073756d60008201527f206f6620636172206465706f73697420616e642035202a206475726174696f6e60208201527f2028696e20455448292e00000000000000000000000000000000000000000000604082015250565b7f506c656173652070617920666f7220746865206578747261206665652065746860008201527f65723a2000000000000000000000000000000000000000000000000000000000602082015250565b7f596f75206861766520746f2070617920666f7220796f7572206578747261666560008201527f652e204465706f736974206d757374206c6172676572207468616e207468652060208201527f73756d206f6620636172206465706f736974202b2035202a206475726174696f60408201527f6e2028696e2045544829202b2065787472616665652e00000000000000000000606082015250565b61488981613e16565b811461489457600080fd5b50565b6148a081613e3a565b81146148ab57600080fd5b50565b6148b781613e50565b81146148c257600080fd5b50565b6148ce81613e7e565b81146148d957600080fd5b5056fea2646970667358221220c294a7acd50b3cb9caa99dbe3ccc6f5c11478b6af703d1c3b05ed30dcbe8337364736f6c63430008010033",
  "immutableReferences": {},
  "source": "// SPDX-License-Identifier: GPL-3.0\npragma solidity >=0.7.0 <0.9.0;\n\nimport \"@openzeppelin/contracts/access/Ownable.sol\";\ncontract CarRental is Ownable {\n\n    // Declarations\n    // Designing a structure to store the information of ABC Rental company's car fleet \n    struct carInfo {\n        uint deposit; // Car deposit\n        string carPlate; // Car lisence plate\n        string carBrand; // Car brand \n        string carDescription; // Description about car\n        uint carType; // 4 type, determined by room\n        bool carAvailable; // Available: true ; Not Available: false\n    }\n\n    // Designing a structure to store the information of renter\n    struct renterInfo {\n        string renterId; // Renter identity card number\n        string renterName; // Renter name\n        uint renterAge; // Renter age\n        string renterGender; // Renter gender\n        address walletAddress; // Wallet address of customer\n    }\n    \n    // Designing a structure to store the car renting history \n    struct rentalRecord {\n        string carPlate; // Car plate\n        string renterId; // Renter identity\n        address walletAddress; // Wallet address of customer\n        uint startDate;  // Start date\n        uint endDate;   // End date\n        uint duration;  // Num of days\n        bool carReturned; // Car return status \n        uint extraFee; // Extra fee\n        uint deposit; // deposit\n    }\n\n    address payable public companyAddress; // the address of the ABC company's account\n    uint public contractBalance = 0; // check the contract balance\n    uint public carCount = 0; // count the number of the cars added\n    uint public customerCount = 0; // count the number of the customers\n    uint public recordCount = 0; // count the number of the rental records \n\n    mapping(uint => carInfo) public cars; // to store the information of each car type\n    mapping(uint => renterInfo) public renters; // to store the information of each renter\n    mapping(uint => rentalRecord) public records; // to store the rental records\n\n    // Constructor\n    constructor() payable {\n        companyAddress = payable(msg.sender);\n    }\n\n    // Modifiers  \n    /*\n    modifier isCompany() {\n        require(msg.sender == companyAddress, \"It must be company's address\");\n        _;\n    }\n    */\n\n    // To check critical car info entered is correct\n    modifier infoCorrect(uint carType) {\n        bool numvalid = false;\n        if (carType == 1 || carType == 2 || carType == 3 || carType == 4) {\n            numvalid = true;\n        }\n        require(numvalid == true, \"There's only 4 types of cars represented by 1 to 4.\");\n        _;\n    }\n\n   // Allow ABC Company to add car information\n    function addCarInfo(uint deposit, string memory carPlate, string memory carDescription, string memory carBrand, uint carType, bool carAvailable) \n    payable public onlyOwner infoCorrect(carType) {\n        bool carPlateUnique = true;\n        for (uint i = 0; i < carCount+1; i++) {\n            if (keccak256(bytes(cars[i].carPlate)) == keccak256(bytes(carPlate))) {\n                carPlateUnique = false;\n                break; \n            }\n        }\n        require(carPlateUnique == true, \"Duplicated car license plate number!\");\n        require(msg.value == 5 ether, \"The company has to deposit 5 ETH for each car!\");\n\n        // Update contract balance\n        contractBalance = contractBalance + msg.value;\n\n        // Only add if verified car plate has never been uploaded before\n        cars[carCount] = carInfo(deposit, carPlate, carDescription, carBrand, carType, carAvailable);\n        carCount++;\n    }\n\n    // Allow renter to check car availability\n    function checkCarAvail(uint seatType) public view returns(uint[] memory) {\n        require(carCount > 0, \"There's no car in company\");\n        require(seatType == 1 || seatType == 2 || seatType == 3 || seatType == 4, \"Only provide 4 types of cars! Type 1 can accommodate only 2, type 2 with 3 ~ 5, type 3 with 6 ~ 8, and type 4 can accommodate more than 8\"); \n\n        uint tempCount;\n        for (uint i = 0; i < carCount+1; i++) {\n            if (cars[i].carType == seatType && cars[i].carAvailable == true) {\n                tempCount++; \n            }\n        }\n\n        uint[] memory temp = new uint[](tempCount); \n        uint index = 0;\n        for (uint i = 0; i < carCount + 1; i++) {\n            if (cars[i].carType == seatType && cars[i].carAvailable == true) {\n                temp[index] = i; \n                index++;\n            }\n        }\n        return temp;\n    }\n\n    // Choose car that is available, Once deposit received from customer, company release car key to customer and key in start date. Contract amount will be reduced.\n    // The customer should deposit car deposit + 5TH * num of days they intend to rent \n    function rentCar(uint carID, uint duration, string memory Name,\n        string memory IDnum, uint renterAge, string memory renterGender, address walletAddress) \n        payable public \n        // noExtraFee(msg.sender) \n        {\n\n        // To check the car is available\n        require(cars[carID].carAvailable == true, \"Car occupied, please pick another.\");\n        // require(walletAddress == msg.sender, \"WalletAddress must be identical with message sender!\");\n        require(renterAge >= 21, \"No cars for customers under 21.\");\n        // require(msg.value >= duration * 5 ether + cars[carID].deposit * 1 ether,\n        //      \"Deposit must larger than the sum of car deposit and 5 * duration (in ETH).\");\n\n        for (uint idx = recordCount; idx > 0; idx--) {\n            if ( records[idx-1].walletAddress == walletAddress && records[idx-1].extraFee == 0 ether) {\n                require(msg.value >= duration * 5 ether + cars[carID].deposit * 1 ether,\n                 \"Deposit must larger than the sum of car deposit and 5 * duration (in ETH).\");\n            } else if ( records[idx-1].walletAddress == walletAddress && records[idx-1].extraFee != 0 ether) {\n                require(msg.value >= records[idx-1].extraFee + duration * 5 ether + cars[carID].deposit * 1 ether,\n                 \"You have to pay for your extrafee. Deposit must larger than the sum of car deposit + 5 * duration (in ETH) + extrafee.\");\n            } \n        }\n\n        require(msg.value >= duration * 5 ether + cars[carID].deposit * 1 ether, \"Deposit must larger than the sum of car deposit and 5 * duration (in ETH).\");\n        // Update contract balance\n        contractBalance = contractBalance + msg.value;\n\n        bool unique = true;\n        // uint start = block.timestamp;\n        // uint end = start + (duration * 1 days);\n        \n        // Customer database: Record customer info if unique\n        for (uint i = 0; i < customerCount+1; i++) {\n            if (keccak256(bytes(renters[i].renterId)) == keccak256(bytes(IDnum))) {\n            unique = false;\n            break;\n            }\n        }\n\n        if (unique) {\n            renters[customerCount] = renterInfo(Name, IDnum, renterAge, renterGender, walletAddress);\n            customerCount++;\n        }\n\n        // Car Renting database: record cars that were rented and to which wallet address \n        records[recordCount] = rentalRecord(cars[carID].carPlate, IDnum, walletAddress, block.timestamp, \n                                            block.timestamp + (duration * 1 days), duration, false, 0, msg.value);\n        \n        cars[carID].carAvailable = false; // update car availability\n        recordCount++;\n        \n        // As number of car available has reduced by 1, return the 5ETH deposited by company during listing\n        uint companyDeposit = 5 ether;\n        contractBalance = contractBalance - companyDeposit;\n        companyAddress.transfer(5 ether);\n    }\n\n    // To confirm the car return\n    function confirmReturn(string memory carPlate, uint damageCharge, uint returnYear, uint returnMonth, uint returnDay) \n        payable public onlyOwner {\n        uint recordIndex = 0;\n        uint carIndex = 0;\n        bool returnValid = false;\n        \n        // Check records and car list to ensure car is rented by customer, and get the wallet address of the customer\n        for (uint i = recordCount; i > 0; i--) {\n            if ( keccak256(bytes(records[i-1].carPlate)) == keccak256(bytes(carPlate)) ) {\n                recordIndex = i-1;\n                returnValid = true;\n                break;\n            }\n        }\n        require(returnValid, \"This car is not rented by customer.\");\n\n        for (uint j = 0; j < carCount; j++) {\n            if (keccak256(bytes(cars[j].carPlate)) == keccak256(bytes(carPlate)) ) {\n                carIndex = j;\n                break;\n            }\n        }\n\n        // Final check to make sure this is the right car we looking at. \n        require(cars[carIndex].carAvailable == false, \"The car has been rented.\");\n        require(records[recordIndex].carReturned == false, \"This car has already been returned.\");\n\n        // Check date is entered correctly\n        require(returnDay <= 31 && returnDay >= 1, \"Check your day entered!\");\n        require(returnMonth <= 12 && returnMonth >= 1, \"Check your month entered!\");\n        require(returnYear == getYear(block.timestamp), \"Year of return should be the current year now which the car is returned.\");\n\n        // To confirm the return, the company need send in 5ETH which will be used to relist the car later\n        require(msg.value == 5 ether, \"The company needs to send in 5ETH to confirm the car return and relist it.\");\n\n        // To get the rental information\n        address payable _walletAdd = payable(records[recordIndex].walletAddress);\n        uint num_of_days = records[recordIndex].duration;\n        uint rent = 1 ether;\n        uint additionalCharge = 1 ether; \n        uint surplusAmt = 0 ether;\n        uint lateFee = 0 ether;\n        // uint returnDate = block.timestamp;\n        uint returnDate = timestampFromDate(returnYear, returnMonth, returnDay);\n        uint deposit = 0 ether;\n\n        // Update the return date in records\n        records[recordIndex].endDate = returnDate;\n\n        // check car type\n        if (cars[carIndex].carType == 1) {\t\t\t\t\t\t\t\t\t\t\t   \n            rent = 2 ether;\n        } \n        else if (cars[carIndex].carType == 2) {\n            rent = 3 ether;\n        } \n        else if (cars[carIndex].carType == 3) {\n            rent = 4 ether;\n        } \n        else if (cars[carIndex].carType == 4) {\n            rent = 5 ether;\n        }\n\n        // Check if the car is returned late by calculating the days difference \n        //between startDate and endDate, and compare with numOfDays that user intended to rent.\n        uint totalRentedDays = differentDays(records[recordIndex].startDate, returnDate);\n\n        if(totalRentedDays > num_of_days) {\n            lateFee = rent * (totalRentedDays - num_of_days); //charge rent * number of days late\n        }\n\n        // To calculate the total renting cost\n        additionalCharge = additionalCharge * damageCharge; // convert to ether\n        uint fee = num_of_days * rent + additionalCharge + lateFee;\n\n        // update avail of the car by changing state to available\n        cars[carIndex].carAvailable = true;\n\n        // Update record\n        records[recordIndex].carReturned = true;\n\n        // Update the transfer of 5 ETH from company account to relist the car. \n        contractBalance = contractBalance + 5 ether;\n        // deposit = cars[carIndex].deposit * 1 ether;\n        deposit = records[recordIndex].deposit;\n        // Check if deposit can cover the total fee\n        if (deposit <= fee) {\n            // log the deficit that we require from the user\n            records[recordIndex].extraFee = fee - deposit; \n            // No surplus and we take all the deposit \n            // surplusAmt = 0 ether;\n            contractBalance = contractBalance - deposit; \n            companyAddress.transfer(deposit);\n        }\n        else { \n            surplusAmt = deposit - fee;\n            // update contractbalance\n            contractBalance = contractBalance - surplusAmt;\n            contractBalance = contractBalance - fee;\n            // Transfer surplus to customer\n            _walletAdd.transfer(surplusAmt);\n            // Transfer fee earnings to company\n            companyAddress.transfer(fee);            \n        }\n        // Ensure no overflow for the surplus, definitely will be between 0 and a value less than the deposit\n        require(surplusAmt >= 0 && surplusAmt < deposit, \"Customer's deposit not enough to cover the additional damage charge, topup required!\");\n        }\n\n       \n    // Pay extra fees if needed\n    function CheckPayExtraFee(address walletAdd)  \n    payable public {\n        require(msg.sender == walletAdd, \"You have to be the owner of the wallet address to pay for the extra fees.\");\n\n        address payable _walletAdd = payable(walletAdd);\n\n        bool needPay = true; //Do we need to pay outstanding fee\n        uint index = 0;\n        uint surplus = 0 ether;\n\n        for (uint idx = recordCount; idx > 0; idx--) {\n            if (records[idx-1].walletAddress != walletAdd) {\n                break;\n            } else if (records[idx-1].extraFee == 0 ether) {\n                //If the latest rentor record available for this wallet address shows no outstanding fee, renter is allowed to rent \n                needPay = false;\n                break;\n            } else {\n                //records[idx-1].extraFee != 0\n                // found the record index where this wallet address has an extra fine\n                index = idx -1;\n            }\n        }\n\n        require(needPay == true, \"You have no extra fees to pay! You can go ahead and rent a car!\");\n\n        if (records[index].extraFee > 0 ether) {\n            require(msg.value >= records[index].extraFee, string(abi.encodePacked(\"Please pay for the extra fee ether: \", uint2str(records[index].extraFee/1000000000000000000))));\n            surplus = msg.value - records[index].extraFee;\n            records[index].extraFee = 0 ether;\n            companyAddress.transfer(records[index].extraFee); \n            _walletAdd.transfer(surplus);\n        }\n\n        require(recordCount > 0, \"There is no extra associated fee so far!\");\n\n    }\n\n    // helper function\n    // Convert uint256 to string\n    function uint2str(uint256 _i) internal pure returns (string memory str) {\n      if (_i == 0) {\n        return \"0\";\n        }\n        uint256 j = _i;\n        uint256 length;\n        while (j != 0) {\n          length++;\n          j /= 10;\n          }\n          bytes memory bstr = new bytes(length);\n          uint256 k = length;\n          j = _i;\n          while (j != 0) {\n            bstr[--k] = bytes1(uint8(48 + j % 10));\n            j /= 10;\n            }\n            str = string(bstr);\n    }\n\n    function _daysFromDate(uint year, uint month, uint day) internal pure returns (uint _days) {\n        int OFFSET19700101 = 2440588;\n        require(year >= 1970);\n        int _year = int(year);\n        int _month = int(month);\n        int _day = int(day);\n\n        int __days = _day\n        - 32075\n        + 1461 * (_year + 4800 + (_month - 14) / 12) / 4\n        + 367 * (_month - 2 - (_month - 14) / 12 * 12) / 12\n        - 3 * ((_year + 4900 + (_month - 14) / 12) / 100) / 4\n        - OFFSET19700101;\n\n        _days = uint(__days);\n    }\n\n    function timestampFromDate(uint year, uint month, uint day) internal pure returns (uint timestamp) {\n        uint SECONDS_PER_DAY = 24 * 60 * 60;\n        timestamp = _daysFromDate(year, month, day) * SECONDS_PER_DAY;\n    }\n\n    function differentDays(uint fromTimestamp, uint toTimestamp) internal pure returns (uint _days) {\n        uint SECONDS_PER_DAY = 24 * 60 * 60;\n        require(fromTimestamp <= toTimestamp);\n        _days = (toTimestamp - fromTimestamp) / SECONDS_PER_DAY;\n    }\n\n    function getYear(uint timestamp) internal pure returns (uint year) {\n        uint secondsAccounted = 0;\n        uint numLeapYears;\n        uint16 ORIGIN_YEAR = 1970;\n        uint YEAR_IN_SECONDS = 31536000;\n        uint LEAP_YEAR_IN_SECONDS = 31622400;\n \n        // Year\n        year = uint16(ORIGIN_YEAR + timestamp / YEAR_IN_SECONDS);\n        numLeapYears = leapYearsBefore(year) - leapYearsBefore(ORIGIN_YEAR);\n \n        secondsAccounted += LEAP_YEAR_IN_SECONDS * numLeapYears;\n        secondsAccounted += YEAR_IN_SECONDS * (year - ORIGIN_YEAR - numLeapYears);\n \n        while (secondsAccounted > timestamp) {\n            if (isLeapYear(uint16(year - 1))) {\n                secondsAccounted -= LEAP_YEAR_IN_SECONDS;\n            }\n            else {\n                secondsAccounted -= YEAR_IN_SECONDS;\n            }\n            year -= 1;\n        }\n        return year;\n    }\n\n    //To calculate the leap year before the input year\n    function leapYearsBefore(uint year) public pure returns (uint) {\n        year -= 1;\n        return year / 4 - year / 100 + year / 400;\n    }\n\n    //To check if the year inputed is a leapyear\n    function isLeapYear(uint16 year) public pure returns (bool) {\n        if (year % 4 != 0) {\n            return false;\n        }\n        if (year % 100 != 0) {\n            return true;\n        }\n        if (year % 400 != 0) {\n            return false;\n        }\n        return true;\n    }\n}",
  "sourcePath": "/Users/huangzhongkai/Desktop/ntu msis/Semester 2/Blockchain System Software Engineering/Topic 6 Decentrailized App/Group Project/bc_project/blockchain/contracts/CarRental.sol",
  "compiler": {
    "name": "solc",
    "version": "0.8.1+commit.df193b15.Emscripten.clang"
  },
  "schemaVersion": "3.4.3",
  "updatedAt": "2022-04-09T14:55:55.954Z",
  "devdoc": {
    "kind": "dev",
    "methods": {
      "owner()": {
        "details": "Returns the address of the current owner."
      },
      "renounceOwnership()": {
        "details": "Leaves the contract without owner. It will not be possible to call `onlyOwner` functions anymore. Can only be called by the current owner. NOTE: Renouncing ownership will leave the contract without an owner, thereby removing any functionality that is only available to the owner."
      },
      "transferOwnership(address)": {
        "details": "Transfers ownership of the contract to a new account (`newOwner`). Can only be called by the current owner."
      }
    },
    "version": 1
  },
  "userdoc": {
    "kind": "user",
    "methods": {},
    "version": 1
  }
}