{
  "contractName": "CarRental",
  "abi": [
    {
      "inputs": [
        {
          "internalType": "address",
          "name": "_userIdentityAddress",
          "type": "address"
        },
        {
          "internalType": "address",
          "name": "_microTokenAddress",
          "type": "address"
        }
      ],
      "stateMutability": "payable",
      "type": "constructor",
      "payable": true
    },
    {
      "anonymous": false,
      "inputs": [
        {
          "indexed": false,
          "internalType": "uint256",
          "name": "carId",
          "type": "uint256"
        },
        {
          "indexed": false,
          "internalType": "string",
          "name": "carBrand",
          "type": "string"
        },
        {
          "indexed": false,
          "internalType": "string",
          "name": "carDescription",
          "type": "string"
        },
        {
          "indexed": false,
          "internalType": "string",
          "name": "carVin",
          "type": "string"
        },
        {
          "indexed": false,
          "internalType": "uint256",
          "name": "carSeat",
          "type": "uint256"
        },
        {
          "indexed": false,
          "internalType": "bool",
          "name": "carAvailable",
          "type": "bool"
        },
        {
          "indexed": false,
          "internalType": "uint256",
          "name": "carPrice",
          "type": "uint256"
        }
      ],
      "name": "addCarInfoRequest",
      "type": "event"
    },
    {
      "anonymous": false,
      "inputs": [
        {
          "components": [
            {
              "internalType": "uint256",
              "name": "renterRecordId",
              "type": "uint256"
            },
            {
              "internalType": "uint256",
              "name": "carId",
              "type": "uint256"
            },
            {
              "internalType": "string",
              "name": "renterId",
              "type": "string"
            },
            {
              "internalType": "address",
              "name": "walletAddress",
              "type": "address"
            },
            {
              "internalType": "uint256",
              "name": "startDate",
              "type": "uint256"
            },
            {
              "internalType": "uint256",
              "name": "endDate",
              "type": "uint256"
            },
            {
              "internalType": "uint256",
              "name": "duration",
              "type": "uint256"
            },
            {
              "internalType": "bool",
              "name": "carReturned",
              "type": "bool"
            },
            {
              "internalType": "uint256",
              "name": "extraFee",
              "type": "uint256"
            },
            {
              "internalType": "uint256",
              "name": "deposit",
              "type": "uint256"
            },
            {
              "internalType": "uint256",
              "name": "lateFee",
              "type": "uint256"
            },
            {
              "internalType": "enum CarRental.RentState",
              "name": "state",
              "type": "uint8"
            },
            {
              "internalType": "string",
              "name": "carVin",
              "type": "string"
            },
            {
              "internalType": "string",
              "name": "carBrand",
              "type": "string"
            }
          ],
          "indexed": false,
          "internalType": "struct CarRental.rentalRecord",
          "name": "",
          "type": "tuple"
        }
      ],
      "name": "carRentalRequest",
      "type": "event"
    },
    {
      "inputs": [],
      "name": "carCount",
      "outputs": [
        {
          "internalType": "uint256",
          "name": "",
          "type": "uint256"
        }
      ],
      "stateMutability": "view",
      "type": "function",
      "constant": true
    },
    {
      "inputs": [],
      "name": "companyAddress",
      "outputs": [
        {
          "internalType": "address payable",
          "name": "",
          "type": "address"
        }
      ],
      "stateMutability": "view",
      "type": "function",
      "constant": true
    },
    {
      "inputs": [],
      "name": "identitySC",
      "outputs": [
        {
          "internalType": "contract UserIdentity",
          "name": "",
          "type": "address"
        }
      ],
      "stateMutability": "view",
      "type": "function",
      "constant": true
    },
    {
      "inputs": [
        {
          "internalType": "uint256",
          "name": "",
          "type": "uint256"
        }
      ],
      "name": "renters",
      "outputs": [
        {
          "internalType": "uint256",
          "name": "userId",
          "type": "uint256"
        },
        {
          "internalType": "string",
          "name": "socialId",
          "type": "string"
        },
        {
          "internalType": "string",
          "name": "userName",
          "type": "string"
        },
        {
          "internalType": "uint256",
          "name": "userAge",
          "type": "uint256"
        },
        {
          "internalType": "address",
          "name": "walletAddress",
          "type": "address"
        }
      ],
      "stateMutability": "view",
      "type": "function",
      "constant": true
    },
    {
      "inputs": [],
      "name": "tokenSC",
      "outputs": [
        {
          "internalType": "contract MicroToken",
          "name": "",
          "type": "address"
        }
      ],
      "stateMutability": "view",
      "type": "function",
      "constant": true
    },
    {
      "inputs": [
        {
          "internalType": "uint256",
          "name": "_CarId",
          "type": "uint256"
        },
        {
          "internalType": "string",
          "name": "_carBrand",
          "type": "string"
        },
        {
          "internalType": "string",
          "name": "_carDescription",
          "type": "string"
        },
        {
          "internalType": "string",
          "name": "_carVin",
          "type": "string"
        },
        {
          "internalType": "uint256",
          "name": "_carSeat",
          "type": "uint256"
        },
        {
          "internalType": "bool",
          "name": "_carAvailable",
          "type": "bool"
        },
        {
          "internalType": "uint256",
          "name": "_carPrice",
          "type": "uint256"
        },
        {
          "internalType": "address",
          "name": "contractAddress",
          "type": "address"
        }
      ],
      "name": "addCarInfo",
      "outputs": [],
      "stateMutability": "payable",
      "type": "function",
      "payable": true
    },
    {
      "inputs": [
        {
          "internalType": "uint256",
          "name": "_carId",
          "type": "uint256"
        },
        {
          "internalType": "string",
          "name": "_carBrand",
          "type": "string"
        },
        {
          "internalType": "string",
          "name": "_carDescription",
          "type": "string"
        },
        {
          "internalType": "string",
          "name": "_carVin",
          "type": "string"
        },
        {
          "internalType": "uint256",
          "name": "_carSeat",
          "type": "uint256"
        },
        {
          "internalType": "uint256",
          "name": "_carPrice",
          "type": "uint256"
        }
      ],
      "name": "editCarInfo",
      "outputs": [],
      "stateMutability": "payable",
      "type": "function",
      "payable": true
    },
    {
      "inputs": [
        {
          "internalType": "uint256",
          "name": "_carId",
          "type": "uint256"
        }
      ],
      "name": "deleteCarInfo",
      "outputs": [],
      "stateMutability": "payable",
      "type": "function",
      "payable": true
    },
    {
      "inputs": [
        {
          "internalType": "uint256",
          "name": "_carId",
          "type": "uint256"
        },
        {
          "internalType": "string",
          "name": "_renterId",
          "type": "string"
        },
        {
          "internalType": "uint256",
          "name": "_startDate",
          "type": "uint256"
        },
        {
          "internalType": "uint256",
          "name": "_endDate",
          "type": "uint256"
        },
        {
          "internalType": "uint256",
          "name": "_duration",
          "type": "uint256"
        },
        {
          "internalType": "uint256",
          "name": "_deposit",
          "type": "uint256"
        }
      ],
      "name": "applyCar",
      "outputs": [],
      "stateMutability": "payable",
      "type": "function",
      "payable": true
    },
    {
      "inputs": [
        {
          "internalType": "uint256",
          "name": "_duration",
          "type": "uint256"
        },
        {
          "internalType": "uint256",
          "name": "_carId",
          "type": "uint256"
        }
      ],
      "name": "calculateDeposit",
      "outputs": [
        {
          "internalType": "uint256",
          "name": "deposit",
          "type": "uint256"
        }
      ],
      "stateMutability": "view",
      "type": "function",
      "constant": true
    },
    {
      "inputs": [
        {
          "internalType": "uint256",
          "name": "_renterRecordId",
          "type": "uint256"
        },
        {
          "internalType": "uint256",
          "name": "_carId",
          "type": "uint256"
        }
      ],
      "name": "approveRent",
      "outputs": [],
      "stateMutability": "nonpayable",
      "type": "function"
    },
    {
      "inputs": [
        {
          "internalType": "uint256",
          "name": "_renterRecordId",
          "type": "uint256"
        },
        {
          "internalType": "uint256",
          "name": "_carId",
          "type": "uint256"
        }
      ],
      "name": "rejectRent",
      "outputs": [],
      "stateMutability": "nonpayable",
      "type": "function"
    },
    {
      "inputs": [
        {
          "internalType": "uint256",
          "name": "_renterRecordId",
          "type": "uint256"
        }
      ],
      "name": "returnDeposit",
      "outputs": [],
      "stateMutability": "payable",
      "type": "function",
      "payable": true
    },
    {
      "inputs": [
        {
          "internalType": "uint256",
          "name": "_renterRecordId",
          "type": "uint256"
        }
      ],
      "name": "applyReturnCar",
      "outputs": [],
      "stateMutability": "nonpayable",
      "type": "function"
    },
    {
      "inputs": [
        {
          "internalType": "uint256",
          "name": "_renterRecordId",
          "type": "uint256"
        },
        {
          "internalType": "uint256",
          "name": "_extraFee",
          "type": "uint256"
        },
        {
          "internalType": "uint256",
          "name": "_returnYear",
          "type": "uint256"
        },
        {
          "internalType": "uint256",
          "name": "_returnMonth",
          "type": "uint256"
        },
        {
          "internalType": "uint256",
          "name": "_returnDay",
          "type": "uint256"
        }
      ],
      "name": "confirmReturn",
      "outputs": [],
      "stateMutability": "payable",
      "type": "function",
      "payable": true
    },
    {
      "inputs": [
        {
          "internalType": "uint256",
          "name": "_renterRecordId",
          "type": "uint256"
        },
        {
          "internalType": "uint256",
          "name": "_carId",
          "type": "uint256"
        },
        {
          "internalType": "uint256",
          "name": "_damageFee",
          "type": "uint256"
        },
        {
          "internalType": "address",
          "name": "_userAddress",
          "type": "address"
        }
      ],
      "name": "confirmReturnExtra",
      "outputs": [],
      "stateMutability": "payable",
      "type": "function",
      "payable": true
    },
    {
      "inputs": [
        {
          "internalType": "uint256",
          "name": "_renterRecordId",
          "type": "uint256"
        }
      ],
      "name": "payFee",
      "outputs": [],
      "stateMutability": "nonpayable",
      "type": "function"
    },
    {
      "inputs": [
        {
          "internalType": "uint256",
          "name": "year",
          "type": "uint256"
        }
      ],
      "name": "leapYearsBefore",
      "outputs": [
        {
          "internalType": "uint256",
          "name": "",
          "type": "uint256"
        }
      ],
      "stateMutability": "pure",
      "type": "function",
      "constant": true
    },
    {
      "inputs": [
        {
          "internalType": "uint16",
          "name": "year",
          "type": "uint16"
        }
      ],
      "name": "isLeapYear",
      "outputs": [
        {
          "internalType": "bool",
          "name": "",
          "type": "bool"
        }
      ],
      "stateMutability": "pure",
      "type": "function",
      "constant": true
    },
    {
      "inputs": [
        {
          "internalType": "address",
          "name": "_walletAddress",
          "type": "address"
        },
        {
          "internalType": "uint256",
          "name": "_amount",
          "type": "uint256"
        }
      ],
      "name": "carTransfer",
      "outputs": [
        {
          "internalType": "bool",
          "name": "",
          "type": "bool"
        }
      ],
      "stateMutability": "payable",
      "type": "function",
      "payable": true
    },
    {
      "inputs": [],
      "name": "getAllCars",
      "outputs": [
        {
          "components": [
            {
              "internalType": "uint256",
              "name": "carId",
              "type": "uint256"
            },
            {
              "internalType": "string",
              "name": "carBrand",
              "type": "string"
            },
            {
              "internalType": "string",
              "name": "carDescription",
              "type": "string"
            },
            {
              "internalType": "string",
              "name": "carVin",
              "type": "string"
            },
            {
              "internalType": "uint256",
              "name": "carSeat",
              "type": "uint256"
            },
            {
              "internalType": "bool",
              "name": "carAvailable",
              "type": "bool"
            },
            {
              "internalType": "uint256",
              "name": "carPrice",
              "type": "uint256"
            }
          ],
          "internalType": "struct CarRental.carInfo[]",
          "name": "",
          "type": "tuple[]"
        }
      ],
      "stateMutability": "view",
      "type": "function",
      "constant": true
    },
    {
      "inputs": [
        {
          "internalType": "uint256",
          "name": "_carId",
          "type": "uint256"
        }
      ],
      "name": "getCarById",
      "outputs": [
        {
          "components": [
            {
              "internalType": "uint256",
              "name": "carId",
              "type": "uint256"
            },
            {
              "internalType": "string",
              "name": "carBrand",
              "type": "string"
            },
            {
              "internalType": "string",
              "name": "carDescription",
              "type": "string"
            },
            {
              "internalType": "string",
              "name": "carVin",
              "type": "string"
            },
            {
              "internalType": "uint256",
              "name": "carSeat",
              "type": "uint256"
            },
            {
              "internalType": "bool",
              "name": "carAvailable",
              "type": "bool"
            },
            {
              "internalType": "uint256",
              "name": "carPrice",
              "type": "uint256"
            }
          ],
          "internalType": "struct CarRental.carInfo",
          "name": "",
          "type": "tuple"
        }
      ],
      "stateMutability": "view",
      "type": "function",
      "constant": true
    },
    {
      "inputs": [],
      "name": "getAllReconds",
      "outputs": [
        {
          "components": [
            {
              "internalType": "uint256",
              "name": "renterRecordId",
              "type": "uint256"
            },
            {
              "internalType": "uint256",
              "name": "carId",
              "type": "uint256"
            },
            {
              "internalType": "string",
              "name": "renterId",
              "type": "string"
            },
            {
              "internalType": "address",
              "name": "walletAddress",
              "type": "address"
            },
            {
              "internalType": "uint256",
              "name": "startDate",
              "type": "uint256"
            },
            {
              "internalType": "uint256",
              "name": "endDate",
              "type": "uint256"
            },
            {
              "internalType": "uint256",
              "name": "duration",
              "type": "uint256"
            },
            {
              "internalType": "bool",
              "name": "carReturned",
              "type": "bool"
            },
            {
              "internalType": "uint256",
              "name": "extraFee",
              "type": "uint256"
            },
            {
              "internalType": "uint256",
              "name": "deposit",
              "type": "uint256"
            },
            {
              "internalType": "uint256",
              "name": "lateFee",
              "type": "uint256"
            },
            {
              "internalType": "enum CarRental.RentState",
              "name": "state",
              "type": "uint8"
            },
            {
              "internalType": "string",
              "name": "carVin",
              "type": "string"
            },
            {
              "internalType": "string",
              "name": "carBrand",
              "type": "string"
            }
          ],
          "internalType": "struct CarRental.rentalRecord[]",
          "name": "",
          "type": "tuple[]"
        }
      ],
      "stateMutability": "view",
      "type": "function",
      "constant": true
    },
    {
      "inputs": [
        {
          "internalType": "uint256",
          "name": "_recordId",
          "type": "uint256"
        }
      ],
      "name": "getRecordById",
      "outputs": [
        {
          "components": [
            {
              "internalType": "uint256",
              "name": "renterRecordId",
              "type": "uint256"
            },
            {
              "internalType": "uint256",
              "name": "carId",
              "type": "uint256"
            },
            {
              "internalType": "string",
              "name": "renterId",
              "type": "string"
            },
            {
              "internalType": "address",
              "name": "walletAddress",
              "type": "address"
            },
            {
              "internalType": "uint256",
              "name": "startDate",
              "type": "uint256"
            },
            {
              "internalType": "uint256",
              "name": "endDate",
              "type": "uint256"
            },
            {
              "internalType": "uint256",
              "name": "duration",
              "type": "uint256"
            },
            {
              "internalType": "bool",
              "name": "carReturned",
              "type": "bool"
            },
            {
              "internalType": "uint256",
              "name": "extraFee",
              "type": "uint256"
            },
            {
              "internalType": "uint256",
              "name": "deposit",
              "type": "uint256"
            },
            {
              "internalType": "uint256",
              "name": "lateFee",
              "type": "uint256"
            },
            {
              "internalType": "enum CarRental.RentState",
              "name": "state",
              "type": "uint8"
            },
            {
              "internalType": "string",
              "name": "carVin",
              "type": "string"
            },
            {
              "internalType": "string",
              "name": "carBrand",
              "type": "string"
            }
          ],
          "internalType": "struct CarRental.rentalRecord",
          "name": "",
          "type": "tuple"
        }
      ],
      "stateMutability": "view",
      "type": "function",
      "constant": true
    },
    {
      "inputs": [
        {
          "internalType": "uint256",
          "name": "_renterRecordId",
          "type": "uint256"
        }
      ],
      "name": "removeRecords",
      "outputs": [],
      "stateMutability": "nonpayable",
      "type": "function"
    }
  ],
  "bytecode": "0x60806040526000600555604051620053493803806200534983398181016040528101906200002e91906200010f565b33600260006101000a81548173ffffffffffffffffffffffffffffffffffffffff021916908373ffffffffffffffffffffffffffffffffffffffff160217905550806000806101000a81548173ffffffffffffffffffffffffffffffffffffffff021916908373ffffffffffffffffffffffffffffffffffffffff16021790555081600160006101000a81548173ffffffffffffffffffffffffffffffffffffffff021916908373ffffffffffffffffffffffffffffffffffffffff16021790555050506200019e565b600081519050620001098162000184565b92915050565b600080604083850312156200012357600080fd5b60006200013385828601620000f8565b92505060206200014685828601620000f8565b9150509250929050565b60006200015d8262000164565b9050919050565b600073ffffffffffffffffffffffffffffffffffffffff82169050919050565b6200018f8162000150565b81146200019b57600080fd5b50565b61519b80620001ae6000396000f3fe6080604052600436106101665760003560e01c8063b1999937116100d1578063d289ade21161008a578063e75b8b2311610064578063e75b8b231461050f578063f3450c7d1461054c578063f4914a8f14610568578063f81ebc8f1461058457610166565b8063d289ade214610489578063dcc3974b146104b2578063e4033666146104f357610166565b8063b199993714610390578063bac16f12146103cd578063bed31acc146103e9578063c16849c014610412578063c320241e1461043d578063c838ab6a1461046d57610166565b806353e1ead91161012357806353e1ead91461026c5780638154ab0f146102975780638299f0de146102d457806390720b32146102fd578063a6f0e57714610328578063abfe5d571461036557610166565b806301c4ecc41461016b5780630c18c62c1461019457806318b683fb146101d1578063297a1f56146101ed578063381190aa146102185780634f45a65514610243575b600080fd5b34801561017757600080fd5b50610192600480360381019061018d9190613da0565b6105a0565b005b3480156101a057600080fd5b506101bb60048036038101906101b69190613da0565b61076a565b6040516101c8919061489f565b60405180910390f35b6101eb60048036038101906101e69190613b0b565b6107cb565b005b3480156101f957600080fd5b506102026109fb565b60405161020f919061489f565b60405180910390f35b34801561022457600080fd5b5061022d610a01565b60405161023a91906146e8565b60405180910390f35b34801561024f57600080fd5b5061026a60048036038101906102659190613b0b565b610d5f565b005b34801561027857600080fd5b50610281610f08565b60405161028e9190614659565b60405180910390f35b3480156102a357600080fd5b506102be60048036038101906102b99190613b0b565b610f2e565b6040516102cb919061485b565b60405180910390f35b3480156102e057600080fd5b506102fb60048036038101906102f69190613da0565b61117f565b005b34801561030957600080fd5b506103126113b9565b60405161031f9190614740565b60405180910390f35b34801561033457600080fd5b5061034f600480360381019061034a9190613ae2565b6113df565b60405161035c919061470a565b60405180910390f35b34801561037157600080fd5b5061037a61144e565b60405161038791906146c6565b60405180910390f35b34801561039c57600080fd5b506103b760048036038101906103b29190613b0b565b61169c565b6040516103c4919061489f565b60405180910390f35b6103e760048036038101906103e29190613ddc565b6116f0565b005b3480156103f557600080fd5b50610410600480360381019061040b9190613b0b565b611a3d565b005b34801561041e57600080fd5b50610427611ada565b6040516104349190614725565b60405180910390f35b61045760048036038101906104529190613a7d565b611afe565b604051610464919061470a565b60405180910390f35b61048760048036038101906104829190613b0b565b611bb9565b005b34801561049557600080fd5b506104b060048036038101906104ab9190613b0b565b611cb0565b005b3480156104be57600080fd5b506104d960048036038101906104d49190613b0b565b612041565b6040516104ea95949392919061493e565b60405180910390f35b61050d60048036038101906105089190613b34565b6121a7565b005b34801561051b57600080fd5b5061053660048036038101906105319190613b0b565b612540565b604051610543919061487d565b60405180910390f35b61056660048036038101906105619190613e3f565b6128a1565b005b610582600480360381019061057d9190613c2e565b612df8565b005b61059e60048036038101906105999190613cff565b613135565b005b600260009054906101000a900473ffffffffffffffffffffffffffffffffffffffff1673ffffffffffffffffffffffffffffffffffffffff163373ffffffffffffffffffffffffffffffffffffffff1614610630576040517f08c379a00000000000000000000000000000000000000000000000000000000081526004016106279061483b565b60405180910390fd5b806000600380549050821161064457600190505b8061064e57600080fd5b60005b600480549050811015610763578460048281548110610699577f4e487b7100000000000000000000000000000000000000000000000000000000600052603260045260246000fd5b90600052602060002090600e0201600001541415610750576002600482815481106106ed577f4e487b7100000000000000000000000000000000000000000000000000000000600052603260045260246000fd5b90600052602060002090600e0201600b0160006101000a81548160ff02191690836007811115610746577f4e487b7100000000000000000000000000000000000000000000000000000000600052602160045260246000fd5b0217905550610763565b808061075b90614d79565b915050610651565b5050505050565b600082600383815481106107a7577f4e487b7100000000000000000000000000000000000000000000000000000000600052603260045260246000fd5b9060005260206000209060070201600601546107c39190614b3b565b905092915050565b600260009054906101000a900473ffffffffffffffffffffffffffffffffffffffff1673ffffffffffffffffffffffffffffffffffffffff163373ffffffffffffffffffffffffffffffffffffffff161461085b576040517f08c379a00000000000000000000000000000000000000000000000000000000081526004016108529061483b565b60405180910390fd5b600060048281548110610897577f4e487b7100000000000000000000000000000000000000000000000000000000600052603260045260246000fd5b90600052602060002090600e020160030160009054906101000a900473ffffffffffffffffffffffffffffffffffffffff1690508073ffffffffffffffffffffffffffffffffffffffff166108fc6004848154811061091f577f4e487b7100000000000000000000000000000000000000000000000000000000600052603260045260246000fd5b90600052602060002090600e0201600901549081150290604051600060405180830381858888f1935050505015801561095c573d6000803e3d6000fd5b50600360048381548110610999577f4e487b7100000000000000000000000000000000000000000000000000000000600052603260045260246000fd5b90600052602060002090600e0201600b0160006101000a81548160ff021916908360078111156109f2577f4e487b7100000000000000000000000000000000000000000000000000000000600052602160045260246000fd5b02179055505050565b60055481565b60606004805480602002602001604051908101604052809291908181526020016000905b82821015610d5657838290600052602060002090600e0201604051806101c00160405290816000820154815260200160018201548152602001600282018054610a6d90614d16565b80601f0160208091040260200160405190810160405280929190818152602001828054610a9990614d16565b8015610ae65780601f10610abb57610100808354040283529160200191610ae6565b820191906000526020600020905b815481529060010190602001808311610ac957829003601f168201915b505050505081526020016003820160009054906101000a900473ffffffffffffffffffffffffffffffffffffffff1673ffffffffffffffffffffffffffffffffffffffff1673ffffffffffffffffffffffffffffffffffffffff1681526020016004820154815260200160058201548152602001600682015481526020016007820160009054906101000a900460ff161515151581526020016008820154815260200160098201548152602001600a8201548152602001600b820160009054906101000a900460ff166007811115610be7577f4e487b7100000000000000000000000000000000000000000000000000000000600052602160045260246000fd5b6007811115610c1f577f4e487b7100000000000000000000000000000000000000000000000000000000600052602160045260246000fd5b8152602001600c82018054610c3390614d16565b80601f0160208091040260200160405190810160405280929190818152602001828054610c5f90614d16565b8015610cac5780601f10610c8157610100808354040283529160200191610cac565b820191906000526020600020905b815481529060010190602001808311610c8f57829003601f168201915b50505050508152602001600d82018054610cc590614d16565b80601f0160208091040260200160405190810160405280929190818152602001828054610cf190614d16565b8015610d3e5780601f10610d1357610100808354040283529160200191610d3e565b820191906000526020600020905b815481529060010190602001808311610d2157829003601f168201915b50505050508152505081526020019060010190610a25565b50505050905090565b600260009054906101000a900473ffffffffffffffffffffffffffffffffffffffff1673ffffffffffffffffffffffffffffffffffffffff163373ffffffffffffffffffffffffffffffffffffffff1614610def576040517f08c379a0000000000000000000000000000000000000000000000000000000008152600401610de69061483b565b60405180910390fd5b60005b600480549050811015610f04578160048281548110610e3a577f4e487b7100000000000000000000000000000000000000000000000000000000600052603260045260246000fd5b90600052602060002090600e0201600001541415610ef157600560048281548110610e8e577f4e487b7100000000000000000000000000000000000000000000000000000000600052603260045260246000fd5b90600052602060002090600e0201600b0160006101000a81548160ff02191690836007811115610ee7577f4e487b7100000000000000000000000000000000000000000000000000000000600052602160045260246000fd5b0217905550610f04565b8080610efc90614d79565b915050610df2565b5050565b600260009054906101000a900473ffffffffffffffffffffffffffffffffffffffff1681565b610f3661380b565b60038281548110610f70577f4e487b7100000000000000000000000000000000000000000000000000000000600052603260045260246000fd5b90600052602060002090600702016040518060e001604052908160008201548152602001600182018054610fa390614d16565b80601f0160208091040260200160405190810160405280929190818152602001828054610fcf90614d16565b801561101c5780601f10610ff15761010080835404028352916020019161101c565b820191906000526020600020905b815481529060010190602001808311610fff57829003601f168201915b5050505050815260200160028201805461103590614d16565b80601f016020809104026020016040519081016040528092919081815260200182805461106190614d16565b80156110ae5780601f10611083576101008083540402835291602001916110ae565b820191906000526020600020905b81548152906001019060200180831161109157829003601f168201915b505050505081526020016003820180546110c790614d16565b80601f01602080910402602001604051908101604052809291908181526020018280546110f390614d16565b80156111405780601f1061111557610100808354040283529160200191611140565b820191906000526020600020905b81548152906001019060200180831161112357829003601f168201915b50505050508152602001600482015481526020016005820160009054906101000a900460ff161515151581526020016006820154815250509050919050565b600260009054906101000a900473ffffffffffffffffffffffffffffffffffffffff1673ffffffffffffffffffffffffffffffffffffffff163373ffffffffffffffffffffffffffffffffffffffff161461120f576040517f08c379a00000000000000000000000000000000000000000000000000000000081526004016112069061483b565b60405180910390fd5b806000600380549050821161122357600190505b8061122d57600080fd5b60005b600480549050811015611342578460048281548110611278577f4e487b7100000000000000000000000000000000000000000000000000000000600052603260045260246000fd5b90600052602060002090600e020160000154141561132f576001600482815481106112cc577f4e487b7100000000000000000000000000000000000000000000000000000000600052603260045260246000fd5b90600052602060002090600e0201600b0160006101000a81548160ff02191690836007811115611325577f4e487b7100000000000000000000000000000000000000000000000000000000600052602160045260246000fd5b0217905550611342565b808061133a90614d79565b915050611230565b50600060036001856113549190614b95565b8154811061138b577f4e487b7100000000000000000000000000000000000000000000000000000000600052603260045260246000fd5b906000526020600020906007020160050160006101000a81548160ff02191690831515021790555050505050565b600160009054906101000a900473ffffffffffffffffffffffffffffffffffffffff1681565b6000806004836113ef9190614dc2565b61ffff16146114015760009050611449565b60006064836114109190614dc2565b61ffff16146114225760019050611449565b6000610190836114329190614dc2565b61ffff16146114445760009050611449565b600190505b919050565b60606003805480602002602001604051908101604052809291908181526020016000905b8282101561169357838290600052602060002090600702016040518060e0016040529081600082015481526020016001820180546114af90614d16565b80601f01602080910402602001604051908101604052809291908181526020018280546114db90614d16565b80156115285780601f106114fd57610100808354040283529160200191611528565b820191906000526020600020905b81548152906001019060200180831161150b57829003601f168201915b5050505050815260200160028201805461154190614d16565b80601f016020809104026020016040519081016040528092919081815260200182805461156d90614d16565b80156115ba5780601f1061158f576101008083540402835291602001916115ba565b820191906000526020600020905b81548152906001019060200180831161159d57829003601f168201915b505050505081526020016003820180546115d390614d16565b80601f01602080910402602001604051908101604052809291908181526020018280546115ff90614d16565b801561164c5780601f106116215761010080835404028352916020019161164c565b820191906000526020600020905b81548152906001019060200180831161162f57829003601f168201915b50505050508152602001600482015481526020016005820160009054906101000a900460ff1615151515815260200160068201548152505081526020019060010190611472565b50505050905090565b60006001826116ab9190614b95565b9150610190826116bb9190614b0a565b6064836116c89190614b0a565b6004846116d59190614b0a565b6116df9190614b95565b6116e99190614ab4565b9050919050565b600260009054906101000a900473ffffffffffffffffffffffffffffffffffffffff1673ffffffffffffffffffffffffffffffffffffffff163373ffffffffffffffffffffffffffffffffffffffff1614611780576040517f08c379a00000000000000000000000000000000000000000000000000000000081526004016117779061483b565b60405180910390fd5b600660078111156117ba577f4e487b7100000000000000000000000000000000000000000000000000000000600052602160045260246000fd5b600485815481106117f4577f4e487b7100000000000000000000000000000000000000000000000000000000600052603260045260246000fd5b90600052602060002090600e0201600b0160009054906101000a900460ff16600781111561184b577f4e487b7100000000000000000000000000000000000000000000000000000000600052602160045260246000fd5b1461188b576040517f08c379a0000000000000000000000000000000000000000000000000000000008152600401611882906147db565b60405180910390fd5b60008054906101000a900473ffffffffffffffffffffffffffffffffffffffff1673ffffffffffffffffffffffffffffffffffffffff1663a9059cbb82846040518363ffffffff1660e01b81526004016118e692919061469d565b602060405180830381600087803b15801561190057600080fd5b505af1158015611914573d6000803e3d6000fd5b505050506040513d601f19601f820116820180604052508101906119389190613ab9565b50600160038481548110611975577f4e487b7100000000000000000000000000000000000000000000000000000000600052603260045260246000fd5b906000526020600020906007020160050160006101000a81548160ff0219169083151502179055506005600485815481106119d9577f4e487b7100000000000000000000000000000000000000000000000000000000600052603260045260246000fd5b90600052602060002090600e0201600b0160006101000a81548160ff02191690836007811115611a32577f4e487b7100000000000000000000000000000000000000000000000000000000600052602160045260246000fd5b021790555050505050565b600660048281548110611a79577f4e487b7100000000000000000000000000000000000000000000000000000000600052603260045260246000fd5b90600052602060002090600e0201600b0160006101000a81548160ff02191690836007811115611ad2577f4e487b7100000000000000000000000000000000000000000000000000000000600052602160045260246000fd5b021790555050565b60008054906101000a900473ffffffffffffffffffffffffffffffffffffffff1681565b60008060009054906101000a900473ffffffffffffffffffffffffffffffffffffffff1673ffffffffffffffffffffffffffffffffffffffff1663a9059cbb84846040518363ffffffff1660e01b8152600401611b5c92919061469d565b602060405180830381600087803b158015611b7657600080fd5b505af1158015611b8a573d6000803e3d6000fd5b505050506040513d601f19601f82011682018060405250810190611bae9190613ab9565b506001905092915050565b600260009054906101000a900473ffffffffffffffffffffffffffffffffffffffff1673ffffffffffffffffffffffffffffffffffffffff163373ffffffffffffffffffffffffffffffffffffffff1614611c49576040517f08c379a0000000000000000000000000000000000000000000000000000000008152600401611c409061483b565b60405180910390fd5b600060038281548110611c85577f4e487b7100000000000000000000000000000000000000000000000000000000600052603260045260246000fd5b906000526020600020906007020160050160006101000a81548160ff02191690831515021790555050565b6000611d5260048381548110611cef577f4e487b7100000000000000000000000000000000000000000000000000000000600052603260045260246000fd5b90600052602060002090600e02016004015460048481548110611d3b577f4e487b7100000000000000000000000000000000000000000000000000000000600052603260045260246000fd5b90600052602060002090600e0201600501546136c2565b90506000600360048481548110611d92577f4e487b7100000000000000000000000000000000000000000000000000000000600052603260045260246000fd5b90600052602060002090600e02016001015481548110611ddb577f4e487b7100000000000000000000000000000000000000000000000000000000600052603260045260246000fd5b9060005260206000209060070201600601549050600060048481548110611e2b577f4e487b7100000000000000000000000000000000000000000000000000000000600052603260045260246000fd5b90600052602060002090600e020160080154600a60098486611e4d9190614b3b565b611e579190614b3b565b611e619190614b0a565b611e6b9190614ab4565b905060008054906101000a900473ffffffffffffffffffffffffffffffffffffffff1673ffffffffffffffffffffffffffffffffffffffff1663a9059cbb600260009054906101000a900473ffffffffffffffffffffffffffffffffffffffff16836040518363ffffffff1660e01b8152600401611eea929190614674565b602060405180830381600087803b158015611f0457600080fd5b505af1158015611f18573d6000803e3d6000fd5b505050506040513d601f19601f82011682018060405250810190611f3c9190613ab9565b50600160048581548110611f79577f4e487b7100000000000000000000000000000000000000000000000000000000600052603260045260246000fd5b90600052602060002090600e020160070160006101000a81548160ff021916908315150217905550600560048581548110611fdd577f4e487b7100000000000000000000000000000000000000000000000000000000600052603260045260246000fd5b90600052602060002090600e0201600b0160006101000a81548160ff02191690836007811115612036577f4e487b7100000000000000000000000000000000000000000000000000000000600052602160045260246000fd5b021790555050505050565b600660205280600052604060002060009150905080600001549080600101805461206a90614d16565b80601f016020809104026020016040519081016040528092919081815260200182805461209690614d16565b80156120e35780601f106120b8576101008083540402835291602001916120e3565b820191906000526020600020905b8154815290600101906020018083116120c657829003601f168201915b5050505050908060020180546120f890614d16565b80601f016020809104026020016040519081016040528092919081815260200182805461212490614d16565b80156121715780601f1061214657610100808354040283529160200191612171565b820191906000526020600020905b81548152906001019060200180831161215457829003601f168201915b5050505050908060030154908060040160009054906101000a900473ffffffffffffffffffffffffffffffffffffffff16905085565b600260009054906101000a900473ffffffffffffffffffffffffffffffffffffffff1673ffffffffffffffffffffffffffffffffffffffff163373ffffffffffffffffffffffffffffffffffffffff1614612237576040517f08c379a000000000000000000000000000000000000000000000000000000000815260040161222e9061483b565b60405180910390fd5b60006001905060006040518060e001604052808b81526020018a8152602001898152602001888152602001878152602001861515815260200185815250905060005b600380549050811015612310578780519060200120600382815481106122c8577f4e487b7100000000000000000000000000000000000000000000000000000000600052603260045260246000fd5b90600052602060002090600702016003016040516122e69190614642565b604051809103902014156122fd5760009250612310565b808061230890614d79565b915050612279565b506001151582151514612358576040517f08c379a000000000000000000000000000000000000000000000000000000000815260040161234f9061477b565b60405180910390fd5b60008054906101000a900473ffffffffffffffffffffffffffffffffffffffff1673ffffffffffffffffffffffffffffffffffffffff1663a9059cbb846064876123a29190614b0a565b6040518363ffffffff1660e01b81526004016123bf92919061469d565b602060405180830381600087803b1580156123d957600080fd5b505af11580156123ed573d6000803e3d6000fd5b505050506040513d601f19601f820116820180604052508101906124119190613ab9565b50600381908060018154018082558091505060019003906000526020600020906007020160009091909190915060008201518160000155602082015181600101908051906020019061246492919061384a565b50604082015181600201908051906020019061248192919061384a565b50606082015181600301908051906020019061249e92919061384a565b506080820151816004015560a08201518160050160006101000a81548160ff02191690831515021790555060c0820151816006015550507f821fa57cf05e4406458f2fd9d7e252602d8e319fac403a30e084ba48e5024deb816000015182602001518360400151846060015185608001518660a001518760c0015160405161252c97969594939291906148ba565b60405180910390a150505050505050505050565b6125486138d0565b60048281548110612582577f4e487b7100000000000000000000000000000000000000000000000000000000600052603260045260246000fd5b90600052602060002090600e0201604051806101c001604052908160008201548152602001600182015481526020016002820180546125c090614d16565b80601f01602080910402602001604051908101604052809291908181526020018280546125ec90614d16565b80156126395780601f1061260e57610100808354040283529160200191612639565b820191906000526020600020905b81548152906001019060200180831161261c57829003601f168201915b505050505081526020016003820160009054906101000a900473ffffffffffffffffffffffffffffffffffffffff1673ffffffffffffffffffffffffffffffffffffffff1673ffffffffffffffffffffffffffffffffffffffff1681526020016004820154815260200160058201548152602001600682015481526020016007820160009054906101000a900460ff161515151581526020016008820154815260200160098201548152602001600a8201548152602001600b820160009054906101000a900460ff16600781111561273a577f4e487b7100000000000000000000000000000000000000000000000000000000600052602160045260246000fd5b6007811115612772577f4e487b7100000000000000000000000000000000000000000000000000000000600052602160045260246000fd5b8152602001600c8201805461278690614d16565b80601f01602080910402602001604051908101604052809291908181526020018280546127b290614d16565b80156127ff5780601f106127d4576101008083540402835291602001916127ff565b820191906000526020600020905b8154815290600101906020018083116127e257829003601f168201915b50505050508152602001600d8201805461281890614d16565b80601f016020809104026020016040519081016040528092919081815260200182805461284490614d16565b80156128915780601f1061286657610100808354040283529160200191612891565b820191906000526020600020905b81548152906001019060200180831161287457829003601f168201915b5050505050815250509050919050565b600260009054906101000a900473ffffffffffffffffffffffffffffffffffffffff1673ffffffffffffffffffffffffffffffffffffffff163373ffffffffffffffffffffffffffffffffffffffff1614612931576040517f08c379a00000000000000000000000000000000000000000000000000000000081526004016129289061483b565b60405180910390fd5b600015156004868154811061296f577f4e487b7100000000000000000000000000000000000000000000000000000000600052603260045260246000fd5b90600052602060002090600e020160070160009054906101000a900460ff161515146129d0576040517f08c379a00000000000000000000000000000000000000000000000000000000081526004016129c79061479b565b60405180910390fd5b601f81111580156129e2575060018110155b612a21576040517f08c379a0000000000000000000000000000000000000000000000000000000008152600401612a18906147fb565b60405180910390fd5b600c8211158015612a33575060018210155b612a72576040517f08c379a0000000000000000000000000000000000000000000000000000000008152600401612a699061475b565b60405180910390fd5b612a7b426136f8565b8314612abc576040517f08c379a0000000000000000000000000000000000000000000000000000000008152600401612ab39061481b565b60405180910390fd5b8060048681548110612af7577f4e487b7100000000000000000000000000000000000000000000000000000000600052603260045260246000fd5b90600052602060002090600e0201600501819055506000612b6360048781548110612b4b577f4e487b7100000000000000000000000000000000000000000000000000000000600052603260045260246000fd5b90600052602060002090600e020160040154836136c2565b90506000600360048881548110612ba3577f4e487b7100000000000000000000000000000000000000000000000000000000600052603260045260246000fd5b90600052602060002090600e02016001015481548110612bec577f4e487b7100000000000000000000000000000000000000000000000000000000600052603260045260246000fd5b906000526020600020906007020160060154905060048781548110612c3a577f4e487b7100000000000000000000000000000000000000000000000000000000600052603260045260246000fd5b90600052602060002090600e020160060154821115612d055760048781548110612c8d577f4e487b7100000000000000000000000000000000000000000000000000000000600052603260045260246000fd5b90600052602060002090600e02016006015482612caa9190614b95565b81612cb59190614b3b565b60048881548110612cef577f4e487b7100000000000000000000000000000000000000000000000000000000600052603260045260246000fd5b90600052602060002090600e0201600a01819055505b8560048881548110612d40577f4e487b7100000000000000000000000000000000000000000000000000000000600052603260045260246000fd5b90600052602060002090600e020160080181905550600660048881548110612d91577f4e487b7100000000000000000000000000000000000000000000000000000000600052603260045260246000fd5b90600052602060002090600e0201600b0160006101000a81548160ff02191690836007811115612dea577f4e487b7100000000000000000000000000000000000000000000000000000000600052602160045260246000fd5b021790555050505050505050565b600260009054906101000a900473ffffffffffffffffffffffffffffffffffffffff1673ffffffffffffffffffffffffffffffffffffffff163373ffffffffffffffffffffffffffffffffffffffff1614612e88576040517f08c379a0000000000000000000000000000000000000000000000000000000008152600401612e7f9061483b565b60405180910390fd5b60008560038881548110612ec5577f4e487b7100000000000000000000000000000000000000000000000000000000600052603260045260246000fd5b90600052602060002090600702016001019080519060200190612ee992919061384a565b508460038881548110612f25577f4e487b7100000000000000000000000000000000000000000000000000000000600052603260045260246000fd5b90600052602060002090600702016002019080519060200190612f4992919061384a565b508260038881548110612f85577f4e487b7100000000000000000000000000000000000000000000000000000000600052603260045260246000fd5b9060005260206000209060070201600401819055508160038881548110612fd5577f4e487b7100000000000000000000000000000000000000000000000000000000600052603260045260246000fd5b90600052602060002090600702016006018190555060005b6003805490508110156130845784805190602001206003828154811061303c577f4e487b7100000000000000000000000000000000000000000000000000000000600052603260045260246000fd5b906000526020600020906007020160030160405161305a9190614642565b604051809103902014156130715760019150613084565b808061307c90614d79565b915050612fed565b5060001515811515146130cc576040517f08c379a00000000000000000000000000000000000000000000000000000000081526004016130c3906147bb565b60405180910390fd5b8360038881548110613107577f4e487b7100000000000000000000000000000000000000000000000000000000600052603260045260246000fd5b9060005260206000209060070201600301908051906020019061312b92919061384a565b5050505050505050565b856000600380549050821161314957600190505b8061315357600080fd5b6000604051806101c0016040528060048054905081526020018a81526020018981526020013373ffffffffffffffffffffffffffffffffffffffff1681526020018881526020018781526020018681526020016000151581526020016000815260200185815260200160008152602001600060078111156131fd577f4e487b7100000000000000000000000000000000000000000000000000000000600052602160045260246000fd5b815260200160038b8154811061323c577f4e487b7100000000000000000000000000000000000000000000000000000000600052603260045260246000fd5b9060005260206000209060070201600301805461325890614d16565b80601f016020809104026020016040519081016040528092919081815260200182805461328490614d16565b80156132d15780601f106132a6576101008083540402835291602001916132d1565b820191906000526020600020905b8154815290600101906020018083116132b457829003601f168201915b5050505050815260200160038b81548110613315577f4e487b7100000000000000000000000000000000000000000000000000000000600052603260045260246000fd5b9060005260206000209060070201600101805461333190614d16565b80601f016020809104026020016040519081016040528092919081815260200182805461335d90614d16565b80156133aa5780601f1061337f576101008083540402835291602001916133aa565b820191906000526020600020905b81548152906001019060200180831161338d57829003601f168201915b5050505050815250905060048190806001815401808255809150506001900390600052602060002090600e02016000909190919091506000820151816000015560208201518160010155604082015181600201908051906020019061341092919061384a565b5060608201518160030160006101000a81548173ffffffffffffffffffffffffffffffffffffffff021916908373ffffffffffffffffffffffffffffffffffffffff1602179055506080820151816004015560a0820151816005015560c0820151816006015560e08201518160070160006101000a81548160ff0219169083151502179055506101008201518160080155610120820151816009015561014082015181600a015561016082015181600b0160006101000a81548160ff02191690836007811115613509577f4e487b7100000000000000000000000000000000000000000000000000000000600052602160045260246000fd5b021790555061018082015181600c01908051906020019061352b92919061384a565b506101a082015181600d01908051906020019061354992919061384a565b5050507fd6397dd6a2e8745ce4a3dc4e388e34f3703ed9e2f64251476012524d70d73e8b8160405161357b919061487d565b60405180910390a160008054906101000a900473ffffffffffffffffffffffffffffffffffffffff1673ffffffffffffffffffffffffffffffffffffffff1663a9059cbb600260009054906101000a900473ffffffffffffffffffffffffffffffffffffffff16866040518363ffffffff1660e01b8152600401613600929190614674565b602060405180830381600087803b15801561361a57600080fd5b505af115801561362e573d6000803e3d6000fd5b505050506040513d601f19601f820116820180604052508101906136529190613ab9565b50600060038a8154811061368f577f4e487b7100000000000000000000000000000000000000000000000000000000600052603260045260246000fd5b906000526020600020906007020160050160006101000a81548160ff021916908315150217905550505050505050505050565b600080620151809050828411156136d857600080fd5b8084846136e59190614b95565b6136ef9190614b0a565b91505092915050565b600080600090506000806107b2905060006301e13380905060006301e28500905081876137259190614b0a565b8361ffff166137349190614ab4565b61ffff1695506137478361ffff1661169c565b6137508761169c565b61375a9190614b95565b935083816137689190614b3b565b856137739190614ab4565b9450838361ffff16876137869190614b95565b6137909190614b95565b8261379b9190614b3b565b856137a69190614ab4565b94505b86851115613801576137c66001876137c19190614b95565b6113df565b156137de5780856137d79190614b95565b94506137ed565b81856137ea9190614b95565b94505b6001866137fa9190614b95565b95506137a9565b5050505050919050565b6040518060e001604052806000815260200160608152602001606081526020016060815260200160008152602001600015158152602001600081525090565b82805461385690614d16565b90600052602060002090601f01602090048101928261387857600085556138bf565b82601f1061389157805160ff19168380011785556138bf565b828001600101855582156138bf579182015b828111156138be5782518255916020019190600101906138a3565b5b5090506138cc919061398f565b5090565b604051806101c00160405280600081526020016000815260200160608152602001600073ffffffffffffffffffffffffffffffffffffffff1681526020016000815260200160008152602001600081526020016000151581526020016000815260200160008152602001600081526020016000600781111561397b577f4e487b7100000000000000000000000000000000000000000000000000000000600052602160045260246000fd5b815260200160608152602001606081525090565b5b808211156139a8576000816000905550600101613990565b5090565b60006139bf6139ba846149c4565b61499f565b9050828152602081018484840111156139d757600080fd5b6139e2848285614cd4565b509392505050565b6000813590506139f981615109565b92915050565b600081359050613a0e81615120565b92915050565b600081519050613a2381615120565b92915050565b600082601f830112613a3a57600080fd5b8135613a4a8482602086016139ac565b91505092915050565b600081359050613a6281615137565b92915050565b600081359050613a778161514e565b92915050565b60008060408385031215613a9057600080fd5b6000613a9e858286016139ea565b9250506020613aaf85828601613a68565b9150509250929050565b600060208284031215613acb57600080fd5b6000613ad984828501613a14565b91505092915050565b600060208284031215613af457600080fd5b6000613b0284828501613a53565b91505092915050565b600060208284031215613b1d57600080fd5b6000613b2b84828501613a68565b91505092915050565b600080600080600080600080610100898b031215613b5157600080fd5b6000613b5f8b828c01613a68565b985050602089013567ffffffffffffffff811115613b7c57600080fd5b613b888b828c01613a29565b975050604089013567ffffffffffffffff811115613ba557600080fd5b613bb18b828c01613a29565b965050606089013567ffffffffffffffff811115613bce57600080fd5b613bda8b828c01613a29565b9550506080613beb8b828c01613a68565b94505060a0613bfc8b828c016139ff565b93505060c0613c0d8b828c01613a68565b92505060e0613c1e8b828c016139ea565b9150509295985092959890939650565b60008060008060008060c08789031215613c4757600080fd5b6000613c5589828a01613a68565b965050602087013567ffffffffffffffff811115613c7257600080fd5b613c7e89828a01613a29565b955050604087013567ffffffffffffffff811115613c9b57600080fd5b613ca789828a01613a29565b945050606087013567ffffffffffffffff811115613cc457600080fd5b613cd089828a01613a29565b9350506080613ce189828a01613a68565b92505060a0613cf289828a01613a68565b9150509295509295509295565b60008060008060008060c08789031215613d1857600080fd5b6000613d2689828a01613a68565b965050602087013567ffffffffffffffff811115613d4357600080fd5b613d4f89828a01613a29565b9550506040613d6089828a01613a68565b9450506060613d7189828a01613a68565b9350506080613d8289828a01613a68565b92505060a0613d9389828a01613a68565b9150509295509295509295565b60008060408385031215613db357600080fd5b6000613dc185828601613a68565b9250506020613dd285828601613a68565b9150509250929050565b60008060008060808587031215613df257600080fd5b6000613e0087828801613a68565b9450506020613e1187828801613a68565b9350506040613e2287828801613a68565b9250506060613e33878288016139ea565b91505092959194509250565b600080600080600060a08688031215613e5757600080fd5b6000613e6588828901613a68565b9550506020613e7688828901613a68565b9450506040613e8788828901613a68565b9350506060613e9888828901613a68565b9250506080613ea988828901613a68565b9150509295509295909350565b6000613ec28383614258565b905092915050565b6000613ed683836143ac565b905092915050565b613ee781614c44565b82525050565b613ef681614bdb565b82525050565b613f0581614bc9565b82525050565b613f1481614bc9565b82525050565b6000613f2582614a2a565b613f2f8185614a65565b935083602082028501613f41856149f5565b8060005b85811015613f7d5784840389528151613f5e8582613eb6565b9450613f6983614a4b565b925060208a01995050600181019050613f45565b50829750879550505050505092915050565b6000613f9a82614a35565b613fa48185614a76565b935083602082028501613fb685614a05565b8060005b85811015613ff25784840389528151613fd38582613eca565b9450613fde83614a58565b925060208a01995050600181019050613fba565b50829750879550505050505092915050565b61400d81614bed565b82525050565b61401c81614bed565b82525050565b6000815461402f81614d16565b6140398186614a87565b94506001821660008114614054576001811461406557614098565b60ff19831686528186019350614098565b61406e85614a15565b60005b8381101561409057815481890152600182019150602081019050614071565b838801955050505b50505092915050565b6140aa81614c56565b82525050565b6140b981614c7a565b82525050565b6140c881614c9e565b82525050565b60006140d982614a40565b6140e38185614a92565b93506140f3818560208601614ce3565b6140fc81614ede565b840191505092915050565b600061411282614a40565b61411c8185614aa3565b935061412c818560208601614ce3565b61413581614ede565b840191505092915050565b600061414d601983614aa3565b915061415882614eef565b602082019050919050565b6000614170602283614aa3565b915061417b82614f18565b604082019050919050565b6000614193602383614aa3565b915061419e82614f67565b604082019050919050565b60006141b6601a83614aa3565b91506141c182614fb6565b602082019050919050565b60006141d9602283614aa3565b91506141e482614fdf565b604082019050919050565b60006141fc601783614aa3565b91506142078261502e565b602082019050919050565b600061421f604883614aa3565b915061422a82615057565b606082019050919050565b6000614242602083614aa3565b915061424d826150cc565b602082019050919050565b600060e0830160008301516142706000860182614624565b506020830151848203602086015261428882826140ce565b915050604083015184820360408601526142a282826140ce565b915050606083015184820360608601526142bc82826140ce565b91505060808301516142d16080860182614624565b5060a08301516142e460a0860182614004565b5060c08301516142f760c0860182614624565b508091505092915050565b600060e08301600083015161431a6000860182614624565b506020830151848203602086015261433282826140ce565b9150506040830151848203604086015261434c82826140ce565b9150506060830151848203606086015261436682826140ce565b915050608083015161437b6080860182614624565b5060a083015161438e60a0860182614004565b5060c08301516143a160c0860182614624565b508091505092915050565b60006101c0830160008301516143c56000860182614624565b5060208301516143d86020860182614624565b50604083015184820360408601526143f082826140ce565b91505060608301516144056060860182613efc565b5060808301516144186080860182614624565b5060a083015161442b60a0860182614624565b5060c083015161443e60c0860182614624565b5060e083015161445160e0860182614004565b50610100830151614466610100860182614624565b5061012083015161447b610120860182614624565b50610140830151614490610140860182614624565b506101608301516144a56101608601826140bf565b506101808301518482036101808601526144bf82826140ce565b9150506101a08301518482036101a08601526144db82826140ce565b9150508091505092915050565b60006101c0830160008301516145016000860182614624565b5060208301516145146020860182614624565b506040830151848203604086015261452c82826140ce565b91505060608301516145416060860182613efc565b5060808301516145546080860182614624565b5060a083015161456760a0860182614624565b5060c083015161457a60c0860182614624565b5060e083015161458d60e0860182614004565b506101008301516145a2610100860182614624565b506101208301516145b7610120860182614624565b506101408301516145cc610140860182614624565b506101608301516145e16101608601826140bf565b506101808301518482036101808601526145fb82826140ce565b9150506101a08301518482036101a086015261461782826140ce565b9150508091505092915050565b61462d81614c3a565b82525050565b61463c81614c3a565b82525050565b600061464e8284614022565b915081905092915050565b600060208201905061466e6000830184613eed565b92915050565b60006040820190506146896000830185613ede565b6146966020830184614633565b9392505050565b60006040820190506146b26000830185613f0b565b6146bf6020830184614633565b9392505050565b600060208201905081810360008301526146e08184613f1a565b905092915050565b600060208201905081810360008301526147028184613f8f565b905092915050565b600060208201905061471f6000830184614013565b92915050565b600060208201905061473a60008301846140a1565b92915050565b600060208201905061475560008301846140b0565b92915050565b6000602082019050818103600083015261477481614140565b9050919050565b6000602082019050818103600083015261479481614163565b9050919050565b600060208201905081810360008301526147b481614186565b9050919050565b600060208201905081810360008301526147d4816141a9565b9050919050565b600060208201905081810360008301526147f4816141cc565b9050919050565b60006020820190508181036000830152614814816141ef565b9050919050565b6000602082019050818103600083015261483481614212565b9050919050565b6000602082019050818103600083015261485481614235565b9050919050565b600060208201905081810360008301526148758184614302565b905092915050565b6000602082019050818103600083015261489781846144e8565b905092915050565b60006020820190506148b46000830184614633565b92915050565b600060e0820190506148cf600083018a614633565b81810360208301526148e18189614107565b905081810360408301526148f58188614107565b905081810360608301526149098187614107565b90506149186080830186614633565b61492560a0830185614013565b61493260c0830184614633565b98975050505050505050565b600060a0820190506149536000830188614633565b81810360208301526149658187614107565b905081810360408301526149798186614107565b90506149886060830185614633565b6149956080830184613f0b565b9695505050505050565b60006149a96149ba565b90506149b58282614d48565b919050565b6000604051905090565b600067ffffffffffffffff8211156149df576149de614eaf565b5b6149e882614ede565b9050602081019050919050565b6000819050602082019050919050565b6000819050602082019050919050565b60008190508160005260206000209050919050565b600081519050919050565b600081519050919050565b600081519050919050565b6000602082019050919050565b6000602082019050919050565b600082825260208201905092915050565b600082825260208201905092915050565b600081905092915050565b600082825260208201905092915050565b600082825260208201905092915050565b6000614abf82614c3a565b9150614aca83614c3a565b9250827fffffffffffffffffffffffffffffffffffffffffffffffffffffffffffffffff03821115614aff57614afe614df3565b5b828201905092915050565b6000614b1582614c3a565b9150614b2083614c3a565b925082614b3057614b2f614e22565b5b828204905092915050565b6000614b4682614c3a565b9150614b5183614c3a565b9250817fffffffffffffffffffffffffffffffffffffffffffffffffffffffffffffffff0483118215151615614b8a57614b89614df3565b5b828202905092915050565b6000614ba082614c3a565b9150614bab83614c3a565b925082821015614bbe57614bbd614df3565b5b828203905092915050565b6000614bd482614c1a565b9050919050565b6000614be682614c1a565b9050919050565b60008115159050919050565b6000819050614c07826150f5565b919050565b600061ffff82169050919050565b600073ffffffffffffffffffffffffffffffffffffffff82169050919050565b6000819050919050565b6000614c4f82614cb0565b9050919050565b6000614c6182614c68565b9050919050565b6000614c7382614c1a565b9050919050565b6000614c8582614c8c565b9050919050565b6000614c9782614c1a565b9050919050565b6000614ca982614bf9565b9050919050565b6000614cbb82614cc2565b9050919050565b6000614ccd82614c1a565b9050919050565b82818337600083830152505050565b60005b83811015614d01578082015181840152602081019050614ce6565b83811115614d10576000848401525b50505050565b60006002820490506001821680614d2e57607f821691505b60208210811415614d4257614d41614e80565b5b50919050565b614d5182614ede565b810181811067ffffffffffffffff82111715614d7057614d6f614eaf565b5b80604052505050565b6000614d8482614c3a565b91507fffffffffffffffffffffffffffffffffffffffffffffffffffffffffffffffff821415614db757614db6614df3565b5b600182019050919050565b6000614dcd82614c0c565b9150614dd883614c0c565b925082614de857614de7614e22565b5b828206905092915050565b7f4e487b7100000000000000000000000000000000000000000000000000000000600052601160045260246000fd5b7f4e487b7100000000000000000000000000000000000000000000000000000000600052601260045260246000fd5b7f4e487b7100000000000000000000000000000000000000000000000000000000600052602160045260246000fd5b7f4e487b7100000000000000000000000000000000000000000000000000000000600052602260045260246000fd5b7f4e487b7100000000000000000000000000000000000000000000000000000000600052604160045260246000fd5b6000601f19601f8301169050919050565b7f436865636b20796f7572206d6f6e746820656e74657265642100000000000000600082015250565b7f4475706c69636174656420636172206c6963656e73652076696e206e756d626560008201527f7221000000000000000000000000000000000000000000000000000000000000602082015250565b7f54686973206361722068617320616c7265616479206265656e2072657475726e60008201527f65642e0000000000000000000000000000000000000000000000000000000000602082015250565b7f4475706c696361746564206361722076696e206e756d62657221000000000000600082015250565b7f55736572206469646e2774206170706c792072657475726e207468697320636160008201527f722e000000000000000000000000000000000000000000000000000000000000602082015250565b7f436865636b20796f75722064617920656e746572656421000000000000000000600082015250565b7f59656172206f662072657475726e2073686f756c64206265207468652063757260008201527f72656e742079656172206e6f772077686963682074686520636172206973207260208201527f657475726e65642e000000000000000000000000000000000000000000000000604082015250565b7f4974206d7573742062652041424320636f6d70616e7927732061646472657373600082015250565b6008811061510657615105614e51565b5b50565b61511281614bc9565b811461511d57600080fd5b50565b61512981614bed565b811461513457600080fd5b50565b61514081614c0c565b811461514b57600080fd5b50565b61515781614c3a565b811461516257600080fd5b5056fea26469706673582212203853ee2533c73e32e01b5ee7427bda06ccabbd76f9d85174bfb004234e3394ea64736f6c63430008010033",
  "immutableReferences": {},
  "source": "// SPDX-License-Identifier: GPL-3.0-or-later\r\npragma solidity >=0.7.0 <0.9.0;\r\n\r\nimport \"./MicroToken.sol\";\r\nimport \"./UserIdentity.sol\";\r\n// import \"truffle/Console.sol\";\r\n\r\ncontract CarRental{\r\n\r\n    enum RentState{\r\n        REQUESTED,\r\n        COMPANY_APPROVED, \r\n        COMPANY_REJECTED, \r\n        DEPOSIT_RETURNED,\r\n        RENTER_SIGNED, \r\n        CLOSE,\r\n        WAITING_TO_PAY,\r\n        ACCOUNT_LOCKED\r\n    }\r\n    //(op)Dodo can buy insurance for the rental. She can buy while signing a contract with the company. The company will represent the Insurance Co.\r\n    //(op)Dodo needs to transfer insurance fees to the company. \r\n    //(op)The company transfers part of the insurance fee to the Insurance Co. when rental begins and transfers the left part after the contract is over.\r\n    //Above need extra RentState\r\n\r\n    enum RegisterState{\r\n        REQUESTED,\r\n        COMPANY_APPROVED, \r\n        COMPANY_REJECTED\r\n    }\r\n\r\n    //Do we need RENTER_SIGNED really need???\r\n\r\n    // Designing a structure to store the information of ABC Rental company's car fleet \r\n    struct carInfo {\r\n        uint carId; //Incremental generation \r\n        string carBrand; // Car brand \r\n        string carDescription; // Description about car\r\n        string carVin; // Car vehicle identification number \r\n        uint carSeat; // \r\n        bool carAvailable; // Available: true ; Not Available: false\r\n        uint carPrice; // Car rental price per day\r\n    }\r\n\r\n    // Designing a structure to store the information of renter\r\n    struct renterInfo {\r\n        uint userId;\r\n        string socialId; // Renter social id\r\n        string userName; // Renter name\r\n        uint userAge; // Renter age\r\n        address walletAddress; // Wallet address of customer\r\n    }\r\n\r\n    // Designing a structure to store the car renting history \r\n    struct rentalRecord {\r\n        uint renterRecordId;\r\n        uint carId; // Car id\r\n        string renterId; // Renter identity\r\n        address walletAddress; // Wallet address of customer\r\n        uint startDate;  // Start date\r\n        uint endDate;   // End date\r\n        uint duration;  // Num of days\r\n        bool carReturned; // Car return status \r\n        uint extraFee; // Extra fee\r\n        uint deposit; // deposit\r\n        uint lateFee; //late Fee\r\n        RentState state;\r\n        string carVin; // Car rental price per day\r\n        string carBrand; // Car rental price per day\r\n    }\r\n\r\n    event carRentalRequest (rentalRecord);\r\n\r\n    event addCarInfoRequest(\r\n        uint carId, \r\n        string carBrand,\r\n        string carDescription,\r\n        string carVin, \r\n        uint carSeat, \r\n        bool carAvailable,\r\n        uint carPrice\r\n    );\r\n\r\n    // do we need car available date\r\n\r\n    MicroToken public tokenSC; // \r\n    // add user identity management\r\n    UserIdentity public identitySC;\r\n    address payable public companyAddress; // the address of the ABC company's account\r\n    carInfo[] private cars;\r\n    rentalRecord[] private records; // to store the rental records\r\n    uint public carCount = 0; // count the number of the cars added\r\n\r\n    mapping(uint => renterInfo) public renters; // to store the information of each rente\r\n\r\n    constructor (address _userIdentityAddress, address _microTokenAddress) payable{\r\n            companyAddress = payable(msg.sender);\r\n            tokenSC = MicroToken(_microTokenAddress);\r\n            identitySC = UserIdentity(_userIdentityAddress);\r\n    }\r\n\r\n    // Modifiers  \r\n    modifier isABCCompany()\r\n    {\r\n        require(msg.sender == companyAddress, \"It must be ABC company's address\");\r\n        _;\r\n    }\r\n\r\n    //if car available,user car id or car vin?\r\n    modifier isAvailableCar(uint _carId) \r\n    {\r\n        bool isAvailable = false;\r\n        if (_carId <= cars.length) {\r\n            isAvailable = true;\r\n        }\r\n        require(isAvailable);\r\n        _;\r\n    }\r\n\r\n    // A modifier that uses for the function which can only be called by Borrower.\r\n    modifier onlyRegisteredCustomerCanCall {\r\n        // Now only borrower can request rent\r\n        require(identitySC.verifyIsBorrower(msg.sender), \"Bank Borrower Only\");\r\n       _;\r\n   }\r\n\r\n    //Do we need modifier to verify renter's address???\r\n\r\n    //add user just need add rentRequest or still need \r\n\r\n    function addCarInfo(uint _CarId, string memory _carBrand, string memory _carDescription, string memory _carVin, uint _carSeat, bool _carAvailable, uint _carPrice, address contractAddress) public payable isABCCompany\r\n    {\r\n        // isABCCompany\r\n        bool carVinUnique = true;\r\n        carInfo memory car = carInfo(_CarId, _carBrand, _carDescription, _carVin, _carSeat, _carAvailable, _carPrice);\r\n        for (uint i = 0; i < cars.length; i++) {\r\n            if (keccak256(bytes(cars[i].carVin)) == keccak256(bytes(_carVin))) {\r\n                carVinUnique = false;\r\n                break; \r\n            }\r\n        }\r\n\r\n        require(carVinUnique == true, \"Duplicated car license vin number!\");\r\n        tokenSC.transfer(contractAddress, _carPrice / 100);\r\n        cars.push(car);\r\n        emit addCarInfoRequest(car.carId, car.carBrand, car.carDescription, car.carVin, car.carSeat, car.carAvailable, car.carPrice);\r\n\r\n    }\r\n\r\n    function editCarInfo(uint _carId, string memory _carBrand, string memory _carDescription, string memory _carVin, uint _carSeat, uint _carPrice) payable public isABCCompany{\r\n        //isABCCompany()\r\n        //carVin can not change->vin unique check do in server\r\n        bool carVinRepeat = false;\r\n        cars[_carId].carBrand = _carBrand;\r\n        cars[_carId].carDescription = _carDescription;\r\n        cars[_carId].carSeat = _carSeat;\r\n        cars[_carId].carPrice = _carPrice;\r\n        for (uint i = 0; i < cars.length; i++) {\r\n            if (keccak256(bytes(cars[i].carVin)) == keccak256(bytes(_carVin))) {\r\n                carVinRepeat = true;\r\n                break;\r\n            }\r\n        }\r\n        require(carVinRepeat == false, \"Duplicated car vin number!\");\r\n        cars[_carId].carVin = _carVin;\r\n    }\r\n\r\n    function deleteCarInfo(uint _carId) public payable isABCCompany {\r\n        //In case id issue, so just change the car status\r\n        cars[_carId].carAvailable = false;\r\n    }\r\n\r\n    function applyCar(uint _carId, string memory _renterId, uint _startDate, uint _endDate, uint _duration, uint _deposit) payable public isAvailableCar(_carId) {\r\n        //onlyRegisteredCustomerCanCall\r\n        //uint deposit = calculateDeposit(_duration, _carId);\r\n\r\n        rentalRecord memory record = rentalRecord(records.length, _carId, _renterId, msg.sender, _startDate, _endDate, _duration, false, 0, _deposit, 0, RentState.REQUESTED, cars[_carId].carVin, cars[_carId].carBrand);\r\n        records.push(record);\r\n\r\n        emit carRentalRequest(record);\r\n\r\n        // companyAddress.transfer(deposit);\r\n        tokenSC.transfer(companyAddress, _deposit); //after this step user receive car?\r\n        cars[_carId].carAvailable = false;\r\n\r\n    }\r\n\r\n    function calculateDeposit(uint _duration, uint _carId) public view returns (uint deposit) {\r\n        //should use 10/100 rather than 0.1\r\n        // return cars[_carId].carPrice * _duration * 10 / 100;\r\n        return cars[_carId].carPrice * _duration;\r\n    }\r\n\r\n    function approveRent(uint _renterRecordId, uint _carId) public isABCCompany() isAvailableCar(_carId) {\r\n\r\n        for (uint i = 0; i < records.length; i++) {\r\n            if (records[i].renterRecordId == _renterRecordId) {\r\n                records[i].state = RentState.COMPANY_APPROVED;\r\n                break;\r\n            }\r\n        }\r\n\r\n        cars[_carId - 1].carAvailable = false;\r\n    }\r\n\r\n    function rejectRent(uint _renterRecordId, uint _carId) public isABCCompany() isAvailableCar(_carId) {\r\n\r\n        for (uint i = 0; i < records.length; i++) {\r\n            if (records[i].renterRecordId == _renterRecordId) {\r\n                records[i].state = RentState.COMPANY_REJECTED;\r\n                break;\r\n            }\r\n        }\r\n\r\n    }\r\n\r\n    function returnDeposit(uint _renterRecordId) payable public isABCCompany() {\r\n\r\n        address payable renterAddress = payable(records[_renterRecordId].walletAddress);\r\n\r\n        renterAddress.transfer(records[_renterRecordId].deposit);\r\n        //tokenSC.transferFrom(companyAddress, records[_renterRecordId].walletAddress, records[_renterRecordId].deposit);\r\n        records[_renterRecordId].state = RentState.DEPOSIT_RETURNED;\r\n\r\n    }\r\n\r\n    function applyReturnCar(uint _renterRecordId) public {\r\n        records[_renterRecordId].state = RentState.WAITING_TO_PAY;\r\n    }\r\n\r\n    function confirmReturn(uint _renterRecordId, uint _extraFee, uint _returnYear, uint _returnMonth, uint _returnDay) payable public isABCCompany {\r\n        //isABCCompany() \r\n\r\n        require(records[_renterRecordId].carReturned == false, \"This car has already been returned.\");\r\n\r\n        // Check date is entered correctly\r\n        require(_returnDay <= 31 && _returnDay >= 1, \"Check your day entered!\");\r\n        require(_returnMonth <= 12 && _returnMonth >= 1, \"Check your month entered!\");\r\n        require(_returnYear == getYear(block.timestamp), \"Year of return should be the current year now which the car is returned.\");\r\n\r\n        // Update the return date in records\r\n        records[_renterRecordId].endDate = _returnDay;\r\n\r\n        // Check if the car is returned late by calculating the days difference \r\n        //between startDate and endDate, and compare with numOfDays that user intended to rent.\r\n        uint totalRentedDays = differentDays(records[_renterRecordId].startDate, _returnDay);\r\n\r\n        uint price = cars[records[_renterRecordId].carId].carPrice;\r\n\r\n        if (totalRentedDays > records[_renterRecordId].duration) {\r\n            records[_renterRecordId].lateFee = price * (totalRentedDays - records[_renterRecordId].duration); //charge rent * number of days late\r\n        }\r\n\r\n        records[_renterRecordId].extraFee = _extraFee;\r\n\r\n        records[_renterRecordId].state = RentState.WAITING_TO_PAY;\r\n\r\n    }\r\n\r\n    function confirmReturnExtra(uint _renterRecordId, uint _carId, uint _damageFee, address _userAddress) payable public isABCCompany{\r\n        require(records[_renterRecordId].state == RentState.WAITING_TO_PAY, \"User didn't apply return this car.\");\r\n        \r\n        tokenSC.transfer(_userAddress, _damageFee);\r\n        cars[_carId].carAvailable = true;\r\n        records[_renterRecordId].state = RentState.CLOSE;\r\n\r\n    }\r\n\r\n\r\n    function payFee(uint _renterRecordId) public {\r\n        uint totalRentedDays = differentDays(records[_renterRecordId].startDate,records[_renterRecordId].endDate);\r\n        uint price = cars[records[_renterRecordId].carId].carPrice;\r\n        uint feeWaitingPay = totalRentedDays * price * 9 / 10 + records[_renterRecordId].extraFee;\r\n        \r\n        //companyAddress.transfer(feeWaitingPay);\r\n        tokenSC.transfer(companyAddress, feeWaitingPay);\r\n        records[_renterRecordId].carReturned = true;\r\n\r\n        records[_renterRecordId].state = RentState.CLOSE;\r\n\r\n    }\r\n\r\n    function differentDays(uint fromTimestamp, uint toTimestamp) internal pure returns (uint _days) {\r\n        uint SECONDS_PER_DAY = 24 * 60 * 60;\r\n        require(fromTimestamp <= toTimestamp);\r\n        _days = (toTimestamp - fromTimestamp) / SECONDS_PER_DAY;\r\n    }\r\n\r\n    function getYear(uint timestamp) internal pure returns (uint year) {\r\n        uint secondsAccounted = 0;\r\n        uint numLeapYears;\r\n        uint16 ORIGIN_YEAR = 1970;\r\n        uint YEAR_IN_SECONDS = 31536000;\r\n        uint LEAP_YEAR_IN_SECONDS = 31622400;\r\n \r\n        // Year\r\n        year = uint16(ORIGIN_YEAR + timestamp / YEAR_IN_SECONDS);\r\n        numLeapYears = leapYearsBefore(year) - leapYearsBefore(ORIGIN_YEAR);\r\n \r\n        secondsAccounted += LEAP_YEAR_IN_SECONDS * numLeapYears;\r\n        secondsAccounted += YEAR_IN_SECONDS * (year - ORIGIN_YEAR - numLeapYears);\r\n \r\n        while (secondsAccounted > timestamp) {\r\n            if (isLeapYear(uint16(year - 1))) {\r\n                secondsAccounted -= LEAP_YEAR_IN_SECONDS;\r\n            }\r\n            else {\r\n                secondsAccounted -= YEAR_IN_SECONDS;\r\n            }\r\n            year -= 1;\r\n        }\r\n        return year;\r\n    }\r\n\r\n        //To calculate the leap year before the input year\r\n    function leapYearsBefore(uint year) public pure returns (uint) {\r\n        year -= 1;\r\n        return year / 4 - year / 100 + year / 400;\r\n    }\r\n\r\n    //To check if the year inputed is a leapyear\r\n    function isLeapYear(uint16 year) public pure returns (bool) {\r\n        if (year % 4 != 0) {\r\n            return false;\r\n        }\r\n        if (year % 100 != 0) {\r\n            return true;\r\n        }\r\n        if (year % 400 != 0) {\r\n            return false;\r\n        }\r\n        return true;\r\n    }\r\n\r\n    function carTransfer(address _walletAddress, uint _amount) public payable returns (bool){\r\n        tokenSC.transfer(_walletAddress , _amount);\r\n\r\n        return true;\r\n    }\r\n\r\n    function parseAddr(string memory _a) internal pure returns (address _parsedAddress) {\r\n        bytes memory tmp = bytes(_a);\r\n        uint160 iaddr = 0;\r\n        uint160 b1;\r\n        uint160 b2;\r\n        for (uint i = 2; i < 2 + 2 * 20; i += 2) {\r\n            iaddr *= 256;\r\n            b1 = uint160(uint8(tmp[i]));\r\n            b2 = uint160(uint8(tmp[i + 1]));\r\n            if ((b1 >= 97) && (b1 <= 102)) {\r\n                b1 -= 87;\r\n            } else if ((b1 >= 65) && (b1 <= 70)) {\r\n                b1 -= 55;\r\n            } else if ((b1 >= 48) && (b1 <= 57)) {\r\n                b1 -= 48;\r\n            }\r\n            if ((b2 >= 97) && (b2 <= 102)) {\r\n                b2 -= 87;\r\n            } else if ((b2 >= 65) && (b2 <= 70)) {\r\n                b2 -= 55;\r\n            } else if ((b2 >= 48) && (b2 <= 57)) {\r\n                b2 -= 48;\r\n            }\r\n            iaddr += (b1 * 16 + b2);\r\n        }\r\n        return address(iaddr);\r\n}\r\n\r\n    function getAllCars() public view returns (carInfo[] memory) {\r\n        return cars;\r\n    }\r\n\r\n    function getCarById(uint _carId) public view returns (carInfo memory) {\r\n        //pay attentation the carid relationship with index and id\r\n        return cars[_carId];\r\n    }\r\n\r\n    function getAllReconds() public view returns (rentalRecord[] memory) {\r\n        return records;\r\n    }\r\n\r\n    function getRecordById(uint _recordId) public view returns (rentalRecord memory) {\r\n        return records[_recordId];\r\n    }\r\n\r\n    function removeRecords(uint _renterRecordId) public isABCCompany\r\n    {\r\n        for (uint i = 0; i < records.length; i++) {\r\n            if (records[i].renterRecordId == _renterRecordId) {\r\n                records[i].state = RentState.CLOSE;\r\n                break;\r\n            }\r\n        }\r\n    }\r\n\r\n    \r\n    \r\n}",
  "sourcePath": "/Users/huangzhongkai/Desktop/ntu msis/Semester 2/Blockchain System Software Engineering/Topic 6 Decentrailized App/Group Project/Final/bc_project/blockchain/contracts/CarRental.sol",
  "compiler": {
    "name": "solc",
    "version": "0.8.1+commit.df193b15.Emscripten.clang"
  },
  "schemaVersion": "3.4.3",
  "updatedAt": "2022-04-12T06:28:27.142Z",
  "networkType": "ethereum",
  "devdoc": {
    "kind": "dev",
    "methods": {},
    "version": 1
  },
  "userdoc": {
    "kind": "user",
    "methods": {},
    "version": 1
  }
}