{
  "contractName": "CarRentalSmartContract",
  "abi": [
    {
      "inputs": [
        {
          "internalType": "address",
          "name": "microTokenContractAddress",
          "type": "address"
        },
        {
          "internalType": "address",
          "name": "userIdentityContractAddress",
          "type": "address"
        }
      ],
      "stateMutability": "nonpayable",
      "type": "constructor"
    },
    {
      "inputs": [],
      "name": "ABCAddress",
      "outputs": [
        {
          "internalType": "address",
          "name": "",
          "type": "address"
        }
      ],
      "stateMutability": "view",
      "type": "function"
    },
    {
      "inputs": [
        {
          "internalType": "uint256",
          "name": "",
          "type": "uint256"
        }
      ],
      "name": "allABCAuditDepositRecord",
      "outputs": [
        {
          "internalType": "uint256",
          "name": "auditRecordId",
          "type": "uint256"
        },
        {
          "internalType": "uint256",
          "name": "returnRecordId",
          "type": "uint256"
        },
        {
          "internalType": "address",
          "name": "customerAddress",
          "type": "address"
        },
        {
          "internalType": "uint256",
          "name": "damageFixFee",
          "type": "uint256"
        },
        {
          "internalType": "uint256",
          "name": "actualRefundAmount",
          "type": "uint256"
        }
      ],
      "stateMutability": "view",
      "type": "function"
    },
    {
      "inputs": [
        {
          "internalType": "uint256",
          "name": "",
          "type": "uint256"
        }
      ],
      "name": "allCustomerRentCarRecord",
      "outputs": [
        {
          "internalType": "uint256",
          "name": "rentRecordId",
          "type": "uint256"
        },
        {
          "internalType": "address",
          "name": "customerAddress",
          "type": "address"
        },
        {
          "internalType": "string",
          "name": "carName",
          "type": "string"
        },
        {
          "internalType": "uint256",
          "name": "rentDays",
          "type": "uint256"
        },
        {
          "internalType": "uint256",
          "name": "totalMoneyDeposit",
          "type": "uint256"
        },
        {
          "internalType": "uint256",
          "name": "rentTimeStamp",
          "type": "uint256"
        },
        {
          "internalType": "int256",
          "name": "returnRecordId",
          "type": "int256"
        }
      ],
      "stateMutability": "view",
      "type": "function"
    },
    {
      "inputs": [
        {
          "internalType": "uint256",
          "name": "",
          "type": "uint256"
        }
      ],
      "name": "allCustomerReturnCarRecord",
      "outputs": [
        {
          "internalType": "uint256",
          "name": "returnRecordId",
          "type": "uint256"
        },
        {
          "internalType": "uint256",
          "name": "rentRecordId",
          "type": "uint256"
        },
        {
          "internalType": "address",
          "name": "customerAddress",
          "type": "address"
        },
        {
          "internalType": "string",
          "name": "carName",
          "type": "string"
        },
        {
          "internalType": "uint256",
          "name": "returnTimeStamp",
          "type": "uint256"
        },
        {
          "internalType": "uint256",
          "name": "rentFee",
          "type": "uint256"
        },
        {
          "internalType": "int256",
          "name": "auditRecordId",
          "type": "int256"
        }
      ],
      "stateMutability": "view",
      "type": "function"
    },
    {
      "inputs": [
        {
          "internalType": "string",
          "name": "",
          "type": "string"
        }
      ],
      "name": "carAvailability",
      "outputs": [
        {
          "internalType": "uint256",
          "name": "",
          "type": "uint256"
        }
      ],
      "stateMutability": "view",
      "type": "function"
    },
    {
      "inputs": [
        {
          "internalType": "string",
          "name": "",
          "type": "string"
        }
      ],
      "name": "carInfo",
      "outputs": [
        {
          "internalType": "string",
          "name": "name",
          "type": "string"
        },
        {
          "internalType": "uint256",
          "name": "needDeposit",
          "type": "uint256"
        },
        {
          "internalType": "uint256",
          "name": "dailyRent",
          "type": "uint256"
        }
      ],
      "stateMutability": "view",
      "type": "function"
    },
    {
      "inputs": [],
      "name": "currentAuditRecordId",
      "outputs": [
        {
          "internalType": "uint256",
          "name": "",
          "type": "uint256"
        }
      ],
      "stateMutability": "view",
      "type": "function"
    },
    {
      "inputs": [],
      "name": "currentRentRecordId",
      "outputs": [
        {
          "internalType": "uint256",
          "name": "",
          "type": "uint256"
        }
      ],
      "stateMutability": "view",
      "type": "function"
    },
    {
      "inputs": [],
      "name": "currentReturnRecordId",
      "outputs": [
        {
          "internalType": "uint256",
          "name": "",
          "type": "uint256"
        }
      ],
      "stateMutability": "view",
      "type": "function"
    },
    {
      "inputs": [
        {
          "internalType": "address",
          "name": "",
          "type": "address"
        },
        {
          "internalType": "string",
          "name": "",
          "type": "string"
        }
      ],
      "name": "customerRentingCarNumber",
      "outputs": [
        {
          "internalType": "uint256",
          "name": "",
          "type": "uint256"
        }
      ],
      "stateMutability": "view",
      "type": "function"
    },
    {
      "inputs": [],
      "name": "identitySC",
      "outputs": [
        {
          "internalType": "contract UserIdentity",
          "name": "",
          "type": "address"
        }
      ],
      "stateMutability": "view",
      "type": "function"
    },
    {
      "inputs": [],
      "name": "tokenSC",
      "outputs": [
        {
          "internalType": "contract MicroToken",
          "name": "",
          "type": "address"
        }
      ],
      "stateMutability": "view",
      "type": "function"
    },
    {
      "inputs": [
        {
          "internalType": "string",
          "name": "carName",
          "type": "string"
        },
        {
          "internalType": "uint256",
          "name": "carDailyRent",
          "type": "uint256"
        },
        {
          "internalType": "uint256",
          "name": "number",
          "type": "uint256"
        }
      ],
      "name": "ABCAddCar",
      "outputs": [
        {
          "internalType": "bool",
          "name": "",
          "type": "bool"
        }
      ],
      "stateMutability": "nonpayable",
      "type": "function"
    },
    {
      "inputs": [
        {
          "internalType": "string",
          "name": "carName",
          "type": "string"
        },
        {
          "internalType": "uint256",
          "name": "rentDays",
          "type": "uint256"
        }
      ],
      "name": "customerRentCar",
      "outputs": [
        {
          "components": [
            {
              "internalType": "uint256",
              "name": "rentRecordId",
              "type": "uint256"
            },
            {
              "internalType": "address",
              "name": "customerAddress",
              "type": "address"
            },
            {
              "internalType": "string",
              "name": "carName",
              "type": "string"
            },
            {
              "internalType": "uint256",
              "name": "rentDays",
              "type": "uint256"
            },
            {
              "internalType": "uint256",
              "name": "totalMoneyDeposit",
              "type": "uint256"
            },
            {
              "internalType": "uint256",
              "name": "rentTimeStamp",
              "type": "uint256"
            },
            {
              "internalType": "int256",
              "name": "returnRecordId",
              "type": "int256"
            }
          ],
          "internalType": "struct CarRentalSmartContract.customerRentCarRecord",
          "name": "",
          "type": "tuple"
        }
      ],
      "stateMutability": "payable",
      "type": "function"
    },
    {
      "inputs": [
        {
          "internalType": "uint256",
          "name": "rentRecordId",
          "type": "uint256"
        }
      ],
      "name": "customerReturnCar",
      "outputs": [
        {
          "components": [
            {
              "internalType": "uint256",
              "name": "returnRecordId",
              "type": "uint256"
            },
            {
              "internalType": "uint256",
              "name": "rentRecordId",
              "type": "uint256"
            },
            {
              "internalType": "address",
              "name": "customerAddress",
              "type": "address"
            },
            {
              "internalType": "string",
              "name": "carName",
              "type": "string"
            },
            {
              "internalType": "uint256",
              "name": "returnTimeStamp",
              "type": "uint256"
            },
            {
              "internalType": "uint256",
              "name": "rentFee",
              "type": "uint256"
            },
            {
              "internalType": "int256",
              "name": "auditRecordId",
              "type": "int256"
            }
          ],
          "internalType": "struct CarRentalSmartContract.customerReturnCarRecord",
          "name": "",
          "type": "tuple"
        }
      ],
      "stateMutability": "nonpayable",
      "type": "function"
    },
    {
      "inputs": [
        {
          "internalType": "uint256",
          "name": "returnRecordId",
          "type": "uint256"
        },
        {
          "internalType": "uint256",
          "name": "damageFixFeeHere",
          "type": "uint256"
        }
      ],
      "name": "ABCAuditDeposit",
      "outputs": [
        {
          "components": [
            {
              "internalType": "uint256",
              "name": "auditRecordId",
              "type": "uint256"
            },
            {
              "internalType": "uint256",
              "name": "returnRecordId",
              "type": "uint256"
            },
            {
              "internalType": "address",
              "name": "customerAddress",
              "type": "address"
            },
            {
              "internalType": "uint256",
              "name": "damageFixFee",
              "type": "uint256"
            },
            {
              "internalType": "uint256",
              "name": "actualRefundAmount",
              "type": "uint256"
            }
          ],
          "internalType": "struct CarRentalSmartContract.ABCAuditDepositRecord",
          "name": "",
          "type": "tuple"
        }
      ],
      "stateMutability": "payable",
      "type": "function"
    }
  ],
  "bytecode": "0x60806040526001600455600160065560016008553480156200002057600080fd5b5060405162002c0c38038062002c0c833981810160405281019062000046919062000127565b336000806101000a81548173ffffffffffffffffffffffffffffffffffffffff021916908373ffffffffffffffffffffffffffffffffffffffff16021790555081600a60006101000a81548173ffffffffffffffffffffffffffffffffffffffff021916908373ffffffffffffffffffffffffffffffffffffffff16021790555080600b60006101000a81548173ffffffffffffffffffffffffffffffffffffffff021916908373ffffffffffffffffffffffffffffffffffffffff1602179055505050620001b6565b60008151905062000121816200019c565b92915050565b600080604083850312156200013b57600080fd5b60006200014b8582860162000110565b92505060206200015e8582860162000110565b9150509250929050565b600062000175826200017c565b9050919050565b600073ffffffffffffffffffffffffffffffffffffffff82169050919050565b620001a78162000168565b8114620001b357600080fd5b50565b612a4680620001c66000396000f3fe6080604052600436106100f25760003560e01c80636b93e4091161008a578063b027a75911610059578063b027a75914610379578063c16849c0146103ba578063cb2acd80146103e5578063d05a044714610428576100f2565b80636b93e409146102b657806390720b32146102e657806394fa8235146103115780639532007a1461034e576100f2565b80633a8c0e6e116100c65780633a8c0e6e146101db5780633e7ab6a81461021e5780635177d6d21461024e578063586fa64d14610279576100f2565b80621e4c44146100f75780630958d944146101225780631049f50a1461015f57806338266fe51461019e575b600080fd5b34801561010357600080fd5b5061010c610453565b60405161011991906122e2565b60405180910390f35b34801561012e57600080fd5b5061014960048036038101906101449190611c06565b610459565b60405161015691906122c0565b60405180910390f35b34801561016b57600080fd5b5061018660048036038101906101819190611bc5565b6109fc565b60405161019593929190612145565b60405180910390f35b3480156101aa57600080fd5b506101c560048036038101906101c09190611a84565b610ac4565b6040516101d291906122e2565b60405180910390f35b3480156101e757600080fd5b5061020260048036038101906101fd9190611c06565b610aff565b6040516102159796959493929190612373565b60405180910390f35b61023860048036038101906102339190611c2f565b610be9565b6040516102459190612283565b60405180910390f35b34801561025a57600080fd5b50610263610fcc565b60405161027091906122e2565b60405180910390f35b34801561028557600080fd5b506102a0600480360381019061029b9190611bc5565b610fd2565b6040516102ad91906122e2565b60405180910390f35b6102d060048036038101906102cb9190611b01565b611000565b6040516102dd919061229e565b60405180910390f35b3480156102f257600080fd5b506102fb6114bc565b604051610308919061212a565b60405180910390f35b34801561031d57600080fd5b5061033860048036038101906103339190611b59565b6114e2565b60405161034591906120f4565b60405180910390f35b34801561035a57600080fd5b50610363611675565b60405161037091906122e2565b60405180910390f35b34801561038557600080fd5b506103a0600480360381019061039b9190611c06565b61167b565b6040516103b19594939291906123e9565b60405180910390f35b3480156103c657600080fd5b506103cf6116d1565b6040516103dc919061210f565b60405180910390f35b3480156103f157600080fd5b5061040c60048036038101906104079190611c06565b6116f7565b60405161041f97969594939291906122fd565b60405180910390f35b34801561043457600080fd5b5061043d6117e1565b60405161044a91906120a2565b60405180910390f35b60085481565b610461611805565b600b60009054906101000a900473ffffffffffffffffffffffffffffffffffffffff1673ffffffffffffffffffffffffffffffffffffffff1663e701c350336040518263ffffffff1660e01b81526004016104bc91906120a2565b60206040518083038186803b1580156104d457600080fd5b505afa1580156104e8573d6000803e3d6000fd5b505050506040513d601f19601f8201168201806040525081019061050c9190611ad8565b61054b576040517f08c379a0000000000000000000000000000000000000000000000000000000008152600401610542906121c3565b60405180910390fd5b600454821115801561055d5750600082115b61059c576040517f08c379a000000000000000000000000000000000000000000000000000000000815260040161059390612203565b60405180910390fd5b6005600083815260200190815260200160002060010160009054906101000a900473ffffffffffffffffffffffffffffffffffffffff1673ffffffffffffffffffffffffffffffffffffffff163373ffffffffffffffffffffffffffffffffffffffff1614610640576040517f08c379a000000000000000000000000000000000000000000000000000000000815260040161063790612263565b60405180910390fd5b7fffffffffffffffffffffffffffffffffffffffffffffffffffffffffffffffff6005600084815260200190815260200160002060060154146106b8576040517f08c379a00000000000000000000000000000000000000000000000000000000081526004016106af906121e3565b60405180910390fd5b60006005600084815260200190815260200160002060020180546106db906126bb565b80601f0160208091040260200160405190810160405280929190818152602001828054610707906126bb565b80156107545780601f1061072957610100808354040283529160200191610754565b820191906000526020600020905b81548152906001019060200180831161073757829003601f168201915b5050505050905060006005600085815260200190815260200160002060050154905060018060003373ffffffffffffffffffffffffffffffffffffffff1673ffffffffffffffffffffffffffffffffffffffff168152602001908152602001600020836040516107c4919061208b565b908152602001604051809103902060008282546107e191906125ab565b9250508190555060016003836040516107fa919061208b565b9081526020016040518091039020600082825461081791906124ca565b9250508190555060004290506000828261083191906125ab565b9050600060016018603c80856108479190612520565b6108519190612520565b61085b9190612520565b61086591906124ca565b90506000600286604051610879919061208b565b908152602001604051809103902060020154826108969190612551565b905060006040518060e0016040528060065481526020018a81526020013373ffffffffffffffffffffffffffffffffffffffff1681526020018881526020018681526020018381526020017fffffffffffffffffffffffffffffffffffffffffffffffffffffffffffffffff815250905080600760006006548152602001908152602001600020600082015181600001556020820151816001015560408201518160020160006101000a81548173ffffffffffffffffffffffffffffffffffffffff021916908373ffffffffffffffffffffffffffffffffffffffff1602179055506060820151816003019080519060200190610994929190611858565b506080820151816004015560a0820151816005015560c08201518160060155905050600654600560008b8152602001908152602001600020600601819055506001600660008282546109e691906124ca565b9250508190555080975050505050505050919050565b600281805160208101820180518482526020830160208501208183528095505050505050600091509050806000018054610a35906126bb565b80601f0160208091040260200160405190810160405280929190818152602001828054610a61906126bb565b8015610aae5780601f10610a8357610100808354040283529160200191610aae565b820191906000526020600020905b815481529060010190602001808311610a9157829003601f168201915b5050505050908060010154908060020154905083565b600160205281600052604060002081805160208101820180518482526020830160208501208183528095505050505050600091509150505481565b60076020528060005260406000206000915090508060000154908060010154908060020160009054906101000a900473ffffffffffffffffffffffffffffffffffffffff1690806003018054610b54906126bb565b80601f0160208091040260200160405190810160405280929190818152602001828054610b80906126bb565b8015610bcd5780601f10610ba257610100808354040283529160200191610bcd565b820191906000526020600020905b815481529060010190602001808311610bb057829003601f168201915b5050505050908060040154908060050154908060060154905087565b610bf16118de565b60008054906101000a900473ffffffffffffffffffffffffffffffffffffffff1673ffffffffffffffffffffffffffffffffffffffff163373ffffffffffffffffffffffffffffffffffffffff1614610c7f576040517f08c379a0000000000000000000000000000000000000000000000000000000008152600401610c7690612243565b60405180910390fd5b6006548311158015610c915750600083115b610cd0576040517f08c379a0000000000000000000000000000000000000000000000000000000008152600401610cc790612223565b60405180910390fd5b7fffffffffffffffffffffffffffffffffffffffffffffffffffffffffffffffff600760008581526020019081526020016000206006015414610d48576040517f08c379a0000000000000000000000000000000000000000000000000000000008152600401610d3f90612183565b60405180910390fd5b60006007600085815260200190815260200160002060020160009054906101000a900473ffffffffffffffffffffffffffffffffffffffff169050600060056000600760008881526020019081526020016000206001015481526020019081526020016000206004015490506000600760008781526020019081526020016000206005015490506000858284610dde91906125ab565b610de891906125ab565b9050600a60009054906101000a900473ffffffffffffffffffffffffffffffffffffffff1673ffffffffffffffffffffffffffffffffffffffff166323b872dd60008054906101000a900473ffffffffffffffffffffffffffffffffffffffff1686846040518463ffffffff1660e01b8152600401610e69939291906120bd565b602060405180830381600087803b158015610e8357600080fd5b505af1158015610e97573d6000803e3d6000fd5b505050506040513d601f19601f82011682018060405250810190610ebb9190611ad8565b5060006040518060a0016040528060085481526020018981526020018673ffffffffffffffffffffffffffffffffffffffff16815260200188815260200183815250905080600960006008548152602001908152602001600020600082015181600001556020820151816001015560408201518160020160006101000a81548173ffffffffffffffffffffffffffffffffffffffff021916908373ffffffffffffffffffffffffffffffffffffffff1602179055506060820151816003015560808201518160040155905050600854600760008a815260200190815260200160002060060181905550600160086000828254610fb791906124ca565b92505081905550809550505050505092915050565b60065481565b6003818051602081018201805184825260208301602085012081835280955050505050506000915090505481565b611008611923565b600b60009054906101000a900473ffffffffffffffffffffffffffffffffffffffff1673ffffffffffffffffffffffffffffffffffffffff1663e701c350336040518263ffffffff1660e01b815260040161106391906120a2565b60206040518083038186803b15801561107b57600080fd5b505afa15801561108f573d6000803e3d6000fd5b505050506040513d601f19601f820116820180604052508101906110b39190611ad8565b6110f2576040517f08c379a00000000000000000000000000000000000000000000000000000000081526004016110e9906121c3565b60405180910390fd5b600060038585604051611106929190612072565b90815260200160405180910390205411611155576040517f08c379a000000000000000000000000000000000000000000000000000000000815260040161114c906121a3565b60405180910390fd5b600060028585604051611169929190612072565b908152602001604051809103902060020154836111869190612551565b60028686604051611198929190612072565b9081526020016040518091039020600101546111b491906124ca565b905060018060003373ffffffffffffffffffffffffffffffffffffffff1673ffffffffffffffffffffffffffffffffffffffff1681526020019081526020016000208686604051611206929190612072565b9081526020016040518091039020600082825461122391906124ca565b9250508190555060016003868660405161123e929190612072565b9081526020016040518091039020600082825461125b91906125ab565b9250508190555060006040518060e0016040528060045481526020013373ffffffffffffffffffffffffffffffffffffffff16815260200187878080601f016020809104026020016040519081016040528093929190818152602001838380828437600081840152601f19601f8201169050808301925050505050505081526020018581526020018381526020014281526020017fffffffffffffffffffffffffffffffffffffffffffffffffffffffffffffffff8152509050806005600060045481526020019081526020016000206000820151816000015560208201518160010160006101000a81548173ffffffffffffffffffffffffffffffffffffffff021916908373ffffffffffffffffffffffffffffffffffffffff1602179055506040820151816002019080519060200190611398929190611858565b50606082015181600301556080820151816004015560a0820151816005015560c082015181600601559050506001600460008282546113d791906124ca565b92505081905550600a60009054906101000a900473ffffffffffffffffffffffffffffffffffffffff1673ffffffffffffffffffffffffffffffffffffffff166323b872dd3360008054906101000a900473ffffffffffffffffffffffffffffffffffffffff16856040518463ffffffff1660e01b815260040161145d939291906120bd565b602060405180830381600087803b15801561147757600080fd5b505af115801561148b573d6000803e3d6000fd5b505050506040513d601f19601f820116820180604052508101906114af9190611ad8565b5080925050509392505050565b600b60009054906101000a900473ffffffffffffffffffffffffffffffffffffffff1681565b60008060009054906101000a900473ffffffffffffffffffffffffffffffffffffffff1673ffffffffffffffffffffffffffffffffffffffff163373ffffffffffffffffffffffffffffffffffffffff1614611573576040517f08c379a000000000000000000000000000000000000000000000000000000000815260040161156a90612243565b60405180910390fd5b604051806060016040528086868080601f016020809104026020016040519081016040528093929190818152602001838380828437600081840152601f19601f820116905080830192505050505050508152602001605a856115d59190612551565b815260200184815250600286866040516115f0929190612072565b9081526020016040518091039020600082015181600001908051906020019061161a929190611858565b5060208201518160010155604082015181600201559050508160038686604051611645929190612072565b9081526020016040518091039020600082825461166291906124ca565b9250508190555060019050949350505050565b60045481565b60096020528060005260406000206000915090508060000154908060010154908060020160009054906101000a900473ffffffffffffffffffffffffffffffffffffffff16908060030154908060040154905085565b600a60009054906101000a900473ffffffffffffffffffffffffffffffffffffffff1681565b60056020528060005260406000206000915090508060000154908060010160009054906101000a900473ffffffffffffffffffffffffffffffffffffffff1690806002018054611746906126bb565b80601f0160208091040260200160405190810160405280929190818152602001828054611772906126bb565b80156117bf5780601f10611794576101008083540402835291602001916117bf565b820191906000526020600020905b8154815290600101906020018083116117a257829003601f168201915b5050505050908060030154908060040154908060050154908060060154905087565b60008054906101000a900473ffffffffffffffffffffffffffffffffffffffff1681565b6040518060e001604052806000815260200160008152602001600073ffffffffffffffffffffffffffffffffffffffff168152602001606081526020016000815260200160008152602001600081525090565b828054611864906126bb565b90600052602060002090601f01602090048101928261188657600085556118cd565b82601f1061189f57805160ff19168380011785556118cd565b828001600101855582156118cd579182015b828111156118cc5782518255916020019190600101906118b1565b5b5090506118da9190611976565b5090565b6040518060a001604052806000815260200160008152602001600073ffffffffffffffffffffffffffffffffffffffff16815260200160008152602001600081525090565b6040518060e0016040528060008152602001600073ffffffffffffffffffffffffffffffffffffffff16815260200160608152602001600081526020016000815260200160008152602001600081525090565b5b8082111561198f576000816000905550600101611977565b5090565b60006119a66119a184612461565b61243c565b9050828152602081018484840111156119be57600080fd5b6119c9848285612679565b509392505050565b6000813590506119e0816129cb565b92915050565b6000815190506119f5816129e2565b92915050565b60008083601f840112611a0d57600080fd5b8235905067ffffffffffffffff811115611a2657600080fd5b602083019150836001820283011115611a3e57600080fd5b9250929050565b600082601f830112611a5657600080fd5b8135611a66848260208601611993565b91505092915050565b600081359050611a7e816129f9565b92915050565b60008060408385031215611a9757600080fd5b6000611aa5858286016119d1565b925050602083013567ffffffffffffffff811115611ac257600080fd5b611ace85828601611a45565b9150509250929050565b600060208284031215611aea57600080fd5b6000611af8848285016119e6565b91505092915050565b600080600060408486031215611b1657600080fd5b600084013567ffffffffffffffff811115611b3057600080fd5b611b3c868287016119fb565b93509350506020611b4f86828701611a6f565b9150509250925092565b60008060008060608587031215611b6f57600080fd5b600085013567ffffffffffffffff811115611b8957600080fd5b611b95878288016119fb565b94509450506020611ba887828801611a6f565b9250506040611bb987828801611a6f565b91505092959194509250565b600060208284031215611bd757600080fd5b600082013567ffffffffffffffff811115611bf157600080fd5b611bfd84828501611a45565b91505092915050565b600060208284031215611c1857600080fd5b6000611c2684828501611a6f565b91505092915050565b60008060408385031215611c4257600080fd5b6000611c5085828601611a6f565b9250506020611c6185828601611a6f565b9150509250929050565b611c74816125df565b82525050565b611c83816125df565b82525050565b611c92816125f1565b82525050565b611ca181612631565b82525050565b611cb081612655565b82525050565b611cbf816125fd565b82525050565b611cce816125fd565b82525050565b6000611ce083856124bf565b9350611ced838584612679565b82840190509392505050565b6000611d0482612492565b611d0e818561249d565b9350611d1e818560208601612688565b611d27816127da565b840191505092915050565b6000611d3d82612492565b611d4781856124ae565b9350611d57818560208601612688565b611d60816127da565b840191505092915050565b6000611d7682612492565b611d8081856124bf565b9350611d90818560208601612688565b80840191505092915050565b6000611da96035836124ae565b9150611db4826127eb565b604082019050919050565b6000611dcc6022836124ae565b9150611dd78261283a565b604082019050919050565b6000611def600d836124ae565b9150611dfa82612889565b602082019050919050565b6000611e126032836124ae565b9150611e1d826128b2565b604082019050919050565b6000611e35601a836124ae565b9150611e4082612901565b602082019050919050565b6000611e58601c836124ae565b9150611e638261292a565b602082019050919050565b6000611e7b6020836124ae565b9150611e8682612953565b602082019050919050565b6000611e9e6027836124ae565b9150611ea98261297c565b604082019050919050565b60a082016000820151611eca6000850182612054565b506020820151611edd6020850182612054565b506040820151611ef06040850182611c6b565b506060820151611f036060850182612054565b506080820151611f166080850182612054565b50505050565b600060e083016000830151611f346000860182612054565b506020830151611f476020860182611c6b565b5060408301518482036040860152611f5f8282611cf9565b9150506060830151611f746060860182612054565b506080830151611f876080860182612054565b5060a0830151611f9a60a0860182612054565b5060c0830151611fad60c0860182611cb6565b508091505092915050565b600060e083016000830151611fd06000860182612054565b506020830151611fe36020860182612054565b506040830151611ff66040860182611c6b565b506060830151848203606086015261200e8282611cf9565b91505060808301516120236080860182612054565b5060a083015161203660a0860182612054565b5060c083015161204960c0860182611cb6565b508091505092915050565b61205d81612627565b82525050565b61206c81612627565b82525050565b600061207f828486611cd4565b91508190509392505050565b60006120978284611d6b565b915081905092915050565b60006020820190506120b76000830184611c7a565b92915050565b60006060820190506120d26000830186611c7a565b6120df6020830185611c7a565b6120ec6040830184612063565b949350505050565b60006020820190506121096000830184611c89565b92915050565b60006020820190506121246000830184611c98565b92915050565b600060208201905061213f6000830184611ca7565b92915050565b6000606082019050818103600083015261215f8186611d32565b905061216e6020830185612063565b61217b6040830184612063565b949350505050565b6000602082019050818103600083015261219c81611d9c565b9050919050565b600060208201905081810360008301526121bc81611dbf565b9050919050565b600060208201905081810360008301526121dc81611de2565b9050919050565b600060208201905081810360008301526121fc81611e05565b9050919050565b6000602082019050818103600083015261221c81611e28565b9050919050565b6000602082019050818103600083015261223c81611e4b565b9050919050565b6000602082019050818103600083015261225c81611e6e565b9050919050565b6000602082019050818103600083015261227c81611e91565b9050919050565b600060a0820190506122986000830184611eb4565b92915050565b600060208201905081810360008301526122b88184611f1c565b905092915050565b600060208201905081810360008301526122da8184611fb8565b905092915050565b60006020820190506122f76000830184612063565b92915050565b600060e082019050612312600083018a612063565b61231f6020830189611c7a565b81810360408301526123318188611d32565b90506123406060830187612063565b61234d6080830186612063565b61235a60a0830185612063565b61236760c0830184611cc5565b98975050505050505050565b600060e082019050612388600083018a612063565b6123956020830189612063565b6123a26040830188611c7a565b81810360608301526123b48187611d32565b90506123c36080830186612063565b6123d060a0830185612063565b6123dd60c0830184611cc5565b98975050505050505050565b600060a0820190506123fe6000830188612063565b61240b6020830187612063565b6124186040830186611c7a565b6124256060830185612063565b6124326080830184612063565b9695505050505050565b6000612446612457565b905061245282826126ed565b919050565b6000604051905090565b600067ffffffffffffffff82111561247c5761247b6127ab565b5b612485826127da565b9050602081019050919050565b600081519050919050565b600082825260208201905092915050565b600082825260208201905092915050565b600081905092915050565b60006124d582612627565b91506124e083612627565b9250827fffffffffffffffffffffffffffffffffffffffffffffffffffffffffffffffff038211156125155761251461271e565b5b828201905092915050565b600061252b82612627565b915061253683612627565b9250826125465761254561274d565b5b828204905092915050565b600061255c82612627565b915061256783612627565b9250817fffffffffffffffffffffffffffffffffffffffffffffffffffffffffffffffff04831182151516156125a05761259f61271e565b5b828202905092915050565b60006125b682612627565b91506125c183612627565b9250828210156125d4576125d361271e565b5b828203905092915050565b60006125ea82612607565b9050919050565b60008115159050919050565b6000819050919050565b600073ffffffffffffffffffffffffffffffffffffffff82169050919050565b6000819050919050565b600061263c82612643565b9050919050565b600061264e82612607565b9050919050565b600061266082612667565b9050919050565b600061267282612607565b9050919050565b82818337600083830152505050565b60005b838110156126a657808201518184015260208101905061268b565b838111156126b5576000848401525b50505050565b600060028204905060018216806126d357607f821691505b602082108114156126e7576126e661277c565b5b50919050565b6126f6826127da565b810181811067ffffffffffffffff82111715612715576127146127ab565b5b80604052505050565b7f4e487b7100000000000000000000000000000000000000000000000000000000600052601160045260246000fd5b7f4e487b7100000000000000000000000000000000000000000000000000000000600052601260045260246000fd5b7f4e487b7100000000000000000000000000000000000000000000000000000000600052602260045260246000fd5b7f4e487b7100000000000000000000000000000000000000000000000000000000600052604160045260246000fd5b6000601f19601f8301169050919050565b7f5468652072657475726e206f6620746869732072657475726e4964206861732060008201527f6265656e20616c72656164792061756469746564210000000000000000000000602082015250565b7f4e6f207468697320747970652773206361727320617661696c61626c65206e6f60008201527f7721000000000000000000000000000000000000000000000000000000000000602082015250565b7f426f72726f776572204f6e6c7900000000000000000000000000000000000000600082015250565b7f5468652072656e74206f6620746869732072656e74496420686173206265656e60008201527f20616c72656164792072657475726e6564210000000000000000000000000000602082015250565b7f496e7075742072656e745265636f7264496420496e7661696421000000000000600082015250565b7f496e7075742072657475726e5265636f7264496420496e766169642100000000600082015250565b7f4f6e6c79204142432063616e2063616c6c20746869732066756e6374696f6e21600082015250565b7f54686520637573746f6d65722773206164647265737320646f65736e2774206d60008201527f6174636865642100000000000000000000000000000000000000000000000000602082015250565b6129d4816125df565b81146129df57600080fd5b50565b6129eb816125f1565b81146129f657600080fd5b50565b612a0281612627565b8114612a0d57600080fd5b5056fea2646970667358221220eba47c4256c5300cf7b7952f5967ffa9ad5266164daba87a9233fd480c6d736764736f6c63430008010033",
  "immutableReferences": {},
  "source": "pragma solidity >=0.7.0 < 0.9.0;\n\nimport \"./MicroToken.sol\";\nimport \"./UserIdentity.sol\";\n\ncontract CarRentalSmartContract {\n\n    struct Car {\n        string name;\n        // Car's Deposit = 90 * dailyRent (3 month's rent)\n        uint needDeposit;\n        // The rent for renting the car one day.\n        uint dailyRent;\n    }\n\n    //will record the action involved with money\n    // \n    struct customerRentCarRecord {\n        uint rentRecordId;\n        address customerAddress;\n        string carName;\n        uint rentDays;\n        uint totalMoneyDeposit;\n        uint rentTimeStamp;\n        int returnRecordId;\n    }\n\n    struct customerReturnCarRecord {\n        uint returnRecordId;\n        uint rentRecordId;\n        address customerAddress;\n        string carName;\n        uint returnTimeStamp;\n        uint rentFee;\n        int auditRecordId;\n\n    }\n\n    struct ABCAuditDepositRecord {\n        uint auditRecordId;\n        uint returnRecordId;\n        address customerAddress;\n        uint damageFixFee;\n        uint actualRefundAmount;\n\n    }\n    \n    // company address\n    address public ABCAddress;\n\n    // A mapping that stores all customers' addresses.\n    // If an address exists, its value is true, else false.\n    // Now borrower rents car. No need customer's registration\n    //mapping (address => bool) public allCustomerAddresses;\n\n    /* \n        This customer's renting car. \n        Customer's Address => Car's Name => This Car's Number\n        e.g. Bob's renting 2 cars A. Bob's Address => 'A' => 2\n    */\n    mapping (address => mapping(string => uint)) public customerRentingCarNumber;\n\n\n    // Cars' Info. Car's Name => Car's Info (a Car struct)\n    mapping (string => Car) public carInfo;\n    // Cars' availability. Car's Name => Available Number\n    mapping (string => uint) public carAvailability;\n\n\n\n    // All action history. \n    // Use allCustomerRentCarRecord[RentRecordId] to visit the record.\n    uint public currentRentRecordId  = 1;\n    mapping (uint => customerRentCarRecord) public allCustomerRentCarRecord;\n\n    uint public currentReturnRecordId = 1;\n    mapping (uint => customerReturnCarRecord) public allCustomerReturnCarRecord;\n\n    uint public currentAuditRecordId = 1;\n    mapping (uint => ABCAuditDepositRecord) public allABCAuditDepositRecord;\n\n    // add token management\n    MicroToken public tokenSC;  \n    // add user identity management\n    UserIdentity public identitySC;\n\n    // A modifier that uses for the function which can only be called by ABC.\n    modifier onlyABCCompanyCanCall {\n      require(msg.sender == ABCAddress, \"Only ABC can call this function!\");\n      _;\n   }\n\n    // A modifier that uses for the function which can only be called by Borrower.\n    modifier onlyRegisteredCustomerCanCall {\n        // Now only borrower can request rent\n        require(identitySC.verifyIsBorrower(msg.sender), \"Borrower Only\");\n       _;\n   }\n\n    /* \n    ABC company calls this function.\n    ABC company deploys this contract.\n    */\n    constructor(address microTokenContractAddress, address userIdentityContractAddress) {\n        ABCAddress = msg.sender;\n        tokenSC = MicroToken(microTokenContractAddress);\n        identitySC = UserIdentity(userIdentityContractAddress);\n    }\n\n\n    /* \n    Now borrower can request rent.\n    No need to check the customer's registration.\n    */\n    /*\n    function customerRegister() public returns (bool) {\n        allCustomerAddresses[msg.sender] = true;\n        return true;\n    }\n    */\n\n    /* \n    ABC company calls this function.\n    Abc company add cars to this contract. \n    Store car's info in carInfo. Update carAvailability.\n    */\n    function ABCAddCar(string calldata carName, uint carDailyRent, uint number) public onlyABCCompanyCanCall returns (bool) {\n        //require(msg.sender == ABCAddress, \"Only ABC can add cars!\");\n\n        carInfo[carName] = Car({\n            name: carName, \n            needDeposit: carDailyRent * 90,\n            dailyRent: carDailyRent\n        });\n\n        carAvailability[carName] += number;\n\n        return true;\n    }\n\n    /*\n    Customer calls this function.\n    Customer rent ONE car.\n    Specify the carName and the rentDays.\n    */\n    function customerRentCar(string calldata carName, uint rentDays) payable public onlyRegisteredCustomerCanCall returns (customerRentCarRecord memory) {\n        //require(allCustomerAddresses[msg.sender] == true, \"Customer not registered! Please register first!\");\n        require(carAvailability[carName] > 0, \"No this type's cars available now!\");\n\n        uint depositValueHere = carInfo[carName].needDeposit + rentDays * carInfo[carName].dailyRent;\n        //require(msg.value >= (carInfo[carName].needDeposit + rentDays * carInfo[carName].dailyRent), \"Deposit given here is not enough! Deposit shoule be larger than (90 + rentDays) * dailyRent\");\n\n        // update customer renting car info\n        customerRentingCarNumber[msg.sender][carName] += 1;\n        // update car's availability info\n        carAvailability[carName] -= 1;\n        // generate a customerRentCarRecord and put the record into customerRentCarRecord\n        customerRentCarRecord memory thisRentCarRecord = customerRentCarRecord(currentRentRecordId, msg.sender, carName, rentDays, depositValueHere, block.timestamp, -1);\n        allCustomerRentCarRecord[currentRentRecordId] = thisRentCarRecord;\n        currentRentRecordId += 1;\n\n        // customer pay token to the ABCAddress as Deposit\n        tokenSC.transferFrom(msg.sender, ABCAddress, depositValueHere);\n        \n\n        return thisRentCarRecord;\n    }\n    \n\n    /*\n    Customer calls this function.\n    According to given rentRecordId, customer returns the car to this specified rent record. \n    */\n    function customerReturnCar(uint rentRecordId) public onlyRegisteredCustomerCanCall returns (customerReturnCarRecord memory) {\n        require(rentRecordId <= currentRentRecordId && rentRecordId > 0, \"Input rentRecordId Invaid!\");\n        require(msg.sender == allCustomerRentCarRecord[rentRecordId].customerAddress, \"The customer's address doesn't matched!\");\n        require(allCustomerRentCarRecord[rentRecordId].returnRecordId == -1, \"The rent of this rentId has been already returned!\");\n        \n        // Retrieve some values.\n        string memory carNameHere = allCustomerRentCarRecord[rentRecordId].carName;\n        uint rentTimeStampHere = allCustomerRentCarRecord[rentRecordId].rentTimeStamp;\n        \n        // update customer renting car info\n        customerRentingCarNumber[msg.sender][carNameHere] -= 1;\n        // update car's availability info\n        carAvailability[carNameHere] += 1;\n\n        // Use timestamp to compute the actual \n        uint timeNow = block.timestamp;\n        uint actualTimePassed =  timeNow - rentTimeStampHere;\n        /* Calculate how many days passed. \n            In Solidity,the decimal part will be tructated, so the actualDayPassed will be added 1 finally. \n         */\n        uint actualDayPassed = actualTimePassed / 60 / 60 / 24 + 1;\n\n\n        // Compute rent fee.\n        uint rentFeeHere = actualDayPassed * carInfo[carNameHere].dailyRent;\n        \n        // generate a customerReturnCarRecord and put the record into customerRentCarRecord\n        customerReturnCarRecord memory thisReturnCarRecord = customerReturnCarRecord(currentReturnRecordId, \n                                                                                     rentRecordId, \n                                                                                     msg.sender, \n                                                                                     carNameHere, \n                                                                                     timeNow, \n                                                                                     rentFeeHere, \n                                                                                     -1);\n        allCustomerReturnCarRecord[currentReturnRecordId] = thisReturnCarRecord;\n        allCustomerRentCarRecord[rentRecordId].returnRecordId = int(currentReturnRecordId);\n        currentReturnRecordId += 1;\n\n        return thisReturnCarRecord;\n    }\n\n    /*\n    ABC company calls this function.\n     According to given returnRecordId, ABC companys checks the rentFee + damageFee and gives back the remained deposit to customer. \n     */\n    function ABCAuditDeposit(uint returnRecordId, uint damageFixFeeHere) payable public onlyABCCompanyCanCall returns (ABCAuditDepositRecord memory) {\n        require(returnRecordId <= currentReturnRecordId && returnRecordId > 0, \"Input returnRecordId Invaid!\");\n        //require(msg.sender == ABCAddress, \"Only ABC company can audit the deposit!\");\n        require(allCustomerReturnCarRecord[returnRecordId].auditRecordId == -1, \"The return of this returnId has been already audited!\");\n\n\n        // Retrieve some values from rent&return record\n        address customerAddressHere = allCustomerReturnCarRecord[returnRecordId].customerAddress;\n        uint totalDepositHere = allCustomerRentCarRecord[allCustomerReturnCarRecord[returnRecordId].rentRecordId].totalMoneyDeposit;\n        uint rentFeeHere = allCustomerReturnCarRecord[returnRecordId].rentFee;\n\n        // Compute Remained Deposit that will be refunded to customer\n        uint refundAmountHere = totalDepositHere - rentFeeHere - damageFixFeeHere;\n\n        // Refund to customer\n        tokenSC.transferFrom(ABCAddress, customerAddressHere, refundAmountHere);\n\n        ABCAuditDepositRecord memory auditDepositRecordHere = ABCAuditDepositRecord(currentAuditRecordId, \n                                                                                    returnRecordId,\n                                                                                    customerAddressHere, \n                                                                                    damageFixFeeHere, \n                                                                                    refundAmountHere);\n\n        allABCAuditDepositRecord[currentAuditRecordId] = auditDepositRecordHere;\n        allCustomerReturnCarRecord[returnRecordId].auditRecordId = int(currentAuditRecordId);\n        currentAuditRecordId += 1;\n        \n        return auditDepositRecordHere;\n    }\n\n}",
  "sourcePath": "D:\\NTU\\Course\\S2\\CI6236-BLOCKCHAIN SYSTEM SOFTWARE ENGINEERING\\bc_project\\blockchain\\contracts\\CarRentalSmartContract.sol",
  "compiler": {
    "name": "solc",
    "version": "0.8.1+commit.df193b15.Emscripten.clang"
  },
  "schemaVersion": "3.4.6",
  "updatedAt": "2022-04-11T03:32:02.521Z",
  "devdoc": {
    "kind": "dev",
    "methods": {},
    "version": 1
  },
  "userdoc": {
    "kind": "user",
    "methods": {},
    "version": 1
  }
}