{
  "contractName": "CarRentalOld",
  "abi": [
    {
      "inputs": [],
      "stateMutability": "nonpayable",
      "type": "constructor"
    },
    {
      "anonymous": false,
      "inputs": [
        {
          "indexed": true,
          "internalType": "address",
          "name": "previousOwner",
          "type": "address"
        },
        {
          "indexed": true,
          "internalType": "address",
          "name": "newOwner",
          "type": "address"
        }
      ],
      "name": "OwnershipTransferred",
      "type": "event"
    },
    {
      "inputs": [],
      "name": "carCount",
      "outputs": [
        {
          "internalType": "uint256",
          "name": "",
          "type": "uint256"
        }
      ],
      "stateMutability": "view",
      "type": "function"
    },
    {
      "inputs": [
        {
          "internalType": "uint256",
          "name": "",
          "type": "uint256"
        }
      ],
      "name": "cars",
      "outputs": [
        {
          "internalType": "uint256",
          "name": "deposit",
          "type": "uint256"
        },
        {
          "internalType": "string",
          "name": "carPlate",
          "type": "string"
        },
        {
          "internalType": "string",
          "name": "carBrand",
          "type": "string"
        },
        {
          "internalType": "string",
          "name": "carDescription",
          "type": "string"
        },
        {
          "internalType": "uint256",
          "name": "carType",
          "type": "uint256"
        },
        {
          "internalType": "bool",
          "name": "carAvailable",
          "type": "bool"
        }
      ],
      "stateMutability": "view",
      "type": "function"
    },
    {
      "inputs": [],
      "name": "companyAddress",
      "outputs": [
        {
          "internalType": "address",
          "name": "",
          "type": "address"
        }
      ],
      "stateMutability": "view",
      "type": "function"
    },
    {
      "inputs": [],
      "name": "contractBalance",
      "outputs": [
        {
          "internalType": "uint256",
          "name": "",
          "type": "uint256"
        }
      ],
      "stateMutability": "view",
      "type": "function"
    },
    {
      "inputs": [],
      "name": "customerCount",
      "outputs": [
        {
          "internalType": "uint256",
          "name": "",
          "type": "uint256"
        }
      ],
      "stateMutability": "view",
      "type": "function"
    },
    {
      "inputs": [],
      "name": "identitySC",
      "outputs": [
        {
          "internalType": "contract UserIdentity",
          "name": "",
          "type": "address"
        }
      ],
      "stateMutability": "view",
      "type": "function"
    },
    {
      "inputs": [],
      "name": "owner",
      "outputs": [
        {
          "internalType": "address",
          "name": "",
          "type": "address"
        }
      ],
      "stateMutability": "view",
      "type": "function"
    },
    {
      "inputs": [],
      "name": "recordCount",
      "outputs": [
        {
          "internalType": "uint256",
          "name": "",
          "type": "uint256"
        }
      ],
      "stateMutability": "view",
      "type": "function"
    },
    {
      "inputs": [
        {
          "internalType": "uint256",
          "name": "",
          "type": "uint256"
        }
      ],
      "name": "records",
      "outputs": [
        {
          "internalType": "string",
          "name": "carPlate",
          "type": "string"
        },
        {
          "internalType": "string",
          "name": "renterId",
          "type": "string"
        },
        {
          "internalType": "address",
          "name": "walletAddress",
          "type": "address"
        },
        {
          "internalType": "uint256",
          "name": "startDate",
          "type": "uint256"
        },
        {
          "internalType": "uint256",
          "name": "endDate",
          "type": "uint256"
        },
        {
          "internalType": "uint256",
          "name": "duration",
          "type": "uint256"
        },
        {
          "internalType": "bool",
          "name": "carReturned",
          "type": "bool"
        },
        {
          "internalType": "uint256",
          "name": "extraFee",
          "type": "uint256"
        },
        {
          "internalType": "uint256",
          "name": "deposit",
          "type": "uint256"
        }
      ],
      "stateMutability": "view",
      "type": "function"
    },
    {
      "inputs": [],
      "name": "renounceOwnership",
      "outputs": [],
      "stateMutability": "nonpayable",
      "type": "function"
    },
    {
      "inputs": [
        {
          "internalType": "uint256",
          "name": "",
          "type": "uint256"
        }
      ],
      "name": "renters",
      "outputs": [
        {
          "internalType": "string",
          "name": "renterId",
          "type": "string"
        },
        {
          "internalType": "string",
          "name": "renterName",
          "type": "string"
        },
        {
          "internalType": "uint256",
          "name": "renterAge",
          "type": "uint256"
        },
        {
          "internalType": "string",
          "name": "renterGender",
          "type": "string"
        },
        {
          "internalType": "address",
          "name": "walletAddress",
          "type": "address"
        }
      ],
      "stateMutability": "view",
      "type": "function"
    },
    {
      "inputs": [],
      "name": "tokenSC",
      "outputs": [
        {
          "internalType": "contract MicroToken",
          "name": "",
          "type": "address"
        }
      ],
      "stateMutability": "view",
      "type": "function"
    },
    {
      "inputs": [
        {
          "internalType": "address",
          "name": "newOwner",
          "type": "address"
        }
      ],
      "name": "transferOwnership",
      "outputs": [],
      "stateMutability": "nonpayable",
      "type": "function"
    },
    {
      "inputs": [
        {
          "internalType": "uint256",
          "name": "deposit",
          "type": "uint256"
        },
        {
          "internalType": "string",
          "name": "carPlate",
          "type": "string"
        },
        {
          "internalType": "string",
          "name": "carDescription",
          "type": "string"
        },
        {
          "internalType": "string",
          "name": "carBrand",
          "type": "string"
        },
        {
          "internalType": "uint256",
          "name": "carType",
          "type": "uint256"
        },
        {
          "internalType": "bool",
          "name": "carAvailable",
          "type": "bool"
        }
      ],
      "name": "addCarInfo",
      "outputs": [],
      "stateMutability": "nonpayable",
      "type": "function"
    },
    {
      "inputs": [
        {
          "internalType": "uint256",
          "name": "seatType",
          "type": "uint256"
        }
      ],
      "name": "checkCarAvail",
      "outputs": [
        {
          "internalType": "uint256[]",
          "name": "",
          "type": "uint256[]"
        }
      ],
      "stateMutability": "view",
      "type": "function"
    },
    {
      "inputs": [
        {
          "internalType": "uint256",
          "name": "carID",
          "type": "uint256"
        },
        {
          "internalType": "uint256",
          "name": "duration",
          "type": "uint256"
        },
        {
          "internalType": "string",
          "name": "Name",
          "type": "string"
        },
        {
          "internalType": "string",
          "name": "IDnum",
          "type": "string"
        },
        {
          "internalType": "uint256",
          "name": "renterAge",
          "type": "uint256"
        },
        {
          "internalType": "string",
          "name": "renterGender",
          "type": "string"
        },
        {
          "internalType": "address",
          "name": "walletAddress",
          "type": "address"
        }
      ],
      "name": "rentCar",
      "outputs": [],
      "stateMutability": "payable",
      "type": "function"
    },
    {
      "inputs": [
        {
          "internalType": "string",
          "name": "carPlate",
          "type": "string"
        },
        {
          "internalType": "uint256",
          "name": "damageCharge",
          "type": "uint256"
        },
        {
          "internalType": "uint256",
          "name": "returnYear",
          "type": "uint256"
        },
        {
          "internalType": "uint256",
          "name": "returnMonth",
          "type": "uint256"
        },
        {
          "internalType": "uint256",
          "name": "returnDay",
          "type": "uint256"
        }
      ],
      "name": "confirmReturn",
      "outputs": [],
      "stateMutability": "payable",
      "type": "function"
    },
    {
      "inputs": [
        {
          "internalType": "address",
          "name": "walletAdd",
          "type": "address"
        }
      ],
      "name": "CheckPayExtraFee",
      "outputs": [],
      "stateMutability": "payable",
      "type": "function"
    },
    {
      "inputs": [
        {
          "internalType": "uint256",
          "name": "year",
          "type": "uint256"
        }
      ],
      "name": "leapYearsBefore",
      "outputs": [
        {
          "internalType": "uint256",
          "name": "",
          "type": "uint256"
        }
      ],
      "stateMutability": "pure",
      "type": "function"
    },
    {
      "inputs": [
        {
          "internalType": "uint16",
          "name": "year",
          "type": "uint16"
        }
      ],
      "name": "isLeapYear",
      "outputs": [
        {
          "internalType": "bool",
          "name": "",
          "type": "bool"
        }
      ],
      "stateMutability": "pure",
      "type": "function"
    }
  ],
  "bytecode": "0x608060405260006002556000600355600060045560006005553480156200002557600080fd5b50620000466200003a6200016560201b60201c565b6200016d60201b60201c565b33600160006101000a81548173ffffffffffffffffffffffffffffffffffffffff021916908373ffffffffffffffffffffffffffffffffffffffff160217905550604051620000959062000231565b604051809103906000f080158015620000b2573d6000803e3d6000fd5b50600960006101000a81548173ffffffffffffffffffffffffffffffffffffffff021916908373ffffffffffffffffffffffffffffffffffffffff16021790555060405162000101906200023f565b604051809103906000f0801580156200011e573d6000803e3d6000fd5b50600a60006101000a81548173ffffffffffffffffffffffffffffffffffffffff021916908373ffffffffffffffffffffffffffffffffffffffff1602179055506200024d565b600033905090565b60008060009054906101000a900473ffffffffffffffffffffffffffffffffffffffff169050816000806101000a81548173ffffffffffffffffffffffffffffffffffffffff021916908373ffffffffffffffffffffffffffffffffffffffff1602179055508173ffffffffffffffffffffffffffffffffffffffff168173ffffffffffffffffffffffffffffffffffffffff167f8be0079c531659141344cd1fd0a4f28419497f9722a3daafe3b4186f6b6457e060405160405180910390a35050565b610b998062004f1383390190565b61433e8062005aac83390190565b614cb6806200025d6000396000f3fe60806040526004361061011f5760003560e01c806390720b32116100a0578063d3cd85f111610064578063d3cd85f1146103c7578063dcc3974b146103e3578063e8ee439214610424578063f2fde38b1461044d578063f7746e36146104765761011f565b806390720b32146102cc5780639757e8a3146102f7578063a6f0e57714610322578063b19999371461035f578063c16849c01461039c5761011f565b8063715018a6116100e7578063715018a6146102185780637a84169e1461022f5780638b7afe2e1461024b5780638da5cb5b14610276578063900407bc146102a15761011f565b806329649cca14610124578063297a1f5614610161578063344610671461018c578063389f11d4146101d157806353e1ead9146101ed575b600080fd5b34801561013057600080fd5b5061014b60048036038101906101469190613150565b6104b8565b6040516101589190613876565b60405180910390f35b34801561016d57600080fd5b50610176610747565b6040516101839190613cae565b60405180910390f35b34801561019857600080fd5b506101b360048036038101906101ae9190613150565b61074d565b6040516101c89998979695949392919061390b565b60405180910390f35b6101eb60048036038101906101e6919061324a565b6108d8565b005b3480156101f957600080fd5b506102026111a8565b60405161020f9190613824565b60405180910390f35b34801561022457600080fd5b5061022d6111ce565b005b61024960048036038101906102449190613046565b611256565b005b34801561025757600080fd5b5061026061176a565b60405161026d9190613cae565b60405180910390f35b34801561028257600080fd5b5061028b611770565b6040516102989190613824565b60405180910390f35b3480156102ad57600080fd5b506102b6611799565b6040516102c39190613cae565b60405180910390f35b3480156102d857600080fd5b506102e161179f565b6040516102ee91906138ce565b60405180910390f35b34801561030357600080fd5b5061030c6117c5565b6040516103199190613cae565b60405180910390f35b34801561032e57600080fd5b5061034960048036038101906103449190613127565b6117cb565b6040516103569190613898565b60405180910390f35b34801561036b57600080fd5b5061038660048036038101906103819190613150565b61183a565b6040516103939190613cae565b60405180910390f35b3480156103a857600080fd5b506103b161188e565b6040516103be91906138b3565b60405180910390f35b6103e160048036038101906103dc9190613098565b6118b4565b005b3480156103ef57600080fd5b5061040a60048036038101906104059190613150565b612210565b60405161041b9594939291906139a6565b60405180910390f35b34801561043057600080fd5b5061044b60048036038101906104469190613179565b6123fe565b005b34801561045957600080fd5b50610474600480360381019061046f9190613046565b6126a4565b005b34801561048257600080fd5b5061049d60048036038101906104989190613150565b61279c565b6040516104af96959493929190613cc9565b60405180910390f35b60606000600354116104ff576040517f08c379a00000000000000000000000000000000000000000000000000000000081526004016104f690613bae565b60405180910390fd5b600182148061050e5750600282145b806105195750600382145b806105245750600482145b610563576040517f08c379a000000000000000000000000000000000000000000000000000000000815260040161055a90613b8e565b60405180910390fd5b600080600090505b600160035461057a9190613ea9565b8110156105f4578360066000838152602001908152602001600020600401541480156105cd5750600115156006600083815260200190815260200160002060050160009054906101000a900460ff161515145b156105e15781806105dd9061434a565b9250505b80806105ec9061434a565b91505061056b565b5060008167ffffffffffffffff811115610637577f4e487b7100000000000000000000000000000000000000000000000000000000600052604160045260246000fd5b6040519080825280602002602001820160405280156106655781602001602082028036833780820191505090505b5090506000805b600160035461067b9190613ea9565b81101561073b578560066000838152602001908152602001600020600401541480156106ce5750600115156006600083815260200190815260200160002060050160009054906101000a900460ff161515145b15610728578083838151811061070d577f4e487b7100000000000000000000000000000000000000000000000000000000600052603260045260246000fd5b60200260200101818152505081806107249061434a565b9250505b80806107339061434a565b91505061066c565b50819350505050919050565b60035481565b6008602052806000526040600020600091509050806000018054610770906142e7565b80601f016020809104026020016040519081016040528092919081815260200182805461079c906142e7565b80156107e95780601f106107be576101008083540402835291602001916107e9565b820191906000526020600020905b8154815290600101906020018083116107cc57829003601f168201915b5050505050908060010180546107fe906142e7565b80601f016020809104026020016040519081016040528092919081815260200182805461082a906142e7565b80156108775780601f1061084c57610100808354040283529160200191610877565b820191906000526020600020905b81548152906001019060200180831161085a57829003601f168201915b5050505050908060020160009054906101000a900473ffffffffffffffffffffffffffffffffffffffff16908060030154908060040154908060050154908060060160009054906101000a900460ff16908060070154908060080154905089565b600115156006600089815260200190815260200160002060050160009054906101000a900460ff16151514610942576040517f08c379a000000000000000000000000000000000000000000000000000000000815260040161093990613a6e565b60405180910390fd5b6015831015610986576040517f08c379a000000000000000000000000000000000000000000000000000000000815260040161097d90613aee565b60405180910390fd5b600060055490505b6000811115610c3b578173ffffffffffffffffffffffffffffffffffffffff16600860006001846109bf919061419f565b815260200190815260200160002060020160009054906101000a900473ffffffffffffffffffffffffffffffffffffffff1673ffffffffffffffffffffffffffffffffffffffff16148015610a365750600060086000600184610a22919061419f565b815260200190815260200160002060070154145b15610aca57670de0b6b3a7640000600660008a815260200190815260200160002060000154610a6591906140b1565b674563918244f4000088610a7991906140b1565b610a839190613ea9565b341015610ac5576040517f08c379a0000000000000000000000000000000000000000000000000000000008152600401610abc90613c6e565b60405180910390fd5b610c28565b8173ffffffffffffffffffffffffffffffffffffffff1660086000600184610af2919061419f565b815260200190815260200160002060020160009054906101000a900473ffffffffffffffffffffffffffffffffffffffff1673ffffffffffffffffffffffffffffffffffffffff16148015610b6a5750600060086000600184610b55919061419f565b81526020019081526020016000206007015414155b15610c2757670de0b6b3a7640000600660008a815260200190815260200160002060000154610b9991906140b1565b674563918244f4000088610bad91906140b1565b60086000600185610bbe919061419f565b815260200190815260200160002060070154610bda9190613ea9565b610be49190613ea9565b341015610c26576040517f08c379a0000000000000000000000000000000000000000000000000000000008152600401610c1d90613c8e565b60405180910390fd5b5b5b8080610c33906142bd565b91505061098e565b50670de0b6b3a76400006006600089815260200190815260200160002060000154610c6691906140b1565b674563918244f4000087610c7a91906140b1565b610c849190613ea9565b341015610cc6576040517f08c379a0000000000000000000000000000000000000000000000000000000008152600401610cbd90613c6e565b60405180910390fd5b34600254610cd49190613ea9565b60028190555060006001905060005b6001600454610cf29190613ea9565b811015610d4e57858051906020012060076000838152602001908152602001600020600001604051610d2491906137eb565b60405180910390201415610d3b5760009150610d4e565b8080610d469061434a565b915050610ce3565b508015610e6b576040518060a001604052808781526020018681526020018581526020018481526020018373ffffffffffffffffffffffffffffffffffffffff168152506007600060045481526020019081526020016000206000820151816000019080519060200190610dc3929190612ed2565b506020820151816001019080519060200190610de0929190612ed2565b50604082015181600201556060820151816003019080519060200190610e07929190612ed2565b5060808201518160040160006101000a81548173ffffffffffffffffffffffffffffffffffffffff021916908373ffffffffffffffffffffffffffffffffffffffff16021790555090505060046000815480929190610e659061434a565b91905055505b604051806101200160405280600660008b81526020019081526020016000206001018054610e98906142e7565b80601f0160208091040260200160405190810160405280929190818152602001828054610ec4906142e7565b8015610f115780601f10610ee657610100808354040283529160200191610f11565b820191906000526020600020905b815481529060010190602001808311610ef457829003601f168201915b505050505081526020018681526020018373ffffffffffffffffffffffffffffffffffffffff1681526020014281526020016201518089610f5291906140b1565b42610f5d9190613ea9565b815260200188815260200160001515815260200160008152602001348152506008600060055481526020019081526020016000206000820151816000019080519060200190610fad929190612ed2565b506020820151816001019080519060200190610fca929190612ed2565b5060408201518160020160006101000a81548173ffffffffffffffffffffffffffffffffffffffff021916908373ffffffffffffffffffffffffffffffffffffffff160217905550606082015181600301556080820151816004015560a0820151816005015560c08201518160060160006101000a81548160ff02191690831515021790555060e0820151816007015561010082015181600801559050506000600660008a815260200190815260200160002060050160006101000a81548160ff021916908315150217905550600560008154809291906110aa9061434a565b9190505550600060059050806002546110c3919061419f565b600281905550600960009054906101000a900473ffffffffffffffffffffffffffffffffffffffff1673ffffffffffffffffffffffffffffffffffffffff166323b872dd33600160009054906101000a900473ffffffffffffffffffffffffffffffffffffffff16846040518463ffffffff1660e01b815260040161114a9392919061383f565b602060405180830381600087803b15801561116457600080fd5b505af1158015611178573d6000803e3d6000fd5b505050506040513d601f19601f8201168201806040525081019061119c919061306f565b50505050505050505050565b600160009054906101000a900473ffffffffffffffffffffffffffffffffffffffff1681565b6111d661297d565b73ffffffffffffffffffffffffffffffffffffffff166111f4611770565b73ffffffffffffffffffffffffffffffffffffffff161461124a576040517f08c379a000000000000000000000000000000000000000000000000000000000815260040161124190613bee565b60405180910390fd5b6112546000612985565b565b8073ffffffffffffffffffffffffffffffffffffffff163373ffffffffffffffffffffffffffffffffffffffff16146112c4576040517f08c379a00000000000000000000000000000000000000000000000000000000081526004016112bb90613c2e565b60405180910390fd5b6000819050600060019050600080600060055490505b60008111156113b3578573ffffffffffffffffffffffffffffffffffffffff166008600060018461130b919061419f565b815260200190815260200160002060020160009054906101000a900473ffffffffffffffffffffffffffffffffffffffff1673ffffffffffffffffffffffffffffffffffffffff161461135d576113b3565b600060086000600184611370919061419f565b815260200190815260200160002060070154141561139157600093506113b3565b60018161139e919061419f565b925080806113ab906142bd565b9150506112da565b5060011515831515146113fb576040517f08c379a00000000000000000000000000000000000000000000000000000000081526004016113f290613aae565b60405180910390fd5b60006008600084815260200190815260200160002060070154111561171e576008600083815260200190815260200160002060070154341015611466670de0b6b3a764000060086000868152602001908152602001600020600701546114619190613f69565b612a49565b6040516020016114769190613802565b604051602081830303815290604052906114c6576040517f08c379a00000000000000000000000000000000000000000000000000000000081526004016114bd91906138e9565b60405180910390fd5b506008600083815260200190815260200160002060070154346114e9919061419f565b905060006008600084815260200190815260200160002060070181905550600960009054906101000a900473ffffffffffffffffffffffffffffffffffffffff1673ffffffffffffffffffffffffffffffffffffffff166323b872dd6008600085815260200190815260200160002060020160009054906101000a900473ffffffffffffffffffffffffffffffffffffffff16600160009054906101000a900473ffffffffffffffffffffffffffffffffffffffff1660086000878152602001908152602001600020600701546040518463ffffffff1660e01b81526004016115d49392919061383f565b602060405180830381600087803b1580156115ee57600080fd5b505af1158015611602573d6000803e3d6000fd5b505050506040513d601f19601f82011682018060405250810190611626919061306f565b50600960009054906101000a900473ffffffffffffffffffffffffffffffffffffffff1673ffffffffffffffffffffffffffffffffffffffff166323b872dd600160009054906101000a900473ffffffffffffffffffffffffffffffffffffffff16600160009054906101000a900473ffffffffffffffffffffffffffffffffffffffff16846040518463ffffffff1660e01b81526004016116ca9392919061383f565b602060405180830381600087803b1580156116e457600080fd5b505af11580156116f8573d6000803e3d6000fd5b505050506040513d601f19601f8201168201806040525081019061171c919061306f565b505b600060055411611763576040517f08c379a000000000000000000000000000000000000000000000000000000000815260040161175a90613b2e565b60405180910390fd5b5050505050565b60025481565b60008060009054906101000a900473ffffffffffffffffffffffffffffffffffffffff16905090565b60055481565b600a60009054906101000a900473ffffffffffffffffffffffffffffffffffffffff1681565b60045481565b6000806004836117db9190614393565b61ffff16146117ed5760009050611835565b60006064836117fc9190614393565b61ffff161461180e5760019050611835565b60006101908361181e9190614393565b61ffff16146118305760009050611835565b600190505b919050565b6000600182611849919061419f565b9150610190826118599190613f69565b6064836118669190613f69565b6004846118739190613f69565b61187d919061419f565b6118879190613ea9565b9050919050565b600960009054906101000a900473ffffffffffffffffffffffffffffffffffffffff1681565b6118bc61297d565b73ffffffffffffffffffffffffffffffffffffffff166118da611770565b73ffffffffffffffffffffffffffffffffffffffff1614611930576040517f08c379a000000000000000000000000000000000000000000000000000000000815260040161192790613bee565b60405180910390fd5b60008060008060055490505b60008111156119b55788805190602001206008600060018461195e919061419f565b815260200190815260200160002060000160405161197c91906137eb565b604051809103902014156119a257600181611997919061419f565b9350600191506119b5565b80806119ad906142bd565b91505061193c565b50806119f6576040517f08c379a00000000000000000000000000000000000000000000000000000000081526004016119ed90613ace565b60405180910390fd5b60005b600354811015611a5757888051906020012060066000838152602001908152602001600020600101604051611a2e91906137eb565b60405180910390201415611a4457809250611a57565b8080611a4f9061434a565b9150506119f9565b50600015156006600084815260200190815260200160002060050160009054906101000a900460ff16151514611ac2576040517f08c379a0000000000000000000000000000000000000000000000000000000008152600401611ab990613b0e565b60405180910390fd5b600015156008600085815260200190815260200160002060060160009054906101000a900460ff16151514611b2c576040517f08c379a0000000000000000000000000000000000000000000000000000000008152600401611b2390613b4e565b60405180910390fd5b601f8411158015611b3e575060018410155b611b7d576040517f08c379a0000000000000000000000000000000000000000000000000000000008152600401611b7490613bce565b60405180910390fd5b600c8511158015611b8f575060018510155b611bce576040517f08c379a0000000000000000000000000000000000000000000000000000000008152600401611bc590613a4e565b60405180910390fd5b611bd742612bfc565b8614611c18576040517f08c379a0000000000000000000000000000000000000000000000000000000008152600401611c0f90613c0e565b60405180910390fd5b674563918244f400003414611c62576040517f08c379a0000000000000000000000000000000000000000000000000000000008152600401611c5990613c4e565b60405180910390fd5b60006008600085815260200190815260200160002060020160009054906101000a900473ffffffffffffffffffffffffffffffffffffffff1690506000600860008681526020019081526020016000206005015490506000600190506000600190506000806000611cd48d8d8d612d0f565b9050600081600860008d8152602001908152602001600020600401819055506001600660008c8152602001908152602001600020600401541415611d2257671bc16d674ec800009550611dae565b6002600660008c8152602001908152602001600020600401541415611d51576729a2241af62c00009550611dad565b6003600660008c8152602001908152602001600020600401541415611d8057673782dace9d9000009550611dac565b6004600660008c8152602001908152602001600020600401541415611dab57674563918244f4000095505b5b5b5b6000611dd0600860008e81526020019081526020016000206003015484612d38565b905087811115611df4578781611de6919061419f565b87611df191906140b1565b93505b8f86611e0091906140b1565b955060008487898b611e1291906140b1565b611e1c9190613ea9565b611e269190613ea9565b90506001600660008e815260200190815260200160002060050160006101000a81548160ff0219169083151502179055506001600860008f815260200190815260200160002060060160006101000a81548160ff0219169083151502179055506005600254611e959190613ea9565b600281905550600860008e8152602001908152602001600020600801549250808311611fce578281611ec7919061419f565b600860008f81526020019081526020016000206007018190555082600254611eef919061419f565b600281905550600960009054906101000a900473ffffffffffffffffffffffffffffffffffffffff1673ffffffffffffffffffffffffffffffffffffffff166323b872dd8b600160009054906101000a900473ffffffffffffffffffffffffffffffffffffffff16866040518463ffffffff1660e01b8152600401611f769392919061383f565b602060405180830381600087803b158015611f9057600080fd5b505af1158015611fa4573d6000803e3d6000fd5b505050506040513d601f19601f82011682018060405250810190611fc8919061306f565b506121ad565b8083611fda919061419f565b955085600254611fea919061419f565b60028190555080600254611ffe919061419f565b600281905550600960009054906101000a900473ffffffffffffffffffffffffffffffffffffffff1673ffffffffffffffffffffffffffffffffffffffff166323b872dd600160009054906101000a900473ffffffffffffffffffffffffffffffffffffffff168c896040518463ffffffff1660e01b81526004016120859392919061383f565b602060405180830381600087803b15801561209f57600080fd5b505af11580156120b3573d6000803e3d6000fd5b505050506040513d601f19601f820116820180604052508101906120d7919061306f565b50600960009054906101000a900473ffffffffffffffffffffffffffffffffffffffff1673ffffffffffffffffffffffffffffffffffffffff166323b872dd8b600160009054906101000a900473ffffffffffffffffffffffffffffffffffffffff16846040518463ffffffff1660e01b81526004016121599392919061383f565b602060405180830381600087803b15801561217357600080fd5b505af1158015612187573d6000803e3d6000fd5b505050506040513d601f19601f820116820180604052508101906121ab919061306f565b505b600086101580156121bd57508286105b6121fc576040517f08c379a00000000000000000000000000000000000000000000000000000000081526004016121f390613a0e565b60405180910390fd5b505050505050505050505050505050505050565b6007602052806000526040600020600091509050806000018054612233906142e7565b80601f016020809104026020016040519081016040528092919081815260200182805461225f906142e7565b80156122ac5780601f10612281576101008083540402835291602001916122ac565b820191906000526020600020905b81548152906001019060200180831161228f57829003601f168201915b5050505050908060010180546122c1906142e7565b80601f01602080910402602001604051908101604052809291908181526020018280546122ed906142e7565b801561233a5780601f1061230f5761010080835404028352916020019161233a565b820191906000526020600020905b81548152906001019060200180831161231d57829003601f168201915b505050505090806002015490806003018054612355906142e7565b80601f0160208091040260200160405190810160405280929190818152602001828054612381906142e7565b80156123ce5780601f106123a3576101008083540402835291602001916123ce565b820191906000526020600020905b8154815290600101906020018083116123b157829003601f168201915b5050505050908060040160009054906101000a900473ffffffffffffffffffffffffffffffffffffffff16905085565b61240661297d565b73ffffffffffffffffffffffffffffffffffffffff16612424611770565b73ffffffffffffffffffffffffffffffffffffffff161461247a576040517f08c379a000000000000000000000000000000000000000000000000000000000815260040161247190613bee565b60405180910390fd5b816000600182148061248c5750600282145b806124975750600382145b806124a25750600482145b156124ac57600190505b60011515811515146124f3576040517f08c379a00000000000000000000000000000000000000000000000000000000081526004016124ea90613b6e565b60405180910390fd5b60006001905060005b600160035461250b9190613ea9565b8110156125675788805190602001206006600083815260200190815260200160002060010160405161253d91906137eb565b604051809103902014156125545760009150612567565b808061255f9061434a565b9150506124fc565b5060011515811515146125af576040517f08c379a00000000000000000000000000000000000000000000000000000000081526004016125a690613a2e565b60405180910390fd5b6040518060c001604052808a8152602001898152602001888152602001878152602001868152602001851515815250600660006003548152602001908152602001600020600082015181600001556020820151816001019080519060200190612619929190612ed2565b506040820151816002019080519060200190612636929190612ed2565b506060820151816003019080519060200190612653929190612ed2565b506080820151816004015560a08201518160050160006101000a81548160ff021916908315150217905550905050600360008154809291906126949061434a565b9190505550505050505050505050565b6126ac61297d565b73ffffffffffffffffffffffffffffffffffffffff166126ca611770565b73ffffffffffffffffffffffffffffffffffffffff1614612720576040517f08c379a000000000000000000000000000000000000000000000000000000000815260040161271790613bee565b60405180910390fd5b600073ffffffffffffffffffffffffffffffffffffffff168173ffffffffffffffffffffffffffffffffffffffff161415612790576040517f08c379a000000000000000000000000000000000000000000000000000000000815260040161278790613a8e565b60405180910390fd5b61279981612985565b50565b60066020528060005260406000206000915090508060000154908060010180546127c5906142e7565b80601f01602080910402602001604051908101604052809291908181526020018280546127f1906142e7565b801561283e5780601f106128135761010080835404028352916020019161283e565b820191906000526020600020905b81548152906001019060200180831161282157829003601f168201915b505050505090806002018054612853906142e7565b80601f016020809104026020016040519081016040528092919081815260200182805461287f906142e7565b80156128cc5780601f106128a1576101008083540402835291602001916128cc565b820191906000526020600020905b8154815290600101906020018083116128af57829003601f168201915b5050505050908060030180546128e1906142e7565b80601f016020809104026020016040519081016040528092919081815260200182805461290d906142e7565b801561295a5780601f1061292f5761010080835404028352916020019161295a565b820191906000526020600020905b81548152906001019060200180831161293d57829003601f168201915b5050505050908060040154908060050160009054906101000a900460ff16905086565b600033905090565b60008060009054906101000a900473ffffffffffffffffffffffffffffffffffffffff169050816000806101000a81548173ffffffffffffffffffffffffffffffffffffffff021916908373ffffffffffffffffffffffffffffffffffffffff1602179055508173ffffffffffffffffffffffffffffffffffffffff168173ffffffffffffffffffffffffffffffffffffffff167f8be0079c531659141344cd1fd0a4f28419497f9722a3daafe3b4186f6b6457e060405160405180910390a35050565b60606000821415612a91576040518060400160405280600181526020017f30000000000000000000000000000000000000000000000000000000000000008152509050612bf7565b600082905060005b60008214612ac3578080612aac9061434a565b915050600a82612abc9190613f69565b9150612a99565b60008167ffffffffffffffff811115612b05577f4e487b7100000000000000000000000000000000000000000000000000000000600052604160045260246000fd5b6040519080825280601f01601f191660200182016040528015612b375781602001600182028036833780820191505090505b50905060008290508593505b60008414612bef57600a84612b5891906143c4565b6030612b649190613ea9565b60f81b8282612b72906142bd565b92508281518110612bac577f4e487b7100000000000000000000000000000000000000000000000000000000600052603260045260246000fd5b60200101907effffffffffffffffffffffffffffffffffffffffffffffffffffffffffffff1916908160001a905350600a84612be89190613f69565b9350612b43565b819450505050505b919050565b600080600090506000806107b2905060006301e13380905060006301e2850090508187612c299190613f69565b8361ffff16612c389190613ea9565b61ffff169550612c4b8361ffff1661183a565b612c548761183a565b612c5e919061419f565b93508381612c6c91906140b1565b85612c779190613ea9565b9450838361ffff1687612c8a919061419f565b612c94919061419f565b82612c9f91906140b1565b85612caa9190613ea9565b94505b86851115612d0557612cca600187612cc5919061419f565b6117cb565b15612ce2578085612cdb919061419f565b9450612cf1565b8185612cee919061419f565b94505b600186612cfe919061419f565b9550612cad565b5050505050919050565b60008062015180905080612d24868686612d6e565b612d2e91906140b1565b9150509392505050565b60008062015180905082841115612d4e57600080fd5b808484612d5b919061419f565b612d659190613f69565b91505092915050565b60008062253d8c90506107b2851015612d8657600080fd5b60008590506000859050600085905060008460046064600c600e87612dab919061410b565b612db59190613eff565b61132488612dc39190613e15565b612dcd9190613e15565b612dd79190613eff565b6003612de39190613f9a565b612ded9190613eff565b600c80600c600e88612dff919061410b565b612e099190613eff565b612e139190613f9a565b600287612e20919061410b565b612e2a919061410b565b61016f612e379190613f9a565b612e419190613eff565b6004600c600e88612e52919061410b565b612e5c9190613eff565b6112c089612e6a9190613e15565b612e749190613e15565b6105b5612e819190613f9a565b612e8b9190613eff565b617d4b86612e99919061410b565b612ea39190613e15565b612ead9190613e15565b612eb7919061410b565b612ec1919061410b565b905080955050505050509392505050565b828054612ede906142e7565b90600052602060002090601f016020900481019282612f005760008555612f47565b82601f10612f1957805160ff1916838001178555612f47565b82800160010185558215612f47579182015b82811115612f46578251825591602001919060010190612f2b565b5b509050612f549190612f58565b5090565b5b80821115612f71576000816000905550600101612f59565b5090565b6000612f88612f8384613d64565b613d3f565b905082815260208101848484011115612fa057600080fd5b612fab84828561427b565b509392505050565b600081359050612fc281614c24565b92915050565b600081359050612fd781614c3b565b92915050565b600081519050612fec81614c3b565b92915050565b600082601f83011261300357600080fd5b8135613013848260208601612f75565b91505092915050565b60008135905061302b81614c52565b92915050565b60008135905061304081614c69565b92915050565b60006020828403121561305857600080fd5b600061306684828501612fb3565b91505092915050565b60006020828403121561308157600080fd5b600061308f84828501612fdd565b91505092915050565b600080600080600060a086880312156130b057600080fd5b600086013567ffffffffffffffff8111156130ca57600080fd5b6130d688828901612ff2565b95505060206130e788828901613031565b94505060406130f888828901613031565b935050606061310988828901613031565b925050608061311a88828901613031565b9150509295509295909350565b60006020828403121561313957600080fd5b60006131478482850161301c565b91505092915050565b60006020828403121561316257600080fd5b600061317084828501613031565b91505092915050565b60008060008060008060c0878903121561319257600080fd5b60006131a089828a01613031565b965050602087013567ffffffffffffffff8111156131bd57600080fd5b6131c989828a01612ff2565b955050604087013567ffffffffffffffff8111156131e657600080fd5b6131f289828a01612ff2565b945050606087013567ffffffffffffffff81111561320f57600080fd5b61321b89828a01612ff2565b935050608061322c89828a01613031565b92505060a061323d89828a01612fc8565b9150509295509295509295565b600080600080600080600060e0888a03121561326557600080fd5b60006132738a828b01613031565b97505060206132848a828b01613031565b965050604088013567ffffffffffffffff8111156132a157600080fd5b6132ad8a828b01612ff2565b955050606088013567ffffffffffffffff8111156132ca57600080fd5b6132d68a828b01612ff2565b94505060806132e78a828b01613031565b93505060a088013567ffffffffffffffff81111561330457600080fd5b6133108a828b01612ff2565b92505060c06133218a828b01612fb3565b91505092959891949750929550565b600061333c83836137cd565b60208301905092915050565b613351816141d3565b82525050565b600061336282613dba565b61336c8185613ddd565b935061337783613d95565b8060005b838110156133a857815161338f8882613330565b975061339a83613dd0565b92505060018101905061337b565b5085935050505092915050565b6133be816141e5565b82525050565b600081546133d1816142e7565b6133db8186613dee565b945060018216600081146133f657600181146134075761343a565b60ff1983168652818601935061343a565b61341085613da5565b60005b8381101561343257815481890152600182019150602081019050613413565b838801955050505b50505092915050565b61344c81614233565b82525050565b61345b81614257565b82525050565b600061346c82613dc5565b6134768185613df9565b935061348681856020860161428a565b61348f816144b1565b840191505092915050565b60006134a582613dc5565b6134af8185613e0a565b93506134bf81856020860161428a565b80840191505092915050565b60006134d8605483613df9565b91506134e3826144c2565b606082019050919050565b60006134fb602483613df9565b915061350682614537565b604082019050919050565b600061351e601983613df9565b915061352982614586565b602082019050919050565b6000613541602283613df9565b915061354c826145af565b604082019050919050565b6000613564602683613df9565b915061356f826145fe565b604082019050919050565b6000613587603f83613df9565b91506135928261464d565b604082019050919050565b60006135aa602383613df9565b91506135b58261469c565b604082019050919050565b60006135cd601f83613df9565b91506135d8826146eb565b602082019050919050565b60006135f0601883613df9565b91506135fb82614714565b602082019050919050565b6000613613602883613df9565b915061361e8261473d565b604082019050919050565b6000613636602383613df9565b91506136418261478c565b604082019050919050565b6000613659603383613df9565b9150613664826147db565b604082019050919050565b600061367c608983613df9565b91506136878261482a565b60a082019050919050565b600061369f601983613df9565b91506136aa826148eb565b602082019050919050565b60006136c2601783613df9565b91506136cd82614914565b602082019050919050565b60006136e5602083613df9565b91506136f08261493d565b602082019050919050565b6000613708604883613df9565b915061371382614966565b606082019050919050565b600061372b604983613df9565b9150613736826149db565b606082019050919050565b600061374e604a83613df9565b915061375982614a50565b606082019050919050565b6000613771604a83613df9565b915061377c82614ac5565b606082019050919050565b6000613794602483613e0a565b915061379f82614b3a565b602482019050919050565b60006137b7607683613df9565b91506137c282614b89565b608082019050919050565b6137d681614229565b82525050565b6137e581614229565b82525050565b60006137f782846133c4565b915081905092915050565b600061380d82613787565b9150613819828461349a565b915081905092915050565b60006020820190506138396000830184613348565b92915050565b60006060820190506138546000830186613348565b6138616020830185613348565b61386e60408301846137dc565b949350505050565b600060208201905081810360008301526138908184613357565b905092915050565b60006020820190506138ad60008301846133b5565b92915050565b60006020820190506138c86000830184613443565b92915050565b60006020820190506138e36000830184613452565b92915050565b600060208201905081810360008301526139038184613461565b905092915050565b6000610120820190508181036000830152613926818c613461565b9050818103602083015261393a818b613461565b9050613949604083018a613348565b61395660608301896137dc565b61396360808301886137dc565b61397060a08301876137dc565b61397d60c08301866133b5565b61398a60e08301856137dc565b6139986101008301846137dc565b9a9950505050505050505050565b600060a08201905081810360008301526139c08188613461565b905081810360208301526139d48187613461565b90506139e360408301866137dc565b81810360608301526139f58185613461565b9050613a046080830184613348565b9695505050505050565b60006020820190508181036000830152613a27816134cb565b9050919050565b60006020820190508181036000830152613a47816134ee565b9050919050565b60006020820190508181036000830152613a6781613511565b9050919050565b60006020820190508181036000830152613a8781613534565b9050919050565b60006020820190508181036000830152613aa781613557565b9050919050565b60006020820190508181036000830152613ac78161357a565b9050919050565b60006020820190508181036000830152613ae78161359d565b9050919050565b60006020820190508181036000830152613b07816135c0565b9050919050565b60006020820190508181036000830152613b27816135e3565b9050919050565b60006020820190508181036000830152613b4781613606565b9050919050565b60006020820190508181036000830152613b6781613629565b9050919050565b60006020820190508181036000830152613b878161364c565b9050919050565b60006020820190508181036000830152613ba78161366f565b9050919050565b60006020820190508181036000830152613bc781613692565b9050919050565b60006020820190508181036000830152613be7816136b5565b9050919050565b60006020820190508181036000830152613c07816136d8565b9050919050565b60006020820190508181036000830152613c27816136fb565b9050919050565b60006020820190508181036000830152613c478161371e565b9050919050565b60006020820190508181036000830152613c6781613741565b9050919050565b60006020820190508181036000830152613c8781613764565b9050919050565b60006020820190508181036000830152613ca7816137aa565b9050919050565b6000602082019050613cc360008301846137dc565b92915050565b600060c082019050613cde60008301896137dc565b8181036020830152613cf08188613461565b90508181036040830152613d048187613461565b90508181036060830152613d188186613461565b9050613d2760808301856137dc565b613d3460a08301846133b5565b979650505050505050565b6000613d49613d5a565b9050613d558282614319565b919050565b6000604051905090565b600067ffffffffffffffff821115613d7f57613d7e614482565b5b613d88826144b1565b9050602081019050919050565b6000819050602082019050919050565b60008190508160005260206000209050919050565b600081519050919050565b600081519050919050565b6000602082019050919050565b600082825260208201905092915050565b600081905092915050565b600082825260208201905092915050565b600081905092915050565b6000613e20826141f1565b9150613e2b836141f1565b9250817f7fffffffffffffffffffffffffffffffffffffffffffffffffffffffffffffff03831360008312151615613e6657613e656143f5565b5b817f8000000000000000000000000000000000000000000000000000000000000000038312600083121615613e9e57613e9d6143f5565b5b828201905092915050565b6000613eb482614229565b9150613ebf83614229565b9250827fffffffffffffffffffffffffffffffffffffffffffffffffffffffffffffffff03821115613ef457613ef36143f5565b5b828201905092915050565b6000613f0a826141f1565b9150613f15836141f1565b925082613f2557613f24614424565b5b600160000383147f800000000000000000000000000000000000000000000000000000000000000083141615613f5e57613f5d6143f5565b5b828205905092915050565b6000613f7482614229565b9150613f7f83614229565b925082613f8f57613f8e614424565b5b828204905092915050565b6000613fa5826141f1565b9150613fb0836141f1565b9250827f7fffffffffffffffffffffffffffffffffffffffffffffffffffffffffffffff0482116000841360008413161615613fef57613fee6143f5565b5b817f8000000000000000000000000000000000000000000000000000000000000000058312600084126000841316161561402c5761402b6143f5565b5b827f80000000000000000000000000000000000000000000000000000000000000000582126000841360008412161615614069576140686143f5565b5b827f7fffffffffffffffffffffffffffffffffffffffffffffffffffffffffffffff05821260008412600084121616156140a6576140a56143f5565b5b828202905092915050565b60006140bc82614229565b91506140c783614229565b9250817fffffffffffffffffffffffffffffffffffffffffffffffffffffffffffffffff0483118215151615614100576140ff6143f5565b5b828202905092915050565b6000614116826141f1565b9150614121836141f1565b9250827f80000000000000000000000000000000000000000000000000000000000000000182126000841215161561415c5761415b6143f5565b5b827f7fffffffffffffffffffffffffffffffffffffffffffffffffffffffffffffff018213600084121615614194576141936143f5565b5b828203905092915050565b60006141aa82614229565b91506141b583614229565b9250828210156141c8576141c76143f5565b5b828203905092915050565b60006141de82614209565b9050919050565b60008115159050919050565b6000819050919050565b600061ffff82169050919050565b600073ffffffffffffffffffffffffffffffffffffffff82169050919050565b6000819050919050565b600061423e82614245565b9050919050565b600061425082614209565b9050919050565b600061426282614269565b9050919050565b600061427482614209565b9050919050565b82818337600083830152505050565b60005b838110156142a857808201518184015260208101905061428d565b838111156142b7576000848401525b50505050565b60006142c882614229565b915060008214156142dc576142db6143f5565b5b600182039050919050565b600060028204905060018216806142ff57607f821691505b6020821081141561431357614312614453565b5b50919050565b614322826144b1565b810181811067ffffffffffffffff8211171561434157614340614482565b5b80604052505050565b600061435582614229565b91507fffffffffffffffffffffffffffffffffffffffffffffffffffffffffffffffff821415614388576143876143f5565b5b600182019050919050565b600061439e826141fb565b91506143a9836141fb565b9250826143b9576143b8614424565b5b828206905092915050565b60006143cf82614229565b91506143da83614229565b9250826143ea576143e9614424565b5b828206905092915050565b7f4e487b7100000000000000000000000000000000000000000000000000000000600052601160045260246000fd5b7f4e487b7100000000000000000000000000000000000000000000000000000000600052601260045260246000fd5b7f4e487b7100000000000000000000000000000000000000000000000000000000600052602260045260246000fd5b7f4e487b7100000000000000000000000000000000000000000000000000000000600052604160045260246000fd5b6000601f19601f8301169050919050565b7f437573746f6d65722773206465706f736974206e6f7420656e6f75676820746f60008201527f20636f76657220746865206164646974696f6e616c2064616d6167652063686160208201527f7267652c20746f70757020726571756972656421000000000000000000000000604082015250565b7f4475706c69636174656420636172206c6963656e736520706c617465206e756d60008201527f6265722100000000000000000000000000000000000000000000000000000000602082015250565b7f436865636b20796f7572206d6f6e746820656e74657265642100000000000000600082015250565b7f436172206f636375706965642c20706c65617365207069636b20616e6f74686560008201527f722e000000000000000000000000000000000000000000000000000000000000602082015250565b7f4f776e61626c653a206e6577206f776e657220697320746865207a65726f206160008201527f6464726573730000000000000000000000000000000000000000000000000000602082015250565b7f596f752068617665206e6f206578747261206665657320746f2070617921205960008201527f6f752063616e20676f20616865616420616e642072656e742061206361722100602082015250565b7f5468697320636172206973206e6f742072656e74656420627920637573746f6d60008201527f65722e0000000000000000000000000000000000000000000000000000000000602082015250565b7f4e6f206361727320666f7220637573746f6d65727320756e6465722032312e00600082015250565b7f5468652063617220686173206265656e2072656e7465642e0000000000000000600082015250565b7f5468657265206973206e6f206578747261206173736f6369617465642066656560008201527f20736f2066617221000000000000000000000000000000000000000000000000602082015250565b7f54686973206361722068617320616c7265616479206265656e2072657475726e60008201527f65642e0000000000000000000000000000000000000000000000000000000000602082015250565b7f54686572652773206f6e6c792034207479706573206f6620636172732072657060008201527f726573656e746564206279203120746f20342e00000000000000000000000000602082015250565b7f4f6e6c792070726f766964652034207479706573206f6620636172732120547960008201527f706520312063616e206163636f6d6d6f64617465206f6e6c7920322c2074797060208201527f65203220776974682033207e20352c2074797065203320776974682036207e2060408201527f382c20616e64207479706520342063616e206163636f6d6d6f64617465206d6f60608201527f7265207468616e20380000000000000000000000000000000000000000000000608082015250565b7f54686572652773206e6f2063617220696e20636f6d70616e7900000000000000600082015250565b7f436865636b20796f75722064617920656e746572656421000000000000000000600082015250565b7f4f776e61626c653a2063616c6c6572206973206e6f7420746865206f776e6572600082015250565b7f59656172206f662072657475726e2073686f756c64206265207468652063757260008201527f72656e742079656172206e6f772077686963682074686520636172206973207260208201527f657475726e65642e000000000000000000000000000000000000000000000000604082015250565b7f596f75206861766520746f20626520746865206f776e6572206f66207468652060008201527f77616c6c6574206164647265737320746f2070617920666f722074686520657860208201527f74726120666565732e0000000000000000000000000000000000000000000000604082015250565b7f54686520636f6d70616e79206e6565647320746f2073656e6420696e2035455460008201527f4820746f20636f6e6669726d20746865206361722072657475726e20616e642060208201527f72656c6973742069742e00000000000000000000000000000000000000000000604082015250565b7f4465706f736974206d757374206c6172676572207468616e207468652073756d60008201527f206f6620636172206465706f73697420616e642035202a206475726174696f6e60208201527f2028696e20455448292e00000000000000000000000000000000000000000000604082015250565b7f506c656173652070617920666f7220746865206578747261206665652065746860008201527f65723a2000000000000000000000000000000000000000000000000000000000602082015250565b7f596f75206861766520746f2070617920666f7220796f7572206578747261666560008201527f652e204465706f736974206d757374206c6172676572207468616e207468652060208201527f73756d206f6620636172206465706f736974202b2035202a206475726174696f60408201527f6e2028696e2045544829202b2065787472616665652e00000000000000000000606082015250565b614c2d816141d3565b8114614c3857600080fd5b50565b614c44816141e5565b8114614c4f57600080fd5b50565b614c5b816141fb565b8114614c6657600080fd5b50565b614c7281614229565b8114614c7d57600080fd5b5056fea2646970667358221220321da06d19c45346f7dd5c9fec2b4ae52724094b589000f46d5e2e7f6bfa8e9d64736f6c63430008010033608060405234801561001057600080fd5b506103e86000803373ffffffffffffffffffffffffffffffffffffffff1673ffffffffffffffffffffffffffffffffffffffff16815260200190815260200160002081905550610b34806100656000396000f3fe608060405234801561001057600080fd5b50600436106100935760003560e01c8063313ce56711610066578063313ce5671461013457806370a082311461015257806395d89b4114610182578063a9059cbb146101a0578063dd62ed3e146101d057610093565b806306fdde0314610098578063095ea7b3146100b657806318160ddd146100e657806323b872dd14610104575b600080fd5b6100a0610200565b6040516100ad919061090a565b60405180910390f35b6100d060048036038101906100cb919061084d565b610239565b6040516100dd91906108ef565b60405180910390f35b6100ee6102c6565b6040516100fb919061092c565b60405180910390f35b61011e600480360381019061011991906107fe565b6102d0565b60405161012b91906108ef565b60405180910390f35b61013c610586565b6040516101499190610947565b60405180910390f35b61016c60048036038101906101679190610799565b61058b565b604051610179919061092c565b60405180910390f35b61018a6105d3565b604051610197919061090a565b60405180910390f35b6101ba60048036038101906101b5919061084d565b61060c565b6040516101c791906108ef565b60405180910390f35b6101ea60048036038101906101e591906107c2565b6106e8565b6040516101f7919061092c565b60405180910390f35b6040518060400160405280601281526020017f4d6963726f66696e616e636520546f6b656e000000000000000000000000000081525081565b600081600160003373ffffffffffffffffffffffffffffffffffffffff1673ffffffffffffffffffffffffffffffffffffffff16815260200190815260200160002060008573ffffffffffffffffffffffffffffffffffffffff1673ffffffffffffffffffffffffffffffffffffffff168152602001908152602001600020819055506001905092915050565b60006103e8905090565b600080600160008673ffffffffffffffffffffffffffffffffffffffff1673ffffffffffffffffffffffffffffffffffffffff16815260200190815260200160002060003373ffffffffffffffffffffffffffffffffffffffff1673ffffffffffffffffffffffffffffffffffffffff1681526020019081526020016000205411801561035d5750600082115b80156103e5575081600160008673ffffffffffffffffffffffffffffffffffffffff1673ffffffffffffffffffffffffffffffffffffffff16815260200190815260200160002060003373ffffffffffffffffffffffffffffffffffffffff1673ffffffffffffffffffffffffffffffffffffffff1681526020019081526020016000205410155b801561042f5750816000808673ffffffffffffffffffffffffffffffffffffffff1673ffffffffffffffffffffffffffffffffffffffff1681526020019081526020016000205410155b1561057a57816000808673ffffffffffffffffffffffffffffffffffffffff1673ffffffffffffffffffffffffffffffffffffffff168152602001908152602001600020600082825461048291906109d4565b92505081905550816000808573ffffffffffffffffffffffffffffffffffffffff1673ffffffffffffffffffffffffffffffffffffffff16815260200190815260200160002060008282546104d7919061097e565b9250508190555081600160008673ffffffffffffffffffffffffffffffffffffffff1673ffffffffffffffffffffffffffffffffffffffff16815260200190815260200160002060003373ffffffffffffffffffffffffffffffffffffffff1673ffffffffffffffffffffffffffffffffffffffff168152602001908152602001600020600082825461056a91906109d4565b925050819055506001905061057f565b600090505b9392505050565b600081565b60008060008373ffffffffffffffffffffffffffffffffffffffff1673ffffffffffffffffffffffffffffffffffffffff168152602001908152602001600020549050919050565b6040518060400160405280600381526020017f4d4654000000000000000000000000000000000000000000000000000000000081525081565b6000808211801561062557506106213361058b565b8211155b156106dd57816000803373ffffffffffffffffffffffffffffffffffffffff1673ffffffffffffffffffffffffffffffffffffffff168152602001908152602001600020600082825461067891906109d4565b92505081905550816000808573ffffffffffffffffffffffffffffffffffffffff1673ffffffffffffffffffffffffffffffffffffffff16815260200190815260200160002060008282546106cd919061097e565b92505081905550600190506106e2565b600090505b92915050565b6000600160008473ffffffffffffffffffffffffffffffffffffffff1673ffffffffffffffffffffffffffffffffffffffff16815260200190815260200160002060008373ffffffffffffffffffffffffffffffffffffffff1673ffffffffffffffffffffffffffffffffffffffff16815260200190815260200160002054905092915050565b60008135905061077e81610ad0565b92915050565b60008135905061079381610ae7565b92915050565b6000602082840312156107ab57600080fd5b60006107b98482850161076f565b91505092915050565b600080604083850312156107d557600080fd5b60006107e38582860161076f565b92505060206107f48582860161076f565b9150509250929050565b60008060006060848603121561081357600080fd5b60006108218682870161076f565b93505060206108328682870161076f565b925050604061084386828701610784565b9150509250925092565b6000806040838503121561086057600080fd5b600061086e8582860161076f565b925050602061087f85828601610784565b9150509250929050565b61089281610a1a565b82525050565b60006108a382610962565b6108ad818561096d565b93506108bd818560208601610a5d565b6108c681610abf565b840191505092915050565b6108da81610a46565b82525050565b6108e981610a50565b82525050565b60006020820190506109046000830184610889565b92915050565b600060208201905081810360008301526109248184610898565b905092915050565b600060208201905061094160008301846108d1565b92915050565b600060208201905061095c60008301846108e0565b92915050565b600081519050919050565b600082825260208201905092915050565b600061098982610a46565b915061099483610a46565b9250827fffffffffffffffffffffffffffffffffffffffffffffffffffffffffffffffff038211156109c9576109c8610a90565b5b828201905092915050565b60006109df82610a46565b91506109ea83610a46565b9250828210156109fd576109fc610a90565b5b828203905092915050565b6000610a1382610a26565b9050919050565b60008115159050919050565b600073ffffffffffffffffffffffffffffffffffffffff82169050919050565b6000819050919050565b600060ff82169050919050565b60005b83811015610a7b578082015181840152602081019050610a60565b83811115610a8a576000848401525b50505050565b7f4e487b7100000000000000000000000000000000000000000000000000000000600052601160045260246000fd5b6000601f19601f8301169050919050565b610ad981610a08565b8114610ae457600080fd5b50565b610af081610a46565b8114610afb57600080fd5b5056fea26469706673582212207a3679fd0d17f1d474a3203d0f76e0a724b391dafd17c364095abf7fd3428ae764736f6c63430008010033608060405260006001556000600255600060035534801561001f57600080fd5b50336000806101000a81548173ffffffffffffffffffffffffffffffffffffffff021916908373ffffffffffffffffffffffffffffffffffffffff1602179055506142cf8061006f6000396000f3fe608060405234801561001057600080fd5b506004361061010b5760003560e01c80635f139a50116100a2578063a3bee99a11610071578063a3bee99a146102a2578063a7558081146102be578063e701c350146102da578063ee6fc3b41461030a578063f7fd492e146103285761010b565b80635f139a501461022e57806366f780e91461024a5780637b80d81c146102685780639a471920146102865761010b565b806326f8f8e7116100de57806326f8f8e71461019457806332abcdbe146101c45780633314168c146101e2578063450ba9bd146102125761010b565b8063053ff76c1461011057806319610fec1461012c5780631afa82101461015c5780631ba450ca14610178575b600080fd5b61012a6004803603810190610125919061343f565b610344565b005b61014660048036038101906101419190613416565b610881565b6040516101539190613af7565b60405180910390f35b61017660048036038101906101719190613416565b6109b4565b005b610192600480360381019061018d919061343f565b610c39565b005b6101ae60048036038101906101a99190613416565b611007565b6040516101bb9190613af7565b60405180910390f35b6101cc61105f565b6040516101d99190613a91565b60405180910390f35b6101fc60048036038101906101f79190613416565b6114ff565b6040516102099190613af7565b60405180910390f35b61022c60048036038101906102279190613416565b611633565b005b61024860048036038101906102439190613416565b6118b8565b005b610252611b3d565b60405161025f9190613a76565b60405180910390f35b610270611b66565b60405161027d9190613ad5565b60405180910390f35b6102a0600480360381019061029b9190613416565b611faf565b005b6102bc60048036038101906102b7919061343f565b612234565b005b6102d860048036038101906102d39190613416565b612602565b005b6102f460048036038101906102ef9190613416565b612887565b6040516103019190613af7565b60405180910390f35b6103126129bb565b60405161031f9190613ab3565b60405180910390f35b610342600480360381019061033d9190613416565b612e04565b005b336001600381111561037f577f4e487b7100000000000000000000000000000000000000000000000000000000600052602160045260246000fd5b600560008373ffffffffffffffffffffffffffffffffffffffff1673ffffffffffffffffffffffffffffffffffffffff16815260200190815260200160002060040160009054906101000a900460ff166003811115610407577f4e487b7100000000000000000000000000000000000000000000000000000000600052602160045260246000fd5b14610447576040517f08c379a000000000000000000000000000000000000000000000000000000000815260040161043e90613bf2565b60405180910390fd5b82600080600460008473ffffffffffffffffffffffffffffffffffffffff1673ffffffffffffffffffffffffffffffffffffffff16815260200190815260200160002060000154141561049957600190505b806104d9576040517f08c379a00000000000000000000000000000000000000000000000000000000081526004016104d090613b72565b60405180910390fd5b60016002546104e89190613e49565b600281905550600060405180610100016040528060025481526020018881526020018773ffffffffffffffffffffffffffffffffffffffff16815260200186815260200160026003811115610566577f4e487b7100000000000000000000000000000000000000000000000000000000600052602160045260246000fd5b81526020013373ffffffffffffffffffffffffffffffffffffffff168152602001600015158152602001600060028111156105ca577f4e487b7100000000000000000000000000000000000000000000000000000000600052602160045260246000fd5b815250905080600460008873ffffffffffffffffffffffffffffffffffffffff1673ffffffffffffffffffffffffffffffffffffffff168152602001908152602001600020600082015181600001556020820151816001019080519060200190610635929190613089565b5060408201518160020160006101000a81548173ffffffffffffffffffffffffffffffffffffffff021916908373ffffffffffffffffffffffffffffffffffffffff1602179055506060820151816003019080519060200190610699929190613089565b5060808201518160040160006101000a81548160ff021916908360038111156106eb577f4e487b7100000000000000000000000000000000000000000000000000000000600052602160045260246000fd5b021790555060a08201518160040160016101000a81548173ffffffffffffffffffffffffffffffffffffffff021916908373ffffffffffffffffffffffffffffffffffffffff16021790555060c08201518160040160156101000a81548160ff02191690831515021790555060e08201518160040160166101000a81548160ff021916908360028111156107a8577f4e487b7100000000000000000000000000000000000000000000000000000000600052602160045260246000fd5b02179055509050506008869080600181540180825580915050600190039060005260206000200160009091909190916101000a81548173ffffffffffffffffffffffffffffffffffffffff021916908373ffffffffffffffffffffffffffffffffffffffff1602179055507f2fd1ca812767e1602d7777d13b399784539051517670167c434dc68d7fe717d7816000015182602001518360400151846060015185608001518660a001518760c001518860e00151604051610870989796959493929190613c12565b60405180910390a150505050505050565b600080600090506003808111156108c1577f4e487b7100000000000000000000000000000000000000000000000000000000600052602160045260246000fd5b600660008573ffffffffffffffffffffffffffffffffffffffff1673ffffffffffffffffffffffffffffffffffffffff16815260200190815260200160002060040160009054906101000a900460ff166003811115610949577f4e487b7100000000000000000000000000000000000000000000000000000000600052602160045260246000fd5b1480156109a9575060011515600660008573ffffffffffffffffffffffffffffffffffffffff1673ffffffffffffffffffffffffffffffffffffffff16815260200190815260200160002060040160019054906101000a900460ff161515145b905080915050919050565b338073ffffffffffffffffffffffffffffffffffffffff1660008054906101000a900473ffffffffffffffffffffffffffffffffffffffff1673ffffffffffffffffffffffffffffffffffffffff1614610a43576040517f08c379a0000000000000000000000000000000000000000000000000000000008152600401610a3a90613b92565b60405180910390fd5b816000806002811115610a7f577f4e487b7100000000000000000000000000000000000000000000000000000000600052602160045260246000fd5b600460008473ffffffffffffffffffffffffffffffffffffffff1673ffffffffffffffffffffffffffffffffffffffff16815260200190815260200160002060040160169054906101000a900460ff166002811115610b07577f4e487b7100000000000000000000000000000000000000000000000000000000600052602160045260246000fd5b14610b47576040517f08c379a0000000000000000000000000000000000000000000000000000000008152600401610b3e90613bb2565b60405180910390fd5b6000600460008673ffffffffffffffffffffffffffffffffffffffff1673ffffffffffffffffffffffffffffffffffffffff16815260200190815260200160002060040160156101000a81548160ff0219169083151502179055506002600460008673ffffffffffffffffffffffffffffffffffffffff1673ffffffffffffffffffffffffffffffffffffffff16815260200190815260200160002060040160166101000a81548160ff02191690836002811115610c2e577f4e487b7100000000000000000000000000000000000000000000000000000000600052602160045260246000fd5b021790555050505050565b81600080600660008473ffffffffffffffffffffffffffffffffffffffff1673ffffffffffffffffffffffffffffffffffffffff168152602001908152602001600020600001541415610c8b57600190505b80610ccb576040517f08c379a0000000000000000000000000000000000000000000000000000000008152600401610cc290613b12565b60405180910390fd5b6001600354610cda9190613e49565b60038190555060006040518060e0016040528060035481526020018781526020018673ffffffffffffffffffffffffffffffffffffffff168152602001858152602001600380811115610d56577f4e487b7100000000000000000000000000000000000000000000000000000000600052602160045260246000fd5b815260200160001515815260200160006002811115610d9e577f4e487b7100000000000000000000000000000000000000000000000000000000600052602160045260246000fd5b815250905080600660008773ffffffffffffffffffffffffffffffffffffffff1673ffffffffffffffffffffffffffffffffffffffff168152602001908152602001600020600082015181600001556020820151816001019080519060200190610e09929190613089565b5060408201518160020160006101000a81548173ffffffffffffffffffffffffffffffffffffffff021916908373ffffffffffffffffffffffffffffffffffffffff1602179055506060820151816003019080519060200190610e6d929190613089565b5060808201518160040160006101000a81548160ff02191690836003811115610ebf577f4e487b7100000000000000000000000000000000000000000000000000000000600052602160045260246000fd5b021790555060a08201518160040160016101000a81548160ff02191690831515021790555060c08201518160040160026101000a81548160ff02191690836002811115610f35577f4e487b7100000000000000000000000000000000000000000000000000000000600052602160045260246000fd5b02179055509050506009859080600181540180825580915050600190039060005260206000200160009091909190916101000a81548173ffffffffffffffffffffffffffffffffffffffff021916908373ffffffffffffffffffffffffffffffffffffffff1602179055507f68960291ab091525cb4ead822fff7251a27a945731b48b0781e1160a6e9d7898816000015182602001518360400151846060015185608001518660a001518760c00151604051610ff79796959493929190613c9e565b60405180910390a1505050505050565b60008173ffffffffffffffffffffffffffffffffffffffff1660008054906101000a900473ffffffffffffffffffffffffffffffffffffffff1673ffffffffffffffffffffffffffffffffffffffff16149050919050565b6060600060025467ffffffffffffffff8111156110a5577f4e487b7100000000000000000000000000000000000000000000000000000000600052604160045260246000fd5b6040519080825280602002602001820160405280156110de57816020015b6110cb61310f565b8152602001906001900390816110c35790505b50905060005b6002548110156114f757600460006008838154811061112c577f4e487b7100000000000000000000000000000000000000000000000000000000600052603260045260246000fd5b9060005260206000200160009054906101000a900473ffffffffffffffffffffffffffffffffffffffff1673ffffffffffffffffffffffffffffffffffffffff1673ffffffffffffffffffffffffffffffffffffffff16815260200190815260200160002060405180610100016040529081600082015481526020016001820180546111b790613f73565b80601f01602080910402602001604051908101604052809291908181526020018280546111e390613f73565b80156112305780601f1061120557610100808354040283529160200191611230565b820191906000526020600020905b81548152906001019060200180831161121357829003601f168201915b505050505081526020016002820160009054906101000a900473ffffffffffffffffffffffffffffffffffffffff1673ffffffffffffffffffffffffffffffffffffffff1673ffffffffffffffffffffffffffffffffffffffff16815260200160038201805461129f90613f73565b80601f01602080910402602001604051908101604052809291908181526020018280546112cb90613f73565b80156113185780601f106112ed57610100808354040283529160200191611318565b820191906000526020600020905b8154815290600101906020018083116112fb57829003601f168201915b505050505081526020016004820160009054906101000a900460ff16600381111561136c577f4e487b7100000000000000000000000000000000000000000000000000000000600052602160045260246000fd5b60038111156113a4577f4e487b7100000000000000000000000000000000000000000000000000000000600052602160045260246000fd5b81526020016004820160019054906101000a900473ffffffffffffffffffffffffffffffffffffffff1673ffffffffffffffffffffffffffffffffffffffff1673ffffffffffffffffffffffffffffffffffffffff1681526020016004820160159054906101000a900460ff161515151581526020016004820160169054906101000a900460ff166002811115611464577f4e487b7100000000000000000000000000000000000000000000000000000000600052602160045260246000fd5b600281111561149c577f4e487b7100000000000000000000000000000000000000000000000000000000600052602160045260246000fd5b815250508282815181106114d9577f4e487b7100000000000000000000000000000000000000000000000000000000600052603260045260246000fd5b602002602001018190525080806114ef90613fd6565b9150506110e4565b508091505090565b6000806000905060016003811115611540577f4e487b7100000000000000000000000000000000000000000000000000000000600052602160045260246000fd5b600560008573ffffffffffffffffffffffffffffffffffffffff1673ffffffffffffffffffffffffffffffffffffffff16815260200190815260200160002060040160009054906101000a900460ff1660038111156115c8577f4e487b7100000000000000000000000000000000000000000000000000000000600052602160045260246000fd5b148015611628575060011515600560008573ffffffffffffffffffffffffffffffffffffffff1673ffffffffffffffffffffffffffffffffffffffff16815260200190815260200160002060040160019054906101000a900460ff161515145b905080915050919050565b338073ffffffffffffffffffffffffffffffffffffffff1660008054906101000a900473ffffffffffffffffffffffffffffffffffffffff1673ffffffffffffffffffffffffffffffffffffffff16146116c2576040517f08c379a00000000000000000000000000000000000000000000000000000000081526004016116b990613b92565b60405180910390fd5b8160008060028111156116fe577f4e487b7100000000000000000000000000000000000000000000000000000000600052602160045260246000fd5b600560008473ffffffffffffffffffffffffffffffffffffffff1673ffffffffffffffffffffffffffffffffffffffff16815260200190815260200160002060040160029054906101000a900460ff166002811115611786577f4e487b7100000000000000000000000000000000000000000000000000000000600052602160045260246000fd5b146117c6576040517f08c379a00000000000000000000000000000000000000000000000000000000081526004016117bd90613b52565b60405180910390fd5b6001600560008673ffffffffffffffffffffffffffffffffffffffff1673ffffffffffffffffffffffffffffffffffffffff16815260200190815260200160002060040160016101000a81548160ff0219169083151502179055506001600560008673ffffffffffffffffffffffffffffffffffffffff1673ffffffffffffffffffffffffffffffffffffffff16815260200190815260200160002060040160026101000a81548160ff021916908360028111156118ad577f4e487b7100000000000000000000000000000000000000000000000000000000600052602160045260246000fd5b021790555050505050565b338073ffffffffffffffffffffffffffffffffffffffff1660008054906101000a900473ffffffffffffffffffffffffffffffffffffffff1673ffffffffffffffffffffffffffffffffffffffff1614611947576040517f08c379a000000000000000000000000000000000000000000000000000000000815260040161193e90613b92565b60405180910390fd5b816000806002811115611983577f4e487b7100000000000000000000000000000000000000000000000000000000600052602160045260246000fd5b600660008473ffffffffffffffffffffffffffffffffffffffff1673ffffffffffffffffffffffffffffffffffffffff16815260200190815260200160002060040160029054906101000a900460ff166002811115611a0b577f4e487b7100000000000000000000000000000000000000000000000000000000600052602160045260246000fd5b14611a4b576040517f08c379a0000000000000000000000000000000000000000000000000000000008152600401611a4290613bd2565b60405180910390fd5b6000600660008673ffffffffffffffffffffffffffffffffffffffff1673ffffffffffffffffffffffffffffffffffffffff16815260200190815260200160002060040160016101000a81548160ff0219169083151502179055506002600660008673ffffffffffffffffffffffffffffffffffffffff1673ffffffffffffffffffffffffffffffffffffffff16815260200190815260200160002060040160026101000a81548160ff02191690836002811115611b32577f4e487b7100000000000000000000000000000000000000000000000000000000600052602160045260246000fd5b021790555050505050565b60008060009054906101000a900473ffffffffffffffffffffffffffffffffffffffff16905090565b6060600060035467ffffffffffffffff811115611bac577f4e487b7100000000000000000000000000000000000000000000000000000000600052604160045260246000fd5b604051908082528060200260200182016040528015611be557816020015b611bd26131f2565b815260200190600190039081611bca5790505b50905060005b600354811015611fa7576006600060098381548110611c33577f4e487b7100000000000000000000000000000000000000000000000000000000600052603260045260246000fd5b9060005260206000200160009054906101000a900473ffffffffffffffffffffffffffffffffffffffff1673ffffffffffffffffffffffffffffffffffffffff1673ffffffffffffffffffffffffffffffffffffffff1681526020019081526020016000206040518060e001604052908160008201548152602001600182018054611cbd90613f73565b80601f0160208091040260200160405190810160405280929190818152602001828054611ce990613f73565b8015611d365780601f10611d0b57610100808354040283529160200191611d36565b820191906000526020600020905b815481529060010190602001808311611d1957829003601f168201915b505050505081526020016002820160009054906101000a900473ffffffffffffffffffffffffffffffffffffffff1673ffffffffffffffffffffffffffffffffffffffff1673ffffffffffffffffffffffffffffffffffffffff168152602001600382018054611da590613f73565b80601f0160208091040260200160405190810160405280929190818152602001828054611dd190613f73565b8015611e1e5780601f10611df357610100808354040283529160200191611e1e565b820191906000526020600020905b815481529060010190602001808311611e0157829003601f168201915b505050505081526020016004820160009054906101000a900460ff166003811115611e72577f4e487b7100000000000000000000000000000000000000000000000000000000600052602160045260246000fd5b6003811115611eaa577f4e487b7100000000000000000000000000000000000000000000000000000000600052602160045260246000fd5b81526020016004820160019054906101000a900460ff161515151581526020016004820160029054906101000a900460ff166002811115611f14577f4e487b7100000000000000000000000000000000000000000000000000000000600052602160045260246000fd5b6002811115611f4c577f4e487b7100000000000000000000000000000000000000000000000000000000600052602160045260246000fd5b81525050828281518110611f89577f4e487b7100000000000000000000000000000000000000000000000000000000600052603260045260246000fd5b60200260200101819052508080611f9f90613fd6565b915050611beb565b508091505090565b338073ffffffffffffffffffffffffffffffffffffffff1660008054906101000a900473ffffffffffffffffffffffffffffffffffffffff1673ffffffffffffffffffffffffffffffffffffffff161461203e576040517f08c379a000000000000000000000000000000000000000000000000000000000815260040161203590613b92565b60405180910390fd5b81600080600281111561207a577f4e487b7100000000000000000000000000000000000000000000000000000000600052602160045260246000fd5b600460008473ffffffffffffffffffffffffffffffffffffffff1673ffffffffffffffffffffffffffffffffffffffff16815260200190815260200160002060040160169054906101000a900460ff166002811115612102577f4e487b7100000000000000000000000000000000000000000000000000000000600052602160045260246000fd5b14612142576040517f08c379a000000000000000000000000000000000000000000000000000000000815260040161213990613bb2565b60405180910390fd5b6001600460008673ffffffffffffffffffffffffffffffffffffffff1673ffffffffffffffffffffffffffffffffffffffff16815260200190815260200160002060040160156101000a81548160ff0219169083151502179055506001600460008673ffffffffffffffffffffffffffffffffffffffff1673ffffffffffffffffffffffffffffffffffffffff16815260200190815260200160002060040160166101000a81548160ff02191690836002811115612229577f4e487b7100000000000000000000000000000000000000000000000000000000600052602160045260246000fd5b021790555050505050565b81600080600560008473ffffffffffffffffffffffffffffffffffffffff1673ffffffffffffffffffffffffffffffffffffffff16815260200190815260200160002060000154141561228657600190505b806122c6576040517f08c379a00000000000000000000000000000000000000000000000000000000081526004016122bd90613b32565b60405180910390fd5b600180546122d49190613e49565b60018190555060006040518060e0016040528060015481526020018781526020018673ffffffffffffffffffffffffffffffffffffffff16815260200185815260200160016003811115612351577f4e487b7100000000000000000000000000000000000000000000000000000000600052602160045260246000fd5b815260200160001515815260200160006002811115612399577f4e487b7100000000000000000000000000000000000000000000000000000000600052602160045260246000fd5b815250905080600560008773ffffffffffffffffffffffffffffffffffffffff1673ffffffffffffffffffffffffffffffffffffffff168152602001908152602001600020600082015181600001556020820151816001019080519060200190612404929190613089565b5060408201518160020160006101000a81548173ffffffffffffffffffffffffffffffffffffffff021916908373ffffffffffffffffffffffffffffffffffffffff1602179055506060820151816003019080519060200190612468929190613089565b5060808201518160040160006101000a81548160ff021916908360038111156124ba577f4e487b7100000000000000000000000000000000000000000000000000000000600052602160045260246000fd5b021790555060a08201518160040160016101000a81548160ff02191690831515021790555060c08201518160040160026101000a81548160ff02191690836002811115612530577f4e487b7100000000000000000000000000000000000000000000000000000000600052602160045260246000fd5b02179055509050506007859080600181540180825580915050600190039060005260206000200160009091909190916101000a81548173ffffffffffffffffffffffffffffffffffffffff021916908373ffffffffffffffffffffffffffffffffffffffff1602179055507f1cd2322aedf77432d55a859c261bf1cabb90f30da647d482a0c82a8ee447ffa1816000015182602001518360400151846060015185608001518660a001518760c001516040516125f29796959493929190613c9e565b60405180910390a1505050505050565b338073ffffffffffffffffffffffffffffffffffffffff1660008054906101000a900473ffffffffffffffffffffffffffffffffffffffff1673ffffffffffffffffffffffffffffffffffffffff1614612691576040517f08c379a000000000000000000000000000000000000000000000000000000000815260040161268890613b92565b60405180910390fd5b8160008060028111156126cd577f4e487b7100000000000000000000000000000000000000000000000000000000600052602160045260246000fd5b600660008473ffffffffffffffffffffffffffffffffffffffff1673ffffffffffffffffffffffffffffffffffffffff16815260200190815260200160002060040160029054906101000a900460ff166002811115612755577f4e487b7100000000000000000000000000000000000000000000000000000000600052602160045260246000fd5b14612795576040517f08c379a000000000000000000000000000000000000000000000000000000000815260040161278c90613bd2565b60405180910390fd5b6001600660008673ffffffffffffffffffffffffffffffffffffffff1673ffffffffffffffffffffffffffffffffffffffff16815260200190815260200160002060040160016101000a81548160ff0219169083151502179055506001600660008673ffffffffffffffffffffffffffffffffffffffff1673ffffffffffffffffffffffffffffffffffffffff16815260200190815260200160002060040160026101000a81548160ff0219169083600281111561287c577f4e487b7100000000000000000000000000000000000000000000000000000000600052602160045260246000fd5b021790555050505050565b60008060009050600260038111156128c8577f4e487b7100000000000000000000000000000000000000000000000000000000600052602160045260246000fd5b600460008573ffffffffffffffffffffffffffffffffffffffff1673ffffffffffffffffffffffffffffffffffffffff16815260200190815260200160002060040160009054906101000a900460ff166003811115612950577f4e487b7100000000000000000000000000000000000000000000000000000000600052602160045260246000fd5b1480156129b0575060011515600460008573ffffffffffffffffffffffffffffffffffffffff1673ffffffffffffffffffffffffffffffffffffffff16815260200190815260200160002060040160159054906101000a900460ff161515145b905080915050919050565b6060600060015467ffffffffffffffff811115612a01577f4e487b7100000000000000000000000000000000000000000000000000000000600052604160045260246000fd5b604051908082528060200260200182016040528015612a3a57816020015b612a276132b7565b815260200190600190039081612a1f5790505b50905060005b600154811015612dfc576005600060078381548110612a88577f4e487b7100000000000000000000000000000000000000000000000000000000600052603260045260246000fd5b9060005260206000200160009054906101000a900473ffffffffffffffffffffffffffffffffffffffff1673ffffffffffffffffffffffffffffffffffffffff1673ffffffffffffffffffffffffffffffffffffffff1681526020019081526020016000206040518060e001604052908160008201548152602001600182018054612b1290613f73565b80601f0160208091040260200160405190810160405280929190818152602001828054612b3e90613f73565b8015612b8b5780601f10612b6057610100808354040283529160200191612b8b565b820191906000526020600020905b815481529060010190602001808311612b6e57829003601f168201915b505050505081526020016002820160009054906101000a900473ffffffffffffffffffffffffffffffffffffffff1673ffffffffffffffffffffffffffffffffffffffff1673ffffffffffffffffffffffffffffffffffffffff168152602001600382018054612bfa90613f73565b80601f0160208091040260200160405190810160405280929190818152602001828054612c2690613f73565b8015612c735780601f10612c4857610100808354040283529160200191612c73565b820191906000526020600020905b815481529060010190602001808311612c5657829003601f168201915b505050505081526020016004820160009054906101000a900460ff166003811115612cc7577f4e487b7100000000000000000000000000000000000000000000000000000000600052602160045260246000fd5b6003811115612cff577f4e487b7100000000000000000000000000000000000000000000000000000000600052602160045260246000fd5b81526020016004820160019054906101000a900460ff161515151581526020016004820160029054906101000a900460ff166002811115612d69577f4e487b7100000000000000000000000000000000000000000000000000000000600052602160045260246000fd5b6002811115612da1577f4e487b7100000000000000000000000000000000000000000000000000000000600052602160045260246000fd5b81525050828281518110612dde577f4e487b7100000000000000000000000000000000000000000000000000000000600052603260045260246000fd5b60200260200101819052508080612df490613fd6565b915050612a40565b508091505090565b338073ffffffffffffffffffffffffffffffffffffffff1660008054906101000a900473ffffffffffffffffffffffffffffffffffffffff1673ffffffffffffffffffffffffffffffffffffffff1614612e93576040517f08c379a0000000000000000000000000000000000000000000000000000000008152600401612e8a90613b92565b60405180910390fd5b816000806002811115612ecf577f4e487b7100000000000000000000000000000000000000000000000000000000600052602160045260246000fd5b600560008473ffffffffffffffffffffffffffffffffffffffff1673ffffffffffffffffffffffffffffffffffffffff16815260200190815260200160002060040160029054906101000a900460ff166002811115612f57577f4e487b7100000000000000000000000000000000000000000000000000000000600052602160045260246000fd5b14612f97576040517f08c379a0000000000000000000000000000000000000000000000000000000008152600401612f8e90613b52565b60405180910390fd5b6000600560008673ffffffffffffffffffffffffffffffffffffffff1673ffffffffffffffffffffffffffffffffffffffff16815260200190815260200160002060040160016101000a81548160ff0219169083151502179055506002600560008673ffffffffffffffffffffffffffffffffffffffff1673ffffffffffffffffffffffffffffffffffffffff16815260200190815260200160002060040160026101000a81548160ff0219169083600281111561307e577f4e487b7100000000000000000000000000000000000000000000000000000000600052602160045260246000fd5b021790555050505050565b82805461309590613f73565b90600052602060002090601f0160209004810192826130b757600085556130fe565b82601f106130d057805160ff19168380011785556130fe565b828001600101855582156130fe579182015b828111156130fd5782518255916020019190600101906130e2565b5b50905061310b919061337c565b5090565b6040518061010001604052806000815260200160608152602001600073ffffffffffffffffffffffffffffffffffffffff1681526020016060815260200160006003811115613187577f4e487b7100000000000000000000000000000000000000000000000000000000600052602160045260246000fd5b8152602001600073ffffffffffffffffffffffffffffffffffffffff168152602001600015158152602001600060028111156131ec577f4e487b7100000000000000000000000000000000000000000000000000000000600052602160045260246000fd5b81525090565b6040518060e001604052806000815260200160608152602001600073ffffffffffffffffffffffffffffffffffffffff1681526020016060815260200160006003811115613269577f4e487b7100000000000000000000000000000000000000000000000000000000600052602160045260246000fd5b8152602001600015158152602001600060028111156132b1577f4e487b7100000000000000000000000000000000000000000000000000000000600052602160045260246000fd5b81525090565b6040518060e001604052806000815260200160608152602001600073ffffffffffffffffffffffffffffffffffffffff168152602001606081526020016000600381111561332e577f4e487b7100000000000000000000000000000000000000000000000000000000600052602160045260246000fd5b815260200160001515815260200160006002811115613376577f4e487b7100000000000000000000000000000000000000000000000000000000600052602160045260246000fd5b81525090565b5b8082111561339557600081600090555060010161337d565b5090565b60006133ac6133a784613d40565b613d1b565b9050828152602081018484840111156133c457600080fd5b6133cf848285613f31565b509392505050565b6000813590506133e681614282565b92915050565b600082601f8301126133fd57600080fd5b813561340d848260208601613399565b91505092915050565b60006020828403121561342857600080fd5b6000613436848285016133d7565b91505092915050565b60008060006060848603121561345457600080fd5b600084013567ffffffffffffffff81111561346e57600080fd5b61347a868287016133ec565b935050602061348b868287016133d7565b925050604084013567ffffffffffffffff8111156134a857600080fd5b6134b4868287016133ec565b9150509250925092565b60006134ca838361385b565b905092915050565b60006134de8383613912565b905092915050565b60006134f283836139b5565b905092915050565b61350381613e9f565b82525050565b61351281613e9f565b82525050565b600061352382613da1565b61352d8185613df4565b93508360208202850161353f85613d71565b8060005b8581101561357b578484038952815161355c85826134be565b945061356783613dcd565b925060208a01995050600181019050613543565b50829750879550505050505092915050565b600061359882613dac565b6135a28185613e05565b9350836020820285016135b485613d81565b8060005b858110156135f057848403895281516135d185826134d2565b94506135dc83613dda565b925060208a019950506001810190506135b8565b50829750879550505050505092915050565b600061360d82613db7565b6136178185613e16565b93508360208202850161362985613d91565b8060005b85811015613665578484038952815161364685826134e6565b945061365183613de7565b925060208a0199505060018101905061362d565b50829750879550505050505092915050565b61368081613eb1565b82525050565b61368f81613eb1565b82525050565b61369e81613f0d565b82525050565b6136ad81613f0d565b82525050565b6136bc81613f1f565b82525050565b6136cb81613f1f565b82525050565b60006136dc82613dc2565b6136e68185613e27565b93506136f6818560208601613f40565b6136ff816140db565b840191505092915050565b600061371582613dc2565b61371f8185613e38565b935061372f818560208601613f40565b613738816140db565b840191505092915050565b6000613750602083613e38565b915061375b826140ec565b602082019050919050565b6000613773601583613e38565b915061377e82614115565b602082019050919050565b6000613796601c83613e38565b91506137a18261413e565b602082019050919050565b60006137b9601783613e38565b91506137c482614167565b602082019050919050565b60006137dc600983613e38565b91506137e782614190565b602082019050919050565b60006137ff601e83613e38565b915061380a826141b9565b602082019050919050565b6000613822602783613e38565b915061382d826141e2565b604082019050919050565b6000613845600b83613e38565b915061385082614231565b602082019050919050565b6000610100830160008301516138746000860182613a58565b506020830151848203602086015261388c82826136d1565b91505060408301516138a160408601826134fa565b50606083015184820360608601526138b982826136d1565b91505060808301516138ce6080860182613695565b5060a08301516138e160a08601826134fa565b5060c08301516138f460c0860182613677565b5060e083015161390760e08601826136b3565b508091505092915050565b600060e08301600083015161392a6000860182613a58565b506020830151848203602086015261394282826136d1565b915050604083015161395760408601826134fa565b506060830151848203606086015261396f82826136d1565b91505060808301516139846080860182613695565b5060a083015161399760a0860182613677565b5060c08301516139aa60c08601826136b3565b508091505092915050565b600060e0830160008301516139cd6000860182613a58565b50602083015184820360208601526139e582826136d1565b91505060408301516139fa60408601826134fa565b5060608301518482036060860152613a1282826136d1565b9150506080830151613a276080860182613695565b5060a0830151613a3a60a0860182613677565b5060c0830151613a4d60c08601826136b3565b508091505092915050565b613a6181613f03565b82525050565b613a7081613f03565b82525050565b6000602082019050613a8b6000830184613509565b92915050565b60006020820190508181036000830152613aab8184613518565b905092915050565b60006020820190508181036000830152613acd818461358d565b905092915050565b60006020820190508181036000830152613aef8184613602565b905092915050565b6000602082019050613b0c6000830184613686565b92915050565b60006020820190508181036000830152613b2b81613743565b9050919050565b60006020820190508181036000830152613b4b81613766565b9050919050565b60006020820190508181036000830152613b6b81613789565b9050919050565b60006020820190508181036000830152613b8b816137ac565b9050919050565b60006020820190508181036000830152613bab816137cf565b9050919050565b60006020820190508181036000830152613bcb816137f2565b9050919050565b60006020820190508181036000830152613beb81613815565b9050919050565b60006020820190508181036000830152613c0b81613838565b9050919050565b600061010082019050613c28600083018b613a67565b8181036020830152613c3a818a61370a565b9050613c496040830189613509565b8181036060830152613c5b818861370a565b9050613c6a60808301876136a4565b613c7760a0830186613509565b613c8460c0830185613686565b613c9160e08301846136c2565b9998505050505050505050565b600060e082019050613cb3600083018a613a67565b8181036020830152613cc5818961370a565b9050613cd46040830188613509565b8181036060830152613ce6818761370a565b9050613cf560808301866136a4565b613d0260a0830185613686565b613d0f60c08301846136c2565b98975050505050505050565b6000613d25613d36565b9050613d318282613fa5565b919050565b6000604051905090565b600067ffffffffffffffff821115613d5b57613d5a6140ac565b5b613d64826140db565b9050602081019050919050565b6000819050602082019050919050565b6000819050602082019050919050565b6000819050602082019050919050565b600081519050919050565b600081519050919050565b600081519050919050565b600081519050919050565b6000602082019050919050565b6000602082019050919050565b6000602082019050919050565b600082825260208201905092915050565b600082825260208201905092915050565b600082825260208201905092915050565b600082825260208201905092915050565b600082825260208201905092915050565b6000613e5482613f03565b9150613e5f83613f03565b9250827fffffffffffffffffffffffffffffffffffffffffffffffffffffffffffffffff03821115613e9457613e9361401f565b5b828201905092915050565b6000613eaa82613ee3565b9050919050565b60008115159050919050565b6000819050613ecb8261425a565b919050565b6000819050613ede8261426e565b919050565b600073ffffffffffffffffffffffffffffffffffffffff82169050919050565b6000819050919050565b6000613f1882613ebd565b9050919050565b6000613f2a82613ed0565b9050919050565b82818337600083830152505050565b60005b83811015613f5e578082015181840152602081019050613f43565b83811115613f6d576000848401525b50505050565b60006002820490506001821680613f8b57607f821691505b60208210811415613f9f57613f9e61407d565b5b50919050565b613fae826140db565b810181811067ffffffffffffffff82111715613fcd57613fcc6140ac565b5b80604052505050565b6000613fe182613f03565b91507fffffffffffffffffffffffffffffffffffffffffffffffffffffffffffffffff8214156140145761401361401f565b5b600182019050919050565b7f4e487b7100000000000000000000000000000000000000000000000000000000600052601160045260246000fd5b7f4e487b7100000000000000000000000000000000000000000000000000000000600052602160045260246000fd5b7f4e487b7100000000000000000000000000000000000000000000000000000000600052602260045260246000fd5b7f4e487b7100000000000000000000000000000000000000000000000000000000600052604160045260246000fd5b6000601f19601f8301169050919050565b7f496e737572616e636520436f6d70616e7920616c726561647920657869737473600082015250565b7f42726f6b657220616c7265616479206578697374730000000000000000000000600082015250565b7f42726f6b657220697320696e206120496e76616c696420737461746500000000600082015250565b7f426f72726f77657220616c726561647920657869737473000000000000000000600082015250565b7f42616e6b204f6e6c790000000000000000000000000000000000000000000000600082015250565b7f426f72726f77657220697320696e206120496e76616c69642073746174650000600082015250565b7f496e737572616e636520436f6d70616e7920697320696e206120496e76616c6960008201527f6420737461746500000000000000000000000000000000000000000000000000602082015250565b7f42726f6b6572204f6e6c79000000000000000000000000000000000000000000600082015250565b6004811061426b5761426a61404e565b5b50565b6003811061427f5761427e61404e565b5b50565b61428b81613e9f565b811461429657600080fd5b5056fea2646970667358221220c7da8cd5287ae43c8da2c70d33ac3a9b418518053452d1765992976dd5a4d03b64736f6c63430008010033",
  "immutableReferences": {},
  "source": "// SPDX-License-Identifier: GPL-3.0\r\npragma solidity >=0.7.0 <0.9.0;\r\n\r\nimport \"@openzeppelin/contracts/access/Ownable.sol\";\r\nimport \"./MicroToken.sol\";\r\nimport \"./UserIdentity.sol\";\r\n\r\ncontract CarRentalOld is Ownable {\r\n\r\n    // Declarations\r\n    // Designing a structure to store the information of ABC Rental company's car fleet \r\n    struct carInfo {\r\n        uint deposit; // Car deposit\r\n        string carPlate; // Car lisence plate\r\n        string carBrand; // Car brand \r\n        string carDescription; // Description about car\r\n        uint carType; // 4 type, determined by room\r\n        bool carAvailable; // Available: true ; Not Available: false\r\n    }\r\n\r\n    // Designing a structure to store the information of renter\r\n    struct renterInfo {\r\n        string renterId; // Renter identity card number\r\n        string renterName; // Renter name\r\n        uint renterAge; // Renter age\r\n        string renterGender; // Renter gender\r\n        address walletAddress; // Wallet address of customer\r\n    }\r\n    \r\n    // Designing a structure to store the car renting history \r\n    struct rentalRecord {\r\n        string carPlate; // Car plate\r\n        string renterId; // Renter identity\r\n        address walletAddress; // Wallet address of customer\r\n        uint startDate;  // Start date\r\n        uint endDate;   // End date\r\n        uint duration;  // Num of days\r\n        bool carReturned; // Car return status \r\n        uint extraFee; // Extra fee\r\n        uint deposit; // deposit\r\n    }\r\n\r\n    address public companyAddress; // the address of the ABC company's account\r\n    uint public contractBalance = 0; // check the contract balance\r\n    uint public carCount = 0; // count the number of the cars added\r\n    uint public customerCount = 0; // count the number of the customers\r\n    uint public recordCount = 0; // count the number of the rental records \r\n\r\n    mapping(uint => carInfo) public cars; // to store the information of each car type\r\n    mapping(uint => renterInfo) public renters; // to store the information of each renter\r\n    mapping(uint => rentalRecord) public records; // to store the rental records\r\n\r\n    // add token management\r\n    MicroToken public tokenSC;  \r\n    // add user identity management\r\n    UserIdentity public identitySC;\r\n    // Constructor\r\n    constructor() {\r\n        companyAddress = msg.sender;\r\n        tokenSC = new MicroToken();\r\n        identitySC = new UserIdentity();\r\n    }\r\n\r\n    // Modifiers  \r\n    modifier isCompany() {\r\n        require(msg.sender == companyAddress, \"It must be company's address\");\r\n        _;\r\n    }\r\n\r\n    // A modifier that uses for the function which can only be called by Borrower.\r\n    modifier isRegisteredCustomer() {\r\n        // Now only borrower can request rent\r\n        require(identitySC.verifyIsBorrower(msg.sender), \"Bank Borrower Only\");\r\n       _;\r\n   }\r\n\r\n    // To check critical car info entered is correct\r\n    modifier infoCorrect(uint carType) {\r\n        bool numvalid = false;\r\n        if (carType == 1 || carType == 2 || carType == 3 || carType == 4) {\r\n            numvalid = true;\r\n        }\r\n        require(numvalid == true, \"There's only 4 types of cars represented by 1 to 4.\");\r\n        _;\r\n    }\r\n\r\n   // Allow ABC Company to add car information\r\n    function addCarInfo(uint deposit, string memory carPlate, string memory carDescription, string memory carBrand, uint carType, bool carAvailable) \r\n    public onlyOwner infoCorrect(carType) {\r\n        bool carPlateUnique = true;\r\n        for (uint i = 0; i < carCount+1; i++) {\r\n            if (keccak256(bytes(cars[i].carPlate)) == keccak256(bytes(carPlate))) {\r\n                carPlateUnique = false;\r\n                break; \r\n            }\r\n        }\r\n        require(carPlateUnique == true, \"Duplicated car license plate number!\");\r\n        // require(msg.value == 5 ether, \"The company has to deposit 5 ETH for each car!\");\r\n\r\n        // Update contract balance\r\n        // contractBalance = contractBalance + msg.value;\r\n\r\n        // Only add if verified car plate has never been uploaded before\r\n        cars[carCount] = carInfo(deposit, carPlate, carDescription, carBrand, carType, carAvailable);\r\n        carCount++;\r\n    }\r\n\r\n    // Allow renter to check car availability\r\n    function checkCarAvail(uint seatType) public view returns(uint[] memory) {\r\n        require(carCount > 0, \"There's no car in company\");\r\n        require(seatType == 1 || seatType == 2 || seatType == 3 || seatType == 4, \"Only provide 4 types of cars! Type 1 can accommodate only 2, type 2 with 3 ~ 5, type 3 with 6 ~ 8, and type 4 can accommodate more than 8\"); \r\n\r\n        uint tempCount;\r\n        for (uint i = 0; i < carCount+1; i++) {\r\n            if (cars[i].carType == seatType && cars[i].carAvailable == true) {\r\n                tempCount++; \r\n            }\r\n        }\r\n\r\n        uint[] memory temp = new uint[](tempCount); \r\n        uint index = 0;\r\n        for (uint i = 0; i < carCount + 1; i++) {\r\n            if (cars[i].carType == seatType && cars[i].carAvailable == true) {\r\n                temp[index] = i; \r\n                index++;\r\n            }\r\n        }\r\n        return temp;\r\n    }\r\n\r\n    // Choose car that is available, Once deposit received from customer, company release car key to customer and key in start date. Contract amount will be reduced.\r\n    // The customer should deposit car deposit + 5TH * num of days they intend to rent \r\n    function rentCar(uint carID, uint duration, string memory Name,\r\n        string memory IDnum, uint renterAge, string memory renterGender, address walletAddress) \r\n        payable public \r\n        // noExtraFee(msg.sender) \r\n        {\r\n\r\n        // To check the car is available\r\n        require(cars[carID].carAvailable == true, \"Car occupied, please pick another.\");\r\n        // require(walletAddress == msg.sender, \"WalletAddress must be identical with message sender!\");\r\n        require(renterAge >= 21, \"No cars for customers under 21.\");\r\n        // require(msg.value >= duration * 5 ether + cars[carID].deposit * 1 ether,\r\n        //      \"Deposit must larger than the sum of car deposit and 5 * duration (in ETH).\");\r\n\r\n        for (uint idx = recordCount; idx > 0; idx--) {\r\n            if ( records[idx-1].walletAddress == walletAddress && records[idx-1].extraFee == 0 ether) {\r\n                require(msg.value >= duration * 5 ether + cars[carID].deposit * 1 ether,\r\n                 \"Deposit must larger than the sum of car deposit and 5 * duration (in ETH).\");\r\n            } else if ( records[idx-1].walletAddress == walletAddress && records[idx-1].extraFee != 0 ether) {\r\n                require(msg.value >= records[idx-1].extraFee + duration * 5 ether + cars[carID].deposit * 1 ether,\r\n                 \"You have to pay for your extrafee. Deposit must larger than the sum of car deposit + 5 * duration (in ETH) + extrafee.\");\r\n            } \r\n        }\r\n\r\n        require(msg.value >= duration * 5 ether + cars[carID].deposit * 1 ether, \"Deposit must larger than the sum of car deposit and 5 * duration (in ETH).\");\r\n        // Update contract balance\r\n        contractBalance = contractBalance + msg.value;\r\n\r\n        bool unique = true;\r\n        // uint start = block.timestamp;\r\n        // uint end = start + (duration * 1 days);\r\n        \r\n        // Customer database: Record customer info if unique\r\n        for (uint i = 0; i < customerCount+1; i++) {\r\n            if (keccak256(bytes(renters[i].renterId)) == keccak256(bytes(IDnum))) {\r\n            unique = false;\r\n            break;\r\n            }\r\n        }\r\n\r\n        if (unique) {\r\n            renters[customerCount] = renterInfo(Name, IDnum, renterAge, renterGender, walletAddress);\r\n            customerCount++;\r\n        }\r\n\r\n        // Car Renting database: record cars that were rented and to which wallet address \r\n        records[recordCount] = rentalRecord(cars[carID].carPlate, IDnum, walletAddress, block.timestamp, \r\n                                            block.timestamp + (duration * 1 days), duration, false, 0, msg.value);\r\n        \r\n        cars[carID].carAvailable = false; // update car availability\r\n        recordCount++;\r\n        \r\n        // As number of car available has reduced by 1, return the 5ETH deposited by company during listing\r\n        uint companyDeposit = 5;\r\n        contractBalance = contractBalance - companyDeposit;\r\n        //companyAddress.transfer(5 ether);\r\n        tokenSC.transferFrom(msg.sender, companyAddress, companyDeposit);\r\n    }\r\n\r\n    // To confirm the car return\r\n    function confirmReturn(string memory carPlate, uint damageCharge, uint returnYear, uint returnMonth, uint returnDay) \r\n        payable public onlyOwner {\r\n        uint recordIndex = 0;\r\n        uint carIndex = 0;\r\n        bool returnValid = false;\r\n        \r\n        // Check records and car list to ensure car is rented by customer, and get the wallet address of the customer\r\n        for (uint i = recordCount; i > 0; i--) {\r\n            if ( keccak256(bytes(records[i-1].carPlate)) == keccak256(bytes(carPlate)) ) {\r\n                recordIndex = i-1;\r\n                returnValid = true;\r\n                break;\r\n            }\r\n        }\r\n        require(returnValid, \"This car is not rented by customer.\");\r\n\r\n        for (uint j = 0; j < carCount; j++) {\r\n            if (keccak256(bytes(cars[j].carPlate)) == keccak256(bytes(carPlate)) ) {\r\n                carIndex = j;\r\n                break;\r\n            }\r\n        }\r\n\r\n        // Final check to make sure this is the right car we looking at. \r\n        require(cars[carIndex].carAvailable == false, \"The car has been rented.\");\r\n        require(records[recordIndex].carReturned == false, \"This car has already been returned.\");\r\n\r\n        // Check date is entered correctly\r\n        require(returnDay <= 31 && returnDay >= 1, \"Check your day entered!\");\r\n        require(returnMonth <= 12 && returnMonth >= 1, \"Check your month entered!\");\r\n        require(returnYear == getYear(block.timestamp), \"Year of return should be the current year now which the car is returned.\");\r\n\r\n        // To confirm the return, the company need send in 5ETH which will be used to relist the car later\r\n        require(msg.value == 5 ether, \"The company needs to send in 5ETH to confirm the car return and relist it.\");\r\n\r\n        // To get the rental information\r\n        address _walletAdd = records[recordIndex].walletAddress;\r\n        uint num_of_days = records[recordIndex].duration;\r\n        uint rent = 1;\r\n        uint additionalCharge = 1; \r\n        uint surplusAmt = 0;\r\n        uint lateFee = 0;\r\n        // uint returnDate = block.timestamp;\r\n        uint returnDate = timestampFromDate(returnYear, returnMonth, returnDay);\r\n        uint deposit = 0 ether;\r\n\r\n        // Update the return date in records\r\n        records[recordIndex].endDate = returnDate;\r\n\r\n        // check car type\r\n        if (cars[carIndex].carType == 1) {\t\t\t\t\t\t\t\t\t\t\t   \r\n            rent = 2 ether;\r\n        } \r\n        else if (cars[carIndex].carType == 2) {\r\n            rent = 3 ether;\r\n        } \r\n        else if (cars[carIndex].carType == 3) {\r\n            rent = 4 ether;\r\n        } \r\n        else if (cars[carIndex].carType == 4) {\r\n            rent = 5 ether;\r\n        }\r\n\r\n        // Check if the car is returned late by calculating the days difference \r\n        //between startDate and endDate, and compare with numOfDays that user intended to rent.\r\n        uint totalRentedDays = differentDays(records[recordIndex].startDate, returnDate);\r\n\r\n        if(totalRentedDays > num_of_days) {\r\n            lateFee = rent * (totalRentedDays - num_of_days); //charge rent * number of days late\r\n        }\r\n\r\n        // To calculate the total renting cost\r\n        additionalCharge = additionalCharge * damageCharge; // convert to ether\r\n        uint fee = num_of_days * rent + additionalCharge + lateFee;\r\n\r\n        // update avail of the car by changing state to available\r\n        cars[carIndex].carAvailable = true;\r\n\r\n        // Update record\r\n        records[recordIndex].carReturned = true;\r\n\r\n        // Update the transfer of 5 ETH from company account to relist the car. \r\n        contractBalance = contractBalance + 5;\r\n        // deposit = cars[carIndex].deposit * 1 ether;\r\n        deposit = records[recordIndex].deposit;\r\n        // Check if deposit can cover the total fee\r\n        if (deposit <= fee) {\r\n            // log the deficit that we require from the user\r\n            records[recordIndex].extraFee = fee - deposit; \r\n            // No surplus and we take all the deposit \r\n            // surplusAmt = 0 ether;\r\n            contractBalance = contractBalance - deposit; \r\n            //companyAddress.transfer(deposit);\r\n            tokenSC.transferFrom(_walletAdd, companyAddress, deposit);\r\n        }\r\n        else { \r\n            surplusAmt = deposit - fee;\r\n            // update contractbalance\r\n            contractBalance = contractBalance - surplusAmt;\r\n            contractBalance = contractBalance - fee;\r\n            // Transfer surplus to customer\r\n            //_walletAdd.transfer(surplusAmt);\r\n            tokenSC.transferFrom(companyAddress, _walletAdd, surplusAmt);\r\n            // Transfer fee earnings to company\r\n            //companyAddress.transfer(fee);     \r\n            tokenSC.transferFrom(_walletAdd, companyAddress, fee);       \r\n        }\r\n        // Ensure no overflow for the surplus, definitely will be between 0 and a value less than the deposit\r\n        require(surplusAmt >= 0 && surplusAmt < deposit, \"Customer's deposit not enough to cover the additional damage charge, topup required!\");\r\n        }\r\n\r\n       \r\n    // Pay extra fees if needed\r\n    function CheckPayExtraFee(address walletAdd)  \r\n    payable public {\r\n        require(msg.sender == walletAdd, \"You have to be the owner of the wallet address to pay for the extra fees.\");\r\n\r\n        address _walletAdd = walletAdd;\r\n\r\n        bool needPay = true; //Do we need to pay outstanding fee\r\n        uint index = 0;\r\n        uint surplus = 0 ether;\r\n\r\n        for (uint idx = recordCount; idx > 0; idx--) {\r\n            if (records[idx-1].walletAddress != walletAdd) {\r\n                break;\r\n            } else if (records[idx-1].extraFee == 0 ether) {\r\n                //If the latest rentor record available for this wallet address shows no outstanding fee, renter is allowed to rent \r\n                needPay = false;\r\n                break;\r\n            } else {\r\n                //records[idx-1].extraFee != 0\r\n                // found the record index where this wallet address has an extra fine\r\n                index = idx -1;\r\n            }\r\n        }\r\n\r\n        require(needPay == true, \"You have no extra fees to pay! You can go ahead and rent a car!\");\r\n\r\n        if (records[index].extraFee > 0 ether) {\r\n            require(msg.value >= records[index].extraFee, string(abi.encodePacked(\"Please pay for the extra fee ether: \", uint2str(records[index].extraFee/1000000000000000000))));\r\n            surplus = msg.value - records[index].extraFee;\r\n            records[index].extraFee = 0 ether;\r\n            // companyAddress.transfer(records[index].extraFee); \r\n            // _walletAdd.transfer(surplus);\r\n            tokenSC.transferFrom(records[index].walletAddress, companyAddress, records[index].extraFee);\r\n            tokenSC.transferFrom(companyAddress, companyAddress, surplus);\r\n\r\n        }\r\n\r\n        require(recordCount > 0, \"There is no extra associated fee so far!\");\r\n\r\n    }\r\n\r\n    // helper function\r\n    // Convert uint256 to string\r\n    function uint2str(uint256 _i) internal pure returns (string memory str) {\r\n      if (_i == 0) {\r\n        return \"0\";\r\n        }\r\n        uint256 j = _i;\r\n        uint256 length;\r\n        while (j != 0) {\r\n          length++;\r\n          j /= 10;\r\n          }\r\n          bytes memory bstr = new bytes(length);\r\n          uint256 k = length;\r\n          j = _i;\r\n          while (j != 0) {\r\n            bstr[--k] = bytes1(uint8(48 + j % 10));\r\n            j /= 10;\r\n            }\r\n            str = string(bstr);\r\n    }\r\n\r\n    function _daysFromDate(uint year, uint month, uint day) internal pure returns (uint _days) {\r\n        int OFFSET19700101 = 2440588;\r\n        require(year >= 1970);\r\n        int _year = int(year);\r\n        int _month = int(month);\r\n        int _day = int(day);\r\n\r\n        int __days = _day\r\n        - 32075\r\n        + 1461 * (_year + 4800 + (_month - 14) / 12) / 4\r\n        + 367 * (_month - 2 - (_month - 14) / 12 * 12) / 12\r\n        - 3 * ((_year + 4900 + (_month - 14) / 12) / 100) / 4\r\n        - OFFSET19700101;\r\n\r\n        _days = uint(__days);\r\n    }\r\n\r\n    function timestampFromDate(uint year, uint month, uint day) internal pure returns (uint timestamp) {\r\n        uint SECONDS_PER_DAY = 24 * 60 * 60;\r\n        timestamp = _daysFromDate(year, month, day) * SECONDS_PER_DAY;\r\n    }\r\n\r\n    function differentDays(uint fromTimestamp, uint toTimestamp) internal pure returns (uint _days) {\r\n        uint SECONDS_PER_DAY = 24 * 60 * 60;\r\n        require(fromTimestamp <= toTimestamp);\r\n        _days = (toTimestamp - fromTimestamp) / SECONDS_PER_DAY;\r\n    }\r\n\r\n    function getYear(uint timestamp) internal pure returns (uint year) {\r\n        uint secondsAccounted = 0;\r\n        uint numLeapYears;\r\n        uint16 ORIGIN_YEAR = 1970;\r\n        uint YEAR_IN_SECONDS = 31536000;\r\n        uint LEAP_YEAR_IN_SECONDS = 31622400;\r\n \r\n        // Year\r\n        year = uint16(ORIGIN_YEAR + timestamp / YEAR_IN_SECONDS);\r\n        numLeapYears = leapYearsBefore(year) - leapYearsBefore(ORIGIN_YEAR);\r\n \r\n        secondsAccounted += LEAP_YEAR_IN_SECONDS * numLeapYears;\r\n        secondsAccounted += YEAR_IN_SECONDS * (year - ORIGIN_YEAR - numLeapYears);\r\n \r\n        while (secondsAccounted > timestamp) {\r\n            if (isLeapYear(uint16(year - 1))) {\r\n                secondsAccounted -= LEAP_YEAR_IN_SECONDS;\r\n            }\r\n            else {\r\n                secondsAccounted -= YEAR_IN_SECONDS;\r\n            }\r\n            year -= 1;\r\n        }\r\n        return year;\r\n    }\r\n\r\n    //To calculate the leap year before the input year\r\n    function leapYearsBefore(uint year) public pure returns (uint) {\r\n        year -= 1;\r\n        return year / 4 - year / 100 + year / 400;\r\n    }\r\n\r\n    //To check if the year inputed is a leapyear\r\n    function isLeapYear(uint16 year) public pure returns (bool) {\r\n        if (year % 4 != 0) {\r\n            return false;\r\n        }\r\n        if (year % 100 != 0) {\r\n            return true;\r\n        }\r\n        if (year % 400 != 0) {\r\n            return false;\r\n        }\r\n        return true;\r\n    }\r\n}",
  "sourcePath": "D:\\NTU\\Course\\S2\\CI6236-BLOCKCHAIN SYSTEM SOFTWARE ENGINEERING\\bc_project\\blockchain\\contracts\\CarRental_old.sol",
  "compiler": {
    "name": "solc",
    "version": "0.8.1+commit.df193b15.Emscripten.clang"
  },
  "schemaVersion": "3.4.6",
  "updatedAt": "2022-04-11T03:32:02.542Z",
  "devdoc": {
    "kind": "dev",
    "methods": {
      "owner()": {
        "details": "Returns the address of the current owner."
      },
      "renounceOwnership()": {
        "details": "Leaves the contract without owner. It will not be possible to call `onlyOwner` functions anymore. Can only be called by the current owner. NOTE: Renouncing ownership will leave the contract without an owner, thereby removing any functionality that is only available to the owner."
      },
      "transferOwnership(address)": {
        "details": "Transfers ownership of the contract to a new account (`newOwner`). Can only be called by the current owner."
      }
    },
    "version": 1
  },
  "userdoc": {
    "kind": "user",
    "methods": {},
    "version": 1
  }
}